{
	"data": {
		"bytecode": {
			"linkReferences": {},
			"object": "608060405234801561001057600080fd5b50611308806100206000396000f3fe608060405234801561001057600080fd5b50600436106100625760003560e01c80634a9760e11461006757806375647ac614610097578063cb0ab425146100c7578063e1e322ed146100f7578063e939567914610127578063f0faed4314610157575b600080fd5b610081600480360381019061007c9190610804565b610187565b60405161008e9190610964565b60405180910390f35b6100b160048036038101906100ac9190610986565b6101df565b6040516100be9190610964565b60405180910390f35b6100e160048036038101906100dc9190610a24565b6102bf565b6040516100ee9190610964565b60405180910390f35b610111600480360381019061010c9190610a24565b61041c565b60405161011e9190610964565b60405180910390f35b610141600480360381019061013c9190610a51565b6104bc565b60405161014e9190610964565b60405180910390f35b610171600480360381019061016c9190610a7e565b61061c565b60405161017e9190610af5565b60405180910390f35b606060006101968560026101df565b9050876101a2886104bc565b8783876101ae886104bc565b6040516020016101c396959493929190610b4c565b6040516020818303038152906040529150509695505050505050565b606060008303610226576040518060400160405280600181526020017f300000000000000000000000000000000000000000000000000000000000000081525090506102b9565b600082600a6102359190610d06565b846102409190610d80565b9050600083600a6102519190610d06565b8561025c9190610db1565b90506000610269836104bc565b90506000610276836104bc565b9050606060008411156102ac578282604051602001610296929190610e2e565b60405160208183030381529060405290506102b0565b8290505b80955050505050505b92915050565b606060008060008473ffffffffffffffffffffffffffffffffffffffff1673ffffffffffffffffffffffffffffffffffffffff168152602001908152602001600020805461030c90610e8c565b90501161034e576040517f08c379a000000000000000000000000000000000000000000000000000000000815260040161034590610f55565b60405180910390fd5b6000808373ffffffffffffffffffffffffffffffffffffffff1673ffffffffffffffffffffffffffffffffffffffff168152602001908152602001600020805461039790610e8c565b80601f01602080910402602001604051908101604052809291908181526020018280546103c390610e8c565b80156104105780601f106103e557610100808354040283529160200191610410565b820191906000526020600020905b8154815290600101906020018083116103f357829003601f168201915b50505050509050919050565b6000602052806000526040600020600091509050805461043b90610e8c565b80601f016020809104026020016040519081016040528092919081815260200182805461046790610e8c565b80156104b45780601f10610489576101008083540402835291602001916104b4565b820191906000526020600020905b81548152906001019060200180831161049757829003601f168201915b505050505081565b606060008203610503576040518060400160405280600181526020017f30000000000000000000000000000000000000000000000000000000000000008152509050610617565b600082905060005b6000821461053557808061051e90610f75565b915050600a8261052e9190610d80565b915061050b565b60008167ffffffffffffffff811115610551576105506106a3565b5b6040519080825280601f01601f1916602001820160405280156105835781602001600182028036833780820191505090505b5090505b600085146106105760018261059c9190610fbd565b9150600a856105ab9190610db1565b60306105b79190610ff1565b60f81b8183815181106105cd576105cc611025565b5b60200101907effffffffffffffffffffffffffffffffffffffffffffffffffffffffffffff1916908160001a905350600a856106099190610d80565b9450610587565b8093505050505b919050565b6000816000808573ffffffffffffffffffffffffffffffffffffffff1673ffffffffffffffffffffffffffffffffffffffff16815260200190815260200160002090816106699190611200565b506001905092915050565b6000604051905090565b600080fd5b600080fd5b600080fd5b600080fd5b6000601f19601f8301169050919050565b7f4e487b7100000000000000000000000000000000000000000000000000000000600052604160045260246000fd5b6106db82610692565b810181811067ffffffffffffffff821117156106fa576106f96106a3565b5b80604052505050565b600061070d610674565b905061071982826106d2565b919050565b600067ffffffffffffffff821115610739576107386106a3565b5b61074282610692565b9050602081019050919050565b82818337600083830152505050565b600061077161076c8461071e565b610703565b90508281526020810184848401111561078d5761078c61068d565b5b61079884828561074f565b509392505050565b600082601f8301126107b5576107b4610688565b5b81356107c584826020860161075e565b91505092915050565b6000819050919050565b6107e1816107ce565b81146107ec57600080fd5b50565b6000813590506107fe816107d8565b92915050565b60008060008060008060c087890312156108215761082061067e565b5b600087013567ffffffffffffffff81111561083f5761083e610683565b5b61084b89828a016107a0565b965050602061085c89828a016107ef565b955050604087013567ffffffffffffffff81111561087d5761087c610683565b5b61088989828a016107a0565b945050606061089a89828a016107ef565b935050608087013567ffffffffffffffff8111156108bb576108ba610683565b5b6108c789828a016107a0565b92505060a06108d889828a016107ef565b9150509295509295509295565b600081519050919050565b600082825260208201905092915050565b60005b8381101561091f578082015181840152602081019050610904565b60008484015250505050565b6000610936826108e5565b61094081856108f0565b9350610950818560208601610901565b61095981610692565b840191505092915050565b6000602082019050818103600083015261097e818461092b565b905092915050565b6000806040838503121561099d5761099c61067e565b5b60006109ab858286016107ef565b92505060206109bc858286016107ef565b9150509250929050565b600073ffffffffffffffffffffffffffffffffffffffff82169050919050565b60006109f1826109c6565b9050919050565b610a01816109e6565b8114610a0c57600080fd5b50565b600081359050610a1e816109f8565b92915050565b600060208284031215610a3a57610a3961067e565b5b6000610a4884828501610a0f565b91505092915050565b600060208284031215610a6757610a6661067e565b5b6000610a75848285016107ef565b91505092915050565b60008060408385031215610a9557610a9461067e565b5b6000610aa385828601610a0f565b925050602083013567ffffffffffffffff811115610ac457610ac3610683565b5b610ad0858286016107a0565b9150509250929050565b60008115159050919050565b610aef81610ada565b82525050565b6000602082019050610b0a6000830184610ae6565b92915050565b600081905092915050565b6000610b26826108e5565b610b308185610b10565b9350610b40818560208601610901565b80840191505092915050565b6000610b588289610b1b565b9150610b648288610b1b565b9150610b708287610b1b565b9150610b7c8286610b1b565b9150610b888285610b1b565b9150610b948284610b1b565b9150819050979650505050505050565b7f4e487b7100000000000000000000000000000000000000000000000000000000600052601160045260246000fd5b60008160011c9050919050565b6000808291508390505b6001851115610c2a57808604811115610c0657610c05610ba4565b5b6001851615610c155780820291505b8081029050610c2385610bd3565b9450610bea565b94509492505050565b600082610c435760019050610cff565b81610c515760009050610cff565b8160018114610c675760028114610c7157610ca0565b6001915050610cff565b60ff841115610c8357610c82610ba4565b5b8360020a915084821115610c9a57610c99610ba4565b5b50610cff565b5060208310610133831016604e8410600b8410161715610cd55782820a905083811115610cd057610ccf610ba4565b5b610cff565b610ce28484846001610be0565b92509050818404811115610cf957610cf8610ba4565b5b81810290505b9392505050565b6000610d11826107ce565b9150610d1c836107ce565b9250610d497fffffffffffffffffffffffffffffffffffffffffffffffffffffffffffffffff8484610c33565b905092915050565b7f4e487b7100000000000000000000000000000000000000000000000000000000600052601260045260246000fd5b6000610d8b826107ce565b9150610d96836107ce565b925082610da657610da5610d51565b5b828204905092915050565b6000610dbc826107ce565b9150610dc7836107ce565b925082610dd757610dd6610d51565b5b828206905092915050565b7f2e00000000000000000000000000000000000000000000000000000000000000600082015250565b6000610e18600183610b10565b9150610e2382610de2565b600182019050919050565b6000610e3a8285610b1b565b9150610e4582610e0b565b9150610e518284610b1b565b91508190509392505050565b7f4e487b7100000000000000000000000000000000000000000000000000000000600052602260045260246000fd5b60006002820490506001821680610ea457607f821691505b602082108103610eb757610eb6610e5d565b5b50919050565b7f495046532068617368206e6f7420666f756e6420666f7220746865206163636f60008201527f756e742e20506c6561736520736176652049504653486173682061626f75742060208201527f74686973206163636f756e742e00000000000000000000000000000000000000604082015250565b6000610f3f604d836108f0565b9150610f4a82610ebd565b606082019050919050565b60006020820190508181036000830152610f6e81610f32565b9050919050565b6000610f80826107ce565b91507fffffffffffffffffffffffffffffffffffffffffffffffffffffffffffffffff8203610fb257610fb1610ba4565b5b600182019050919050565b6000610fc8826107ce565b9150610fd3836107ce565b9250828203905081811115610feb57610fea610ba4565b5b92915050565b6000610ffc826107ce565b9150611007836107ce565b925082820190508082111561101f5761101e610ba4565b5b92915050565b7f4e487b7100000000000000000000000000000000000000000000000000000000600052603260045260246000fd5b60008190508160005260206000209050919050565b60006020601f8301049050919050565b600082821b905092915050565b6000600883026110b67fffffffffffffffffffffffffffffffffffffffffffffffffffffffffffffffff82611079565b6110c08683611079565b95508019841693508086168417925050509392505050565b6000819050919050565b60006110fd6110f86110f3846107ce565b6110d8565b6107ce565b9050919050565b6000819050919050565b611117836110e2565b61112b61112382611104565b848454611086565b825550505050565b600090565b611140611133565b61114b81848461110e565b505050565b5b8181101561116f57611164600082611138565b600181019050611151565b5050565b601f8211156111b45761118581611054565b61118e84611069565b8101602085101561119d578190505b6111b16111a985611069565b830182611150565b50505b505050565b600082821c905092915050565b60006111d7600019846008026111b9565b1980831691505092915050565b60006111f083836111c6565b9150826002028217905092915050565b611209826108e5565b67ffffffffffffffff811115611222576112216106a3565b5b61122c8254610e8c565b611237828285611173565b600060209050601f83116001811461126a5760008415611258578287015190505b61126285826111e4565b8655506112ca565b601f19841661127886611054565b60005b828110156112a05784890151825560018201915060208501945060208101905061127b565b868310156112bd57848901516112b9601f8916826111c6565b8355505b6001600288020188555050505b50505050505056fea2646970667358221220f72b902a5063caaf2fb06f35acba9f1205718a3e414109972357dcca74d818f564736f6c63430008120033",
			"opcodes": "PUSH1 0x80 PUSH1 0x40 MSTORE CALLVALUE DUP1 ISZERO PUSH2 0x10 JUMPI PUSH1 0x0 DUP1 REVERT JUMPDEST POP PUSH2 0x1308 DUP1 PUSH2 0x20 PUSH1 0x0 CODECOPY PUSH1 0x0 RETURN INVALID PUSH1 0x80 PUSH1 0x40 MSTORE CALLVALUE DUP1 ISZERO PUSH2 0x10 JUMPI PUSH1 0x0 DUP1 REVERT JUMPDEST POP PUSH1 0x4 CALLDATASIZE LT PUSH2 0x62 JUMPI PUSH1 0x0 CALLDATALOAD PUSH1 0xE0 SHR DUP1 PUSH4 0x4A9760E1 EQ PUSH2 0x67 JUMPI DUP1 PUSH4 0x75647AC6 EQ PUSH2 0x97 JUMPI DUP1 PUSH4 0xCB0AB425 EQ PUSH2 0xC7 JUMPI DUP1 PUSH4 0xE1E322ED EQ PUSH2 0xF7 JUMPI DUP1 PUSH4 0xE9395679 EQ PUSH2 0x127 JUMPI DUP1 PUSH4 0xF0FAED43 EQ PUSH2 0x157 JUMPI JUMPDEST PUSH1 0x0 DUP1 REVERT JUMPDEST PUSH2 0x81 PUSH1 0x4 DUP1 CALLDATASIZE SUB DUP2 ADD SWAP1 PUSH2 0x7C SWAP2 SWAP1 PUSH2 0x804 JUMP JUMPDEST PUSH2 0x187 JUMP JUMPDEST PUSH1 0x40 MLOAD PUSH2 0x8E SWAP2 SWAP1 PUSH2 0x964 JUMP JUMPDEST PUSH1 0x40 MLOAD DUP1 SWAP2 SUB SWAP1 RETURN JUMPDEST PUSH2 0xB1 PUSH1 0x4 DUP1 CALLDATASIZE SUB DUP2 ADD SWAP1 PUSH2 0xAC SWAP2 SWAP1 PUSH2 0x986 JUMP JUMPDEST PUSH2 0x1DF JUMP JUMPDEST PUSH1 0x40 MLOAD PUSH2 0xBE SWAP2 SWAP1 PUSH2 0x964 JUMP JUMPDEST PUSH1 0x40 MLOAD DUP1 SWAP2 SUB SWAP1 RETURN JUMPDEST PUSH2 0xE1 PUSH1 0x4 DUP1 CALLDATASIZE SUB DUP2 ADD SWAP1 PUSH2 0xDC SWAP2 SWAP1 PUSH2 0xA24 JUMP JUMPDEST PUSH2 0x2BF JUMP JUMPDEST PUSH1 0x40 MLOAD PUSH2 0xEE SWAP2 SWAP1 PUSH2 0x964 JUMP JUMPDEST PUSH1 0x40 MLOAD DUP1 SWAP2 SUB SWAP1 RETURN JUMPDEST PUSH2 0x111 PUSH1 0x4 DUP1 CALLDATASIZE SUB DUP2 ADD SWAP1 PUSH2 0x10C SWAP2 SWAP1 PUSH2 0xA24 JUMP JUMPDEST PUSH2 0x41C JUMP JUMPDEST PUSH1 0x40 MLOAD PUSH2 0x11E SWAP2 SWAP1 PUSH2 0x964 JUMP JUMPDEST PUSH1 0x40 MLOAD DUP1 SWAP2 SUB SWAP1 RETURN JUMPDEST PUSH2 0x141 PUSH1 0x4 DUP1 CALLDATASIZE SUB DUP2 ADD SWAP1 PUSH2 0x13C SWAP2 SWAP1 PUSH2 0xA51 JUMP JUMPDEST PUSH2 0x4BC JUMP JUMPDEST PUSH1 0x40 MLOAD PUSH2 0x14E SWAP2 SWAP1 PUSH2 0x964 JUMP JUMPDEST PUSH1 0x40 MLOAD DUP1 SWAP2 SUB SWAP1 RETURN JUMPDEST PUSH2 0x171 PUSH1 0x4 DUP1 CALLDATASIZE SUB DUP2 ADD SWAP1 PUSH2 0x16C SWAP2 SWAP1 PUSH2 0xA7E JUMP JUMPDEST PUSH2 0x61C JUMP JUMPDEST PUSH1 0x40 MLOAD PUSH2 0x17E SWAP2 SWAP1 PUSH2 0xAF5 JUMP JUMPDEST PUSH1 0x40 MLOAD DUP1 SWAP2 SUB SWAP1 RETURN JUMPDEST PUSH1 0x60 PUSH1 0x0 PUSH2 0x196 DUP6 PUSH1 0x2 PUSH2 0x1DF JUMP JUMPDEST SWAP1 POP DUP8 PUSH2 0x1A2 DUP9 PUSH2 0x4BC JUMP JUMPDEST DUP8 DUP4 DUP8 PUSH2 0x1AE DUP9 PUSH2 0x4BC JUMP JUMPDEST PUSH1 0x40 MLOAD PUSH1 0x20 ADD PUSH2 0x1C3 SWAP7 SWAP6 SWAP5 SWAP4 SWAP3 SWAP2 SWAP1 PUSH2 0xB4C JUMP JUMPDEST PUSH1 0x40 MLOAD PUSH1 0x20 DUP2 DUP4 SUB SUB DUP2 MSTORE SWAP1 PUSH1 0x40 MSTORE SWAP2 POP POP SWAP7 SWAP6 POP POP POP POP POP POP JUMP JUMPDEST PUSH1 0x60 PUSH1 0x0 DUP4 SUB PUSH2 0x226 JUMPI PUSH1 0x40 MLOAD DUP1 PUSH1 0x40 ADD PUSH1 0x40 MSTORE DUP1 PUSH1 0x1 DUP2 MSTORE PUSH1 0x20 ADD PUSH32 0x3000000000000000000000000000000000000000000000000000000000000000 DUP2 MSTORE POP SWAP1 POP PUSH2 0x2B9 JUMP JUMPDEST PUSH1 0x0 DUP3 PUSH1 0xA PUSH2 0x235 SWAP2 SWAP1 PUSH2 0xD06 JUMP JUMPDEST DUP5 PUSH2 0x240 SWAP2 SWAP1 PUSH2 0xD80 JUMP JUMPDEST SWAP1 POP PUSH1 0x0 DUP4 PUSH1 0xA PUSH2 0x251 SWAP2 SWAP1 PUSH2 0xD06 JUMP JUMPDEST DUP6 PUSH2 0x25C SWAP2 SWAP1 PUSH2 0xDB1 JUMP JUMPDEST SWAP1 POP PUSH1 0x0 PUSH2 0x269 DUP4 PUSH2 0x4BC JUMP JUMPDEST SWAP1 POP PUSH1 0x0 PUSH2 0x276 DUP4 PUSH2 0x4BC JUMP JUMPDEST SWAP1 POP PUSH1 0x60 PUSH1 0x0 DUP5 GT ISZERO PUSH2 0x2AC JUMPI DUP3 DUP3 PUSH1 0x40 MLOAD PUSH1 0x20 ADD PUSH2 0x296 SWAP3 SWAP2 SWAP1 PUSH2 0xE2E JUMP JUMPDEST PUSH1 0x40 MLOAD PUSH1 0x20 DUP2 DUP4 SUB SUB DUP2 MSTORE SWAP1 PUSH1 0x40 MSTORE SWAP1 POP PUSH2 0x2B0 JUMP JUMPDEST DUP3 SWAP1 POP JUMPDEST DUP1 SWAP6 POP POP POP POP POP POP JUMPDEST SWAP3 SWAP2 POP POP JUMP JUMPDEST PUSH1 0x60 PUSH1 0x0 DUP1 PUSH1 0x0 DUP5 PUSH20 0xFFFFFFFFFFFFFFFFFFFFFFFFFFFFFFFFFFFFFFFF AND PUSH20 0xFFFFFFFFFFFFFFFFFFFFFFFFFFFFFFFFFFFFFFFF AND DUP2 MSTORE PUSH1 0x20 ADD SWAP1 DUP2 MSTORE PUSH1 0x20 ADD PUSH1 0x0 KECCAK256 DUP1 SLOAD PUSH2 0x30C SWAP1 PUSH2 0xE8C JUMP JUMPDEST SWAP1 POP GT PUSH2 0x34E JUMPI PUSH1 0x40 MLOAD PUSH32 0x8C379A000000000000000000000000000000000000000000000000000000000 DUP2 MSTORE PUSH1 0x4 ADD PUSH2 0x345 SWAP1 PUSH2 0xF55 JUMP JUMPDEST PUSH1 0x40 MLOAD DUP1 SWAP2 SUB SWAP1 REVERT JUMPDEST PUSH1 0x0 DUP1 DUP4 PUSH20 0xFFFFFFFFFFFFFFFFFFFFFFFFFFFFFFFFFFFFFFFF AND PUSH20 0xFFFFFFFFFFFFFFFFFFFFFFFFFFFFFFFFFFFFFFFF AND DUP2 MSTORE PUSH1 0x20 ADD SWAP1 DUP2 MSTORE PUSH1 0x20 ADD PUSH1 0x0 KECCAK256 DUP1 SLOAD PUSH2 0x397 SWAP1 PUSH2 0xE8C JUMP JUMPDEST DUP1 PUSH1 0x1F ADD PUSH1 0x20 DUP1 SWAP2 DIV MUL PUSH1 0x20 ADD PUSH1 0x40 MLOAD SWAP1 DUP2 ADD PUSH1 0x40 MSTORE DUP1 SWAP3 SWAP2 SWAP1 DUP2 DUP2 MSTORE PUSH1 0x20 ADD DUP3 DUP1 SLOAD PUSH2 0x3C3 SWAP1 PUSH2 0xE8C JUMP JUMPDEST DUP1 ISZERO PUSH2 0x410 JUMPI DUP1 PUSH1 0x1F LT PUSH2 0x3E5 JUMPI PUSH2 0x100 DUP1 DUP4 SLOAD DIV MUL DUP4 MSTORE SWAP2 PUSH1 0x20 ADD SWAP2 PUSH2 0x410 JUMP JUMPDEST DUP3 ADD SWAP2 SWAP1 PUSH1 0x0 MSTORE PUSH1 0x20 PUSH1 0x0 KECCAK256 SWAP1 JUMPDEST DUP2 SLOAD DUP2 MSTORE SWAP1 PUSH1 0x1 ADD SWAP1 PUSH1 0x20 ADD DUP1 DUP4 GT PUSH2 0x3F3 JUMPI DUP3 SWAP1 SUB PUSH1 0x1F AND DUP3 ADD SWAP2 JUMPDEST POP POP POP POP POP SWAP1 POP SWAP2 SWAP1 POP JUMP JUMPDEST PUSH1 0x0 PUSH1 0x20 MSTORE DUP1 PUSH1 0x0 MSTORE PUSH1 0x40 PUSH1 0x0 KECCAK256 PUSH1 0x0 SWAP2 POP SWAP1 POP DUP1 SLOAD PUSH2 0x43B SWAP1 PUSH2 0xE8C JUMP JUMPDEST DUP1 PUSH1 0x1F ADD PUSH1 0x20 DUP1 SWAP2 DIV MUL PUSH1 0x20 ADD PUSH1 0x40 MLOAD SWAP1 DUP2 ADD PUSH1 0x40 MSTORE DUP1 SWAP3 SWAP2 SWAP1 DUP2 DUP2 MSTORE PUSH1 0x20 ADD DUP3 DUP1 SLOAD PUSH2 0x467 SWAP1 PUSH2 0xE8C JUMP JUMPDEST DUP1 ISZERO PUSH2 0x4B4 JUMPI DUP1 PUSH1 0x1F LT PUSH2 0x489 JUMPI PUSH2 0x100 DUP1 DUP4 SLOAD DIV MUL DUP4 MSTORE SWAP2 PUSH1 0x20 ADD SWAP2 PUSH2 0x4B4 JUMP JUMPDEST DUP3 ADD SWAP2 SWAP1 PUSH1 0x0 MSTORE PUSH1 0x20 PUSH1 0x0 KECCAK256 SWAP1 JUMPDEST DUP2 SLOAD DUP2 MSTORE SWAP1 PUSH1 0x1 ADD SWAP1 PUSH1 0x20 ADD DUP1 DUP4 GT PUSH2 0x497 JUMPI DUP3 SWAP1 SUB PUSH1 0x1F AND DUP3 ADD SWAP2 JUMPDEST POP POP POP POP POP DUP2 JUMP JUMPDEST PUSH1 0x60 PUSH1 0x0 DUP3 SUB PUSH2 0x503 JUMPI PUSH1 0x40 MLOAD DUP1 PUSH1 0x40 ADD PUSH1 0x40 MSTORE DUP1 PUSH1 0x1 DUP2 MSTORE PUSH1 0x20 ADD PUSH32 0x3000000000000000000000000000000000000000000000000000000000000000 DUP2 MSTORE POP SWAP1 POP PUSH2 0x617 JUMP JUMPDEST PUSH1 0x0 DUP3 SWAP1 POP PUSH1 0x0 JUMPDEST PUSH1 0x0 DUP3 EQ PUSH2 0x535 JUMPI DUP1 DUP1 PUSH2 0x51E SWAP1 PUSH2 0xF75 JUMP JUMPDEST SWAP2 POP POP PUSH1 0xA DUP3 PUSH2 0x52E SWAP2 SWAP1 PUSH2 0xD80 JUMP JUMPDEST SWAP2 POP PUSH2 0x50B JUMP JUMPDEST PUSH1 0x0 DUP2 PUSH8 0xFFFFFFFFFFFFFFFF DUP2 GT ISZERO PUSH2 0x551 JUMPI PUSH2 0x550 PUSH2 0x6A3 JUMP JUMPDEST JUMPDEST PUSH1 0x40 MLOAD SWAP1 DUP1 DUP3 MSTORE DUP1 PUSH1 0x1F ADD PUSH1 0x1F NOT AND PUSH1 0x20 ADD DUP3 ADD PUSH1 0x40 MSTORE DUP1 ISZERO PUSH2 0x583 JUMPI DUP2 PUSH1 0x20 ADD PUSH1 0x1 DUP3 MUL DUP1 CALLDATASIZE DUP4 CALLDATACOPY DUP1 DUP3 ADD SWAP2 POP POP SWAP1 POP JUMPDEST POP SWAP1 POP JUMPDEST PUSH1 0x0 DUP6 EQ PUSH2 0x610 JUMPI PUSH1 0x1 DUP3 PUSH2 0x59C SWAP2 SWAP1 PUSH2 0xFBD JUMP JUMPDEST SWAP2 POP PUSH1 0xA DUP6 PUSH2 0x5AB SWAP2 SWAP1 PUSH2 0xDB1 JUMP JUMPDEST PUSH1 0x30 PUSH2 0x5B7 SWAP2 SWAP1 PUSH2 0xFF1 JUMP JUMPDEST PUSH1 0xF8 SHL DUP2 DUP4 DUP2 MLOAD DUP2 LT PUSH2 0x5CD JUMPI PUSH2 0x5CC PUSH2 0x1025 JUMP JUMPDEST JUMPDEST PUSH1 0x20 ADD ADD SWAP1 PUSH31 0xFFFFFFFFFFFFFFFFFFFFFFFFFFFFFFFFFFFFFFFFFFFFFFFFFFFFFFFFFFFFFF NOT AND SWAP1 DUP2 PUSH1 0x0 BYTE SWAP1 MSTORE8 POP PUSH1 0xA DUP6 PUSH2 0x609 SWAP2 SWAP1 PUSH2 0xD80 JUMP JUMPDEST SWAP5 POP PUSH2 0x587 JUMP JUMPDEST DUP1 SWAP4 POP POP POP POP JUMPDEST SWAP2 SWAP1 POP JUMP JUMPDEST PUSH1 0x0 DUP2 PUSH1 0x0 DUP1 DUP6 PUSH20 0xFFFFFFFFFFFFFFFFFFFFFFFFFFFFFFFFFFFFFFFF AND PUSH20 0xFFFFFFFFFFFFFFFFFFFFFFFFFFFFFFFFFFFFFFFF AND DUP2 MSTORE PUSH1 0x20 ADD SWAP1 DUP2 MSTORE PUSH1 0x20 ADD PUSH1 0x0 KECCAK256 SWAP1 DUP2 PUSH2 0x669 SWAP2 SWAP1 PUSH2 0x1200 JUMP JUMPDEST POP PUSH1 0x1 SWAP1 POP SWAP3 SWAP2 POP POP JUMP JUMPDEST PUSH1 0x0 PUSH1 0x40 MLOAD SWAP1 POP SWAP1 JUMP JUMPDEST PUSH1 0x0 DUP1 REVERT JUMPDEST PUSH1 0x0 DUP1 REVERT JUMPDEST PUSH1 0x0 DUP1 REVERT JUMPDEST PUSH1 0x0 DUP1 REVERT JUMPDEST PUSH1 0x0 PUSH1 0x1F NOT PUSH1 0x1F DUP4 ADD AND SWAP1 POP SWAP2 SWAP1 POP JUMP JUMPDEST PUSH32 0x4E487B7100000000000000000000000000000000000000000000000000000000 PUSH1 0x0 MSTORE PUSH1 0x41 PUSH1 0x4 MSTORE PUSH1 0x24 PUSH1 0x0 REVERT JUMPDEST PUSH2 0x6DB DUP3 PUSH2 0x692 JUMP JUMPDEST DUP2 ADD DUP2 DUP2 LT PUSH8 0xFFFFFFFFFFFFFFFF DUP3 GT OR ISZERO PUSH2 0x6FA JUMPI PUSH2 0x6F9 PUSH2 0x6A3 JUMP JUMPDEST JUMPDEST DUP1 PUSH1 0x40 MSTORE POP POP POP JUMP JUMPDEST PUSH1 0x0 PUSH2 0x70D PUSH2 0x674 JUMP JUMPDEST SWAP1 POP PUSH2 0x719 DUP3 DUP3 PUSH2 0x6D2 JUMP JUMPDEST SWAP2 SWAP1 POP JUMP JUMPDEST PUSH1 0x0 PUSH8 0xFFFFFFFFFFFFFFFF DUP3 GT ISZERO PUSH2 0x739 JUMPI PUSH2 0x738 PUSH2 0x6A3 JUMP JUMPDEST JUMPDEST PUSH2 0x742 DUP3 PUSH2 0x692 JUMP JUMPDEST SWAP1 POP PUSH1 0x20 DUP2 ADD SWAP1 POP SWAP2 SWAP1 POP JUMP JUMPDEST DUP3 DUP2 DUP4 CALLDATACOPY PUSH1 0x0 DUP4 DUP4 ADD MSTORE POP POP POP JUMP JUMPDEST PUSH1 0x0 PUSH2 0x771 PUSH2 0x76C DUP5 PUSH2 0x71E JUMP JUMPDEST PUSH2 0x703 JUMP JUMPDEST SWAP1 POP DUP3 DUP2 MSTORE PUSH1 0x20 DUP2 ADD DUP5 DUP5 DUP5 ADD GT ISZERO PUSH2 0x78D JUMPI PUSH2 0x78C PUSH2 0x68D JUMP JUMPDEST JUMPDEST PUSH2 0x798 DUP5 DUP3 DUP6 PUSH2 0x74F JUMP JUMPDEST POP SWAP4 SWAP3 POP POP POP JUMP JUMPDEST PUSH1 0x0 DUP3 PUSH1 0x1F DUP4 ADD SLT PUSH2 0x7B5 JUMPI PUSH2 0x7B4 PUSH2 0x688 JUMP JUMPDEST JUMPDEST DUP2 CALLDATALOAD PUSH2 0x7C5 DUP5 DUP3 PUSH1 0x20 DUP7 ADD PUSH2 0x75E JUMP JUMPDEST SWAP2 POP POP SWAP3 SWAP2 POP POP JUMP JUMPDEST PUSH1 0x0 DUP2 SWAP1 POP SWAP2 SWAP1 POP JUMP JUMPDEST PUSH2 0x7E1 DUP2 PUSH2 0x7CE JUMP JUMPDEST DUP2 EQ PUSH2 0x7EC JUMPI PUSH1 0x0 DUP1 REVERT JUMPDEST POP JUMP JUMPDEST PUSH1 0x0 DUP2 CALLDATALOAD SWAP1 POP PUSH2 0x7FE DUP2 PUSH2 0x7D8 JUMP JUMPDEST SWAP3 SWAP2 POP POP JUMP JUMPDEST PUSH1 0x0 DUP1 PUSH1 0x0 DUP1 PUSH1 0x0 DUP1 PUSH1 0xC0 DUP8 DUP10 SUB SLT ISZERO PUSH2 0x821 JUMPI PUSH2 0x820 PUSH2 0x67E JUMP JUMPDEST JUMPDEST PUSH1 0x0 DUP8 ADD CALLDATALOAD PUSH8 0xFFFFFFFFFFFFFFFF DUP2 GT ISZERO PUSH2 0x83F JUMPI PUSH2 0x83E PUSH2 0x683 JUMP JUMPDEST JUMPDEST PUSH2 0x84B DUP10 DUP3 DUP11 ADD PUSH2 0x7A0 JUMP JUMPDEST SWAP7 POP POP PUSH1 0x20 PUSH2 0x85C DUP10 DUP3 DUP11 ADD PUSH2 0x7EF JUMP JUMPDEST SWAP6 POP POP PUSH1 0x40 DUP8 ADD CALLDATALOAD PUSH8 0xFFFFFFFFFFFFFFFF DUP2 GT ISZERO PUSH2 0x87D JUMPI PUSH2 0x87C PUSH2 0x683 JUMP JUMPDEST JUMPDEST PUSH2 0x889 DUP10 DUP3 DUP11 ADD PUSH2 0x7A0 JUMP JUMPDEST SWAP5 POP POP PUSH1 0x60 PUSH2 0x89A DUP10 DUP3 DUP11 ADD PUSH2 0x7EF JUMP JUMPDEST SWAP4 POP POP PUSH1 0x80 DUP8 ADD CALLDATALOAD PUSH8 0xFFFFFFFFFFFFFFFF DUP2 GT ISZERO PUSH2 0x8BB JUMPI PUSH2 0x8BA PUSH2 0x683 JUMP JUMPDEST JUMPDEST PUSH2 0x8C7 DUP10 DUP3 DUP11 ADD PUSH2 0x7A0 JUMP JUMPDEST SWAP3 POP POP PUSH1 0xA0 PUSH2 0x8D8 DUP10 DUP3 DUP11 ADD PUSH2 0x7EF JUMP JUMPDEST SWAP2 POP POP SWAP3 SWAP6 POP SWAP3 SWAP6 POP SWAP3 SWAP6 JUMP JUMPDEST PUSH1 0x0 DUP2 MLOAD SWAP1 POP SWAP2 SWAP1 POP JUMP JUMPDEST PUSH1 0x0 DUP3 DUP3 MSTORE PUSH1 0x20 DUP3 ADD SWAP1 POP SWAP3 SWAP2 POP POP JUMP JUMPDEST PUSH1 0x0 JUMPDEST DUP4 DUP2 LT ISZERO PUSH2 0x91F JUMPI DUP1 DUP3 ADD MLOAD DUP2 DUP5 ADD MSTORE PUSH1 0x20 DUP2 ADD SWAP1 POP PUSH2 0x904 JUMP JUMPDEST PUSH1 0x0 DUP5 DUP5 ADD MSTORE POP POP POP POP JUMP JUMPDEST PUSH1 0x0 PUSH2 0x936 DUP3 PUSH2 0x8E5 JUMP JUMPDEST PUSH2 0x940 DUP2 DUP6 PUSH2 0x8F0 JUMP JUMPDEST SWAP4 POP PUSH2 0x950 DUP2 DUP6 PUSH1 0x20 DUP7 ADD PUSH2 0x901 JUMP JUMPDEST PUSH2 0x959 DUP2 PUSH2 0x692 JUMP JUMPDEST DUP5 ADD SWAP2 POP POP SWAP3 SWAP2 POP POP JUMP JUMPDEST PUSH1 0x0 PUSH1 0x20 DUP3 ADD SWAP1 POP DUP2 DUP2 SUB PUSH1 0x0 DUP4 ADD MSTORE PUSH2 0x97E DUP2 DUP5 PUSH2 0x92B JUMP JUMPDEST SWAP1 POP SWAP3 SWAP2 POP POP JUMP JUMPDEST PUSH1 0x0 DUP1 PUSH1 0x40 DUP4 DUP6 SUB SLT ISZERO PUSH2 0x99D JUMPI PUSH2 0x99C PUSH2 0x67E JUMP JUMPDEST JUMPDEST PUSH1 0x0 PUSH2 0x9AB DUP6 DUP3 DUP7 ADD PUSH2 0x7EF JUMP JUMPDEST SWAP3 POP POP PUSH1 0x20 PUSH2 0x9BC DUP6 DUP3 DUP7 ADD PUSH2 0x7EF JUMP JUMPDEST SWAP2 POP POP SWAP3 POP SWAP3 SWAP1 POP JUMP JUMPDEST PUSH1 0x0 PUSH20 0xFFFFFFFFFFFFFFFFFFFFFFFFFFFFFFFFFFFFFFFF DUP3 AND SWAP1 POP SWAP2 SWAP1 POP JUMP JUMPDEST PUSH1 0x0 PUSH2 0x9F1 DUP3 PUSH2 0x9C6 JUMP JUMPDEST SWAP1 POP SWAP2 SWAP1 POP JUMP JUMPDEST PUSH2 0xA01 DUP2 PUSH2 0x9E6 JUMP JUMPDEST DUP2 EQ PUSH2 0xA0C JUMPI PUSH1 0x0 DUP1 REVERT JUMPDEST POP JUMP JUMPDEST PUSH1 0x0 DUP2 CALLDATALOAD SWAP1 POP PUSH2 0xA1E DUP2 PUSH2 0x9F8 JUMP JUMPDEST SWAP3 SWAP2 POP POP JUMP JUMPDEST PUSH1 0x0 PUSH1 0x20 DUP3 DUP5 SUB SLT ISZERO PUSH2 0xA3A JUMPI PUSH2 0xA39 PUSH2 0x67E JUMP JUMPDEST JUMPDEST PUSH1 0x0 PUSH2 0xA48 DUP5 DUP3 DUP6 ADD PUSH2 0xA0F JUMP JUMPDEST SWAP2 POP POP SWAP3 SWAP2 POP POP JUMP JUMPDEST PUSH1 0x0 PUSH1 0x20 DUP3 DUP5 SUB SLT ISZERO PUSH2 0xA67 JUMPI PUSH2 0xA66 PUSH2 0x67E JUMP JUMPDEST JUMPDEST PUSH1 0x0 PUSH2 0xA75 DUP5 DUP3 DUP6 ADD PUSH2 0x7EF JUMP JUMPDEST SWAP2 POP POP SWAP3 SWAP2 POP POP JUMP JUMPDEST PUSH1 0x0 DUP1 PUSH1 0x40 DUP4 DUP6 SUB SLT ISZERO PUSH2 0xA95 JUMPI PUSH2 0xA94 PUSH2 0x67E JUMP JUMPDEST JUMPDEST PUSH1 0x0 PUSH2 0xAA3 DUP6 DUP3 DUP7 ADD PUSH2 0xA0F JUMP JUMPDEST SWAP3 POP POP PUSH1 0x20 DUP4 ADD CALLDATALOAD PUSH8 0xFFFFFFFFFFFFFFFF DUP2 GT ISZERO PUSH2 0xAC4 JUMPI PUSH2 0xAC3 PUSH2 0x683 JUMP JUMPDEST JUMPDEST PUSH2 0xAD0 DUP6 DUP3 DUP7 ADD PUSH2 0x7A0 JUMP JUMPDEST SWAP2 POP POP SWAP3 POP SWAP3 SWAP1 POP JUMP JUMPDEST PUSH1 0x0 DUP2 ISZERO ISZERO SWAP1 POP SWAP2 SWAP1 POP JUMP JUMPDEST PUSH2 0xAEF DUP2 PUSH2 0xADA JUMP JUMPDEST DUP3 MSTORE POP POP JUMP JUMPDEST PUSH1 0x0 PUSH1 0x20 DUP3 ADD SWAP1 POP PUSH2 0xB0A PUSH1 0x0 DUP4 ADD DUP5 PUSH2 0xAE6 JUMP JUMPDEST SWAP3 SWAP2 POP POP JUMP JUMPDEST PUSH1 0x0 DUP2 SWAP1 POP SWAP3 SWAP2 POP POP JUMP JUMPDEST PUSH1 0x0 PUSH2 0xB26 DUP3 PUSH2 0x8E5 JUMP JUMPDEST PUSH2 0xB30 DUP2 DUP6 PUSH2 0xB10 JUMP JUMPDEST SWAP4 POP PUSH2 0xB40 DUP2 DUP6 PUSH1 0x20 DUP7 ADD PUSH2 0x901 JUMP JUMPDEST DUP1 DUP5 ADD SWAP2 POP POP SWAP3 SWAP2 POP POP JUMP JUMPDEST PUSH1 0x0 PUSH2 0xB58 DUP3 DUP10 PUSH2 0xB1B JUMP JUMPDEST SWAP2 POP PUSH2 0xB64 DUP3 DUP9 PUSH2 0xB1B JUMP JUMPDEST SWAP2 POP PUSH2 0xB70 DUP3 DUP8 PUSH2 0xB1B JUMP JUMPDEST SWAP2 POP PUSH2 0xB7C DUP3 DUP7 PUSH2 0xB1B JUMP JUMPDEST SWAP2 POP PUSH2 0xB88 DUP3 DUP6 PUSH2 0xB1B JUMP JUMPDEST SWAP2 POP PUSH2 0xB94 DUP3 DUP5 PUSH2 0xB1B JUMP JUMPDEST SWAP2 POP DUP2 SWAP1 POP SWAP8 SWAP7 POP POP POP POP POP POP POP JUMP JUMPDEST PUSH32 0x4E487B7100000000000000000000000000000000000000000000000000000000 PUSH1 0x0 MSTORE PUSH1 0x11 PUSH1 0x4 MSTORE PUSH1 0x24 PUSH1 0x0 REVERT JUMPDEST PUSH1 0x0 DUP2 PUSH1 0x1 SHR SWAP1 POP SWAP2 SWAP1 POP JUMP JUMPDEST PUSH1 0x0 DUP1 DUP3 SWAP2 POP DUP4 SWAP1 POP JUMPDEST PUSH1 0x1 DUP6 GT ISZERO PUSH2 0xC2A JUMPI DUP1 DUP7 DIV DUP2 GT ISZERO PUSH2 0xC06 JUMPI PUSH2 0xC05 PUSH2 0xBA4 JUMP JUMPDEST JUMPDEST PUSH1 0x1 DUP6 AND ISZERO PUSH2 0xC15 JUMPI DUP1 DUP3 MUL SWAP2 POP JUMPDEST DUP1 DUP2 MUL SWAP1 POP PUSH2 0xC23 DUP6 PUSH2 0xBD3 JUMP JUMPDEST SWAP5 POP PUSH2 0xBEA JUMP JUMPDEST SWAP5 POP SWAP5 SWAP3 POP POP POP JUMP JUMPDEST PUSH1 0x0 DUP3 PUSH2 0xC43 JUMPI PUSH1 0x1 SWAP1 POP PUSH2 0xCFF JUMP JUMPDEST DUP2 PUSH2 0xC51 JUMPI PUSH1 0x0 SWAP1 POP PUSH2 0xCFF JUMP JUMPDEST DUP2 PUSH1 0x1 DUP2 EQ PUSH2 0xC67 JUMPI PUSH1 0x2 DUP2 EQ PUSH2 0xC71 JUMPI PUSH2 0xCA0 JUMP JUMPDEST PUSH1 0x1 SWAP2 POP POP PUSH2 0xCFF JUMP JUMPDEST PUSH1 0xFF DUP5 GT ISZERO PUSH2 0xC83 JUMPI PUSH2 0xC82 PUSH2 0xBA4 JUMP JUMPDEST JUMPDEST DUP4 PUSH1 0x2 EXP SWAP2 POP DUP5 DUP3 GT ISZERO PUSH2 0xC9A JUMPI PUSH2 0xC99 PUSH2 0xBA4 JUMP JUMPDEST JUMPDEST POP PUSH2 0xCFF JUMP JUMPDEST POP PUSH1 0x20 DUP4 LT PUSH2 0x133 DUP4 LT AND PUSH1 0x4E DUP5 LT PUSH1 0xB DUP5 LT AND OR ISZERO PUSH2 0xCD5 JUMPI DUP3 DUP3 EXP SWAP1 POP DUP4 DUP2 GT ISZERO PUSH2 0xCD0 JUMPI PUSH2 0xCCF PUSH2 0xBA4 JUMP JUMPDEST JUMPDEST PUSH2 0xCFF JUMP JUMPDEST PUSH2 0xCE2 DUP5 DUP5 DUP5 PUSH1 0x1 PUSH2 0xBE0 JUMP JUMPDEST SWAP3 POP SWAP1 POP DUP2 DUP5 DIV DUP2 GT ISZERO PUSH2 0xCF9 JUMPI PUSH2 0xCF8 PUSH2 0xBA4 JUMP JUMPDEST JUMPDEST DUP2 DUP2 MUL SWAP1 POP JUMPDEST SWAP4 SWAP3 POP POP POP JUMP JUMPDEST PUSH1 0x0 PUSH2 0xD11 DUP3 PUSH2 0x7CE JUMP JUMPDEST SWAP2 POP PUSH2 0xD1C DUP4 PUSH2 0x7CE JUMP JUMPDEST SWAP3 POP PUSH2 0xD49 PUSH32 0xFFFFFFFFFFFFFFFFFFFFFFFFFFFFFFFFFFFFFFFFFFFFFFFFFFFFFFFFFFFFFFFF DUP5 DUP5 PUSH2 0xC33 JUMP JUMPDEST SWAP1 POP SWAP3 SWAP2 POP POP JUMP JUMPDEST PUSH32 0x4E487B7100000000000000000000000000000000000000000000000000000000 PUSH1 0x0 MSTORE PUSH1 0x12 PUSH1 0x4 MSTORE PUSH1 0x24 PUSH1 0x0 REVERT JUMPDEST PUSH1 0x0 PUSH2 0xD8B DUP3 PUSH2 0x7CE JUMP JUMPDEST SWAP2 POP PUSH2 0xD96 DUP4 PUSH2 0x7CE JUMP JUMPDEST SWAP3 POP DUP3 PUSH2 0xDA6 JUMPI PUSH2 0xDA5 PUSH2 0xD51 JUMP JUMPDEST JUMPDEST DUP3 DUP3 DIV SWAP1 POP SWAP3 SWAP2 POP POP JUMP JUMPDEST PUSH1 0x0 PUSH2 0xDBC DUP3 PUSH2 0x7CE JUMP JUMPDEST SWAP2 POP PUSH2 0xDC7 DUP4 PUSH2 0x7CE JUMP JUMPDEST SWAP3 POP DUP3 PUSH2 0xDD7 JUMPI PUSH2 0xDD6 PUSH2 0xD51 JUMP JUMPDEST JUMPDEST DUP3 DUP3 MOD SWAP1 POP SWAP3 SWAP2 POP POP JUMP JUMPDEST PUSH32 0x2E00000000000000000000000000000000000000000000000000000000000000 PUSH1 0x0 DUP3 ADD MSTORE POP JUMP JUMPDEST PUSH1 0x0 PUSH2 0xE18 PUSH1 0x1 DUP4 PUSH2 0xB10 JUMP JUMPDEST SWAP2 POP PUSH2 0xE23 DUP3 PUSH2 0xDE2 JUMP JUMPDEST PUSH1 0x1 DUP3 ADD SWAP1 POP SWAP2 SWAP1 POP JUMP JUMPDEST PUSH1 0x0 PUSH2 0xE3A DUP3 DUP6 PUSH2 0xB1B JUMP JUMPDEST SWAP2 POP PUSH2 0xE45 DUP3 PUSH2 0xE0B JUMP JUMPDEST SWAP2 POP PUSH2 0xE51 DUP3 DUP5 PUSH2 0xB1B JUMP JUMPDEST SWAP2 POP DUP2 SWAP1 POP SWAP4 SWAP3 POP POP POP JUMP JUMPDEST PUSH32 0x4E487B7100000000000000000000000000000000000000000000000000000000 PUSH1 0x0 MSTORE PUSH1 0x22 PUSH1 0x4 MSTORE PUSH1 0x24 PUSH1 0x0 REVERT JUMPDEST PUSH1 0x0 PUSH1 0x2 DUP3 DIV SWAP1 POP PUSH1 0x1 DUP3 AND DUP1 PUSH2 0xEA4 JUMPI PUSH1 0x7F DUP3 AND SWAP2 POP JUMPDEST PUSH1 0x20 DUP3 LT DUP2 SUB PUSH2 0xEB7 JUMPI PUSH2 0xEB6 PUSH2 0xE5D JUMP JUMPDEST JUMPDEST POP SWAP2 SWAP1 POP JUMP JUMPDEST PUSH32 0x495046532068617368206E6F7420666F756E6420666F7220746865206163636F PUSH1 0x0 DUP3 ADD MSTORE PUSH32 0x756E742E20506C6561736520736176652049504653486173682061626F757420 PUSH1 0x20 DUP3 ADD MSTORE PUSH32 0x74686973206163636F756E742E00000000000000000000000000000000000000 PUSH1 0x40 DUP3 ADD MSTORE POP JUMP JUMPDEST PUSH1 0x0 PUSH2 0xF3F PUSH1 0x4D DUP4 PUSH2 0x8F0 JUMP JUMPDEST SWAP2 POP PUSH2 0xF4A DUP3 PUSH2 0xEBD JUMP JUMPDEST PUSH1 0x60 DUP3 ADD SWAP1 POP SWAP2 SWAP1 POP JUMP JUMPDEST PUSH1 0x0 PUSH1 0x20 DUP3 ADD SWAP1 POP DUP2 DUP2 SUB PUSH1 0x0 DUP4 ADD MSTORE PUSH2 0xF6E DUP2 PUSH2 0xF32 JUMP JUMPDEST SWAP1 POP SWAP2 SWAP1 POP JUMP JUMPDEST PUSH1 0x0 PUSH2 0xF80 DUP3 PUSH2 0x7CE JUMP JUMPDEST SWAP2 POP PUSH32 0xFFFFFFFFFFFFFFFFFFFFFFFFFFFFFFFFFFFFFFFFFFFFFFFFFFFFFFFFFFFFFFFF DUP3 SUB PUSH2 0xFB2 JUMPI PUSH2 0xFB1 PUSH2 0xBA4 JUMP JUMPDEST JUMPDEST PUSH1 0x1 DUP3 ADD SWAP1 POP SWAP2 SWAP1 POP JUMP JUMPDEST PUSH1 0x0 PUSH2 0xFC8 DUP3 PUSH2 0x7CE JUMP JUMPDEST SWAP2 POP PUSH2 0xFD3 DUP4 PUSH2 0x7CE JUMP JUMPDEST SWAP3 POP DUP3 DUP3 SUB SWAP1 POP DUP2 DUP2 GT ISZERO PUSH2 0xFEB JUMPI PUSH2 0xFEA PUSH2 0xBA4 JUMP JUMPDEST JUMPDEST SWAP3 SWAP2 POP POP JUMP JUMPDEST PUSH1 0x0 PUSH2 0xFFC DUP3 PUSH2 0x7CE JUMP JUMPDEST SWAP2 POP PUSH2 0x1007 DUP4 PUSH2 0x7CE JUMP JUMPDEST SWAP3 POP DUP3 DUP3 ADD SWAP1 POP DUP1 DUP3 GT ISZERO PUSH2 0x101F JUMPI PUSH2 0x101E PUSH2 0xBA4 JUMP JUMPDEST JUMPDEST SWAP3 SWAP2 POP POP JUMP JUMPDEST PUSH32 0x4E487B7100000000000000000000000000000000000000000000000000000000 PUSH1 0x0 MSTORE PUSH1 0x32 PUSH1 0x4 MSTORE PUSH1 0x24 PUSH1 0x0 REVERT JUMPDEST PUSH1 0x0 DUP2 SWAP1 POP DUP2 PUSH1 0x0 MSTORE PUSH1 0x20 PUSH1 0x0 KECCAK256 SWAP1 POP SWAP2 SWAP1 POP JUMP JUMPDEST PUSH1 0x0 PUSH1 0x20 PUSH1 0x1F DUP4 ADD DIV SWAP1 POP SWAP2 SWAP1 POP JUMP JUMPDEST PUSH1 0x0 DUP3 DUP3 SHL SWAP1 POP SWAP3 SWAP2 POP POP JUMP JUMPDEST PUSH1 0x0 PUSH1 0x8 DUP4 MUL PUSH2 0x10B6 PUSH32 0xFFFFFFFFFFFFFFFFFFFFFFFFFFFFFFFFFFFFFFFFFFFFFFFFFFFFFFFFFFFFFFFF DUP3 PUSH2 0x1079 JUMP JUMPDEST PUSH2 0x10C0 DUP7 DUP4 PUSH2 0x1079 JUMP JUMPDEST SWAP6 POP DUP1 NOT DUP5 AND SWAP4 POP DUP1 DUP7 AND DUP5 OR SWAP3 POP POP POP SWAP4 SWAP3 POP POP POP JUMP JUMPDEST PUSH1 0x0 DUP2 SWAP1 POP SWAP2 SWAP1 POP JUMP JUMPDEST PUSH1 0x0 PUSH2 0x10FD PUSH2 0x10F8 PUSH2 0x10F3 DUP5 PUSH2 0x7CE JUMP JUMPDEST PUSH2 0x10D8 JUMP JUMPDEST PUSH2 0x7CE JUMP JUMPDEST SWAP1 POP SWAP2 SWAP1 POP JUMP JUMPDEST PUSH1 0x0 DUP2 SWAP1 POP SWAP2 SWAP1 POP JUMP JUMPDEST PUSH2 0x1117 DUP4 PUSH2 0x10E2 JUMP JUMPDEST PUSH2 0x112B PUSH2 0x1123 DUP3 PUSH2 0x1104 JUMP JUMPDEST DUP5 DUP5 SLOAD PUSH2 0x1086 JUMP JUMPDEST DUP3 SSTORE POP POP POP POP JUMP JUMPDEST PUSH1 0x0 SWAP1 JUMP JUMPDEST PUSH2 0x1140 PUSH2 0x1133 JUMP JUMPDEST PUSH2 0x114B DUP2 DUP5 DUP5 PUSH2 0x110E JUMP JUMPDEST POP POP POP JUMP JUMPDEST JUMPDEST DUP2 DUP2 LT ISZERO PUSH2 0x116F JUMPI PUSH2 0x1164 PUSH1 0x0 DUP3 PUSH2 0x1138 JUMP JUMPDEST PUSH1 0x1 DUP2 ADD SWAP1 POP PUSH2 0x1151 JUMP JUMPDEST POP POP JUMP JUMPDEST PUSH1 0x1F DUP3 GT ISZERO PUSH2 0x11B4 JUMPI PUSH2 0x1185 DUP2 PUSH2 0x1054 JUMP JUMPDEST PUSH2 0x118E DUP5 PUSH2 0x1069 JUMP JUMPDEST DUP2 ADD PUSH1 0x20 DUP6 LT ISZERO PUSH2 0x119D JUMPI DUP2 SWAP1 POP JUMPDEST PUSH2 0x11B1 PUSH2 0x11A9 DUP6 PUSH2 0x1069 JUMP JUMPDEST DUP4 ADD DUP3 PUSH2 0x1150 JUMP JUMPDEST POP POP JUMPDEST POP POP POP JUMP JUMPDEST PUSH1 0x0 DUP3 DUP3 SHR SWAP1 POP SWAP3 SWAP2 POP POP JUMP JUMPDEST PUSH1 0x0 PUSH2 0x11D7 PUSH1 0x0 NOT DUP5 PUSH1 0x8 MUL PUSH2 0x11B9 JUMP JUMPDEST NOT DUP1 DUP4 AND SWAP2 POP POP SWAP3 SWAP2 POP POP JUMP JUMPDEST PUSH1 0x0 PUSH2 0x11F0 DUP4 DUP4 PUSH2 0x11C6 JUMP JUMPDEST SWAP2 POP DUP3 PUSH1 0x2 MUL DUP3 OR SWAP1 POP SWAP3 SWAP2 POP POP JUMP JUMPDEST PUSH2 0x1209 DUP3 PUSH2 0x8E5 JUMP JUMPDEST PUSH8 0xFFFFFFFFFFFFFFFF DUP2 GT ISZERO PUSH2 0x1222 JUMPI PUSH2 0x1221 PUSH2 0x6A3 JUMP JUMPDEST JUMPDEST PUSH2 0x122C DUP3 SLOAD PUSH2 0xE8C JUMP JUMPDEST PUSH2 0x1237 DUP3 DUP3 DUP6 PUSH2 0x1173 JUMP JUMPDEST PUSH1 0x0 PUSH1 0x20 SWAP1 POP PUSH1 0x1F DUP4 GT PUSH1 0x1 DUP2 EQ PUSH2 0x126A JUMPI PUSH1 0x0 DUP5 ISZERO PUSH2 0x1258 JUMPI DUP3 DUP8 ADD MLOAD SWAP1 POP JUMPDEST PUSH2 0x1262 DUP6 DUP3 PUSH2 0x11E4 JUMP JUMPDEST DUP7 SSTORE POP PUSH2 0x12CA JUMP JUMPDEST PUSH1 0x1F NOT DUP5 AND PUSH2 0x1278 DUP7 PUSH2 0x1054 JUMP JUMPDEST PUSH1 0x0 JUMPDEST DUP3 DUP2 LT ISZERO PUSH2 0x12A0 JUMPI DUP5 DUP10 ADD MLOAD DUP3 SSTORE PUSH1 0x1 DUP3 ADD SWAP2 POP PUSH1 0x20 DUP6 ADD SWAP5 POP PUSH1 0x20 DUP2 ADD SWAP1 POP PUSH2 0x127B JUMP JUMPDEST DUP7 DUP4 LT ISZERO PUSH2 0x12BD JUMPI DUP5 DUP10 ADD MLOAD PUSH2 0x12B9 PUSH1 0x1F DUP10 AND DUP3 PUSH2 0x11C6 JUMP JUMPDEST DUP4 SSTORE POP JUMPDEST PUSH1 0x1 PUSH1 0x2 DUP9 MUL ADD DUP9 SSTORE POP POP POP JUMPDEST POP POP POP POP POP POP JUMP INVALID LOG2 PUSH5 0x6970667358 0x22 SLT KECCAK256 0xF7 0x2B SWAP1 0x2A POP PUSH4 0xCAAF2FB0 PUSH16 0x35ACBA9F1205718A3E414109972357DC 0xCA PUSH21 0xD818F564736F6C6343000812003300000000000000 "
		},
		"gasEstimates": {
			"creation": {
				"codeDepositCost": "974400",
				"executionCost": "1014",
				"totalCost": "975414"
			},
			"external": {
				"decimalToString(uint256,uint256)": "infinite",
				"generateIPFSHash(string,uint256,string,uint256,string,uint256)": "infinite",
				"getIPFSHash(address)": "infinite",
				"ipfsHashes(address)": "infinite",
				"saveIPFSHash(address,string)": "infinite",
				"uintToString(uint256)": "infinite"
			}
		},
		"methodIdentifiers": {
			"decimalToString(uint256,uint256)": "75647ac6",
			"generateIPFSHash(string,uint256,string,uint256,string,uint256)": "4a9760e1",
			"getIPFSHash(address)": "cb0ab425",
			"ipfsHashes(address)": "e1e322ed",
			"saveIPFSHash(address,string)": "f0faed43",
			"uintToString(uint256)": "e9395679"
		}
	},
	"abi": [
		{
			"inputs": [
				{
					"internalType": "uint256",
					"name": "value",
					"type": "uint256"
				},
				{
					"internalType": "uint256",
					"name": "decimals",
					"type": "uint256"
				}
			],
			"name": "decimalToString",
			"outputs": [
				{
					"internalType": "string",
					"name": "",
					"type": "string"
				}
			],
			"stateMutability": "pure",
			"type": "function"
		},
		{
			"inputs": [
				{
					"internalType": "string",
					"name": "name",
					"type": "string"
				},
				{
					"internalType": "uint256",
					"name": "studentID",
					"type": "uint256"
				},
				{
					"internalType": "string",
					"name": "major",
					"type": "string"
				},
				{
					"internalType": "uint256",
					"name": "gpa",
					"type": "uint256"
				},
				{
					"internalType": "string",
					"name": "company",
					"type": "string"
				},
				{
					"internalType": "uint256",
					"name": "balance",
					"type": "uint256"
				}
			],
			"name": "generateIPFSHash",
			"outputs": [
				{
					"internalType": "string",
					"name": "",
					"type": "string"
				}
			],
			"stateMutability": "pure",
			"type": "function"
		},
		{
			"inputs": [
				{
					"internalType": "address",
					"name": "account",
					"type": "address"
				}
			],
			"name": "getIPFSHash",
			"outputs": [
				{
					"internalType": "string",
					"name": "",
					"type": "string"
				}
			],
			"stateMutability": "view",
			"type": "function"
		},
		{
			"inputs": [
				{
					"internalType": "address",
					"name": "",
					"type": "address"
				}
			],
			"name": "ipfsHashes",
			"outputs": [
				{
					"internalType": "string",
					"name": "",
					"type": "string"
				}
			],
			"stateMutability": "view",
			"type": "function"
		},
		{
			"inputs": [
				{
					"internalType": "address",
					"name": "account",
					"type": "address"
				},
				{
					"internalType": "string",
					"name": "ipfsHash",
					"type": "string"
				}
			],
			"name": "saveIPFSHash",
			"outputs": [
				{
					"internalType": "bool",
					"name": "",
					"type": "bool"
				}
			],
			"stateMutability": "nonpayable",
			"type": "function"
		},
		{
			"inputs": [
				{
					"internalType": "uint256",
					"name": "value",
					"type": "uint256"
				}
			],
			"name": "uintToString",
			"outputs": [
				{
					"internalType": "string",
					"name": "",
					"type": "string"
				}
			],
			"stateMutability": "pure",
			"type": "function"
		}
	]
}