{
	"data": {
		"bytecode": {
			"linkReferences": {},
			"object": "608060405234801561000f575f80fd5b5061127a8061001d5f395ff3fe608060405234801561000f575f80fd5b5060043610610060575f3560e01c80634a9760e11461006457806375647ac614610094578063b075e746146100c4578063cb0ab425146100f4578063e1e322ed14610124578063e939567914610154575b5f80fd5b61007e600480360381019061007991906107d2565b610184565b60405161008b9190610929565b60405180910390f35b6100ae60048036038101906100a99190610949565b6101db565b6040516100bb9190610929565b60405180910390f35b6100de60048036038101906100d99190610987565b6102b5565b6040516100eb91906109e8565b60405180910390f35b61010e60048036038101906101099190610a5b565b610309565b60405161011b9190610929565b60405180910390f35b61013e60048036038101906101399190610a5b565b61045f565b60405161014b9190610929565b60405180910390f35b61016e60048036038101906101699190610a86565b6104f9565b60405161017b9190610929565b60405180910390f35b60605f6101928560026101db565b90508761019e886104f9565b8783876101aa886104f9565b6040516020016101bf96959493929190610aeb565b6040516020818303038152906040529150509695505050505050565b60605f8303610221576040518060400160405280600181526020017f300000000000000000000000000000000000000000000000000000000000000081525090506102af565b5f82600a61022f9190610c9e565b8461023a9190610d15565b90505f83600a61024a9190610c9e565b856102559190610d45565b90505f610261836104f9565b90505f61026d836104f9565b905060605f8411156102a257828260405160200161028c929190610dbf565b60405160208183030381529060405290506102a6565b8290505b80955050505050505b92915050565b5f815f803373ffffffffffffffffffffffffffffffffffffffff1673ffffffffffffffffffffffffffffffffffffffff1681526020019081526020015f2090816102ff9190610fe7565b5060019050919050565b60605f805f8473ffffffffffffffffffffffffffffffffffffffff1673ffffffffffffffffffffffffffffffffffffffff1681526020019081526020015f20805461035390610e1a565b905011610395576040517f08c379a000000000000000000000000000000000000000000000000000000000815260040161038c9061114c565b60405180910390fd5b5f808373ffffffffffffffffffffffffffffffffffffffff1673ffffffffffffffffffffffffffffffffffffffff1681526020019081526020015f2080546103dc90610e1a565b80601f016020809104026020016040519081016040528092919081815260200182805461040890610e1a565b80156104535780601f1061042a57610100808354040283529160200191610453565b820191905f5260205f20905b81548152906001019060200180831161043657829003601f168201915b50505050509050919050565b5f602052805f5260405f205f91509050805461047a90610e1a565b80601f01602080910402602001604051908101604052809291908181526020018280546104a690610e1a565b80156104f15780601f106104c8576101008083540402835291602001916104f1565b820191905f5260205f20905b8154815290600101906020018083116104d457829003601f168201915b505050505081565b60605f820361053f576040518060400160405280600181526020017f3000000000000000000000000000000000000000000000000000000000000000815250905061064d565b5f8290505f5b5f821461056e5780806105579061116a565b915050600a826105679190610d15565b9150610545565b5f8167ffffffffffffffff8111156105895761058861067b565b5b6040519080825280601f01601f1916602001820160405280156105bb5781602001600182028036833780820191505090505b5090505b5f8514610646576001826105d391906111b1565b9150600a856105e29190610d45565b60306105ee91906111e4565b60f81b81838151811061060457610603611217565b5b60200101907effffffffffffffffffffffffffffffffffffffffffffffffffffffffffffff191690815f1a905350600a8561063f9190610d15565b94506105bf565b8093505050505b919050565b5f604051905090565b5f80fd5b5f80fd5b5f80fd5b5f80fd5b5f601f19601f8301169050919050565b7f4e487b71000000000000000000000000000000000000000000000000000000005f52604160045260245ffd5b6106b18261066b565b810181811067ffffffffffffffff821117156106d0576106cf61067b565b5b80604052505050565b5f6106e2610652565b90506106ee82826106a8565b919050565b5f67ffffffffffffffff82111561070d5761070c61067b565b5b6107168261066b565b9050602081019050919050565b828183375f83830152505050565b5f61074361073e846106f3565b6106d9565b90508281526020810184848401111561075f5761075e610667565b5b61076a848285610723565b509392505050565b5f82601f83011261078657610785610663565b5b8135610796848260208601610731565b91505092915050565b5f819050919050565b6107b18161079f565b81146107bb575f80fd5b50565b5f813590506107cc816107a8565b92915050565b5f805f805f8060c087890312156107ec576107eb61065b565b5b5f87013567ffffffffffffffff8111156108095761080861065f565b5b61081589828a01610772565b965050602061082689828a016107be565b955050604087013567ffffffffffffffff8111156108475761084661065f565b5b61085389828a01610772565b945050606061086489828a016107be565b935050608087013567ffffffffffffffff8111156108855761088461065f565b5b61089189828a01610772565b92505060a06108a289828a016107be565b9150509295509295509295565b5f81519050919050565b5f82825260208201905092915050565b5f5b838110156108e65780820151818401526020810190506108cb565b5f8484015250505050565b5f6108fb826108af565b61090581856108b9565b93506109158185602086016108c9565b61091e8161066b565b840191505092915050565b5f6020820190508181035f83015261094181846108f1565b905092915050565b5f806040838503121561095f5761095e61065b565b5b5f61096c858286016107be565b925050602061097d858286016107be565b9150509250929050565b5f6020828403121561099c5761099b61065b565b5b5f82013567ffffffffffffffff8111156109b9576109b861065f565b5b6109c584828501610772565b91505092915050565b5f8115159050919050565b6109e2816109ce565b82525050565b5f6020820190506109fb5f8301846109d9565b92915050565b5f73ffffffffffffffffffffffffffffffffffffffff82169050919050565b5f610a2a82610a01565b9050919050565b610a3a81610a20565b8114610a44575f80fd5b50565b5f81359050610a5581610a31565b92915050565b5f60208284031215610a7057610a6f61065b565b5b5f610a7d84828501610a47565b91505092915050565b5f60208284031215610a9b57610a9a61065b565b5b5f610aa8848285016107be565b91505092915050565b5f81905092915050565b5f610ac5826108af565b610acf8185610ab1565b9350610adf8185602086016108c9565b80840191505092915050565b5f610af68289610abb565b9150610b028288610abb565b9150610b0e8287610abb565b9150610b1a8286610abb565b9150610b268285610abb565b9150610b328284610abb565b9150819050979650505050505050565b7f4e487b71000000000000000000000000000000000000000000000000000000005f52601160045260245ffd5b5f8160011c9050919050565b5f808291508390505b6001851115610bc457808604811115610ba057610b9f610b42565b5b6001851615610baf5780820291505b8081029050610bbd85610b6f565b9450610b84565b94509492505050565b5f82610bdc5760019050610c97565b81610be9575f9050610c97565b8160018114610bff5760028114610c0957610c38565b6001915050610c97565b60ff841115610c1b57610c1a610b42565b5b8360020a915084821115610c3257610c31610b42565b5b50610c97565b5060208310610133831016604e8410600b8410161715610c6d5782820a905083811115610c6857610c67610b42565b5b610c97565b610c7a8484846001610b7b565b92509050818404811115610c9157610c90610b42565b5b81810290505b9392505050565b5f610ca88261079f565b9150610cb38361079f565b9250610ce07fffffffffffffffffffffffffffffffffffffffffffffffffffffffffffffffff8484610bcd565b905092915050565b7f4e487b71000000000000000000000000000000000000000000000000000000005f52601260045260245ffd5b5f610d1f8261079f565b9150610d2a8361079f565b925082610d3a57610d39610ce8565b5b828204905092915050565b5f610d4f8261079f565b9150610d5a8361079f565b925082610d6a57610d69610ce8565b5b828206905092915050565b7f2e000000000000000000000000000000000000000000000000000000000000005f82015250565b5f610da9600183610ab1565b9150610db482610d75565b600182019050919050565b5f610dca8285610abb565b9150610dd582610d9d565b9150610de18284610abb565b91508190509392505050565b7f4e487b71000000000000000000000000000000000000000000000000000000005f52602260045260245ffd5b5f6002820490506001821680610e3157607f821691505b602082108103610e4457610e43610ded565b5b50919050565b5f819050815f5260205f209050919050565b5f6020601f8301049050919050565b5f82821b905092915050565b5f60088302610ea67fffffffffffffffffffffffffffffffffffffffffffffffffffffffffffffffff82610e6b565b610eb08683610e6b565b95508019841693508086168417925050509392505050565b5f819050919050565b5f610eeb610ee6610ee18461079f565b610ec8565b61079f565b9050919050565b5f819050919050565b610f0483610ed1565b610f18610f1082610ef2565b848454610e77565b825550505050565b5f90565b610f2c610f20565b610f37818484610efb565b505050565b5b81811015610f5a57610f4f5f82610f24565b600181019050610f3d565b5050565b601f821115610f9f57610f7081610e4a565b610f7984610e5c565b81016020851015610f88578190505b610f9c610f9485610e5c565b830182610f3c565b50505b505050565b5f82821c905092915050565b5f610fbf5f1984600802610fa4565b1980831691505092915050565b5f610fd78383610fb0565b9150826002028217905092915050565b610ff0826108af565b67ffffffffffffffff8111156110095761100861067b565b5b6110138254610e1a565b61101e828285610f5e565b5f60209050601f83116001811461104f575f841561103d578287015190505b6110478582610fcc565b8655506110ae565b601f19841661105d86610e4a565b5f5b828110156110845784890151825560018201915060208501945060208101905061105f565b868310156110a1578489015161109d601f891682610fb0565b8355505b6001600288020188555050505b505050505050565b7f495046532068617368206e6f7420666f756e6420666f7220746865206163636f5f8201527f756e742e20506c6561736520736176652049504653486173682061626f75742060208201527f74686973206163636f756e742e00000000000000000000000000000000000000604082015250565b5f611136604d836108b9565b9150611141826110b6565b606082019050919050565b5f6020820190508181035f8301526111638161112a565b9050919050565b5f6111748261079f565b91507fffffffffffffffffffffffffffffffffffffffffffffffffffffffffffffffff82036111a6576111a5610b42565b5b600182019050919050565b5f6111bb8261079f565b91506111c68361079f565b92508282039050818111156111de576111dd610b42565b5b92915050565b5f6111ee8261079f565b91506111f98361079f565b925082820190508082111561121157611210610b42565b5b92915050565b7f4e487b71000000000000000000000000000000000000000000000000000000005f52603260045260245ffdfea264697066735822122040d38888aa75d1e028c03d22a22fd6f78c71794267183796ddd19be06be09b0964736f6c63430008140033",
			"opcodes": "PUSH1 0x80 PUSH1 0x40 MSTORE CALLVALUE DUP1 ISZERO PUSH2 0xF JUMPI PUSH0 DUP1 REVERT JUMPDEST POP PUSH2 0x127A DUP1 PUSH2 0x1D PUSH0 CODECOPY PUSH0 RETURN INVALID PUSH1 0x80 PUSH1 0x40 MSTORE CALLVALUE DUP1 ISZERO PUSH2 0xF JUMPI PUSH0 DUP1 REVERT JUMPDEST POP PUSH1 0x4 CALLDATASIZE LT PUSH2 0x60 JUMPI PUSH0 CALLDATALOAD PUSH1 0xE0 SHR DUP1 PUSH4 0x4A9760E1 EQ PUSH2 0x64 JUMPI DUP1 PUSH4 0x75647AC6 EQ PUSH2 0x94 JUMPI DUP1 PUSH4 0xB075E746 EQ PUSH2 0xC4 JUMPI DUP1 PUSH4 0xCB0AB425 EQ PUSH2 0xF4 JUMPI DUP1 PUSH4 0xE1E322ED EQ PUSH2 0x124 JUMPI DUP1 PUSH4 0xE9395679 EQ PUSH2 0x154 JUMPI JUMPDEST PUSH0 DUP1 REVERT JUMPDEST PUSH2 0x7E PUSH1 0x4 DUP1 CALLDATASIZE SUB DUP2 ADD SWAP1 PUSH2 0x79 SWAP2 SWAP1 PUSH2 0x7D2 JUMP JUMPDEST PUSH2 0x184 JUMP JUMPDEST PUSH1 0x40 MLOAD PUSH2 0x8B SWAP2 SWAP1 PUSH2 0x929 JUMP JUMPDEST PUSH1 0x40 MLOAD DUP1 SWAP2 SUB SWAP1 RETURN JUMPDEST PUSH2 0xAE PUSH1 0x4 DUP1 CALLDATASIZE SUB DUP2 ADD SWAP1 PUSH2 0xA9 SWAP2 SWAP1 PUSH2 0x949 JUMP JUMPDEST PUSH2 0x1DB JUMP JUMPDEST PUSH1 0x40 MLOAD PUSH2 0xBB SWAP2 SWAP1 PUSH2 0x929 JUMP JUMPDEST PUSH1 0x40 MLOAD DUP1 SWAP2 SUB SWAP1 RETURN JUMPDEST PUSH2 0xDE PUSH1 0x4 DUP1 CALLDATASIZE SUB DUP2 ADD SWAP1 PUSH2 0xD9 SWAP2 SWAP1 PUSH2 0x987 JUMP JUMPDEST PUSH2 0x2B5 JUMP JUMPDEST PUSH1 0x40 MLOAD PUSH2 0xEB SWAP2 SWAP1 PUSH2 0x9E8 JUMP JUMPDEST PUSH1 0x40 MLOAD DUP1 SWAP2 SUB SWAP1 RETURN JUMPDEST PUSH2 0x10E PUSH1 0x4 DUP1 CALLDATASIZE SUB DUP2 ADD SWAP1 PUSH2 0x109 SWAP2 SWAP1 PUSH2 0xA5B JUMP JUMPDEST PUSH2 0x309 JUMP JUMPDEST PUSH1 0x40 MLOAD PUSH2 0x11B SWAP2 SWAP1 PUSH2 0x929 JUMP JUMPDEST PUSH1 0x40 MLOAD DUP1 SWAP2 SUB SWAP1 RETURN JUMPDEST PUSH2 0x13E PUSH1 0x4 DUP1 CALLDATASIZE SUB DUP2 ADD SWAP1 PUSH2 0x139 SWAP2 SWAP1 PUSH2 0xA5B JUMP JUMPDEST PUSH2 0x45F JUMP JUMPDEST PUSH1 0x40 MLOAD PUSH2 0x14B SWAP2 SWAP1 PUSH2 0x929 JUMP JUMPDEST PUSH1 0x40 MLOAD DUP1 SWAP2 SUB SWAP1 RETURN JUMPDEST PUSH2 0x16E PUSH1 0x4 DUP1 CALLDATASIZE SUB DUP2 ADD SWAP1 PUSH2 0x169 SWAP2 SWAP1 PUSH2 0xA86 JUMP JUMPDEST PUSH2 0x4F9 JUMP JUMPDEST PUSH1 0x40 MLOAD PUSH2 0x17B SWAP2 SWAP1 PUSH2 0x929 JUMP JUMPDEST PUSH1 0x40 MLOAD DUP1 SWAP2 SUB SWAP1 RETURN JUMPDEST PUSH1 0x60 PUSH0 PUSH2 0x192 DUP6 PUSH1 0x2 PUSH2 0x1DB JUMP JUMPDEST SWAP1 POP DUP8 PUSH2 0x19E DUP9 PUSH2 0x4F9 JUMP JUMPDEST DUP8 DUP4 DUP8 PUSH2 0x1AA DUP9 PUSH2 0x4F9 JUMP JUMPDEST PUSH1 0x40 MLOAD PUSH1 0x20 ADD PUSH2 0x1BF SWAP7 SWAP6 SWAP5 SWAP4 SWAP3 SWAP2 SWAP1 PUSH2 0xAEB JUMP JUMPDEST PUSH1 0x40 MLOAD PUSH1 0x20 DUP2 DUP4 SUB SUB DUP2 MSTORE SWAP1 PUSH1 0x40 MSTORE SWAP2 POP POP SWAP7 SWAP6 POP POP POP POP POP POP JUMP JUMPDEST PUSH1 0x60 PUSH0 DUP4 SUB PUSH2 0x221 JUMPI PUSH1 0x40 MLOAD DUP1 PUSH1 0x40 ADD PUSH1 0x40 MSTORE DUP1 PUSH1 0x1 DUP2 MSTORE PUSH1 0x20 ADD PUSH32 0x3000000000000000000000000000000000000000000000000000000000000000 DUP2 MSTORE POP SWAP1 POP PUSH2 0x2AF JUMP JUMPDEST PUSH0 DUP3 PUSH1 0xA PUSH2 0x22F SWAP2 SWAP1 PUSH2 0xC9E JUMP JUMPDEST DUP5 PUSH2 0x23A SWAP2 SWAP1 PUSH2 0xD15 JUMP JUMPDEST SWAP1 POP PUSH0 DUP4 PUSH1 0xA PUSH2 0x24A SWAP2 SWAP1 PUSH2 0xC9E JUMP JUMPDEST DUP6 PUSH2 0x255 SWAP2 SWAP1 PUSH2 0xD45 JUMP JUMPDEST SWAP1 POP PUSH0 PUSH2 0x261 DUP4 PUSH2 0x4F9 JUMP JUMPDEST SWAP1 POP PUSH0 PUSH2 0x26D DUP4 PUSH2 0x4F9 JUMP JUMPDEST SWAP1 POP PUSH1 0x60 PUSH0 DUP5 GT ISZERO PUSH2 0x2A2 JUMPI DUP3 DUP3 PUSH1 0x40 MLOAD PUSH1 0x20 ADD PUSH2 0x28C SWAP3 SWAP2 SWAP1 PUSH2 0xDBF JUMP JUMPDEST PUSH1 0x40 MLOAD PUSH1 0x20 DUP2 DUP4 SUB SUB DUP2 MSTORE SWAP1 PUSH1 0x40 MSTORE SWAP1 POP PUSH2 0x2A6 JUMP JUMPDEST DUP3 SWAP1 POP JUMPDEST DUP1 SWAP6 POP POP POP POP POP POP JUMPDEST SWAP3 SWAP2 POP POP JUMP JUMPDEST PUSH0 DUP2 PUSH0 DUP1 CALLER PUSH20 0xFFFFFFFFFFFFFFFFFFFFFFFFFFFFFFFFFFFFFFFF AND PUSH20 0xFFFFFFFFFFFFFFFFFFFFFFFFFFFFFFFFFFFFFFFF AND DUP2 MSTORE PUSH1 0x20 ADD SWAP1 DUP2 MSTORE PUSH1 0x20 ADD PUSH0 KECCAK256 SWAP1 DUP2 PUSH2 0x2FF SWAP2 SWAP1 PUSH2 0xFE7 JUMP JUMPDEST POP PUSH1 0x1 SWAP1 POP SWAP2 SWAP1 POP JUMP JUMPDEST PUSH1 0x60 PUSH0 DUP1 PUSH0 DUP5 PUSH20 0xFFFFFFFFFFFFFFFFFFFFFFFFFFFFFFFFFFFFFFFF AND PUSH20 0xFFFFFFFFFFFFFFFFFFFFFFFFFFFFFFFFFFFFFFFF AND DUP2 MSTORE PUSH1 0x20 ADD SWAP1 DUP2 MSTORE PUSH1 0x20 ADD PUSH0 KECCAK256 DUP1 SLOAD PUSH2 0x353 SWAP1 PUSH2 0xE1A JUMP JUMPDEST SWAP1 POP GT PUSH2 0x395 JUMPI PUSH1 0x40 MLOAD PUSH32 0x8C379A000000000000000000000000000000000000000000000000000000000 DUP2 MSTORE PUSH1 0x4 ADD PUSH2 0x38C SWAP1 PUSH2 0x114C JUMP JUMPDEST PUSH1 0x40 MLOAD DUP1 SWAP2 SUB SWAP1 REVERT JUMPDEST PUSH0 DUP1 DUP4 PUSH20 0xFFFFFFFFFFFFFFFFFFFFFFFFFFFFFFFFFFFFFFFF AND PUSH20 0xFFFFFFFFFFFFFFFFFFFFFFFFFFFFFFFFFFFFFFFF AND DUP2 MSTORE PUSH1 0x20 ADD SWAP1 DUP2 MSTORE PUSH1 0x20 ADD PUSH0 KECCAK256 DUP1 SLOAD PUSH2 0x3DC SWAP1 PUSH2 0xE1A JUMP JUMPDEST DUP1 PUSH1 0x1F ADD PUSH1 0x20 DUP1 SWAP2 DIV MUL PUSH1 0x20 ADD PUSH1 0x40 MLOAD SWAP1 DUP2 ADD PUSH1 0x40 MSTORE DUP1 SWAP3 SWAP2 SWAP1 DUP2 DUP2 MSTORE PUSH1 0x20 ADD DUP3 DUP1 SLOAD PUSH2 0x408 SWAP1 PUSH2 0xE1A JUMP JUMPDEST DUP1 ISZERO PUSH2 0x453 JUMPI DUP1 PUSH1 0x1F LT PUSH2 0x42A JUMPI PUSH2 0x100 DUP1 DUP4 SLOAD DIV MUL DUP4 MSTORE SWAP2 PUSH1 0x20 ADD SWAP2 PUSH2 0x453 JUMP JUMPDEST DUP3 ADD SWAP2 SWAP1 PUSH0 MSTORE PUSH1 0x20 PUSH0 KECCAK256 SWAP1 JUMPDEST DUP2 SLOAD DUP2 MSTORE SWAP1 PUSH1 0x1 ADD SWAP1 PUSH1 0x20 ADD DUP1 DUP4 GT PUSH2 0x436 JUMPI DUP3 SWAP1 SUB PUSH1 0x1F AND DUP3 ADD SWAP2 JUMPDEST POP POP POP POP POP SWAP1 POP SWAP2 SWAP1 POP JUMP JUMPDEST PUSH0 PUSH1 0x20 MSTORE DUP1 PUSH0 MSTORE PUSH1 0x40 PUSH0 KECCAK256 PUSH0 SWAP2 POP SWAP1 POP DUP1 SLOAD PUSH2 0x47A SWAP1 PUSH2 0xE1A JUMP JUMPDEST DUP1 PUSH1 0x1F ADD PUSH1 0x20 DUP1 SWAP2 DIV MUL PUSH1 0x20 ADD PUSH1 0x40 MLOAD SWAP1 DUP2 ADD PUSH1 0x40 MSTORE DUP1 SWAP3 SWAP2 SWAP1 DUP2 DUP2 MSTORE PUSH1 0x20 ADD DUP3 DUP1 SLOAD PUSH2 0x4A6 SWAP1 PUSH2 0xE1A JUMP JUMPDEST DUP1 ISZERO PUSH2 0x4F1 JUMPI DUP1 PUSH1 0x1F LT PUSH2 0x4C8 JUMPI PUSH2 0x100 DUP1 DUP4 SLOAD DIV MUL DUP4 MSTORE SWAP2 PUSH1 0x20 ADD SWAP2 PUSH2 0x4F1 JUMP JUMPDEST DUP3 ADD SWAP2 SWAP1 PUSH0 MSTORE PUSH1 0x20 PUSH0 KECCAK256 SWAP1 JUMPDEST DUP2 SLOAD DUP2 MSTORE SWAP1 PUSH1 0x1 ADD SWAP1 PUSH1 0x20 ADD DUP1 DUP4 GT PUSH2 0x4D4 JUMPI DUP3 SWAP1 SUB PUSH1 0x1F AND DUP3 ADD SWAP2 JUMPDEST POP POP POP POP POP DUP2 JUMP JUMPDEST PUSH1 0x60 PUSH0 DUP3 SUB PUSH2 0x53F JUMPI PUSH1 0x40 MLOAD DUP1 PUSH1 0x40 ADD PUSH1 0x40 MSTORE DUP1 PUSH1 0x1 DUP2 MSTORE PUSH1 0x20 ADD PUSH32 0x3000000000000000000000000000000000000000000000000000000000000000 DUP2 MSTORE POP SWAP1 POP PUSH2 0x64D JUMP JUMPDEST PUSH0 DUP3 SWAP1 POP PUSH0 JUMPDEST PUSH0 DUP3 EQ PUSH2 0x56E JUMPI DUP1 DUP1 PUSH2 0x557 SWAP1 PUSH2 0x116A JUMP JUMPDEST SWAP2 POP POP PUSH1 0xA DUP3 PUSH2 0x567 SWAP2 SWAP1 PUSH2 0xD15 JUMP JUMPDEST SWAP2 POP PUSH2 0x545 JUMP JUMPDEST PUSH0 DUP2 PUSH8 0xFFFFFFFFFFFFFFFF DUP2 GT ISZERO PUSH2 0x589 JUMPI PUSH2 0x588 PUSH2 0x67B JUMP JUMPDEST JUMPDEST PUSH1 0x40 MLOAD SWAP1 DUP1 DUP3 MSTORE DUP1 PUSH1 0x1F ADD PUSH1 0x1F NOT AND PUSH1 0x20 ADD DUP3 ADD PUSH1 0x40 MSTORE DUP1 ISZERO PUSH2 0x5BB JUMPI DUP2 PUSH1 0x20 ADD PUSH1 0x1 DUP3 MUL DUP1 CALLDATASIZE DUP4 CALLDATACOPY DUP1 DUP3 ADD SWAP2 POP POP SWAP1 POP JUMPDEST POP SWAP1 POP JUMPDEST PUSH0 DUP6 EQ PUSH2 0x646 JUMPI PUSH1 0x1 DUP3 PUSH2 0x5D3 SWAP2 SWAP1 PUSH2 0x11B1 JUMP JUMPDEST SWAP2 POP PUSH1 0xA DUP6 PUSH2 0x5E2 SWAP2 SWAP1 PUSH2 0xD45 JUMP JUMPDEST PUSH1 0x30 PUSH2 0x5EE SWAP2 SWAP1 PUSH2 0x11E4 JUMP JUMPDEST PUSH1 0xF8 SHL DUP2 DUP4 DUP2 MLOAD DUP2 LT PUSH2 0x604 JUMPI PUSH2 0x603 PUSH2 0x1217 JUMP JUMPDEST JUMPDEST PUSH1 0x20 ADD ADD SWAP1 PUSH31 0xFFFFFFFFFFFFFFFFFFFFFFFFFFFFFFFFFFFFFFFFFFFFFFFFFFFFFFFFFFFFFF NOT AND SWAP1 DUP2 PUSH0 BYTE SWAP1 MSTORE8 POP PUSH1 0xA DUP6 PUSH2 0x63F SWAP2 SWAP1 PUSH2 0xD15 JUMP JUMPDEST SWAP5 POP PUSH2 0x5BF JUMP JUMPDEST DUP1 SWAP4 POP POP POP POP JUMPDEST SWAP2 SWAP1 POP JUMP JUMPDEST PUSH0 PUSH1 0x40 MLOAD SWAP1 POP SWAP1 JUMP JUMPDEST PUSH0 DUP1 REVERT JUMPDEST PUSH0 DUP1 REVERT JUMPDEST PUSH0 DUP1 REVERT JUMPDEST PUSH0 DUP1 REVERT JUMPDEST PUSH0 PUSH1 0x1F NOT PUSH1 0x1F DUP4 ADD AND SWAP1 POP SWAP2 SWAP1 POP JUMP JUMPDEST PUSH32 0x4E487B7100000000000000000000000000000000000000000000000000000000 PUSH0 MSTORE PUSH1 0x41 PUSH1 0x4 MSTORE PUSH1 0x24 PUSH0 REVERT JUMPDEST PUSH2 0x6B1 DUP3 PUSH2 0x66B JUMP JUMPDEST DUP2 ADD DUP2 DUP2 LT PUSH8 0xFFFFFFFFFFFFFFFF DUP3 GT OR ISZERO PUSH2 0x6D0 JUMPI PUSH2 0x6CF PUSH2 0x67B JUMP JUMPDEST JUMPDEST DUP1 PUSH1 0x40 MSTORE POP POP POP JUMP JUMPDEST PUSH0 PUSH2 0x6E2 PUSH2 0x652 JUMP JUMPDEST SWAP1 POP PUSH2 0x6EE DUP3 DUP3 PUSH2 0x6A8 JUMP JUMPDEST SWAP2 SWAP1 POP JUMP JUMPDEST PUSH0 PUSH8 0xFFFFFFFFFFFFFFFF DUP3 GT ISZERO PUSH2 0x70D JUMPI PUSH2 0x70C PUSH2 0x67B JUMP JUMPDEST JUMPDEST PUSH2 0x716 DUP3 PUSH2 0x66B JUMP JUMPDEST SWAP1 POP PUSH1 0x20 DUP2 ADD SWAP1 POP SWAP2 SWAP1 POP JUMP JUMPDEST DUP3 DUP2 DUP4 CALLDATACOPY PUSH0 DUP4 DUP4 ADD MSTORE POP POP POP JUMP JUMPDEST PUSH0 PUSH2 0x743 PUSH2 0x73E DUP5 PUSH2 0x6F3 JUMP JUMPDEST PUSH2 0x6D9 JUMP JUMPDEST SWAP1 POP DUP3 DUP2 MSTORE PUSH1 0x20 DUP2 ADD DUP5 DUP5 DUP5 ADD GT ISZERO PUSH2 0x75F JUMPI PUSH2 0x75E PUSH2 0x667 JUMP JUMPDEST JUMPDEST PUSH2 0x76A DUP5 DUP3 DUP6 PUSH2 0x723 JUMP JUMPDEST POP SWAP4 SWAP3 POP POP POP JUMP JUMPDEST PUSH0 DUP3 PUSH1 0x1F DUP4 ADD SLT PUSH2 0x786 JUMPI PUSH2 0x785 PUSH2 0x663 JUMP JUMPDEST JUMPDEST DUP2 CALLDATALOAD PUSH2 0x796 DUP5 DUP3 PUSH1 0x20 DUP7 ADD PUSH2 0x731 JUMP JUMPDEST SWAP2 POP POP SWAP3 SWAP2 POP POP JUMP JUMPDEST PUSH0 DUP2 SWAP1 POP SWAP2 SWAP1 POP JUMP JUMPDEST PUSH2 0x7B1 DUP2 PUSH2 0x79F JUMP JUMPDEST DUP2 EQ PUSH2 0x7BB JUMPI PUSH0 DUP1 REVERT JUMPDEST POP JUMP JUMPDEST PUSH0 DUP2 CALLDATALOAD SWAP1 POP PUSH2 0x7CC DUP2 PUSH2 0x7A8 JUMP JUMPDEST SWAP3 SWAP2 POP POP JUMP JUMPDEST PUSH0 DUP1 PUSH0 DUP1 PUSH0 DUP1 PUSH1 0xC0 DUP8 DUP10 SUB SLT ISZERO PUSH2 0x7EC JUMPI PUSH2 0x7EB PUSH2 0x65B JUMP JUMPDEST JUMPDEST PUSH0 DUP8 ADD CALLDATALOAD PUSH8 0xFFFFFFFFFFFFFFFF DUP2 GT ISZERO PUSH2 0x809 JUMPI PUSH2 0x808 PUSH2 0x65F JUMP JUMPDEST JUMPDEST PUSH2 0x815 DUP10 DUP3 DUP11 ADD PUSH2 0x772 JUMP JUMPDEST SWAP7 POP POP PUSH1 0x20 PUSH2 0x826 DUP10 DUP3 DUP11 ADD PUSH2 0x7BE JUMP JUMPDEST SWAP6 POP POP PUSH1 0x40 DUP8 ADD CALLDATALOAD PUSH8 0xFFFFFFFFFFFFFFFF DUP2 GT ISZERO PUSH2 0x847 JUMPI PUSH2 0x846 PUSH2 0x65F JUMP JUMPDEST JUMPDEST PUSH2 0x853 DUP10 DUP3 DUP11 ADD PUSH2 0x772 JUMP JUMPDEST SWAP5 POP POP PUSH1 0x60 PUSH2 0x864 DUP10 DUP3 DUP11 ADD PUSH2 0x7BE JUMP JUMPDEST SWAP4 POP POP PUSH1 0x80 DUP8 ADD CALLDATALOAD PUSH8 0xFFFFFFFFFFFFFFFF DUP2 GT ISZERO PUSH2 0x885 JUMPI PUSH2 0x884 PUSH2 0x65F JUMP JUMPDEST JUMPDEST PUSH2 0x891 DUP10 DUP3 DUP11 ADD PUSH2 0x772 JUMP JUMPDEST SWAP3 POP POP PUSH1 0xA0 PUSH2 0x8A2 DUP10 DUP3 DUP11 ADD PUSH2 0x7BE JUMP JUMPDEST SWAP2 POP POP SWAP3 SWAP6 POP SWAP3 SWAP6 POP SWAP3 SWAP6 JUMP JUMPDEST PUSH0 DUP2 MLOAD SWAP1 POP SWAP2 SWAP1 POP JUMP JUMPDEST PUSH0 DUP3 DUP3 MSTORE PUSH1 0x20 DUP3 ADD SWAP1 POP SWAP3 SWAP2 POP POP JUMP JUMPDEST PUSH0 JUMPDEST DUP4 DUP2 LT ISZERO PUSH2 0x8E6 JUMPI DUP1 DUP3 ADD MLOAD DUP2 DUP5 ADD MSTORE PUSH1 0x20 DUP2 ADD SWAP1 POP PUSH2 0x8CB JUMP JUMPDEST PUSH0 DUP5 DUP5 ADD MSTORE POP POP POP POP JUMP JUMPDEST PUSH0 PUSH2 0x8FB DUP3 PUSH2 0x8AF JUMP JUMPDEST PUSH2 0x905 DUP2 DUP6 PUSH2 0x8B9 JUMP JUMPDEST SWAP4 POP PUSH2 0x915 DUP2 DUP6 PUSH1 0x20 DUP7 ADD PUSH2 0x8C9 JUMP JUMPDEST PUSH2 0x91E DUP2 PUSH2 0x66B JUMP JUMPDEST DUP5 ADD SWAP2 POP POP SWAP3 SWAP2 POP POP JUMP JUMPDEST PUSH0 PUSH1 0x20 DUP3 ADD SWAP1 POP DUP2 DUP2 SUB PUSH0 DUP4 ADD MSTORE PUSH2 0x941 DUP2 DUP5 PUSH2 0x8F1 JUMP JUMPDEST SWAP1 POP SWAP3 SWAP2 POP POP JUMP JUMPDEST PUSH0 DUP1 PUSH1 0x40 DUP4 DUP6 SUB SLT ISZERO PUSH2 0x95F JUMPI PUSH2 0x95E PUSH2 0x65B JUMP JUMPDEST JUMPDEST PUSH0 PUSH2 0x96C DUP6 DUP3 DUP7 ADD PUSH2 0x7BE JUMP JUMPDEST SWAP3 POP POP PUSH1 0x20 PUSH2 0x97D DUP6 DUP3 DUP7 ADD PUSH2 0x7BE JUMP JUMPDEST SWAP2 POP POP SWAP3 POP SWAP3 SWAP1 POP JUMP JUMPDEST PUSH0 PUSH1 0x20 DUP3 DUP5 SUB SLT ISZERO PUSH2 0x99C JUMPI PUSH2 0x99B PUSH2 0x65B JUMP JUMPDEST JUMPDEST PUSH0 DUP3 ADD CALLDATALOAD PUSH8 0xFFFFFFFFFFFFFFFF DUP2 GT ISZERO PUSH2 0x9B9 JUMPI PUSH2 0x9B8 PUSH2 0x65F JUMP JUMPDEST JUMPDEST PUSH2 0x9C5 DUP5 DUP3 DUP6 ADD PUSH2 0x772 JUMP JUMPDEST SWAP2 POP POP SWAP3 SWAP2 POP POP JUMP JUMPDEST PUSH0 DUP2 ISZERO ISZERO SWAP1 POP SWAP2 SWAP1 POP JUMP JUMPDEST PUSH2 0x9E2 DUP2 PUSH2 0x9CE JUMP JUMPDEST DUP3 MSTORE POP POP JUMP JUMPDEST PUSH0 PUSH1 0x20 DUP3 ADD SWAP1 POP PUSH2 0x9FB PUSH0 DUP4 ADD DUP5 PUSH2 0x9D9 JUMP JUMPDEST SWAP3 SWAP2 POP POP JUMP JUMPDEST PUSH0 PUSH20 0xFFFFFFFFFFFFFFFFFFFFFFFFFFFFFFFFFFFFFFFF DUP3 AND SWAP1 POP SWAP2 SWAP1 POP JUMP JUMPDEST PUSH0 PUSH2 0xA2A DUP3 PUSH2 0xA01 JUMP JUMPDEST SWAP1 POP SWAP2 SWAP1 POP JUMP JUMPDEST PUSH2 0xA3A DUP2 PUSH2 0xA20 JUMP JUMPDEST DUP2 EQ PUSH2 0xA44 JUMPI PUSH0 DUP1 REVERT JUMPDEST POP JUMP JUMPDEST PUSH0 DUP2 CALLDATALOAD SWAP1 POP PUSH2 0xA55 DUP2 PUSH2 0xA31 JUMP JUMPDEST SWAP3 SWAP2 POP POP JUMP JUMPDEST PUSH0 PUSH1 0x20 DUP3 DUP5 SUB SLT ISZERO PUSH2 0xA70 JUMPI PUSH2 0xA6F PUSH2 0x65B JUMP JUMPDEST JUMPDEST PUSH0 PUSH2 0xA7D DUP5 DUP3 DUP6 ADD PUSH2 0xA47 JUMP JUMPDEST SWAP2 POP POP SWAP3 SWAP2 POP POP JUMP JUMPDEST PUSH0 PUSH1 0x20 DUP3 DUP5 SUB SLT ISZERO PUSH2 0xA9B JUMPI PUSH2 0xA9A PUSH2 0x65B JUMP JUMPDEST JUMPDEST PUSH0 PUSH2 0xAA8 DUP5 DUP3 DUP6 ADD PUSH2 0x7BE JUMP JUMPDEST SWAP2 POP POP SWAP3 SWAP2 POP POP JUMP JUMPDEST PUSH0 DUP2 SWAP1 POP SWAP3 SWAP2 POP POP JUMP JUMPDEST PUSH0 PUSH2 0xAC5 DUP3 PUSH2 0x8AF JUMP JUMPDEST PUSH2 0xACF DUP2 DUP6 PUSH2 0xAB1 JUMP JUMPDEST SWAP4 POP PUSH2 0xADF DUP2 DUP6 PUSH1 0x20 DUP7 ADD PUSH2 0x8C9 JUMP JUMPDEST DUP1 DUP5 ADD SWAP2 POP POP SWAP3 SWAP2 POP POP JUMP JUMPDEST PUSH0 PUSH2 0xAF6 DUP3 DUP10 PUSH2 0xABB JUMP JUMPDEST SWAP2 POP PUSH2 0xB02 DUP3 DUP9 PUSH2 0xABB JUMP JUMPDEST SWAP2 POP PUSH2 0xB0E DUP3 DUP8 PUSH2 0xABB JUMP JUMPDEST SWAP2 POP PUSH2 0xB1A DUP3 DUP7 PUSH2 0xABB JUMP JUMPDEST SWAP2 POP PUSH2 0xB26 DUP3 DUP6 PUSH2 0xABB JUMP JUMPDEST SWAP2 POP PUSH2 0xB32 DUP3 DUP5 PUSH2 0xABB JUMP JUMPDEST SWAP2 POP DUP2 SWAP1 POP SWAP8 SWAP7 POP POP POP POP POP POP POP JUMP JUMPDEST PUSH32 0x4E487B7100000000000000000000000000000000000000000000000000000000 PUSH0 MSTORE PUSH1 0x11 PUSH1 0x4 MSTORE PUSH1 0x24 PUSH0 REVERT JUMPDEST PUSH0 DUP2 PUSH1 0x1 SHR SWAP1 POP SWAP2 SWAP1 POP JUMP JUMPDEST PUSH0 DUP1 DUP3 SWAP2 POP DUP4 SWAP1 POP JUMPDEST PUSH1 0x1 DUP6 GT ISZERO PUSH2 0xBC4 JUMPI DUP1 DUP7 DIV DUP2 GT ISZERO PUSH2 0xBA0 JUMPI PUSH2 0xB9F PUSH2 0xB42 JUMP JUMPDEST JUMPDEST PUSH1 0x1 DUP6 AND ISZERO PUSH2 0xBAF JUMPI DUP1 DUP3 MUL SWAP2 POP JUMPDEST DUP1 DUP2 MUL SWAP1 POP PUSH2 0xBBD DUP6 PUSH2 0xB6F JUMP JUMPDEST SWAP5 POP PUSH2 0xB84 JUMP JUMPDEST SWAP5 POP SWAP5 SWAP3 POP POP POP JUMP JUMPDEST PUSH0 DUP3 PUSH2 0xBDC JUMPI PUSH1 0x1 SWAP1 POP PUSH2 0xC97 JUMP JUMPDEST DUP2 PUSH2 0xBE9 JUMPI PUSH0 SWAP1 POP PUSH2 0xC97 JUMP JUMPDEST DUP2 PUSH1 0x1 DUP2 EQ PUSH2 0xBFF JUMPI PUSH1 0x2 DUP2 EQ PUSH2 0xC09 JUMPI PUSH2 0xC38 JUMP JUMPDEST PUSH1 0x1 SWAP2 POP POP PUSH2 0xC97 JUMP JUMPDEST PUSH1 0xFF DUP5 GT ISZERO PUSH2 0xC1B JUMPI PUSH2 0xC1A PUSH2 0xB42 JUMP JUMPDEST JUMPDEST DUP4 PUSH1 0x2 EXP SWAP2 POP DUP5 DUP3 GT ISZERO PUSH2 0xC32 JUMPI PUSH2 0xC31 PUSH2 0xB42 JUMP JUMPDEST JUMPDEST POP PUSH2 0xC97 JUMP JUMPDEST POP PUSH1 0x20 DUP4 LT PUSH2 0x133 DUP4 LT AND PUSH1 0x4E DUP5 LT PUSH1 0xB DUP5 LT AND OR ISZERO PUSH2 0xC6D JUMPI DUP3 DUP3 EXP SWAP1 POP DUP4 DUP2 GT ISZERO PUSH2 0xC68 JUMPI PUSH2 0xC67 PUSH2 0xB42 JUMP JUMPDEST JUMPDEST PUSH2 0xC97 JUMP JUMPDEST PUSH2 0xC7A DUP5 DUP5 DUP5 PUSH1 0x1 PUSH2 0xB7B JUMP JUMPDEST SWAP3 POP SWAP1 POP DUP2 DUP5 DIV DUP2 GT ISZERO PUSH2 0xC91 JUMPI PUSH2 0xC90 PUSH2 0xB42 JUMP JUMPDEST JUMPDEST DUP2 DUP2 MUL SWAP1 POP JUMPDEST SWAP4 SWAP3 POP POP POP JUMP JUMPDEST PUSH0 PUSH2 0xCA8 DUP3 PUSH2 0x79F JUMP JUMPDEST SWAP2 POP PUSH2 0xCB3 DUP4 PUSH2 0x79F JUMP JUMPDEST SWAP3 POP PUSH2 0xCE0 PUSH32 0xFFFFFFFFFFFFFFFFFFFFFFFFFFFFFFFFFFFFFFFFFFFFFFFFFFFFFFFFFFFFFFFF DUP5 DUP5 PUSH2 0xBCD JUMP JUMPDEST SWAP1 POP SWAP3 SWAP2 POP POP JUMP JUMPDEST PUSH32 0x4E487B7100000000000000000000000000000000000000000000000000000000 PUSH0 MSTORE PUSH1 0x12 PUSH1 0x4 MSTORE PUSH1 0x24 PUSH0 REVERT JUMPDEST PUSH0 PUSH2 0xD1F DUP3 PUSH2 0x79F JUMP JUMPDEST SWAP2 POP PUSH2 0xD2A DUP4 PUSH2 0x79F JUMP JUMPDEST SWAP3 POP DUP3 PUSH2 0xD3A JUMPI PUSH2 0xD39 PUSH2 0xCE8 JUMP JUMPDEST JUMPDEST DUP3 DUP3 DIV SWAP1 POP SWAP3 SWAP2 POP POP JUMP JUMPDEST PUSH0 PUSH2 0xD4F DUP3 PUSH2 0x79F JUMP JUMPDEST SWAP2 POP PUSH2 0xD5A DUP4 PUSH2 0x79F JUMP JUMPDEST SWAP3 POP DUP3 PUSH2 0xD6A JUMPI PUSH2 0xD69 PUSH2 0xCE8 JUMP JUMPDEST JUMPDEST DUP3 DUP3 MOD SWAP1 POP SWAP3 SWAP2 POP POP JUMP JUMPDEST PUSH32 0x2E00000000000000000000000000000000000000000000000000000000000000 PUSH0 DUP3 ADD MSTORE POP JUMP JUMPDEST PUSH0 PUSH2 0xDA9 PUSH1 0x1 DUP4 PUSH2 0xAB1 JUMP JUMPDEST SWAP2 POP PUSH2 0xDB4 DUP3 PUSH2 0xD75 JUMP JUMPDEST PUSH1 0x1 DUP3 ADD SWAP1 POP SWAP2 SWAP1 POP JUMP JUMPDEST PUSH0 PUSH2 0xDCA DUP3 DUP6 PUSH2 0xABB JUMP JUMPDEST SWAP2 POP PUSH2 0xDD5 DUP3 PUSH2 0xD9D JUMP JUMPDEST SWAP2 POP PUSH2 0xDE1 DUP3 DUP5 PUSH2 0xABB JUMP JUMPDEST SWAP2 POP DUP2 SWAP1 POP SWAP4 SWAP3 POP POP POP JUMP JUMPDEST PUSH32 0x4E487B7100000000000000000000000000000000000000000000000000000000 PUSH0 MSTORE PUSH1 0x22 PUSH1 0x4 MSTORE PUSH1 0x24 PUSH0 REVERT JUMPDEST PUSH0 PUSH1 0x2 DUP3 DIV SWAP1 POP PUSH1 0x1 DUP3 AND DUP1 PUSH2 0xE31 JUMPI PUSH1 0x7F DUP3 AND SWAP2 POP JUMPDEST PUSH1 0x20 DUP3 LT DUP2 SUB PUSH2 0xE44 JUMPI PUSH2 0xE43 PUSH2 0xDED JUMP JUMPDEST JUMPDEST POP SWAP2 SWAP1 POP JUMP JUMPDEST PUSH0 DUP2 SWAP1 POP DUP2 PUSH0 MSTORE PUSH1 0x20 PUSH0 KECCAK256 SWAP1 POP SWAP2 SWAP1 POP JUMP JUMPDEST PUSH0 PUSH1 0x20 PUSH1 0x1F DUP4 ADD DIV SWAP1 POP SWAP2 SWAP1 POP JUMP JUMPDEST PUSH0 DUP3 DUP3 SHL SWAP1 POP SWAP3 SWAP2 POP POP JUMP JUMPDEST PUSH0 PUSH1 0x8 DUP4 MUL PUSH2 0xEA6 PUSH32 0xFFFFFFFFFFFFFFFFFFFFFFFFFFFFFFFFFFFFFFFFFFFFFFFFFFFFFFFFFFFFFFFF DUP3 PUSH2 0xE6B JUMP JUMPDEST PUSH2 0xEB0 DUP7 DUP4 PUSH2 0xE6B JUMP JUMPDEST SWAP6 POP DUP1 NOT DUP5 AND SWAP4 POP DUP1 DUP7 AND DUP5 OR SWAP3 POP POP POP SWAP4 SWAP3 POP POP POP JUMP JUMPDEST PUSH0 DUP2 SWAP1 POP SWAP2 SWAP1 POP JUMP JUMPDEST PUSH0 PUSH2 0xEEB PUSH2 0xEE6 PUSH2 0xEE1 DUP5 PUSH2 0x79F JUMP JUMPDEST PUSH2 0xEC8 JUMP JUMPDEST PUSH2 0x79F JUMP JUMPDEST SWAP1 POP SWAP2 SWAP1 POP JUMP JUMPDEST PUSH0 DUP2 SWAP1 POP SWAP2 SWAP1 POP JUMP JUMPDEST PUSH2 0xF04 DUP4 PUSH2 0xED1 JUMP JUMPDEST PUSH2 0xF18 PUSH2 0xF10 DUP3 PUSH2 0xEF2 JUMP JUMPDEST DUP5 DUP5 SLOAD PUSH2 0xE77 JUMP JUMPDEST DUP3 SSTORE POP POP POP POP JUMP JUMPDEST PUSH0 SWAP1 JUMP JUMPDEST PUSH2 0xF2C PUSH2 0xF20 JUMP JUMPDEST PUSH2 0xF37 DUP2 DUP5 DUP5 PUSH2 0xEFB JUMP JUMPDEST POP POP POP JUMP JUMPDEST JUMPDEST DUP2 DUP2 LT ISZERO PUSH2 0xF5A JUMPI PUSH2 0xF4F PUSH0 DUP3 PUSH2 0xF24 JUMP JUMPDEST PUSH1 0x1 DUP2 ADD SWAP1 POP PUSH2 0xF3D JUMP JUMPDEST POP POP JUMP JUMPDEST PUSH1 0x1F DUP3 GT ISZERO PUSH2 0xF9F JUMPI PUSH2 0xF70 DUP2 PUSH2 0xE4A JUMP JUMPDEST PUSH2 0xF79 DUP5 PUSH2 0xE5C JUMP JUMPDEST DUP2 ADD PUSH1 0x20 DUP6 LT ISZERO PUSH2 0xF88 JUMPI DUP2 SWAP1 POP JUMPDEST PUSH2 0xF9C PUSH2 0xF94 DUP6 PUSH2 0xE5C JUMP JUMPDEST DUP4 ADD DUP3 PUSH2 0xF3C JUMP JUMPDEST POP POP JUMPDEST POP POP POP JUMP JUMPDEST PUSH0 DUP3 DUP3 SHR SWAP1 POP SWAP3 SWAP2 POP POP JUMP JUMPDEST PUSH0 PUSH2 0xFBF PUSH0 NOT DUP5 PUSH1 0x8 MUL PUSH2 0xFA4 JUMP JUMPDEST NOT DUP1 DUP4 AND SWAP2 POP POP SWAP3 SWAP2 POP POP JUMP JUMPDEST PUSH0 PUSH2 0xFD7 DUP4 DUP4 PUSH2 0xFB0 JUMP JUMPDEST SWAP2 POP DUP3 PUSH1 0x2 MUL DUP3 OR SWAP1 POP SWAP3 SWAP2 POP POP JUMP JUMPDEST PUSH2 0xFF0 DUP3 PUSH2 0x8AF JUMP JUMPDEST PUSH8 0xFFFFFFFFFFFFFFFF DUP2 GT ISZERO PUSH2 0x1009 JUMPI PUSH2 0x1008 PUSH2 0x67B JUMP JUMPDEST JUMPDEST PUSH2 0x1013 DUP3 SLOAD PUSH2 0xE1A JUMP JUMPDEST PUSH2 0x101E DUP3 DUP3 DUP6 PUSH2 0xF5E JUMP JUMPDEST PUSH0 PUSH1 0x20 SWAP1 POP PUSH1 0x1F DUP4 GT PUSH1 0x1 DUP2 EQ PUSH2 0x104F JUMPI PUSH0 DUP5 ISZERO PUSH2 0x103D JUMPI DUP3 DUP8 ADD MLOAD SWAP1 POP JUMPDEST PUSH2 0x1047 DUP6 DUP3 PUSH2 0xFCC JUMP JUMPDEST DUP7 SSTORE POP PUSH2 0x10AE JUMP JUMPDEST PUSH1 0x1F NOT DUP5 AND PUSH2 0x105D DUP7 PUSH2 0xE4A JUMP JUMPDEST PUSH0 JUMPDEST DUP3 DUP2 LT ISZERO PUSH2 0x1084 JUMPI DUP5 DUP10 ADD MLOAD DUP3 SSTORE PUSH1 0x1 DUP3 ADD SWAP2 POP PUSH1 0x20 DUP6 ADD SWAP5 POP PUSH1 0x20 DUP2 ADD SWAP1 POP PUSH2 0x105F JUMP JUMPDEST DUP7 DUP4 LT ISZERO PUSH2 0x10A1 JUMPI DUP5 DUP10 ADD MLOAD PUSH2 0x109D PUSH1 0x1F DUP10 AND DUP3 PUSH2 0xFB0 JUMP JUMPDEST DUP4 SSTORE POP JUMPDEST PUSH1 0x1 PUSH1 0x2 DUP9 MUL ADD DUP9 SSTORE POP POP POP JUMPDEST POP POP POP POP POP POP JUMP JUMPDEST PUSH32 0x495046532068617368206E6F7420666F756E6420666F7220746865206163636F PUSH0 DUP3 ADD MSTORE PUSH32 0x756E742E20506C6561736520736176652049504653486173682061626F757420 PUSH1 0x20 DUP3 ADD MSTORE PUSH32 0x74686973206163636F756E742E00000000000000000000000000000000000000 PUSH1 0x40 DUP3 ADD MSTORE POP JUMP JUMPDEST PUSH0 PUSH2 0x1136 PUSH1 0x4D DUP4 PUSH2 0x8B9 JUMP JUMPDEST SWAP2 POP PUSH2 0x1141 DUP3 PUSH2 0x10B6 JUMP JUMPDEST PUSH1 0x60 DUP3 ADD SWAP1 POP SWAP2 SWAP1 POP JUMP JUMPDEST PUSH0 PUSH1 0x20 DUP3 ADD SWAP1 POP DUP2 DUP2 SUB PUSH0 DUP4 ADD MSTORE PUSH2 0x1163 DUP2 PUSH2 0x112A JUMP JUMPDEST SWAP1 POP SWAP2 SWAP1 POP JUMP JUMPDEST PUSH0 PUSH2 0x1174 DUP3 PUSH2 0x79F JUMP JUMPDEST SWAP2 POP PUSH32 0xFFFFFFFFFFFFFFFFFFFFFFFFFFFFFFFFFFFFFFFFFFFFFFFFFFFFFFFFFFFFFFFF DUP3 SUB PUSH2 0x11A6 JUMPI PUSH2 0x11A5 PUSH2 0xB42 JUMP JUMPDEST JUMPDEST PUSH1 0x1 DUP3 ADD SWAP1 POP SWAP2 SWAP1 POP JUMP JUMPDEST PUSH0 PUSH2 0x11BB DUP3 PUSH2 0x79F JUMP JUMPDEST SWAP2 POP PUSH2 0x11C6 DUP4 PUSH2 0x79F JUMP JUMPDEST SWAP3 POP DUP3 DUP3 SUB SWAP1 POP DUP2 DUP2 GT ISZERO PUSH2 0x11DE JUMPI PUSH2 0x11DD PUSH2 0xB42 JUMP JUMPDEST JUMPDEST SWAP3 SWAP2 POP POP JUMP JUMPDEST PUSH0 PUSH2 0x11EE DUP3 PUSH2 0x79F JUMP JUMPDEST SWAP2 POP PUSH2 0x11F9 DUP4 PUSH2 0x79F JUMP JUMPDEST SWAP3 POP DUP3 DUP3 ADD SWAP1 POP DUP1 DUP3 GT ISZERO PUSH2 0x1211 JUMPI PUSH2 0x1210 PUSH2 0xB42 JUMP JUMPDEST JUMPDEST SWAP3 SWAP2 POP POP JUMP JUMPDEST PUSH32 0x4E487B7100000000000000000000000000000000000000000000000000000000 PUSH0 MSTORE PUSH1 0x32 PUSH1 0x4 MSTORE PUSH1 0x24 PUSH0 REVERT INVALID LOG2 PUSH5 0x6970667358 0x22 SLT KECCAK256 BLOCKHASH 0xD3 DUP9 DUP9 0xAA PUSH22 0xD1E028C03D22A22FD6F78C71794267183796DDD19BE0 PUSH12 0xE09B0964736F6C6343000814 STOP CALLER "
		},
		"gasEstimates": {
			"creation": {
				"codeDepositCost": "946000",
				"executionCost": "979",
				"totalCost": "946979"
			},
			"external": {
				"decimalToString(uint256,uint256)": "infinite",
				"generateIPFSHash(string,uint256,string,uint256,string,uint256)": "infinite",
				"getIPFSHash(address)": "infinite",
				"ipfsHashes(address)": "infinite",
				"saveIPFSHash(string)": "infinite",
				"uintToString(uint256)": "infinite"
			}
		},
		"methodIdentifiers": {
			"decimalToString(uint256,uint256)": "75647ac6",
			"generateIPFSHash(string,uint256,string,uint256,string,uint256)": "4a9760e1",
			"getIPFSHash(address)": "cb0ab425",
			"ipfsHashes(address)": "e1e322ed",
			"saveIPFSHash(string)": "b075e746",
			"uintToString(uint256)": "e9395679"
		}
	},
	"abi": [
		{
			"inputs": [
				{
					"internalType": "uint256",
					"name": "value",
					"type": "uint256"
				},
				{
					"internalType": "uint256",
					"name": "decimals",
					"type": "uint256"
				}
			],
			"name": "decimalToString",
			"outputs": [
				{
					"internalType": "string",
					"name": "",
					"type": "string"
				}
			],
			"stateMutability": "pure",
			"type": "function"
		},
		{
			"inputs": [
				{
					"internalType": "string",
					"name": "name",
					"type": "string"
				},
				{
					"internalType": "uint256",
					"name": "studentID",
					"type": "uint256"
				},
				{
					"internalType": "string",
					"name": "major",
					"type": "string"
				},
				{
					"internalType": "uint256",
					"name": "gpa",
					"type": "uint256"
				},
				{
					"internalType": "string",
					"name": "company",
					"type": "string"
				},
				{
					"internalType": "uint256",
					"name": "balance",
					"type": "uint256"
				}
			],
			"name": "generateIPFSHash",
			"outputs": [
				{
					"internalType": "string",
					"name": "",
					"type": "string"
				}
			],
			"stateMutability": "pure",
			"type": "function"
		},
		{
			"inputs": [
				{
					"internalType": "address",
					"name": "account",
					"type": "address"
				}
			],
			"name": "getIPFSHash",
			"outputs": [
				{
					"internalType": "string",
					"name": "",
					"type": "string"
				}
			],
			"stateMutability": "view",
			"type": "function"
		},
		{
			"inputs": [
				{
					"internalType": "address",
					"name": "",
					"type": "address"
				}
			],
			"name": "ipfsHashes",
			"outputs": [
				{
					"internalType": "string",
					"name": "",
					"type": "string"
				}
			],
			"stateMutability": "view",
			"type": "function"
		},
		{
			"inputs": [
				{
					"internalType": "string",
					"name": "ipfsHash",
					"type": "string"
				}
			],
			"name": "saveIPFSHash",
			"outputs": [
				{
					"internalType": "bool",
					"name": "",
					"type": "bool"
				}
			],
			"stateMutability": "nonpayable",
			"type": "function"
		},
		{
			"inputs": [
				{
					"internalType": "uint256",
					"name": "value",
					"type": "uint256"
				}
			],
			"name": "uintToString",
			"outputs": [
				{
					"internalType": "string",
					"name": "",
					"type": "string"
				}
			],
			"stateMutability": "pure",
			"type": "function"
		}
	]
}