{
	"data": {
		"bytecode": {
			"linkReferences": {},
			"object": "60806040526d49f4a966d45cd522088f000000006005557316bbbd5bf6a7fdf52f896cc51162783e9e09917960095f6101000a81548173ffffffffffffffffffffffffffffffffffffffff021916908373ffffffffffffffffffffffffffffffffffffffff16021790555034801562000076575f80fd5b50604051620039363803806200393683398181016040528101906200009c9190620004e0565b6040518060400160405280600481526020017f414a4f55000000000000000000000000000000000000000000000000000000008152506040518060400160405280600281526020017f414a000000000000000000000000000000000000000000000000000000000000815250818181600390816200011b919062000774565b5080600490816200012d919062000774565b5050506200014430600554620001cd60201b60201c565b50503060065f6101000a81548173ffffffffffffffffffffffffffffffffffffffff021916908373ffffffffffffffffffffffffffffffffffffffff1602179055508060075f6101000a81548173ffffffffffffffffffffffffffffffffffffffff021916908373ffffffffffffffffffffffffffffffffffffffff1602179055505062000952565b5f73ffffffffffffffffffffffffffffffffffffffff168273ffffffffffffffffffffffffffffffffffffffff160362000240575f6040517fec442f0500000000000000000000000000000000000000000000000000000000815260040162000237919062000869565b60405180910390fd5b620002535f83836200025760201b60201c565b5050565b5f73ffffffffffffffffffffffffffffffffffffffff168373ffffffffffffffffffffffffffffffffffffffff1603620002ab578060025f8282546200029e9190620008b1565b925050819055506200037c565b5f805f8573ffffffffffffffffffffffffffffffffffffffff1673ffffffffffffffffffffffffffffffffffffffff1681526020019081526020015f205490508181101562000337578381836040517fe450d38c0000000000000000000000000000000000000000000000000000000081526004016200032e93929190620008fc565b60405180910390fd5b8181035f808673ffffffffffffffffffffffffffffffffffffffff1673ffffffffffffffffffffffffffffffffffffffff1681526020019081526020015f2081905550505b5f73ffffffffffffffffffffffffffffffffffffffff168273ffffffffffffffffffffffffffffffffffffffff1603620003c5578060025f82825403925050819055506200040f565b805f808473ffffffffffffffffffffffffffffffffffffffff1673ffffffffffffffffffffffffffffffffffffffff1681526020019081526020015f205f82825401925050819055505b8173ffffffffffffffffffffffffffffffffffffffff168373ffffffffffffffffffffffffffffffffffffffff167fddf252ad1be2c89b69c2b068fc378daa952ba7f163c4a11628f55a4df523b3ef836040516200046e919062000937565b60405180910390a3505050565b5f80fd5b5f73ffffffffffffffffffffffffffffffffffffffff82169050919050565b5f620004aa826200047f565b9050919050565b620004bc816200049e565b8114620004c7575f80fd5b50565b5f81519050620004da81620004b1565b92915050565b5f60208284031215620004f857620004f76200047b565b5b5f6200050784828501620004ca565b91505092915050565b5f81519050919050565b7f4e487b71000000000000000000000000000000000000000000000000000000005f52604160045260245ffd5b7f4e487b71000000000000000000000000000000000000000000000000000000005f52602260045260245ffd5b5f60028204905060018216806200058c57607f821691505b602082108103620005a257620005a162000547565b5b50919050565b5f819050815f5260205f209050919050565b5f6020601f8301049050919050565b5f82821b905092915050565b5f60088302620006067fffffffffffffffffffffffffffffffffffffffffffffffffffffffffffffffff82620005c9565b620006128683620005c9565b95508019841693508086168417925050509392505050565b5f819050919050565b5f819050919050565b5f6200065c6200065662000650846200062a565b62000633565b6200062a565b9050919050565b5f819050919050565b62000677836200063c565b6200068f620006868262000663565b848454620005d5565b825550505050565b5f90565b620006a562000697565b620006b28184846200066c565b505050565b5b81811015620006d957620006cd5f826200069b565b600181019050620006b8565b5050565b601f8211156200072857620006f281620005a8565b620006fd84620005ba565b810160208510156200070d578190505b620007256200071c85620005ba565b830182620006b7565b50505b505050565b5f82821c905092915050565b5f6200074a5f19846008026200072d565b1980831691505092915050565b5f62000764838362000739565b9150826002028217905092915050565b6200077f8262000510565b67ffffffffffffffff8111156200079b576200079a6200051a565b5b620007a7825462000574565b620007b4828285620006dd565b5f60209050601f831160018114620007ea575f8415620007d5578287015190505b620007e1858262000757565b86555062000850565b601f198416620007fa86620005a8565b5f5b828110156200082357848901518255600182019150602085019450602081019050620007fc565b868310156200084357848901516200083f601f89168262000739565b8355505b6001600288020188555050505b505050505050565b62000863816200049e565b82525050565b5f6020820190506200087e5f83018462000858565b92915050565b7f4e487b71000000000000000000000000000000000000000000000000000000005f52601160045260245ffd5b5f620008bd826200062a565b9150620008ca836200062a565b9250828201905080821115620008e557620008e462000884565b5b92915050565b620008f6816200062a565b82525050565b5f606082019050620009115f83018662000858565b620009206020830185620008eb565b6200092f6040830184620008eb565b949350505050565b5f6020820190506200094c5f830184620008eb565b92915050565b612fd680620009605f395ff3fe608060405234801561000f575f80fd5b5060043610610140575f3560e01c806370a08231116100b6578063a554494d1161007a578063a554494d146103c7578063a8baf6dd146103e3578063a9059cbb14610401578063bd70c10314610431578063dab1167814610461578063dd62ed3e1461047d57610140565b806370a08231146102e45780638b01dc86146103145780638b9c657a1461034457806395d89b4114610379578063a457c2d71461039757610140565b8063298e5d2d11610108578063298e5d2d146101fc5780632ff2e9dc1461022c578063313ce5671461024a57806339509351146102685780633a23565c146102985780635be99af4146102b457610140565b806306fdde0314610144578063095ea7b3146101625780630ebcbdb81461019257806318160ddd146101ae57806323b872dd146101cc575b5f80fd5b61014c6104ad565b604051610159919061212f565b60405180910390f35b61017c600480360381019061017791906121ed565b61053d565b6040516101899190612245565b60405180910390f35b6101ac60048036038101906101a7919061238a565b61055f565b005b6101b6610727565b6040516101c39190612476565b60405180910390f35b6101e660048036038101906101e1919061248f565b610730565b6040516101f39190612245565b60405180910390f35b610216600480360381019061021191906121ed565b61075e565b6040516102239190612245565b60405180910390f35b6102346107c0565b6040516102419190612476565b60405180910390f35b6102526107c6565b60405161025f91906124fa565b60405180910390f35b610282600480360381019061027d91906121ed565b6107ce565b60405161028f9190612245565b60405180910390f35b6102b260048036038101906102ad9190612513565b610804565b005b6102ce60048036038101906102c99190612577565b610a8c565b6040516102db9190612476565b60405180910390f35b6102fe60048036038101906102f99190612577565b610edd565b60405161030b9190612476565b60405180910390f35b61032e60048036038101906103299190612513565b610f22565b60405161033b9190612476565b60405180910390f35b61035e60048036038101906103599190612577565b610f74565b604051610370969594939291906125a2565b60405180910390f35b61038161113e565b60405161038e919061212f565b60405180910390f35b6103b160048036038101906103ac91906121ed565b6111ce565b6040516103be9190612245565b60405180910390f35b6103e160048036038101906103dc9190612513565b611249565b005b6103eb6114cb565b6040516103f89190612625565b60405180910390f35b61041b600480360381019061041691906121ed565b6114f3565b6040516104289190612245565b60405180910390f35b61044b60048036038101906104469190612679565b6115ec565b6040516104589190612476565b60405180910390f35b61047b60048036038101906104769190612577565b611640565b005b610497600480360381019061049291906126dd565b6119ba565b6040516104a49190612476565b60405180910390f35b6060600380546104bc90612748565b80601f01602080910402602001604051908101604052809291908181526020018280546104e890612748565b80156105335780601f1061050a57610100808354040283529160200191610533565b820191905f5260205f20905b81548152906001019060200180831161051657829003601f168201915b5050505050905090565b5f80610547611a3c565b9050610554818585611a43565b600191505092915050565b8460085f8873ffffffffffffffffffffffffffffffffffffffff1673ffffffffffffffffffffffffffffffffffffffff1681526020019081526020015f205f0190816105ab9190612915565b508360085f8873ffffffffffffffffffffffffffffffffffffffff1673ffffffffffffffffffffffffffffffffffffffff1681526020019081526020015f20600101819055508260085f8873ffffffffffffffffffffffffffffffffffffffff1673ffffffffffffffffffffffffffffffffffffffff1681526020019081526020015f20600201908161063e9190612915565b508160085f8873ffffffffffffffffffffffffffffffffffffffff1673ffffffffffffffffffffffffffffffffffffffff1681526020019081526020015f20600301819055508060085f8873ffffffffffffffffffffffffffffffffffffffff1673ffffffffffffffffffffffffffffffffffffffff1681526020019081526020015f2060040190816106d19190612915565b506106db86610edd565b60085f8873ffffffffffffffffffffffffffffffffffffffff1673ffffffffffffffffffffffffffffffffffffffff1681526020019081526020015f2060050181905550505050505050565b5f600254905090565b5f8061073a611a3c565b9050610747858285611a55565b610752858585611ae7565b60019150509392505050565b5f6107698383611bd7565b61077283610edd565b60085f8573ffffffffffffffffffffffffffffffffffffffff1673ffffffffffffffffffffffffffffffffffffffff1681526020019081526020015f20600501819055506001905092915050565b60055481565b5f6012905090565b5f806107d8611a3c565b90506107f98185856107ea85896119ba565b6107f49190612a11565b611a43565b600191505092915050565b5f8311610846576040517f08c379a000000000000000000000000000000000000000000000000000000000815260040161083d90612a8e565b60405180910390fd5b5f8490508073ffffffffffffffffffffffffffffffffffffffff1663095ea7b330866040518363ffffffff1660e01b8152600401610885929190612aac565b6020604051808303815f875af11580156108a1573d5f803e3d5ffd5b505050506040513d601f19601f820116820180604052508101906108c59190612afd565b610904576040517f08c379a00000000000000000000000000000000000000000000000000000000081526004016108fb90612b72565b60405180910390fd5b8073ffffffffffffffffffffffffffffffffffffffff166323b872dd3330876040518463ffffffff1660e01b815260040161094193929190612b90565b6020604051808303815f875af115801561095d573d5f803e3d5ffd5b505050506040513d601f19601f820116820180604052508101906109819190612afd565b6109c0576040517f08c379a00000000000000000000000000000000000000000000000000000000081526004016109b790612c0f565b60405180910390fd5b5f6109cd86868686610f22565b90505f8111610a11576040517f08c379a0000000000000000000000000000000000000000000000000000000008152600401610a0890612c77565b60405180910390fd5b610a1b3382611bd7565b8573ffffffffffffffffffffffffffffffffffffffff163373ffffffffffffffffffffffffffffffffffffffff167f631fb37dba9bbcb8b2f3be2d669e365ae9f1bd850cc57dfe8b7ccd7d979a2bba873085604051610a7c93929190612c95565b60405180910390a3505050505050565b5f8060085f8473ffffffffffffffffffffffffffffffffffffffff1673ffffffffffffffffffffffffffffffffffffffff1681526020019081526020015f206040518060c00160405290815f82018054610ae590612748565b80601f0160208091040260200160405190810160405280929190818152602001828054610b1190612748565b8015610b5c5780601f10610b3357610100808354040283529160200191610b5c565b820191905f5260205f20905b815481529060010190602001808311610b3f57829003601f168201915b5050505050815260200160018201548152602001600282018054610b7f90612748565b80601f0160208091040260200160405190810160405280929190818152602001828054610bab90612748565b8015610bf65780601f10610bcd57610100808354040283529160200191610bf6565b820191905f5260205f20905b815481529060010190602001808311610bd957829003601f168201915b5050505050815260200160038201548152602001600482018054610c1990612748565b80601f0160208091040260200160405190810160405280929190818152602001828054610c4590612748565b8015610c905780601f10610c6757610100808354040283529160200191610c90565b820191905f5260205f20905b815481529060010190602001808311610c7357829003601f168201915b5050505050815260200160058201548152505090505f60095f9054906101000a900473ffffffffffffffffffffffffffffffffffffffff1673ffffffffffffffffffffffffffffffffffffffff1663cb0ab425856040518263ffffffff1660e01b8152600401610d009190612625565b5f60405180830381865afa158015610d1a573d5f803e3d5ffd5b505050506040513d5f823e3d601f19601f82011682018060405250810190610d429190612d38565b905060095f9054906101000a900473ffffffffffffffffffffffffffffffffffffffff1673ffffffffffffffffffffffffffffffffffffffff16634a9760e1835f015184602001518560400151866060015187608001518860a001516040518763ffffffff1660e01b8152600401610dbf969594939291906125a2565b5f60405180830381865afa158015610dd9573d5f803e3d5ffd5b505050506040513d5f823e3d601f19601f82011682018060405250810190610e019190612d38565b604051602001610e119190612db9565b6040516020818303038152906040528051906020012081604051602001610e389190612db9565b6040516020818303038152906040528051906020012014610e8e576040517f08c379a0000000000000000000000000000000000000000000000000000000008152600401610e8590612e19565b60405180910390fd5b5f60085f8673ffffffffffffffffffffffffffffffffffffffff1673ffffffffffffffffffffffffffffffffffffffff1681526020019081526020015f20600501549050809350505050919050565b5f805f8373ffffffffffffffffffffffffffffffffffffffff1673ffffffffffffffffffffffffffffffffffffffff1681526020019081526020015f20549050919050565b5f8061138890505f8690505f610f3a828888886115ec565b90505f610f63670de0b6b3a76400008584610f559190612e37565b611c5690919063ffffffff16565b905080945050505050949350505050565b6008602052805f5260405f205f91509050805f018054610f9390612748565b80601f0160208091040260200160405190810160405280929190818152602001828054610fbf90612748565b801561100a5780601f10610fe15761010080835404028352916020019161100a565b820191905f5260205f20905b815481529060010190602001808311610fed57829003601f168201915b50505050509080600101549080600201805461102590612748565b80601f016020809104026020016040519081016040528092919081815260200182805461105190612748565b801561109c5780601f106110735761010080835404028352916020019161109c565b820191905f5260205f20905b81548152906001019060200180831161107f57829003601f168201915b5050505050908060030154908060040180546110b790612748565b80601f01602080910402602001604051908101604052809291908181526020018280546110e390612748565b801561112e5780601f106111055761010080835404028352916020019161112e565b820191905f5260205f20905b81548152906001019060200180831161111157829003601f168201915b5050505050908060050154905086565b60606004805461114d90612748565b80601f016020809104026020016040519081016040528092919081815260200182805461117990612748565b80156111c45780601f1061119b576101008083540402835291602001916111c4565b820191905f5260205f20905b8154815290600101906020018083116111a757829003601f168201915b5050505050905090565b5f806111d8611a3c565b90505f6111e582866119ba565b905083811015611230578481856040517fa60f030c00000000000000000000000000000000000000000000000000000000815260040161122793929190612e78565b60405180910390fd5b61123d8286868403611a43565b60019250505092915050565b5f831161128b576040517f08c379a000000000000000000000000000000000000000000000000000000000815260040161128290612a8e565b60405180910390fd5b5f3090508073ffffffffffffffffffffffffffffffffffffffff166323b872dd3330876040518463ffffffff1660e01b81526004016112cc93929190612b90565b6020604051808303815f875af11580156112e8573d5f803e3d5ffd5b505050506040513d601f19601f8201168201806040525081019061130c9190612afd565b61134b576040517f08c379a000000000000000000000000000000000000000000000000000000000815260040161134290612c0f565b60405180910390fd5b5f611357858585611c6b565b90505f811161139b576040517f08c379a000000000000000000000000000000000000000000000000000000000815260040161139290612c77565b60405180910390fd5b5f8690508073ffffffffffffffffffffffffffffffffffffffff1663a9059cbb33846040518363ffffffff1660e01b81526004016113da929190612aac565b6020604051808303815f875af11580156113f6573d5f803e3d5ffd5b505050506040513d601f19601f8201168201806040525081019061141a9190612afd565b611459576040517f08c379a000000000000000000000000000000000000000000000000000000000815260040161145090612c0f565b60405180910390fd5b8273ffffffffffffffffffffffffffffffffffffffff163373ffffffffffffffffffffffffffffffffffffffff167f631fb37dba9bbcb8b2f3be2d669e365ae9f1bd850cc57dfe8b7ccd7d979a2bba888a866040516114ba93929190612c95565b60405180910390a350505050505050565b5f60065f9054906101000a900473ffffffffffffffffffffffffffffffffffffffff16905090565b5f61151e60065f9054906101000a900473ffffffffffffffffffffffffffffffffffffffff16610edd565b821115611560576040517f08c379a000000000000000000000000000000000000000000000000000000000815260040161155790612ef7565b60405180910390fd5b61158c60065f9054906101000a900473ffffffffffffffffffffffffffffffffffffffff168484611ae7565b61159583610edd565b60085f8573ffffffffffffffffffffffffffffffffffffffff1673ffffffffffffffffffffffffffffffffffffffff1681526020019081526020015f20600501819055506115e283611640565b6001905092915050565b5f8061161b8461160d670de0b6b3a764000086611ca890919063ffffffff16565b611c5690919063ffffffff16565b90505f6116318287611ca890919063ffffffff16565b90508092505050949350505050565b5f60085f8373ffffffffffffffffffffffffffffffffffffffff1673ffffffffffffffffffffffffffffffffffffffff1681526020019081526020015f206040518060c00160405290815f8201805461169890612748565b80601f01602080910402602001604051908101604052809291908181526020018280546116c490612748565b801561170f5780601f106116e65761010080835404028352916020019161170f565b820191905f5260205f20905b8154815290600101906020018083116116f257829003601f168201915b505050505081526020016001820154815260200160028201805461173290612748565b80601f016020809104026020016040519081016040528092919081815260200182805461175e90612748565b80156117a95780601f10611780576101008083540402835291602001916117a9565b820191905f5260205f20905b81548152906001019060200180831161178c57829003601f168201915b50505050508152602001600382015481526020016004820180546117cc90612748565b80601f01602080910402602001604051908101604052809291908181526020018280546117f890612748565b80156118435780601f1061181a57610100808354040283529160200191611843565b820191905f5260205f20905b81548152906001019060200180831161182657829003601f168201915b5050505050815260200160058201548152505090505f60095f9054906101000a900473ffffffffffffffffffffffffffffffffffffffff1673ffffffffffffffffffffffffffffffffffffffff16634a9760e1835f015184602001518560400151866060015187608001518860a001516040518763ffffffff1660e01b81526004016118d4969594939291906125a2565b5f60405180830381865afa1580156118ee573d5f803e3d5ffd5b505050506040513d5f823e3d601f19601f820116820180604052508101906119169190612d38565b905060095f9054906101000a900473ffffffffffffffffffffffffffffffffffffffff1673ffffffffffffffffffffffffffffffffffffffff1663f0faed4384836040518363ffffffff1660e01b8152600401611974929190612f15565b6020604051808303815f875af1158015611990573d5f803e3d5ffd5b505050506040513d601f19601f820116820180604052508101906119b49190612afd565b50505050565b5f60015f8473ffffffffffffffffffffffffffffffffffffffff1673ffffffffffffffffffffffffffffffffffffffff1681526020019081526020015f205f8373ffffffffffffffffffffffffffffffffffffffff1673ffffffffffffffffffffffffffffffffffffffff1681526020019081526020015f2054905092915050565b5f33905090565b611a508383836001611cbd565b505050565b5f611a6084846119ba565b90507fffffffffffffffffffffffffffffffffffffffffffffffffffffffffffffffff8114611ae15781811015611ad2578281836040517ffb8f41b2000000000000000000000000000000000000000000000000000000008152600401611ac993929190612e78565b60405180910390fd5b611ae084848484035f611cbd565b5b50505050565b5f73ffffffffffffffffffffffffffffffffffffffff168373ffffffffffffffffffffffffffffffffffffffff1603611b57575f6040517f96c6fd1e000000000000000000000000000000000000000000000000000000008152600401611b4e9190612625565b60405180910390fd5b5f73ffffffffffffffffffffffffffffffffffffffff168273ffffffffffffffffffffffffffffffffffffffff1603611bc7575f6040517fec442f05000000000000000000000000000000000000000000000000000000008152600401611bbe9190612625565b60405180910390fd5b611bd2838383611e8c565b505050565b5f73ffffffffffffffffffffffffffffffffffffffff168273ffffffffffffffffffffffffffffffffffffffff1603611c47575f6040517fec442f05000000000000000000000000000000000000000000000000000000008152600401611c3e9190612625565b60405180910390fd5b611c525f8383611e8c565b5050565b5f8183611c639190612f70565b905092915050565b5f808383611c799190612f70565b90505f8186611c889190612e37565b90505f61138882611c999190612e37565b90508093505050509392505050565b5f8183611cb59190612e37565b905092915050565b5f73ffffffffffffffffffffffffffffffffffffffff168473ffffffffffffffffffffffffffffffffffffffff1603611d2d575f6040517fe602df05000000000000000000000000000000000000000000000000000000008152600401611d249190612625565b60405180910390fd5b5f73ffffffffffffffffffffffffffffffffffffffff168373ffffffffffffffffffffffffffffffffffffffff1603611d9d575f6040517f94280d62000000000000000000000000000000000000000000000000000000008152600401611d949190612625565b60405180910390fd5b8160015f8673ffffffffffffffffffffffffffffffffffffffff1673ffffffffffffffffffffffffffffffffffffffff1681526020019081526020015f205f8573ffffffffffffffffffffffffffffffffffffffff1673ffffffffffffffffffffffffffffffffffffffff1681526020019081526020015f20819055508015611e86578273ffffffffffffffffffffffffffffffffffffffff168473ffffffffffffffffffffffffffffffffffffffff167f8c5be1e5ebec7d5bd14f71427d1e84f3dd0314c0f7b2291e5b200ac8c7c3b92584604051611e7d9190612476565b60405180910390a35b50505050565b5f73ffffffffffffffffffffffffffffffffffffffff168373ffffffffffffffffffffffffffffffffffffffff1603611edc578060025f828254611ed09190612a11565b92505081905550611faa565b5f805f8573ffffffffffffffffffffffffffffffffffffffff1673ffffffffffffffffffffffffffffffffffffffff1681526020019081526020015f2054905081811015611f65578381836040517fe450d38c000000000000000000000000000000000000000000000000000000008152600401611f5c93929190612e78565b60405180910390fd5b8181035f808673ffffffffffffffffffffffffffffffffffffffff1673ffffffffffffffffffffffffffffffffffffffff1681526020019081526020015f2081905550505b5f73ffffffffffffffffffffffffffffffffffffffff168273ffffffffffffffffffffffffffffffffffffffff1603611ff1578060025f828254039250508190555061203b565b805f808473ffffffffffffffffffffffffffffffffffffffff1673ffffffffffffffffffffffffffffffffffffffff1681526020019081526020015f205f82825401925050819055505b8173ffffffffffffffffffffffffffffffffffffffff168373ffffffffffffffffffffffffffffffffffffffff167fddf252ad1be2c89b69c2b068fc378daa952ba7f163c4a11628f55a4df523b3ef836040516120989190612476565b60405180910390a3505050565b5f81519050919050565b5f82825260208201905092915050565b5f5b838110156120dc5780820151818401526020810190506120c1565b5f8484015250505050565b5f601f19601f8301169050919050565b5f612101826120a5565b61210b81856120af565b935061211b8185602086016120bf565b612124816120e7565b840191505092915050565b5f6020820190508181035f83015261214781846120f7565b905092915050565b5f604051905090565b5f80fd5b5f80fd5b5f73ffffffffffffffffffffffffffffffffffffffff82169050919050565b5f61218982612160565b9050919050565b6121998161217f565b81146121a3575f80fd5b50565b5f813590506121b481612190565b92915050565b5f819050919050565b6121cc816121ba565b81146121d6575f80fd5b50565b5f813590506121e7816121c3565b92915050565b5f806040838503121561220357612202612158565b5b5f612210858286016121a6565b9250506020612221858286016121d9565b9150509250929050565b5f8115159050919050565b61223f8161222b565b82525050565b5f6020820190506122585f830184612236565b92915050565b5f80fd5b5f80fd5b7f4e487b71000000000000000000000000000000000000000000000000000000005f52604160045260245ffd5b61229c826120e7565b810181811067ffffffffffffffff821117156122bb576122ba612266565b5b80604052505050565b5f6122cd61214f565b90506122d98282612293565b919050565b5f67ffffffffffffffff8211156122f8576122f7612266565b5b612301826120e7565b9050602081019050919050565b828183375f83830152505050565b5f61232e612329846122de565b6122c4565b90508281526020810184848401111561234a57612349612262565b5b61235584828561230e565b509392505050565b5f82601f8301126123715761237061225e565b5b813561238184826020860161231c565b91505092915050565b5f805f805f8060c087890312156123a4576123a3612158565b5b5f6123b189828a016121a6565b965050602087013567ffffffffffffffff8111156123d2576123d161215c565b5b6123de89828a0161235d565b95505060406123ef89828a016121d9565b945050606087013567ffffffffffffffff8111156124105761240f61215c565b5b61241c89828a0161235d565b935050608061242d89828a016121d9565b92505060a087013567ffffffffffffffff81111561244e5761244d61215c565b5b61245a89828a0161235d565b9150509295509295509295565b612470816121ba565b82525050565b5f6020820190506124895f830184612467565b92915050565b5f805f606084860312156124a6576124a5612158565b5b5f6124b3868287016121a6565b93505060206124c4868287016121a6565b92505060406124d5868287016121d9565b9150509250925092565b5f60ff82169050919050565b6124f4816124df565b82525050565b5f60208201905061250d5f8301846124eb565b92915050565b5f805f806080858703121561252b5761252a612158565b5b5f612538878288016121a6565b9450506020612549878288016121d9565b935050604061255a878288016121d9565b925050606061256b878288016121d9565b91505092959194509250565b5f6020828403121561258c5761258b612158565b5b5f612599848285016121a6565b91505092915050565b5f60c0820190508181035f8301526125ba81896120f7565b90506125c96020830188612467565b81810360408301526125db81876120f7565b90506125ea6060830186612467565b81810360808301526125fc81856120f7565b905061260b60a0830184612467565b979650505050505050565b61261f8161217f565b82525050565b5f6020820190506126385f830184612616565b92915050565b5f6126488261217f565b9050919050565b6126588161263e565b8114612662575f80fd5b50565b5f813590506126738161264f565b92915050565b5f805f806080858703121561269157612690612158565b5b5f61269e87828801612665565b94505060206126af878288016121d9565b93505060406126c0878288016121d9565b92505060606126d1878288016121d9565b91505092959194509250565b5f80604083850312156126f3576126f2612158565b5b5f612700858286016121a6565b9250506020612711858286016121a6565b9150509250929050565b7f4e487b71000000000000000000000000000000000000000000000000000000005f52602260045260245ffd5b5f600282049050600182168061275f57607f821691505b6020821081036127725761277161271b565b5b50919050565b5f819050815f5260205f209050919050565b5f6020601f8301049050919050565b5f82821b905092915050565b5f600883026127d47fffffffffffffffffffffffffffffffffffffffffffffffffffffffffffffffff82612799565b6127de8683612799565b95508019841693508086168417925050509392505050565b5f819050919050565b5f61281961281461280f846121ba565b6127f6565b6121ba565b9050919050565b5f819050919050565b612832836127ff565b61284661283e82612820565b8484546127a5565b825550505050565b5f90565b61285a61284e565b612865818484612829565b505050565b5b818110156128885761287d5f82612852565b60018101905061286b565b5050565b601f8211156128cd5761289e81612778565b6128a78461278a565b810160208510156128b6578190505b6128ca6128c28561278a565b83018261286a565b50505b505050565b5f82821c905092915050565b5f6128ed5f19846008026128d2565b1980831691505092915050565b5f61290583836128de565b9150826002028217905092915050565b61291e826120a5565b67ffffffffffffffff81111561293757612936612266565b5b6129418254612748565b61294c82828561288c565b5f60209050601f83116001811461297d575f841561296b578287015190505b61297585826128fa565b8655506129dc565b601f19841661298b86612778565b5f5b828110156129b25784890151825560018201915060208501945060208101905061298d565b868310156129cf57848901516129cb601f8916826128de565b8355505b6001600288020188555050505b505050505050565b7f4e487b71000000000000000000000000000000000000000000000000000000005f52601160045260245ffd5b5f612a1b826121ba565b9150612a26836121ba565b9250828201905080821115612a3e57612a3d6129e4565b5b92915050565b7f496e76616c696420616d6f756e740000000000000000000000000000000000005f82015250565b5f612a78600e836120af565b9150612a8382612a44565b602082019050919050565b5f6020820190508181035f830152612aa581612a6c565b9050919050565b5f604082019050612abf5f830185612616565b612acc6020830184612467565b9392505050565b612adc8161222b565b8114612ae6575f80fd5b50565b5f81519050612af781612ad3565b92915050565b5f60208284031215612b1257612b11612158565b5b5f612b1f84828501612ae9565b91505092915050565b7f417070726f76616c206661696c656400000000000000000000000000000000005f82015250565b5f612b5c600f836120af565b9150612b6782612b28565b602082019050919050565b5f6020820190508181035f830152612b8981612b50565b9050919050565b5f606082019050612ba35f830186612616565b612bb06020830185612616565b612bbd6040830184612467565b949350505050565b7f546f6b656e207472616e73666572206661696c656400000000000000000000005f82015250565b5f612bf96015836120af565b9150612c0482612bc5565b602082019050919050565b5f6020820190508181035f830152612c2681612bed565b9050919050565b7f496e73756666696369656e7420616d6f756e74000000000000000000000000005f82015250565b5f612c616013836120af565b9150612c6c82612c2d565b602082019050919050565b5f6020820190508181035f830152612c8e81612c55565b9050919050565b5f606082019050612ca85f830186612467565b612cb56020830185612616565b612cc26040830184612467565b949350505050565b5f612cdc612cd7846122de565b6122c4565b905082815260208101848484011115612cf857612cf7612262565b5b612d038482856120bf565b509392505050565b5f82601f830112612d1f57612d1e61225e565b5b8151612d2f848260208601612cca565b91505092915050565b5f60208284031215612d4d57612d4c612158565b5b5f82015167ffffffffffffffff811115612d6a57612d6961215c565b5b612d7684828501612d0b565b91505092915050565b5f81905092915050565b5f612d93826120a5565b612d9d8185612d7f565b9350612dad8185602086016120bf565b80840191505092915050565b5f612dc48284612d89565b915081905092915050565b7f4950465320496e436f72726563740000000000000000000000000000000000005f82015250565b5f612e03600e836120af565b9150612e0e82612dcf565b602082019050919050565b5f6020820190508181035f830152612e3081612df7565b9050919050565b5f612e41826121ba565b9150612e4c836121ba565b9250828202612e5a816121ba565b91508282048414831517612e7157612e706129e4565b5b5092915050565b5f606082019050612e8b5f830186612616565b612e986020830185612467565b612ea56040830184612467565b949350505050565b7f496e73756666696369656e7420726577617264730000000000000000000000005f82015250565b5f612ee16014836120af565b9150612eec82612ead565b602082019050919050565b5f6020820190508181035f830152612f0e81612ed5565b9050919050565b5f604082019050612f285f830185612616565b8181036020830152612f3a81846120f7565b90509392505050565b7f4e487b71000000000000000000000000000000000000000000000000000000005f52601260045260245ffd5b5f612f7a826121ba565b9150612f85836121ba565b925082612f9557612f94612f43565b5b82820490509291505056fea264697066735822122055b96ffa8322c3a41c432afa97e3ab19bd8d1fab3530259be922ec02ac284cf664736f6c63430008140033",
			"opcodes": "PUSH1 0x80 PUSH1 0x40 MSTORE PUSH14 0x49F4A966D45CD522088F00000000 PUSH1 0x5 SSTORE PUSH20 0x16BBBD5BF6A7FDF52F896CC51162783E9E099179 PUSH1 0x9 PUSH0 PUSH2 0x100 EXP DUP2 SLOAD DUP2 PUSH20 0xFFFFFFFFFFFFFFFFFFFFFFFFFFFFFFFFFFFFFFFF MUL NOT AND SWAP1 DUP4 PUSH20 0xFFFFFFFFFFFFFFFFFFFFFFFFFFFFFFFFFFFFFFFF AND MUL OR SWAP1 SSTORE POP CALLVALUE DUP1 ISZERO PUSH3 0x76 JUMPI PUSH0 DUP1 REVERT JUMPDEST POP PUSH1 0x40 MLOAD PUSH3 0x3936 CODESIZE SUB DUP1 PUSH3 0x3936 DUP4 CODECOPY DUP2 DUP2 ADD PUSH1 0x40 MSTORE DUP2 ADD SWAP1 PUSH3 0x9C SWAP2 SWAP1 PUSH3 0x4E0 JUMP JUMPDEST PUSH1 0x40 MLOAD DUP1 PUSH1 0x40 ADD PUSH1 0x40 MSTORE DUP1 PUSH1 0x4 DUP2 MSTORE PUSH1 0x20 ADD PUSH32 0x414A4F5500000000000000000000000000000000000000000000000000000000 DUP2 MSTORE POP PUSH1 0x40 MLOAD DUP1 PUSH1 0x40 ADD PUSH1 0x40 MSTORE DUP1 PUSH1 0x2 DUP2 MSTORE PUSH1 0x20 ADD PUSH32 0x414A000000000000000000000000000000000000000000000000000000000000 DUP2 MSTORE POP DUP2 DUP2 DUP2 PUSH1 0x3 SWAP1 DUP2 PUSH3 0x11B SWAP2 SWAP1 PUSH3 0x774 JUMP JUMPDEST POP DUP1 PUSH1 0x4 SWAP1 DUP2 PUSH3 0x12D SWAP2 SWAP1 PUSH3 0x774 JUMP JUMPDEST POP POP POP PUSH3 0x144 ADDRESS PUSH1 0x5 SLOAD PUSH3 0x1CD PUSH1 0x20 SHL PUSH1 0x20 SHR JUMP JUMPDEST POP POP ADDRESS PUSH1 0x6 PUSH0 PUSH2 0x100 EXP DUP2 SLOAD DUP2 PUSH20 0xFFFFFFFFFFFFFFFFFFFFFFFFFFFFFFFFFFFFFFFF MUL NOT AND SWAP1 DUP4 PUSH20 0xFFFFFFFFFFFFFFFFFFFFFFFFFFFFFFFFFFFFFFFF AND MUL OR SWAP1 SSTORE POP DUP1 PUSH1 0x7 PUSH0 PUSH2 0x100 EXP DUP2 SLOAD DUP2 PUSH20 0xFFFFFFFFFFFFFFFFFFFFFFFFFFFFFFFFFFFFFFFF MUL NOT AND SWAP1 DUP4 PUSH20 0xFFFFFFFFFFFFFFFFFFFFFFFFFFFFFFFFFFFFFFFF AND MUL OR SWAP1 SSTORE POP POP PUSH3 0x952 JUMP JUMPDEST PUSH0 PUSH20 0xFFFFFFFFFFFFFFFFFFFFFFFFFFFFFFFFFFFFFFFF AND DUP3 PUSH20 0xFFFFFFFFFFFFFFFFFFFFFFFFFFFFFFFFFFFFFFFF AND SUB PUSH3 0x240 JUMPI PUSH0 PUSH1 0x40 MLOAD PUSH32 0xEC442F0500000000000000000000000000000000000000000000000000000000 DUP2 MSTORE PUSH1 0x4 ADD PUSH3 0x237 SWAP2 SWAP1 PUSH3 0x869 JUMP JUMPDEST PUSH1 0x40 MLOAD DUP1 SWAP2 SUB SWAP1 REVERT JUMPDEST PUSH3 0x253 PUSH0 DUP4 DUP4 PUSH3 0x257 PUSH1 0x20 SHL PUSH1 0x20 SHR JUMP JUMPDEST POP POP JUMP JUMPDEST PUSH0 PUSH20 0xFFFFFFFFFFFFFFFFFFFFFFFFFFFFFFFFFFFFFFFF AND DUP4 PUSH20 0xFFFFFFFFFFFFFFFFFFFFFFFFFFFFFFFFFFFFFFFF AND SUB PUSH3 0x2AB JUMPI DUP1 PUSH1 0x2 PUSH0 DUP3 DUP3 SLOAD PUSH3 0x29E SWAP2 SWAP1 PUSH3 0x8B1 JUMP JUMPDEST SWAP3 POP POP DUP2 SWAP1 SSTORE POP PUSH3 0x37C JUMP JUMPDEST PUSH0 DUP1 PUSH0 DUP6 PUSH20 0xFFFFFFFFFFFFFFFFFFFFFFFFFFFFFFFFFFFFFFFF AND PUSH20 0xFFFFFFFFFFFFFFFFFFFFFFFFFFFFFFFFFFFFFFFF AND DUP2 MSTORE PUSH1 0x20 ADD SWAP1 DUP2 MSTORE PUSH1 0x20 ADD PUSH0 KECCAK256 SLOAD SWAP1 POP DUP2 DUP2 LT ISZERO PUSH3 0x337 JUMPI DUP4 DUP2 DUP4 PUSH1 0x40 MLOAD PUSH32 0xE450D38C00000000000000000000000000000000000000000000000000000000 DUP2 MSTORE PUSH1 0x4 ADD PUSH3 0x32E SWAP4 SWAP3 SWAP2 SWAP1 PUSH3 0x8FC JUMP JUMPDEST PUSH1 0x40 MLOAD DUP1 SWAP2 SUB SWAP1 REVERT JUMPDEST DUP2 DUP2 SUB PUSH0 DUP1 DUP7 PUSH20 0xFFFFFFFFFFFFFFFFFFFFFFFFFFFFFFFFFFFFFFFF AND PUSH20 0xFFFFFFFFFFFFFFFFFFFFFFFFFFFFFFFFFFFFFFFF AND DUP2 MSTORE PUSH1 0x20 ADD SWAP1 DUP2 MSTORE PUSH1 0x20 ADD PUSH0 KECCAK256 DUP2 SWAP1 SSTORE POP POP JUMPDEST PUSH0 PUSH20 0xFFFFFFFFFFFFFFFFFFFFFFFFFFFFFFFFFFFFFFFF AND DUP3 PUSH20 0xFFFFFFFFFFFFFFFFFFFFFFFFFFFFFFFFFFFFFFFF AND SUB PUSH3 0x3C5 JUMPI DUP1 PUSH1 0x2 PUSH0 DUP3 DUP3 SLOAD SUB SWAP3 POP POP DUP2 SWAP1 SSTORE POP PUSH3 0x40F JUMP JUMPDEST DUP1 PUSH0 DUP1 DUP5 PUSH20 0xFFFFFFFFFFFFFFFFFFFFFFFFFFFFFFFFFFFFFFFF AND PUSH20 0xFFFFFFFFFFFFFFFFFFFFFFFFFFFFFFFFFFFFFFFF AND DUP2 MSTORE PUSH1 0x20 ADD SWAP1 DUP2 MSTORE PUSH1 0x20 ADD PUSH0 KECCAK256 PUSH0 DUP3 DUP3 SLOAD ADD SWAP3 POP POP DUP2 SWAP1 SSTORE POP JUMPDEST DUP2 PUSH20 0xFFFFFFFFFFFFFFFFFFFFFFFFFFFFFFFFFFFFFFFF AND DUP4 PUSH20 0xFFFFFFFFFFFFFFFFFFFFFFFFFFFFFFFFFFFFFFFF AND PUSH32 0xDDF252AD1BE2C89B69C2B068FC378DAA952BA7F163C4A11628F55A4DF523B3EF DUP4 PUSH1 0x40 MLOAD PUSH3 0x46E SWAP2 SWAP1 PUSH3 0x937 JUMP JUMPDEST PUSH1 0x40 MLOAD DUP1 SWAP2 SUB SWAP1 LOG3 POP POP POP JUMP JUMPDEST PUSH0 DUP1 REVERT JUMPDEST PUSH0 PUSH20 0xFFFFFFFFFFFFFFFFFFFFFFFFFFFFFFFFFFFFFFFF DUP3 AND SWAP1 POP SWAP2 SWAP1 POP JUMP JUMPDEST PUSH0 PUSH3 0x4AA DUP3 PUSH3 0x47F JUMP JUMPDEST SWAP1 POP SWAP2 SWAP1 POP JUMP JUMPDEST PUSH3 0x4BC DUP2 PUSH3 0x49E JUMP JUMPDEST DUP2 EQ PUSH3 0x4C7 JUMPI PUSH0 DUP1 REVERT JUMPDEST POP JUMP JUMPDEST PUSH0 DUP2 MLOAD SWAP1 POP PUSH3 0x4DA DUP2 PUSH3 0x4B1 JUMP JUMPDEST SWAP3 SWAP2 POP POP JUMP JUMPDEST PUSH0 PUSH1 0x20 DUP3 DUP5 SUB SLT ISZERO PUSH3 0x4F8 JUMPI PUSH3 0x4F7 PUSH3 0x47B JUMP JUMPDEST JUMPDEST PUSH0 PUSH3 0x507 DUP5 DUP3 DUP6 ADD PUSH3 0x4CA JUMP JUMPDEST SWAP2 POP POP SWAP3 SWAP2 POP POP JUMP JUMPDEST PUSH0 DUP2 MLOAD SWAP1 POP SWAP2 SWAP1 POP JUMP JUMPDEST PUSH32 0x4E487B7100000000000000000000000000000000000000000000000000000000 PUSH0 MSTORE PUSH1 0x41 PUSH1 0x4 MSTORE PUSH1 0x24 PUSH0 REVERT JUMPDEST PUSH32 0x4E487B7100000000000000000000000000000000000000000000000000000000 PUSH0 MSTORE PUSH1 0x22 PUSH1 0x4 MSTORE PUSH1 0x24 PUSH0 REVERT JUMPDEST PUSH0 PUSH1 0x2 DUP3 DIV SWAP1 POP PUSH1 0x1 DUP3 AND DUP1 PUSH3 0x58C JUMPI PUSH1 0x7F DUP3 AND SWAP2 POP JUMPDEST PUSH1 0x20 DUP3 LT DUP2 SUB PUSH3 0x5A2 JUMPI PUSH3 0x5A1 PUSH3 0x547 JUMP JUMPDEST JUMPDEST POP SWAP2 SWAP1 POP JUMP JUMPDEST PUSH0 DUP2 SWAP1 POP DUP2 PUSH0 MSTORE PUSH1 0x20 PUSH0 KECCAK256 SWAP1 POP SWAP2 SWAP1 POP JUMP JUMPDEST PUSH0 PUSH1 0x20 PUSH1 0x1F DUP4 ADD DIV SWAP1 POP SWAP2 SWAP1 POP JUMP JUMPDEST PUSH0 DUP3 DUP3 SHL SWAP1 POP SWAP3 SWAP2 POP POP JUMP JUMPDEST PUSH0 PUSH1 0x8 DUP4 MUL PUSH3 0x606 PUSH32 0xFFFFFFFFFFFFFFFFFFFFFFFFFFFFFFFFFFFFFFFFFFFFFFFFFFFFFFFFFFFFFFFF DUP3 PUSH3 0x5C9 JUMP JUMPDEST PUSH3 0x612 DUP7 DUP4 PUSH3 0x5C9 JUMP JUMPDEST SWAP6 POP DUP1 NOT DUP5 AND SWAP4 POP DUP1 DUP7 AND DUP5 OR SWAP3 POP POP POP SWAP4 SWAP3 POP POP POP JUMP JUMPDEST PUSH0 DUP2 SWAP1 POP SWAP2 SWAP1 POP JUMP JUMPDEST PUSH0 DUP2 SWAP1 POP SWAP2 SWAP1 POP JUMP JUMPDEST PUSH0 PUSH3 0x65C PUSH3 0x656 PUSH3 0x650 DUP5 PUSH3 0x62A JUMP JUMPDEST PUSH3 0x633 JUMP JUMPDEST PUSH3 0x62A JUMP JUMPDEST SWAP1 POP SWAP2 SWAP1 POP JUMP JUMPDEST PUSH0 DUP2 SWAP1 POP SWAP2 SWAP1 POP JUMP JUMPDEST PUSH3 0x677 DUP4 PUSH3 0x63C JUMP JUMPDEST PUSH3 0x68F PUSH3 0x686 DUP3 PUSH3 0x663 JUMP JUMPDEST DUP5 DUP5 SLOAD PUSH3 0x5D5 JUMP JUMPDEST DUP3 SSTORE POP POP POP POP JUMP JUMPDEST PUSH0 SWAP1 JUMP JUMPDEST PUSH3 0x6A5 PUSH3 0x697 JUMP JUMPDEST PUSH3 0x6B2 DUP2 DUP5 DUP5 PUSH3 0x66C JUMP JUMPDEST POP POP POP JUMP JUMPDEST JUMPDEST DUP2 DUP2 LT ISZERO PUSH3 0x6D9 JUMPI PUSH3 0x6CD PUSH0 DUP3 PUSH3 0x69B JUMP JUMPDEST PUSH1 0x1 DUP2 ADD SWAP1 POP PUSH3 0x6B8 JUMP JUMPDEST POP POP JUMP JUMPDEST PUSH1 0x1F DUP3 GT ISZERO PUSH3 0x728 JUMPI PUSH3 0x6F2 DUP2 PUSH3 0x5A8 JUMP JUMPDEST PUSH3 0x6FD DUP5 PUSH3 0x5BA JUMP JUMPDEST DUP2 ADD PUSH1 0x20 DUP6 LT ISZERO PUSH3 0x70D JUMPI DUP2 SWAP1 POP JUMPDEST PUSH3 0x725 PUSH3 0x71C DUP6 PUSH3 0x5BA JUMP JUMPDEST DUP4 ADD DUP3 PUSH3 0x6B7 JUMP JUMPDEST POP POP JUMPDEST POP POP POP JUMP JUMPDEST PUSH0 DUP3 DUP3 SHR SWAP1 POP SWAP3 SWAP2 POP POP JUMP JUMPDEST PUSH0 PUSH3 0x74A PUSH0 NOT DUP5 PUSH1 0x8 MUL PUSH3 0x72D JUMP JUMPDEST NOT DUP1 DUP4 AND SWAP2 POP POP SWAP3 SWAP2 POP POP JUMP JUMPDEST PUSH0 PUSH3 0x764 DUP4 DUP4 PUSH3 0x739 JUMP JUMPDEST SWAP2 POP DUP3 PUSH1 0x2 MUL DUP3 OR SWAP1 POP SWAP3 SWAP2 POP POP JUMP JUMPDEST PUSH3 0x77F DUP3 PUSH3 0x510 JUMP JUMPDEST PUSH8 0xFFFFFFFFFFFFFFFF DUP2 GT ISZERO PUSH3 0x79B JUMPI PUSH3 0x79A PUSH3 0x51A JUMP JUMPDEST JUMPDEST PUSH3 0x7A7 DUP3 SLOAD PUSH3 0x574 JUMP JUMPDEST PUSH3 0x7B4 DUP3 DUP3 DUP6 PUSH3 0x6DD JUMP JUMPDEST PUSH0 PUSH1 0x20 SWAP1 POP PUSH1 0x1F DUP4 GT PUSH1 0x1 DUP2 EQ PUSH3 0x7EA JUMPI PUSH0 DUP5 ISZERO PUSH3 0x7D5 JUMPI DUP3 DUP8 ADD MLOAD SWAP1 POP JUMPDEST PUSH3 0x7E1 DUP6 DUP3 PUSH3 0x757 JUMP JUMPDEST DUP7 SSTORE POP PUSH3 0x850 JUMP JUMPDEST PUSH1 0x1F NOT DUP5 AND PUSH3 0x7FA DUP7 PUSH3 0x5A8 JUMP JUMPDEST PUSH0 JUMPDEST DUP3 DUP2 LT ISZERO PUSH3 0x823 JUMPI DUP5 DUP10 ADD MLOAD DUP3 SSTORE PUSH1 0x1 DUP3 ADD SWAP2 POP PUSH1 0x20 DUP6 ADD SWAP5 POP PUSH1 0x20 DUP2 ADD SWAP1 POP PUSH3 0x7FC JUMP JUMPDEST DUP7 DUP4 LT ISZERO PUSH3 0x843 JUMPI DUP5 DUP10 ADD MLOAD PUSH3 0x83F PUSH1 0x1F DUP10 AND DUP3 PUSH3 0x739 JUMP JUMPDEST DUP4 SSTORE POP JUMPDEST PUSH1 0x1 PUSH1 0x2 DUP9 MUL ADD DUP9 SSTORE POP POP POP JUMPDEST POP POP POP POP POP POP JUMP JUMPDEST PUSH3 0x863 DUP2 PUSH3 0x49E JUMP JUMPDEST DUP3 MSTORE POP POP JUMP JUMPDEST PUSH0 PUSH1 0x20 DUP3 ADD SWAP1 POP PUSH3 0x87E PUSH0 DUP4 ADD DUP5 PUSH3 0x858 JUMP JUMPDEST SWAP3 SWAP2 POP POP JUMP JUMPDEST PUSH32 0x4E487B7100000000000000000000000000000000000000000000000000000000 PUSH0 MSTORE PUSH1 0x11 PUSH1 0x4 MSTORE PUSH1 0x24 PUSH0 REVERT JUMPDEST PUSH0 PUSH3 0x8BD DUP3 PUSH3 0x62A JUMP JUMPDEST SWAP2 POP PUSH3 0x8CA DUP4 PUSH3 0x62A JUMP JUMPDEST SWAP3 POP DUP3 DUP3 ADD SWAP1 POP DUP1 DUP3 GT ISZERO PUSH3 0x8E5 JUMPI PUSH3 0x8E4 PUSH3 0x884 JUMP JUMPDEST JUMPDEST SWAP3 SWAP2 POP POP JUMP JUMPDEST PUSH3 0x8F6 DUP2 PUSH3 0x62A JUMP JUMPDEST DUP3 MSTORE POP POP JUMP JUMPDEST PUSH0 PUSH1 0x60 DUP3 ADD SWAP1 POP PUSH3 0x911 PUSH0 DUP4 ADD DUP7 PUSH3 0x858 JUMP JUMPDEST PUSH3 0x920 PUSH1 0x20 DUP4 ADD DUP6 PUSH3 0x8EB JUMP JUMPDEST PUSH3 0x92F PUSH1 0x40 DUP4 ADD DUP5 PUSH3 0x8EB JUMP JUMPDEST SWAP5 SWAP4 POP POP POP POP JUMP JUMPDEST PUSH0 PUSH1 0x20 DUP3 ADD SWAP1 POP PUSH3 0x94C PUSH0 DUP4 ADD DUP5 PUSH3 0x8EB JUMP JUMPDEST SWAP3 SWAP2 POP POP JUMP JUMPDEST PUSH2 0x2FD6 DUP1 PUSH3 0x960 PUSH0 CODECOPY PUSH0 RETURN INVALID PUSH1 0x80 PUSH1 0x40 MSTORE CALLVALUE DUP1 ISZERO PUSH2 0xF JUMPI PUSH0 DUP1 REVERT JUMPDEST POP PUSH1 0x4 CALLDATASIZE LT PUSH2 0x140 JUMPI PUSH0 CALLDATALOAD PUSH1 0xE0 SHR DUP1 PUSH4 0x70A08231 GT PUSH2 0xB6 JUMPI DUP1 PUSH4 0xA554494D GT PUSH2 0x7A JUMPI DUP1 PUSH4 0xA554494D EQ PUSH2 0x3C7 JUMPI DUP1 PUSH4 0xA8BAF6DD EQ PUSH2 0x3E3 JUMPI DUP1 PUSH4 0xA9059CBB EQ PUSH2 0x401 JUMPI DUP1 PUSH4 0xBD70C103 EQ PUSH2 0x431 JUMPI DUP1 PUSH4 0xDAB11678 EQ PUSH2 0x461 JUMPI DUP1 PUSH4 0xDD62ED3E EQ PUSH2 0x47D JUMPI PUSH2 0x140 JUMP JUMPDEST DUP1 PUSH4 0x70A08231 EQ PUSH2 0x2E4 JUMPI DUP1 PUSH4 0x8B01DC86 EQ PUSH2 0x314 JUMPI DUP1 PUSH4 0x8B9C657A EQ PUSH2 0x344 JUMPI DUP1 PUSH4 0x95D89B41 EQ PUSH2 0x379 JUMPI DUP1 PUSH4 0xA457C2D7 EQ PUSH2 0x397 JUMPI PUSH2 0x140 JUMP JUMPDEST DUP1 PUSH4 0x298E5D2D GT PUSH2 0x108 JUMPI DUP1 PUSH4 0x298E5D2D EQ PUSH2 0x1FC JUMPI DUP1 PUSH4 0x2FF2E9DC EQ PUSH2 0x22C JUMPI DUP1 PUSH4 0x313CE567 EQ PUSH2 0x24A JUMPI DUP1 PUSH4 0x39509351 EQ PUSH2 0x268 JUMPI DUP1 PUSH4 0x3A23565C EQ PUSH2 0x298 JUMPI DUP1 PUSH4 0x5BE99AF4 EQ PUSH2 0x2B4 JUMPI PUSH2 0x140 JUMP JUMPDEST DUP1 PUSH4 0x6FDDE03 EQ PUSH2 0x144 JUMPI DUP1 PUSH4 0x95EA7B3 EQ PUSH2 0x162 JUMPI DUP1 PUSH4 0xEBCBDB8 EQ PUSH2 0x192 JUMPI DUP1 PUSH4 0x18160DDD EQ PUSH2 0x1AE JUMPI DUP1 PUSH4 0x23B872DD EQ PUSH2 0x1CC JUMPI JUMPDEST PUSH0 DUP1 REVERT JUMPDEST PUSH2 0x14C PUSH2 0x4AD JUMP JUMPDEST PUSH1 0x40 MLOAD PUSH2 0x159 SWAP2 SWAP1 PUSH2 0x212F JUMP JUMPDEST PUSH1 0x40 MLOAD DUP1 SWAP2 SUB SWAP1 RETURN JUMPDEST PUSH2 0x17C PUSH1 0x4 DUP1 CALLDATASIZE SUB DUP2 ADD SWAP1 PUSH2 0x177 SWAP2 SWAP1 PUSH2 0x21ED JUMP JUMPDEST PUSH2 0x53D JUMP JUMPDEST PUSH1 0x40 MLOAD PUSH2 0x189 SWAP2 SWAP1 PUSH2 0x2245 JUMP JUMPDEST PUSH1 0x40 MLOAD DUP1 SWAP2 SUB SWAP1 RETURN JUMPDEST PUSH2 0x1AC PUSH1 0x4 DUP1 CALLDATASIZE SUB DUP2 ADD SWAP1 PUSH2 0x1A7 SWAP2 SWAP1 PUSH2 0x238A JUMP JUMPDEST PUSH2 0x55F JUMP JUMPDEST STOP JUMPDEST PUSH2 0x1B6 PUSH2 0x727 JUMP JUMPDEST PUSH1 0x40 MLOAD PUSH2 0x1C3 SWAP2 SWAP1 PUSH2 0x2476 JUMP JUMPDEST PUSH1 0x40 MLOAD DUP1 SWAP2 SUB SWAP1 RETURN JUMPDEST PUSH2 0x1E6 PUSH1 0x4 DUP1 CALLDATASIZE SUB DUP2 ADD SWAP1 PUSH2 0x1E1 SWAP2 SWAP1 PUSH2 0x248F JUMP JUMPDEST PUSH2 0x730 JUMP JUMPDEST PUSH1 0x40 MLOAD PUSH2 0x1F3 SWAP2 SWAP1 PUSH2 0x2245 JUMP JUMPDEST PUSH1 0x40 MLOAD DUP1 SWAP2 SUB SWAP1 RETURN JUMPDEST PUSH2 0x216 PUSH1 0x4 DUP1 CALLDATASIZE SUB DUP2 ADD SWAP1 PUSH2 0x211 SWAP2 SWAP1 PUSH2 0x21ED JUMP JUMPDEST PUSH2 0x75E JUMP JUMPDEST PUSH1 0x40 MLOAD PUSH2 0x223 SWAP2 SWAP1 PUSH2 0x2245 JUMP JUMPDEST PUSH1 0x40 MLOAD DUP1 SWAP2 SUB SWAP1 RETURN JUMPDEST PUSH2 0x234 PUSH2 0x7C0 JUMP JUMPDEST PUSH1 0x40 MLOAD PUSH2 0x241 SWAP2 SWAP1 PUSH2 0x2476 JUMP JUMPDEST PUSH1 0x40 MLOAD DUP1 SWAP2 SUB SWAP1 RETURN JUMPDEST PUSH2 0x252 PUSH2 0x7C6 JUMP JUMPDEST PUSH1 0x40 MLOAD PUSH2 0x25F SWAP2 SWAP1 PUSH2 0x24FA JUMP JUMPDEST PUSH1 0x40 MLOAD DUP1 SWAP2 SUB SWAP1 RETURN JUMPDEST PUSH2 0x282 PUSH1 0x4 DUP1 CALLDATASIZE SUB DUP2 ADD SWAP1 PUSH2 0x27D SWAP2 SWAP1 PUSH2 0x21ED JUMP JUMPDEST PUSH2 0x7CE JUMP JUMPDEST PUSH1 0x40 MLOAD PUSH2 0x28F SWAP2 SWAP1 PUSH2 0x2245 JUMP JUMPDEST PUSH1 0x40 MLOAD DUP1 SWAP2 SUB SWAP1 RETURN JUMPDEST PUSH2 0x2B2 PUSH1 0x4 DUP1 CALLDATASIZE SUB DUP2 ADD SWAP1 PUSH2 0x2AD SWAP2 SWAP1 PUSH2 0x2513 JUMP JUMPDEST PUSH2 0x804 JUMP JUMPDEST STOP JUMPDEST PUSH2 0x2CE PUSH1 0x4 DUP1 CALLDATASIZE SUB DUP2 ADD SWAP1 PUSH2 0x2C9 SWAP2 SWAP1 PUSH2 0x2577 JUMP JUMPDEST PUSH2 0xA8C JUMP JUMPDEST PUSH1 0x40 MLOAD PUSH2 0x2DB SWAP2 SWAP1 PUSH2 0x2476 JUMP JUMPDEST PUSH1 0x40 MLOAD DUP1 SWAP2 SUB SWAP1 RETURN JUMPDEST PUSH2 0x2FE PUSH1 0x4 DUP1 CALLDATASIZE SUB DUP2 ADD SWAP1 PUSH2 0x2F9 SWAP2 SWAP1 PUSH2 0x2577 JUMP JUMPDEST PUSH2 0xEDD JUMP JUMPDEST PUSH1 0x40 MLOAD PUSH2 0x30B SWAP2 SWAP1 PUSH2 0x2476 JUMP JUMPDEST PUSH1 0x40 MLOAD DUP1 SWAP2 SUB SWAP1 RETURN JUMPDEST PUSH2 0x32E PUSH1 0x4 DUP1 CALLDATASIZE SUB DUP2 ADD SWAP1 PUSH2 0x329 SWAP2 SWAP1 PUSH2 0x2513 JUMP JUMPDEST PUSH2 0xF22 JUMP JUMPDEST PUSH1 0x40 MLOAD PUSH2 0x33B SWAP2 SWAP1 PUSH2 0x2476 JUMP JUMPDEST PUSH1 0x40 MLOAD DUP1 SWAP2 SUB SWAP1 RETURN JUMPDEST PUSH2 0x35E PUSH1 0x4 DUP1 CALLDATASIZE SUB DUP2 ADD SWAP1 PUSH2 0x359 SWAP2 SWAP1 PUSH2 0x2577 JUMP JUMPDEST PUSH2 0xF74 JUMP JUMPDEST PUSH1 0x40 MLOAD PUSH2 0x370 SWAP7 SWAP6 SWAP5 SWAP4 SWAP3 SWAP2 SWAP1 PUSH2 0x25A2 JUMP JUMPDEST PUSH1 0x40 MLOAD DUP1 SWAP2 SUB SWAP1 RETURN JUMPDEST PUSH2 0x381 PUSH2 0x113E JUMP JUMPDEST PUSH1 0x40 MLOAD PUSH2 0x38E SWAP2 SWAP1 PUSH2 0x212F JUMP JUMPDEST PUSH1 0x40 MLOAD DUP1 SWAP2 SUB SWAP1 RETURN JUMPDEST PUSH2 0x3B1 PUSH1 0x4 DUP1 CALLDATASIZE SUB DUP2 ADD SWAP1 PUSH2 0x3AC SWAP2 SWAP1 PUSH2 0x21ED JUMP JUMPDEST PUSH2 0x11CE JUMP JUMPDEST PUSH1 0x40 MLOAD PUSH2 0x3BE SWAP2 SWAP1 PUSH2 0x2245 JUMP JUMPDEST PUSH1 0x40 MLOAD DUP1 SWAP2 SUB SWAP1 RETURN JUMPDEST PUSH2 0x3E1 PUSH1 0x4 DUP1 CALLDATASIZE SUB DUP2 ADD SWAP1 PUSH2 0x3DC SWAP2 SWAP1 PUSH2 0x2513 JUMP JUMPDEST PUSH2 0x1249 JUMP JUMPDEST STOP JUMPDEST PUSH2 0x3EB PUSH2 0x14CB JUMP JUMPDEST PUSH1 0x40 MLOAD PUSH2 0x3F8 SWAP2 SWAP1 PUSH2 0x2625 JUMP JUMPDEST PUSH1 0x40 MLOAD DUP1 SWAP2 SUB SWAP1 RETURN JUMPDEST PUSH2 0x41B PUSH1 0x4 DUP1 CALLDATASIZE SUB DUP2 ADD SWAP1 PUSH2 0x416 SWAP2 SWAP1 PUSH2 0x21ED JUMP JUMPDEST PUSH2 0x14F3 JUMP JUMPDEST PUSH1 0x40 MLOAD PUSH2 0x428 SWAP2 SWAP1 PUSH2 0x2245 JUMP JUMPDEST PUSH1 0x40 MLOAD DUP1 SWAP2 SUB SWAP1 RETURN JUMPDEST PUSH2 0x44B PUSH1 0x4 DUP1 CALLDATASIZE SUB DUP2 ADD SWAP1 PUSH2 0x446 SWAP2 SWAP1 PUSH2 0x2679 JUMP JUMPDEST PUSH2 0x15EC JUMP JUMPDEST PUSH1 0x40 MLOAD PUSH2 0x458 SWAP2 SWAP1 PUSH2 0x2476 JUMP JUMPDEST PUSH1 0x40 MLOAD DUP1 SWAP2 SUB SWAP1 RETURN JUMPDEST PUSH2 0x47B PUSH1 0x4 DUP1 CALLDATASIZE SUB DUP2 ADD SWAP1 PUSH2 0x476 SWAP2 SWAP1 PUSH2 0x2577 JUMP JUMPDEST PUSH2 0x1640 JUMP JUMPDEST STOP JUMPDEST PUSH2 0x497 PUSH1 0x4 DUP1 CALLDATASIZE SUB DUP2 ADD SWAP1 PUSH2 0x492 SWAP2 SWAP1 PUSH2 0x26DD JUMP JUMPDEST PUSH2 0x19BA JUMP JUMPDEST PUSH1 0x40 MLOAD PUSH2 0x4A4 SWAP2 SWAP1 PUSH2 0x2476 JUMP JUMPDEST PUSH1 0x40 MLOAD DUP1 SWAP2 SUB SWAP1 RETURN JUMPDEST PUSH1 0x60 PUSH1 0x3 DUP1 SLOAD PUSH2 0x4BC SWAP1 PUSH2 0x2748 JUMP JUMPDEST DUP1 PUSH1 0x1F ADD PUSH1 0x20 DUP1 SWAP2 DIV MUL PUSH1 0x20 ADD PUSH1 0x40 MLOAD SWAP1 DUP2 ADD PUSH1 0x40 MSTORE DUP1 SWAP3 SWAP2 SWAP1 DUP2 DUP2 MSTORE PUSH1 0x20 ADD DUP3 DUP1 SLOAD PUSH2 0x4E8 SWAP1 PUSH2 0x2748 JUMP JUMPDEST DUP1 ISZERO PUSH2 0x533 JUMPI DUP1 PUSH1 0x1F LT PUSH2 0x50A JUMPI PUSH2 0x100 DUP1 DUP4 SLOAD DIV MUL DUP4 MSTORE SWAP2 PUSH1 0x20 ADD SWAP2 PUSH2 0x533 JUMP JUMPDEST DUP3 ADD SWAP2 SWAP1 PUSH0 MSTORE PUSH1 0x20 PUSH0 KECCAK256 SWAP1 JUMPDEST DUP2 SLOAD DUP2 MSTORE SWAP1 PUSH1 0x1 ADD SWAP1 PUSH1 0x20 ADD DUP1 DUP4 GT PUSH2 0x516 JUMPI DUP3 SWAP1 SUB PUSH1 0x1F AND DUP3 ADD SWAP2 JUMPDEST POP POP POP POP POP SWAP1 POP SWAP1 JUMP JUMPDEST PUSH0 DUP1 PUSH2 0x547 PUSH2 0x1A3C JUMP JUMPDEST SWAP1 POP PUSH2 0x554 DUP2 DUP6 DUP6 PUSH2 0x1A43 JUMP JUMPDEST PUSH1 0x1 SWAP2 POP POP SWAP3 SWAP2 POP POP JUMP JUMPDEST DUP5 PUSH1 0x8 PUSH0 DUP9 PUSH20 0xFFFFFFFFFFFFFFFFFFFFFFFFFFFFFFFFFFFFFFFF AND PUSH20 0xFFFFFFFFFFFFFFFFFFFFFFFFFFFFFFFFFFFFFFFF AND DUP2 MSTORE PUSH1 0x20 ADD SWAP1 DUP2 MSTORE PUSH1 0x20 ADD PUSH0 KECCAK256 PUSH0 ADD SWAP1 DUP2 PUSH2 0x5AB SWAP2 SWAP1 PUSH2 0x2915 JUMP JUMPDEST POP DUP4 PUSH1 0x8 PUSH0 DUP9 PUSH20 0xFFFFFFFFFFFFFFFFFFFFFFFFFFFFFFFFFFFFFFFF AND PUSH20 0xFFFFFFFFFFFFFFFFFFFFFFFFFFFFFFFFFFFFFFFF AND DUP2 MSTORE PUSH1 0x20 ADD SWAP1 DUP2 MSTORE PUSH1 0x20 ADD PUSH0 KECCAK256 PUSH1 0x1 ADD DUP2 SWAP1 SSTORE POP DUP3 PUSH1 0x8 PUSH0 DUP9 PUSH20 0xFFFFFFFFFFFFFFFFFFFFFFFFFFFFFFFFFFFFFFFF AND PUSH20 0xFFFFFFFFFFFFFFFFFFFFFFFFFFFFFFFFFFFFFFFF AND DUP2 MSTORE PUSH1 0x20 ADD SWAP1 DUP2 MSTORE PUSH1 0x20 ADD PUSH0 KECCAK256 PUSH1 0x2 ADD SWAP1 DUP2 PUSH2 0x63E SWAP2 SWAP1 PUSH2 0x2915 JUMP JUMPDEST POP DUP2 PUSH1 0x8 PUSH0 DUP9 PUSH20 0xFFFFFFFFFFFFFFFFFFFFFFFFFFFFFFFFFFFFFFFF AND PUSH20 0xFFFFFFFFFFFFFFFFFFFFFFFFFFFFFFFFFFFFFFFF AND DUP2 MSTORE PUSH1 0x20 ADD SWAP1 DUP2 MSTORE PUSH1 0x20 ADD PUSH0 KECCAK256 PUSH1 0x3 ADD DUP2 SWAP1 SSTORE POP DUP1 PUSH1 0x8 PUSH0 DUP9 PUSH20 0xFFFFFFFFFFFFFFFFFFFFFFFFFFFFFFFFFFFFFFFF AND PUSH20 0xFFFFFFFFFFFFFFFFFFFFFFFFFFFFFFFFFFFFFFFF AND DUP2 MSTORE PUSH1 0x20 ADD SWAP1 DUP2 MSTORE PUSH1 0x20 ADD PUSH0 KECCAK256 PUSH1 0x4 ADD SWAP1 DUP2 PUSH2 0x6D1 SWAP2 SWAP1 PUSH2 0x2915 JUMP JUMPDEST POP PUSH2 0x6DB DUP7 PUSH2 0xEDD JUMP JUMPDEST PUSH1 0x8 PUSH0 DUP9 PUSH20 0xFFFFFFFFFFFFFFFFFFFFFFFFFFFFFFFFFFFFFFFF AND PUSH20 0xFFFFFFFFFFFFFFFFFFFFFFFFFFFFFFFFFFFFFFFF AND DUP2 MSTORE PUSH1 0x20 ADD SWAP1 DUP2 MSTORE PUSH1 0x20 ADD PUSH0 KECCAK256 PUSH1 0x5 ADD DUP2 SWAP1 SSTORE POP POP POP POP POP POP POP JUMP JUMPDEST PUSH0 PUSH1 0x2 SLOAD SWAP1 POP SWAP1 JUMP JUMPDEST PUSH0 DUP1 PUSH2 0x73A PUSH2 0x1A3C JUMP JUMPDEST SWAP1 POP PUSH2 0x747 DUP6 DUP3 DUP6 PUSH2 0x1A55 JUMP JUMPDEST PUSH2 0x752 DUP6 DUP6 DUP6 PUSH2 0x1AE7 JUMP JUMPDEST PUSH1 0x1 SWAP2 POP POP SWAP4 SWAP3 POP POP POP JUMP JUMPDEST PUSH0 PUSH2 0x769 DUP4 DUP4 PUSH2 0x1BD7 JUMP JUMPDEST PUSH2 0x772 DUP4 PUSH2 0xEDD JUMP JUMPDEST PUSH1 0x8 PUSH0 DUP6 PUSH20 0xFFFFFFFFFFFFFFFFFFFFFFFFFFFFFFFFFFFFFFFF AND PUSH20 0xFFFFFFFFFFFFFFFFFFFFFFFFFFFFFFFFFFFFFFFF AND DUP2 MSTORE PUSH1 0x20 ADD SWAP1 DUP2 MSTORE PUSH1 0x20 ADD PUSH0 KECCAK256 PUSH1 0x5 ADD DUP2 SWAP1 SSTORE POP PUSH1 0x1 SWAP1 POP SWAP3 SWAP2 POP POP JUMP JUMPDEST PUSH1 0x5 SLOAD DUP2 JUMP JUMPDEST PUSH0 PUSH1 0x12 SWAP1 POP SWAP1 JUMP JUMPDEST PUSH0 DUP1 PUSH2 0x7D8 PUSH2 0x1A3C JUMP JUMPDEST SWAP1 POP PUSH2 0x7F9 DUP2 DUP6 DUP6 PUSH2 0x7EA DUP6 DUP10 PUSH2 0x19BA JUMP JUMPDEST PUSH2 0x7F4 SWAP2 SWAP1 PUSH2 0x2A11 JUMP JUMPDEST PUSH2 0x1A43 JUMP JUMPDEST PUSH1 0x1 SWAP2 POP POP SWAP3 SWAP2 POP POP JUMP JUMPDEST PUSH0 DUP4 GT PUSH2 0x846 JUMPI PUSH1 0x40 MLOAD PUSH32 0x8C379A000000000000000000000000000000000000000000000000000000000 DUP2 MSTORE PUSH1 0x4 ADD PUSH2 0x83D SWAP1 PUSH2 0x2A8E JUMP JUMPDEST PUSH1 0x40 MLOAD DUP1 SWAP2 SUB SWAP1 REVERT JUMPDEST PUSH0 DUP5 SWAP1 POP DUP1 PUSH20 0xFFFFFFFFFFFFFFFFFFFFFFFFFFFFFFFFFFFFFFFF AND PUSH4 0x95EA7B3 ADDRESS DUP7 PUSH1 0x40 MLOAD DUP4 PUSH4 0xFFFFFFFF AND PUSH1 0xE0 SHL DUP2 MSTORE PUSH1 0x4 ADD PUSH2 0x885 SWAP3 SWAP2 SWAP1 PUSH2 0x2AAC JUMP JUMPDEST PUSH1 0x20 PUSH1 0x40 MLOAD DUP1 DUP4 SUB DUP2 PUSH0 DUP8 GAS CALL ISZERO DUP1 ISZERO PUSH2 0x8A1 JUMPI RETURNDATASIZE PUSH0 DUP1 RETURNDATACOPY RETURNDATASIZE PUSH0 REVERT JUMPDEST POP POP POP POP PUSH1 0x40 MLOAD RETURNDATASIZE PUSH1 0x1F NOT PUSH1 0x1F DUP3 ADD AND DUP3 ADD DUP1 PUSH1 0x40 MSTORE POP DUP2 ADD SWAP1 PUSH2 0x8C5 SWAP2 SWAP1 PUSH2 0x2AFD JUMP JUMPDEST PUSH2 0x904 JUMPI PUSH1 0x40 MLOAD PUSH32 0x8C379A000000000000000000000000000000000000000000000000000000000 DUP2 MSTORE PUSH1 0x4 ADD PUSH2 0x8FB SWAP1 PUSH2 0x2B72 JUMP JUMPDEST PUSH1 0x40 MLOAD DUP1 SWAP2 SUB SWAP1 REVERT JUMPDEST DUP1 PUSH20 0xFFFFFFFFFFFFFFFFFFFFFFFFFFFFFFFFFFFFFFFF AND PUSH4 0x23B872DD CALLER ADDRESS DUP8 PUSH1 0x40 MLOAD DUP5 PUSH4 0xFFFFFFFF AND PUSH1 0xE0 SHL DUP2 MSTORE PUSH1 0x4 ADD PUSH2 0x941 SWAP4 SWAP3 SWAP2 SWAP1 PUSH2 0x2B90 JUMP JUMPDEST PUSH1 0x20 PUSH1 0x40 MLOAD DUP1 DUP4 SUB DUP2 PUSH0 DUP8 GAS CALL ISZERO DUP1 ISZERO PUSH2 0x95D JUMPI RETURNDATASIZE PUSH0 DUP1 RETURNDATACOPY RETURNDATASIZE PUSH0 REVERT JUMPDEST POP POP POP POP PUSH1 0x40 MLOAD RETURNDATASIZE PUSH1 0x1F NOT PUSH1 0x1F DUP3 ADD AND DUP3 ADD DUP1 PUSH1 0x40 MSTORE POP DUP2 ADD SWAP1 PUSH2 0x981 SWAP2 SWAP1 PUSH2 0x2AFD JUMP JUMPDEST PUSH2 0x9C0 JUMPI PUSH1 0x40 MLOAD PUSH32 0x8C379A000000000000000000000000000000000000000000000000000000000 DUP2 MSTORE PUSH1 0x4 ADD PUSH2 0x9B7 SWAP1 PUSH2 0x2C0F JUMP JUMPDEST PUSH1 0x40 MLOAD DUP1 SWAP2 SUB SWAP1 REVERT JUMPDEST PUSH0 PUSH2 0x9CD DUP7 DUP7 DUP7 DUP7 PUSH2 0xF22 JUMP JUMPDEST SWAP1 POP PUSH0 DUP2 GT PUSH2 0xA11 JUMPI PUSH1 0x40 MLOAD PUSH32 0x8C379A000000000000000000000000000000000000000000000000000000000 DUP2 MSTORE PUSH1 0x4 ADD PUSH2 0xA08 SWAP1 PUSH2 0x2C77 JUMP JUMPDEST PUSH1 0x40 MLOAD DUP1 SWAP2 SUB SWAP1 REVERT JUMPDEST PUSH2 0xA1B CALLER DUP3 PUSH2 0x1BD7 JUMP JUMPDEST DUP6 PUSH20 0xFFFFFFFFFFFFFFFFFFFFFFFFFFFFFFFFFFFFFFFF AND CALLER PUSH20 0xFFFFFFFFFFFFFFFFFFFFFFFFFFFFFFFFFFFFFFFF AND PUSH32 0x631FB37DBA9BBCB8B2F3BE2D669E365AE9F1BD850CC57DFE8B7CCD7D979A2BBA DUP8 ADDRESS DUP6 PUSH1 0x40 MLOAD PUSH2 0xA7C SWAP4 SWAP3 SWAP2 SWAP1 PUSH2 0x2C95 JUMP JUMPDEST PUSH1 0x40 MLOAD DUP1 SWAP2 SUB SWAP1 LOG3 POP POP POP POP POP POP JUMP JUMPDEST PUSH0 DUP1 PUSH1 0x8 PUSH0 DUP5 PUSH20 0xFFFFFFFFFFFFFFFFFFFFFFFFFFFFFFFFFFFFFFFF AND PUSH20 0xFFFFFFFFFFFFFFFFFFFFFFFFFFFFFFFFFFFFFFFF AND DUP2 MSTORE PUSH1 0x20 ADD SWAP1 DUP2 MSTORE PUSH1 0x20 ADD PUSH0 KECCAK256 PUSH1 0x40 MLOAD DUP1 PUSH1 0xC0 ADD PUSH1 0x40 MSTORE SWAP1 DUP2 PUSH0 DUP3 ADD DUP1 SLOAD PUSH2 0xAE5 SWAP1 PUSH2 0x2748 JUMP JUMPDEST DUP1 PUSH1 0x1F ADD PUSH1 0x20 DUP1 SWAP2 DIV MUL PUSH1 0x20 ADD PUSH1 0x40 MLOAD SWAP1 DUP2 ADD PUSH1 0x40 MSTORE DUP1 SWAP3 SWAP2 SWAP1 DUP2 DUP2 MSTORE PUSH1 0x20 ADD DUP3 DUP1 SLOAD PUSH2 0xB11 SWAP1 PUSH2 0x2748 JUMP JUMPDEST DUP1 ISZERO PUSH2 0xB5C JUMPI DUP1 PUSH1 0x1F LT PUSH2 0xB33 JUMPI PUSH2 0x100 DUP1 DUP4 SLOAD DIV MUL DUP4 MSTORE SWAP2 PUSH1 0x20 ADD SWAP2 PUSH2 0xB5C JUMP JUMPDEST DUP3 ADD SWAP2 SWAP1 PUSH0 MSTORE PUSH1 0x20 PUSH0 KECCAK256 SWAP1 JUMPDEST DUP2 SLOAD DUP2 MSTORE SWAP1 PUSH1 0x1 ADD SWAP1 PUSH1 0x20 ADD DUP1 DUP4 GT PUSH2 0xB3F JUMPI DUP3 SWAP1 SUB PUSH1 0x1F AND DUP3 ADD SWAP2 JUMPDEST POP POP POP POP POP DUP2 MSTORE PUSH1 0x20 ADD PUSH1 0x1 DUP3 ADD SLOAD DUP2 MSTORE PUSH1 0x20 ADD PUSH1 0x2 DUP3 ADD DUP1 SLOAD PUSH2 0xB7F SWAP1 PUSH2 0x2748 JUMP JUMPDEST DUP1 PUSH1 0x1F ADD PUSH1 0x20 DUP1 SWAP2 DIV MUL PUSH1 0x20 ADD PUSH1 0x40 MLOAD SWAP1 DUP2 ADD PUSH1 0x40 MSTORE DUP1 SWAP3 SWAP2 SWAP1 DUP2 DUP2 MSTORE PUSH1 0x20 ADD DUP3 DUP1 SLOAD PUSH2 0xBAB SWAP1 PUSH2 0x2748 JUMP JUMPDEST DUP1 ISZERO PUSH2 0xBF6 JUMPI DUP1 PUSH1 0x1F LT PUSH2 0xBCD JUMPI PUSH2 0x100 DUP1 DUP4 SLOAD DIV MUL DUP4 MSTORE SWAP2 PUSH1 0x20 ADD SWAP2 PUSH2 0xBF6 JUMP JUMPDEST DUP3 ADD SWAP2 SWAP1 PUSH0 MSTORE PUSH1 0x20 PUSH0 KECCAK256 SWAP1 JUMPDEST DUP2 SLOAD DUP2 MSTORE SWAP1 PUSH1 0x1 ADD SWAP1 PUSH1 0x20 ADD DUP1 DUP4 GT PUSH2 0xBD9 JUMPI DUP3 SWAP1 SUB PUSH1 0x1F AND DUP3 ADD SWAP2 JUMPDEST POP POP POP POP POP DUP2 MSTORE PUSH1 0x20 ADD PUSH1 0x3 DUP3 ADD SLOAD DUP2 MSTORE PUSH1 0x20 ADD PUSH1 0x4 DUP3 ADD DUP1 SLOAD PUSH2 0xC19 SWAP1 PUSH2 0x2748 JUMP JUMPDEST DUP1 PUSH1 0x1F ADD PUSH1 0x20 DUP1 SWAP2 DIV MUL PUSH1 0x20 ADD PUSH1 0x40 MLOAD SWAP1 DUP2 ADD PUSH1 0x40 MSTORE DUP1 SWAP3 SWAP2 SWAP1 DUP2 DUP2 MSTORE PUSH1 0x20 ADD DUP3 DUP1 SLOAD PUSH2 0xC45 SWAP1 PUSH2 0x2748 JUMP JUMPDEST DUP1 ISZERO PUSH2 0xC90 JUMPI DUP1 PUSH1 0x1F LT PUSH2 0xC67 JUMPI PUSH2 0x100 DUP1 DUP4 SLOAD DIV MUL DUP4 MSTORE SWAP2 PUSH1 0x20 ADD SWAP2 PUSH2 0xC90 JUMP JUMPDEST DUP3 ADD SWAP2 SWAP1 PUSH0 MSTORE PUSH1 0x20 PUSH0 KECCAK256 SWAP1 JUMPDEST DUP2 SLOAD DUP2 MSTORE SWAP1 PUSH1 0x1 ADD SWAP1 PUSH1 0x20 ADD DUP1 DUP4 GT PUSH2 0xC73 JUMPI DUP3 SWAP1 SUB PUSH1 0x1F AND DUP3 ADD SWAP2 JUMPDEST POP POP POP POP POP DUP2 MSTORE PUSH1 0x20 ADD PUSH1 0x5 DUP3 ADD SLOAD DUP2 MSTORE POP POP SWAP1 POP PUSH0 PUSH1 0x9 PUSH0 SWAP1 SLOAD SWAP1 PUSH2 0x100 EXP SWAP1 DIV PUSH20 0xFFFFFFFFFFFFFFFFFFFFFFFFFFFFFFFFFFFFFFFF AND PUSH20 0xFFFFFFFFFFFFFFFFFFFFFFFFFFFFFFFFFFFFFFFF AND PUSH4 0xCB0AB425 DUP6 PUSH1 0x40 MLOAD DUP3 PUSH4 0xFFFFFFFF AND PUSH1 0xE0 SHL DUP2 MSTORE PUSH1 0x4 ADD PUSH2 0xD00 SWAP2 SWAP1 PUSH2 0x2625 JUMP JUMPDEST PUSH0 PUSH1 0x40 MLOAD DUP1 DUP4 SUB DUP2 DUP7 GAS STATICCALL ISZERO DUP1 ISZERO PUSH2 0xD1A JUMPI RETURNDATASIZE PUSH0 DUP1 RETURNDATACOPY RETURNDATASIZE PUSH0 REVERT JUMPDEST POP POP POP POP PUSH1 0x40 MLOAD RETURNDATASIZE PUSH0 DUP3 RETURNDATACOPY RETURNDATASIZE PUSH1 0x1F NOT PUSH1 0x1F DUP3 ADD AND DUP3 ADD DUP1 PUSH1 0x40 MSTORE POP DUP2 ADD SWAP1 PUSH2 0xD42 SWAP2 SWAP1 PUSH2 0x2D38 JUMP JUMPDEST SWAP1 POP PUSH1 0x9 PUSH0 SWAP1 SLOAD SWAP1 PUSH2 0x100 EXP SWAP1 DIV PUSH20 0xFFFFFFFFFFFFFFFFFFFFFFFFFFFFFFFFFFFFFFFF AND PUSH20 0xFFFFFFFFFFFFFFFFFFFFFFFFFFFFFFFFFFFFFFFF AND PUSH4 0x4A9760E1 DUP4 PUSH0 ADD MLOAD DUP5 PUSH1 0x20 ADD MLOAD DUP6 PUSH1 0x40 ADD MLOAD DUP7 PUSH1 0x60 ADD MLOAD DUP8 PUSH1 0x80 ADD MLOAD DUP9 PUSH1 0xA0 ADD MLOAD PUSH1 0x40 MLOAD DUP8 PUSH4 0xFFFFFFFF AND PUSH1 0xE0 SHL DUP2 MSTORE PUSH1 0x4 ADD PUSH2 0xDBF SWAP7 SWAP6 SWAP5 SWAP4 SWAP3 SWAP2 SWAP1 PUSH2 0x25A2 JUMP JUMPDEST PUSH0 PUSH1 0x40 MLOAD DUP1 DUP4 SUB DUP2 DUP7 GAS STATICCALL ISZERO DUP1 ISZERO PUSH2 0xDD9 JUMPI RETURNDATASIZE PUSH0 DUP1 RETURNDATACOPY RETURNDATASIZE PUSH0 REVERT JUMPDEST POP POP POP POP PUSH1 0x40 MLOAD RETURNDATASIZE PUSH0 DUP3 RETURNDATACOPY RETURNDATASIZE PUSH1 0x1F NOT PUSH1 0x1F DUP3 ADD AND DUP3 ADD DUP1 PUSH1 0x40 MSTORE POP DUP2 ADD SWAP1 PUSH2 0xE01 SWAP2 SWAP1 PUSH2 0x2D38 JUMP JUMPDEST PUSH1 0x40 MLOAD PUSH1 0x20 ADD PUSH2 0xE11 SWAP2 SWAP1 PUSH2 0x2DB9 JUMP JUMPDEST PUSH1 0x40 MLOAD PUSH1 0x20 DUP2 DUP4 SUB SUB DUP2 MSTORE SWAP1 PUSH1 0x40 MSTORE DUP1 MLOAD SWAP1 PUSH1 0x20 ADD KECCAK256 DUP2 PUSH1 0x40 MLOAD PUSH1 0x20 ADD PUSH2 0xE38 SWAP2 SWAP1 PUSH2 0x2DB9 JUMP JUMPDEST PUSH1 0x40 MLOAD PUSH1 0x20 DUP2 DUP4 SUB SUB DUP2 MSTORE SWAP1 PUSH1 0x40 MSTORE DUP1 MLOAD SWAP1 PUSH1 0x20 ADD KECCAK256 EQ PUSH2 0xE8E JUMPI PUSH1 0x40 MLOAD PUSH32 0x8C379A000000000000000000000000000000000000000000000000000000000 DUP2 MSTORE PUSH1 0x4 ADD PUSH2 0xE85 SWAP1 PUSH2 0x2E19 JUMP JUMPDEST PUSH1 0x40 MLOAD DUP1 SWAP2 SUB SWAP1 REVERT JUMPDEST PUSH0 PUSH1 0x8 PUSH0 DUP7 PUSH20 0xFFFFFFFFFFFFFFFFFFFFFFFFFFFFFFFFFFFFFFFF AND PUSH20 0xFFFFFFFFFFFFFFFFFFFFFFFFFFFFFFFFFFFFFFFF AND DUP2 MSTORE PUSH1 0x20 ADD SWAP1 DUP2 MSTORE PUSH1 0x20 ADD PUSH0 KECCAK256 PUSH1 0x5 ADD SLOAD SWAP1 POP DUP1 SWAP4 POP POP POP POP SWAP2 SWAP1 POP JUMP JUMPDEST PUSH0 DUP1 PUSH0 DUP4 PUSH20 0xFFFFFFFFFFFFFFFFFFFFFFFFFFFFFFFFFFFFFFFF AND PUSH20 0xFFFFFFFFFFFFFFFFFFFFFFFFFFFFFFFFFFFFFFFF AND DUP2 MSTORE PUSH1 0x20 ADD SWAP1 DUP2 MSTORE PUSH1 0x20 ADD PUSH0 KECCAK256 SLOAD SWAP1 POP SWAP2 SWAP1 POP JUMP JUMPDEST PUSH0 DUP1 PUSH2 0x1388 SWAP1 POP PUSH0 DUP7 SWAP1 POP PUSH0 PUSH2 0xF3A DUP3 DUP9 DUP9 DUP9 PUSH2 0x15EC JUMP JUMPDEST SWAP1 POP PUSH0 PUSH2 0xF63 PUSH8 0xDE0B6B3A7640000 DUP6 DUP5 PUSH2 0xF55 SWAP2 SWAP1 PUSH2 0x2E37 JUMP JUMPDEST PUSH2 0x1C56 SWAP1 SWAP2 SWAP1 PUSH4 0xFFFFFFFF AND JUMP JUMPDEST SWAP1 POP DUP1 SWAP5 POP POP POP POP POP SWAP5 SWAP4 POP POP POP POP JUMP JUMPDEST PUSH1 0x8 PUSH1 0x20 MSTORE DUP1 PUSH0 MSTORE PUSH1 0x40 PUSH0 KECCAK256 PUSH0 SWAP2 POP SWAP1 POP DUP1 PUSH0 ADD DUP1 SLOAD PUSH2 0xF93 SWAP1 PUSH2 0x2748 JUMP JUMPDEST DUP1 PUSH1 0x1F ADD PUSH1 0x20 DUP1 SWAP2 DIV MUL PUSH1 0x20 ADD PUSH1 0x40 MLOAD SWAP1 DUP2 ADD PUSH1 0x40 MSTORE DUP1 SWAP3 SWAP2 SWAP1 DUP2 DUP2 MSTORE PUSH1 0x20 ADD DUP3 DUP1 SLOAD PUSH2 0xFBF SWAP1 PUSH2 0x2748 JUMP JUMPDEST DUP1 ISZERO PUSH2 0x100A JUMPI DUP1 PUSH1 0x1F LT PUSH2 0xFE1 JUMPI PUSH2 0x100 DUP1 DUP4 SLOAD DIV MUL DUP4 MSTORE SWAP2 PUSH1 0x20 ADD SWAP2 PUSH2 0x100A JUMP JUMPDEST DUP3 ADD SWAP2 SWAP1 PUSH0 MSTORE PUSH1 0x20 PUSH0 KECCAK256 SWAP1 JUMPDEST DUP2 SLOAD DUP2 MSTORE SWAP1 PUSH1 0x1 ADD SWAP1 PUSH1 0x20 ADD DUP1 DUP4 GT PUSH2 0xFED JUMPI DUP3 SWAP1 SUB PUSH1 0x1F AND DUP3 ADD SWAP2 JUMPDEST POP POP POP POP POP SWAP1 DUP1 PUSH1 0x1 ADD SLOAD SWAP1 DUP1 PUSH1 0x2 ADD DUP1 SLOAD PUSH2 0x1025 SWAP1 PUSH2 0x2748 JUMP JUMPDEST DUP1 PUSH1 0x1F ADD PUSH1 0x20 DUP1 SWAP2 DIV MUL PUSH1 0x20 ADD PUSH1 0x40 MLOAD SWAP1 DUP2 ADD PUSH1 0x40 MSTORE DUP1 SWAP3 SWAP2 SWAP1 DUP2 DUP2 MSTORE PUSH1 0x20 ADD DUP3 DUP1 SLOAD PUSH2 0x1051 SWAP1 PUSH2 0x2748 JUMP JUMPDEST DUP1 ISZERO PUSH2 0x109C JUMPI DUP1 PUSH1 0x1F LT PUSH2 0x1073 JUMPI PUSH2 0x100 DUP1 DUP4 SLOAD DIV MUL DUP4 MSTORE SWAP2 PUSH1 0x20 ADD SWAP2 PUSH2 0x109C JUMP JUMPDEST DUP3 ADD SWAP2 SWAP1 PUSH0 MSTORE PUSH1 0x20 PUSH0 KECCAK256 SWAP1 JUMPDEST DUP2 SLOAD DUP2 MSTORE SWAP1 PUSH1 0x1 ADD SWAP1 PUSH1 0x20 ADD DUP1 DUP4 GT PUSH2 0x107F JUMPI DUP3 SWAP1 SUB PUSH1 0x1F AND DUP3 ADD SWAP2 JUMPDEST POP POP POP POP POP SWAP1 DUP1 PUSH1 0x3 ADD SLOAD SWAP1 DUP1 PUSH1 0x4 ADD DUP1 SLOAD PUSH2 0x10B7 SWAP1 PUSH2 0x2748 JUMP JUMPDEST DUP1 PUSH1 0x1F ADD PUSH1 0x20 DUP1 SWAP2 DIV MUL PUSH1 0x20 ADD PUSH1 0x40 MLOAD SWAP1 DUP2 ADD PUSH1 0x40 MSTORE DUP1 SWAP3 SWAP2 SWAP1 DUP2 DUP2 MSTORE PUSH1 0x20 ADD DUP3 DUP1 SLOAD PUSH2 0x10E3 SWAP1 PUSH2 0x2748 JUMP JUMPDEST DUP1 ISZERO PUSH2 0x112E JUMPI DUP1 PUSH1 0x1F LT PUSH2 0x1105 JUMPI PUSH2 0x100 DUP1 DUP4 SLOAD DIV MUL DUP4 MSTORE SWAP2 PUSH1 0x20 ADD SWAP2 PUSH2 0x112E JUMP JUMPDEST DUP3 ADD SWAP2 SWAP1 PUSH0 MSTORE PUSH1 0x20 PUSH0 KECCAK256 SWAP1 JUMPDEST DUP2 SLOAD DUP2 MSTORE SWAP1 PUSH1 0x1 ADD SWAP1 PUSH1 0x20 ADD DUP1 DUP4 GT PUSH2 0x1111 JUMPI DUP3 SWAP1 SUB PUSH1 0x1F AND DUP3 ADD SWAP2 JUMPDEST POP POP POP POP POP SWAP1 DUP1 PUSH1 0x5 ADD SLOAD SWAP1 POP DUP7 JUMP JUMPDEST PUSH1 0x60 PUSH1 0x4 DUP1 SLOAD PUSH2 0x114D SWAP1 PUSH2 0x2748 JUMP JUMPDEST DUP1 PUSH1 0x1F ADD PUSH1 0x20 DUP1 SWAP2 DIV MUL PUSH1 0x20 ADD PUSH1 0x40 MLOAD SWAP1 DUP2 ADD PUSH1 0x40 MSTORE DUP1 SWAP3 SWAP2 SWAP1 DUP2 DUP2 MSTORE PUSH1 0x20 ADD DUP3 DUP1 SLOAD PUSH2 0x1179 SWAP1 PUSH2 0x2748 JUMP JUMPDEST DUP1 ISZERO PUSH2 0x11C4 JUMPI DUP1 PUSH1 0x1F LT PUSH2 0x119B JUMPI PUSH2 0x100 DUP1 DUP4 SLOAD DIV MUL DUP4 MSTORE SWAP2 PUSH1 0x20 ADD SWAP2 PUSH2 0x11C4 JUMP JUMPDEST DUP3 ADD SWAP2 SWAP1 PUSH0 MSTORE PUSH1 0x20 PUSH0 KECCAK256 SWAP1 JUMPDEST DUP2 SLOAD DUP2 MSTORE SWAP1 PUSH1 0x1 ADD SWAP1 PUSH1 0x20 ADD DUP1 DUP4 GT PUSH2 0x11A7 JUMPI DUP3 SWAP1 SUB PUSH1 0x1F AND DUP3 ADD SWAP2 JUMPDEST POP POP POP POP POP SWAP1 POP SWAP1 JUMP JUMPDEST PUSH0 DUP1 PUSH2 0x11D8 PUSH2 0x1A3C JUMP JUMPDEST SWAP1 POP PUSH0 PUSH2 0x11E5 DUP3 DUP7 PUSH2 0x19BA JUMP JUMPDEST SWAP1 POP DUP4 DUP2 LT ISZERO PUSH2 0x1230 JUMPI DUP5 DUP2 DUP6 PUSH1 0x40 MLOAD PUSH32 0xA60F030C00000000000000000000000000000000000000000000000000000000 DUP2 MSTORE PUSH1 0x4 ADD PUSH2 0x1227 SWAP4 SWAP3 SWAP2 SWAP1 PUSH2 0x2E78 JUMP JUMPDEST PUSH1 0x40 MLOAD DUP1 SWAP2 SUB SWAP1 REVERT JUMPDEST PUSH2 0x123D DUP3 DUP7 DUP7 DUP5 SUB PUSH2 0x1A43 JUMP JUMPDEST PUSH1 0x1 SWAP3 POP POP POP SWAP3 SWAP2 POP POP JUMP JUMPDEST PUSH0 DUP4 GT PUSH2 0x128B JUMPI PUSH1 0x40 MLOAD PUSH32 0x8C379A000000000000000000000000000000000000000000000000000000000 DUP2 MSTORE PUSH1 0x4 ADD PUSH2 0x1282 SWAP1 PUSH2 0x2A8E JUMP JUMPDEST PUSH1 0x40 MLOAD DUP1 SWAP2 SUB SWAP1 REVERT JUMPDEST PUSH0 ADDRESS SWAP1 POP DUP1 PUSH20 0xFFFFFFFFFFFFFFFFFFFFFFFFFFFFFFFFFFFFFFFF AND PUSH4 0x23B872DD CALLER ADDRESS DUP8 PUSH1 0x40 MLOAD DUP5 PUSH4 0xFFFFFFFF AND PUSH1 0xE0 SHL DUP2 MSTORE PUSH1 0x4 ADD PUSH2 0x12CC SWAP4 SWAP3 SWAP2 SWAP1 PUSH2 0x2B90 JUMP JUMPDEST PUSH1 0x20 PUSH1 0x40 MLOAD DUP1 DUP4 SUB DUP2 PUSH0 DUP8 GAS CALL ISZERO DUP1 ISZERO PUSH2 0x12E8 JUMPI RETURNDATASIZE PUSH0 DUP1 RETURNDATACOPY RETURNDATASIZE PUSH0 REVERT JUMPDEST POP POP POP POP PUSH1 0x40 MLOAD RETURNDATASIZE PUSH1 0x1F NOT PUSH1 0x1F DUP3 ADD AND DUP3 ADD DUP1 PUSH1 0x40 MSTORE POP DUP2 ADD SWAP1 PUSH2 0x130C SWAP2 SWAP1 PUSH2 0x2AFD JUMP JUMPDEST PUSH2 0x134B JUMPI PUSH1 0x40 MLOAD PUSH32 0x8C379A000000000000000000000000000000000000000000000000000000000 DUP2 MSTORE PUSH1 0x4 ADD PUSH2 0x1342 SWAP1 PUSH2 0x2C0F JUMP JUMPDEST PUSH1 0x40 MLOAD DUP1 SWAP2 SUB SWAP1 REVERT JUMPDEST PUSH0 PUSH2 0x1357 DUP6 DUP6 DUP6 PUSH2 0x1C6B JUMP JUMPDEST SWAP1 POP PUSH0 DUP2 GT PUSH2 0x139B JUMPI PUSH1 0x40 MLOAD PUSH32 0x8C379A000000000000000000000000000000000000000000000000000000000 DUP2 MSTORE PUSH1 0x4 ADD PUSH2 0x1392 SWAP1 PUSH2 0x2C77 JUMP JUMPDEST PUSH1 0x40 MLOAD DUP1 SWAP2 SUB SWAP1 REVERT JUMPDEST PUSH0 DUP7 SWAP1 POP DUP1 PUSH20 0xFFFFFFFFFFFFFFFFFFFFFFFFFFFFFFFFFFFFFFFF AND PUSH4 0xA9059CBB CALLER DUP5 PUSH1 0x40 MLOAD DUP4 PUSH4 0xFFFFFFFF AND PUSH1 0xE0 SHL DUP2 MSTORE PUSH1 0x4 ADD PUSH2 0x13DA SWAP3 SWAP2 SWAP1 PUSH2 0x2AAC JUMP JUMPDEST PUSH1 0x20 PUSH1 0x40 MLOAD DUP1 DUP4 SUB DUP2 PUSH0 DUP8 GAS CALL ISZERO DUP1 ISZERO PUSH2 0x13F6 JUMPI RETURNDATASIZE PUSH0 DUP1 RETURNDATACOPY RETURNDATASIZE PUSH0 REVERT JUMPDEST POP POP POP POP PUSH1 0x40 MLOAD RETURNDATASIZE PUSH1 0x1F NOT PUSH1 0x1F DUP3 ADD AND DUP3 ADD DUP1 PUSH1 0x40 MSTORE POP DUP2 ADD SWAP1 PUSH2 0x141A SWAP2 SWAP1 PUSH2 0x2AFD JUMP JUMPDEST PUSH2 0x1459 JUMPI PUSH1 0x40 MLOAD PUSH32 0x8C379A000000000000000000000000000000000000000000000000000000000 DUP2 MSTORE PUSH1 0x4 ADD PUSH2 0x1450 SWAP1 PUSH2 0x2C0F JUMP JUMPDEST PUSH1 0x40 MLOAD DUP1 SWAP2 SUB SWAP1 REVERT JUMPDEST DUP3 PUSH20 0xFFFFFFFFFFFFFFFFFFFFFFFFFFFFFFFFFFFFFFFF AND CALLER PUSH20 0xFFFFFFFFFFFFFFFFFFFFFFFFFFFFFFFFFFFFFFFF AND PUSH32 0x631FB37DBA9BBCB8B2F3BE2D669E365AE9F1BD850CC57DFE8B7CCD7D979A2BBA DUP9 DUP11 DUP7 PUSH1 0x40 MLOAD PUSH2 0x14BA SWAP4 SWAP3 SWAP2 SWAP1 PUSH2 0x2C95 JUMP JUMPDEST PUSH1 0x40 MLOAD DUP1 SWAP2 SUB SWAP1 LOG3 POP POP POP POP POP POP POP JUMP JUMPDEST PUSH0 PUSH1 0x6 PUSH0 SWAP1 SLOAD SWAP1 PUSH2 0x100 EXP SWAP1 DIV PUSH20 0xFFFFFFFFFFFFFFFFFFFFFFFFFFFFFFFFFFFFFFFF AND SWAP1 POP SWAP1 JUMP JUMPDEST PUSH0 PUSH2 0x151E PUSH1 0x6 PUSH0 SWAP1 SLOAD SWAP1 PUSH2 0x100 EXP SWAP1 DIV PUSH20 0xFFFFFFFFFFFFFFFFFFFFFFFFFFFFFFFFFFFFFFFF AND PUSH2 0xEDD JUMP JUMPDEST DUP3 GT ISZERO PUSH2 0x1560 JUMPI PUSH1 0x40 MLOAD PUSH32 0x8C379A000000000000000000000000000000000000000000000000000000000 DUP2 MSTORE PUSH1 0x4 ADD PUSH2 0x1557 SWAP1 PUSH2 0x2EF7 JUMP JUMPDEST PUSH1 0x40 MLOAD DUP1 SWAP2 SUB SWAP1 REVERT JUMPDEST PUSH2 0x158C PUSH1 0x6 PUSH0 SWAP1 SLOAD SWAP1 PUSH2 0x100 EXP SWAP1 DIV PUSH20 0xFFFFFFFFFFFFFFFFFFFFFFFFFFFFFFFFFFFFFFFF AND DUP5 DUP5 PUSH2 0x1AE7 JUMP JUMPDEST PUSH2 0x1595 DUP4 PUSH2 0xEDD JUMP JUMPDEST PUSH1 0x8 PUSH0 DUP6 PUSH20 0xFFFFFFFFFFFFFFFFFFFFFFFFFFFFFFFFFFFFFFFF AND PUSH20 0xFFFFFFFFFFFFFFFFFFFFFFFFFFFFFFFFFFFFFFFF AND DUP2 MSTORE PUSH1 0x20 ADD SWAP1 DUP2 MSTORE PUSH1 0x20 ADD PUSH0 KECCAK256 PUSH1 0x5 ADD DUP2 SWAP1 SSTORE POP PUSH2 0x15E2 DUP4 PUSH2 0x1640 JUMP JUMPDEST PUSH1 0x1 SWAP1 POP SWAP3 SWAP2 POP POP JUMP JUMPDEST PUSH0 DUP1 PUSH2 0x161B DUP5 PUSH2 0x160D PUSH8 0xDE0B6B3A7640000 DUP7 PUSH2 0x1CA8 SWAP1 SWAP2 SWAP1 PUSH4 0xFFFFFFFF AND JUMP JUMPDEST PUSH2 0x1C56 SWAP1 SWAP2 SWAP1 PUSH4 0xFFFFFFFF AND JUMP JUMPDEST SWAP1 POP PUSH0 PUSH2 0x1631 DUP3 DUP8 PUSH2 0x1CA8 SWAP1 SWAP2 SWAP1 PUSH4 0xFFFFFFFF AND JUMP JUMPDEST SWAP1 POP DUP1 SWAP3 POP POP POP SWAP5 SWAP4 POP POP POP POP JUMP JUMPDEST PUSH0 PUSH1 0x8 PUSH0 DUP4 PUSH20 0xFFFFFFFFFFFFFFFFFFFFFFFFFFFFFFFFFFFFFFFF AND PUSH20 0xFFFFFFFFFFFFFFFFFFFFFFFFFFFFFFFFFFFFFFFF AND DUP2 MSTORE PUSH1 0x20 ADD SWAP1 DUP2 MSTORE PUSH1 0x20 ADD PUSH0 KECCAK256 PUSH1 0x40 MLOAD DUP1 PUSH1 0xC0 ADD PUSH1 0x40 MSTORE SWAP1 DUP2 PUSH0 DUP3 ADD DUP1 SLOAD PUSH2 0x1698 SWAP1 PUSH2 0x2748 JUMP JUMPDEST DUP1 PUSH1 0x1F ADD PUSH1 0x20 DUP1 SWAP2 DIV MUL PUSH1 0x20 ADD PUSH1 0x40 MLOAD SWAP1 DUP2 ADD PUSH1 0x40 MSTORE DUP1 SWAP3 SWAP2 SWAP1 DUP2 DUP2 MSTORE PUSH1 0x20 ADD DUP3 DUP1 SLOAD PUSH2 0x16C4 SWAP1 PUSH2 0x2748 JUMP JUMPDEST DUP1 ISZERO PUSH2 0x170F JUMPI DUP1 PUSH1 0x1F LT PUSH2 0x16E6 JUMPI PUSH2 0x100 DUP1 DUP4 SLOAD DIV MUL DUP4 MSTORE SWAP2 PUSH1 0x20 ADD SWAP2 PUSH2 0x170F JUMP JUMPDEST DUP3 ADD SWAP2 SWAP1 PUSH0 MSTORE PUSH1 0x20 PUSH0 KECCAK256 SWAP1 JUMPDEST DUP2 SLOAD DUP2 MSTORE SWAP1 PUSH1 0x1 ADD SWAP1 PUSH1 0x20 ADD DUP1 DUP4 GT PUSH2 0x16F2 JUMPI DUP3 SWAP1 SUB PUSH1 0x1F AND DUP3 ADD SWAP2 JUMPDEST POP POP POP POP POP DUP2 MSTORE PUSH1 0x20 ADD PUSH1 0x1 DUP3 ADD SLOAD DUP2 MSTORE PUSH1 0x20 ADD PUSH1 0x2 DUP3 ADD DUP1 SLOAD PUSH2 0x1732 SWAP1 PUSH2 0x2748 JUMP JUMPDEST DUP1 PUSH1 0x1F ADD PUSH1 0x20 DUP1 SWAP2 DIV MUL PUSH1 0x20 ADD PUSH1 0x40 MLOAD SWAP1 DUP2 ADD PUSH1 0x40 MSTORE DUP1 SWAP3 SWAP2 SWAP1 DUP2 DUP2 MSTORE PUSH1 0x20 ADD DUP3 DUP1 SLOAD PUSH2 0x175E SWAP1 PUSH2 0x2748 JUMP JUMPDEST DUP1 ISZERO PUSH2 0x17A9 JUMPI DUP1 PUSH1 0x1F LT PUSH2 0x1780 JUMPI PUSH2 0x100 DUP1 DUP4 SLOAD DIV MUL DUP4 MSTORE SWAP2 PUSH1 0x20 ADD SWAP2 PUSH2 0x17A9 JUMP JUMPDEST DUP3 ADD SWAP2 SWAP1 PUSH0 MSTORE PUSH1 0x20 PUSH0 KECCAK256 SWAP1 JUMPDEST DUP2 SLOAD DUP2 MSTORE SWAP1 PUSH1 0x1 ADD SWAP1 PUSH1 0x20 ADD DUP1 DUP4 GT PUSH2 0x178C JUMPI DUP3 SWAP1 SUB PUSH1 0x1F AND DUP3 ADD SWAP2 JUMPDEST POP POP POP POP POP DUP2 MSTORE PUSH1 0x20 ADD PUSH1 0x3 DUP3 ADD SLOAD DUP2 MSTORE PUSH1 0x20 ADD PUSH1 0x4 DUP3 ADD DUP1 SLOAD PUSH2 0x17CC SWAP1 PUSH2 0x2748 JUMP JUMPDEST DUP1 PUSH1 0x1F ADD PUSH1 0x20 DUP1 SWAP2 DIV MUL PUSH1 0x20 ADD PUSH1 0x40 MLOAD SWAP1 DUP2 ADD PUSH1 0x40 MSTORE DUP1 SWAP3 SWAP2 SWAP1 DUP2 DUP2 MSTORE PUSH1 0x20 ADD DUP3 DUP1 SLOAD PUSH2 0x17F8 SWAP1 PUSH2 0x2748 JUMP JUMPDEST DUP1 ISZERO PUSH2 0x1843 JUMPI DUP1 PUSH1 0x1F LT PUSH2 0x181A JUMPI PUSH2 0x100 DUP1 DUP4 SLOAD DIV MUL DUP4 MSTORE SWAP2 PUSH1 0x20 ADD SWAP2 PUSH2 0x1843 JUMP JUMPDEST DUP3 ADD SWAP2 SWAP1 PUSH0 MSTORE PUSH1 0x20 PUSH0 KECCAK256 SWAP1 JUMPDEST DUP2 SLOAD DUP2 MSTORE SWAP1 PUSH1 0x1 ADD SWAP1 PUSH1 0x20 ADD DUP1 DUP4 GT PUSH2 0x1826 JUMPI DUP3 SWAP1 SUB PUSH1 0x1F AND DUP3 ADD SWAP2 JUMPDEST POP POP POP POP POP DUP2 MSTORE PUSH1 0x20 ADD PUSH1 0x5 DUP3 ADD SLOAD DUP2 MSTORE POP POP SWAP1 POP PUSH0 PUSH1 0x9 PUSH0 SWAP1 SLOAD SWAP1 PUSH2 0x100 EXP SWAP1 DIV PUSH20 0xFFFFFFFFFFFFFFFFFFFFFFFFFFFFFFFFFFFFFFFF AND PUSH20 0xFFFFFFFFFFFFFFFFFFFFFFFFFFFFFFFFFFFFFFFF AND PUSH4 0x4A9760E1 DUP4 PUSH0 ADD MLOAD DUP5 PUSH1 0x20 ADD MLOAD DUP6 PUSH1 0x40 ADD MLOAD DUP7 PUSH1 0x60 ADD MLOAD DUP8 PUSH1 0x80 ADD MLOAD DUP9 PUSH1 0xA0 ADD MLOAD PUSH1 0x40 MLOAD DUP8 PUSH4 0xFFFFFFFF AND PUSH1 0xE0 SHL DUP2 MSTORE PUSH1 0x4 ADD PUSH2 0x18D4 SWAP7 SWAP6 SWAP5 SWAP4 SWAP3 SWAP2 SWAP1 PUSH2 0x25A2 JUMP JUMPDEST PUSH0 PUSH1 0x40 MLOAD DUP1 DUP4 SUB DUP2 DUP7 GAS STATICCALL ISZERO DUP1 ISZERO PUSH2 0x18EE JUMPI RETURNDATASIZE PUSH0 DUP1 RETURNDATACOPY RETURNDATASIZE PUSH0 REVERT JUMPDEST POP POP POP POP PUSH1 0x40 MLOAD RETURNDATASIZE PUSH0 DUP3 RETURNDATACOPY RETURNDATASIZE PUSH1 0x1F NOT PUSH1 0x1F DUP3 ADD AND DUP3 ADD DUP1 PUSH1 0x40 MSTORE POP DUP2 ADD SWAP1 PUSH2 0x1916 SWAP2 SWAP1 PUSH2 0x2D38 JUMP JUMPDEST SWAP1 POP PUSH1 0x9 PUSH0 SWAP1 SLOAD SWAP1 PUSH2 0x100 EXP SWAP1 DIV PUSH20 0xFFFFFFFFFFFFFFFFFFFFFFFFFFFFFFFFFFFFFFFF AND PUSH20 0xFFFFFFFFFFFFFFFFFFFFFFFFFFFFFFFFFFFFFFFF AND PUSH4 0xF0FAED43 DUP5 DUP4 PUSH1 0x40 MLOAD DUP4 PUSH4 0xFFFFFFFF AND PUSH1 0xE0 SHL DUP2 MSTORE PUSH1 0x4 ADD PUSH2 0x1974 SWAP3 SWAP2 SWAP1 PUSH2 0x2F15 JUMP JUMPDEST PUSH1 0x20 PUSH1 0x40 MLOAD DUP1 DUP4 SUB DUP2 PUSH0 DUP8 GAS CALL ISZERO DUP1 ISZERO PUSH2 0x1990 JUMPI RETURNDATASIZE PUSH0 DUP1 RETURNDATACOPY RETURNDATASIZE PUSH0 REVERT JUMPDEST POP POP POP POP PUSH1 0x40 MLOAD RETURNDATASIZE PUSH1 0x1F NOT PUSH1 0x1F DUP3 ADD AND DUP3 ADD DUP1 PUSH1 0x40 MSTORE POP DUP2 ADD SWAP1 PUSH2 0x19B4 SWAP2 SWAP1 PUSH2 0x2AFD JUMP JUMPDEST POP POP POP POP JUMP JUMPDEST PUSH0 PUSH1 0x1 PUSH0 DUP5 PUSH20 0xFFFFFFFFFFFFFFFFFFFFFFFFFFFFFFFFFFFFFFFF AND PUSH20 0xFFFFFFFFFFFFFFFFFFFFFFFFFFFFFFFFFFFFFFFF AND DUP2 MSTORE PUSH1 0x20 ADD SWAP1 DUP2 MSTORE PUSH1 0x20 ADD PUSH0 KECCAK256 PUSH0 DUP4 PUSH20 0xFFFFFFFFFFFFFFFFFFFFFFFFFFFFFFFFFFFFFFFF AND PUSH20 0xFFFFFFFFFFFFFFFFFFFFFFFFFFFFFFFFFFFFFFFF AND DUP2 MSTORE PUSH1 0x20 ADD SWAP1 DUP2 MSTORE PUSH1 0x20 ADD PUSH0 KECCAK256 SLOAD SWAP1 POP SWAP3 SWAP2 POP POP JUMP JUMPDEST PUSH0 CALLER SWAP1 POP SWAP1 JUMP JUMPDEST PUSH2 0x1A50 DUP4 DUP4 DUP4 PUSH1 0x1 PUSH2 0x1CBD JUMP JUMPDEST POP POP POP JUMP JUMPDEST PUSH0 PUSH2 0x1A60 DUP5 DUP5 PUSH2 0x19BA JUMP JUMPDEST SWAP1 POP PUSH32 0xFFFFFFFFFFFFFFFFFFFFFFFFFFFFFFFFFFFFFFFFFFFFFFFFFFFFFFFFFFFFFFFF DUP2 EQ PUSH2 0x1AE1 JUMPI DUP2 DUP2 LT ISZERO PUSH2 0x1AD2 JUMPI DUP3 DUP2 DUP4 PUSH1 0x40 MLOAD PUSH32 0xFB8F41B200000000000000000000000000000000000000000000000000000000 DUP2 MSTORE PUSH1 0x4 ADD PUSH2 0x1AC9 SWAP4 SWAP3 SWAP2 SWAP1 PUSH2 0x2E78 JUMP JUMPDEST PUSH1 0x40 MLOAD DUP1 SWAP2 SUB SWAP1 REVERT JUMPDEST PUSH2 0x1AE0 DUP5 DUP5 DUP5 DUP5 SUB PUSH0 PUSH2 0x1CBD JUMP JUMPDEST JUMPDEST POP POP POP POP JUMP JUMPDEST PUSH0 PUSH20 0xFFFFFFFFFFFFFFFFFFFFFFFFFFFFFFFFFFFFFFFF AND DUP4 PUSH20 0xFFFFFFFFFFFFFFFFFFFFFFFFFFFFFFFFFFFFFFFF AND SUB PUSH2 0x1B57 JUMPI PUSH0 PUSH1 0x40 MLOAD PUSH32 0x96C6FD1E00000000000000000000000000000000000000000000000000000000 DUP2 MSTORE PUSH1 0x4 ADD PUSH2 0x1B4E SWAP2 SWAP1 PUSH2 0x2625 JUMP JUMPDEST PUSH1 0x40 MLOAD DUP1 SWAP2 SUB SWAP1 REVERT JUMPDEST PUSH0 PUSH20 0xFFFFFFFFFFFFFFFFFFFFFFFFFFFFFFFFFFFFFFFF AND DUP3 PUSH20 0xFFFFFFFFFFFFFFFFFFFFFFFFFFFFFFFFFFFFFFFF AND SUB PUSH2 0x1BC7 JUMPI PUSH0 PUSH1 0x40 MLOAD PUSH32 0xEC442F0500000000000000000000000000000000000000000000000000000000 DUP2 MSTORE PUSH1 0x4 ADD PUSH2 0x1BBE SWAP2 SWAP1 PUSH2 0x2625 JUMP JUMPDEST PUSH1 0x40 MLOAD DUP1 SWAP2 SUB SWAP1 REVERT JUMPDEST PUSH2 0x1BD2 DUP4 DUP4 DUP4 PUSH2 0x1E8C JUMP JUMPDEST POP POP POP JUMP JUMPDEST PUSH0 PUSH20 0xFFFFFFFFFFFFFFFFFFFFFFFFFFFFFFFFFFFFFFFF AND DUP3 PUSH20 0xFFFFFFFFFFFFFFFFFFFFFFFFFFFFFFFFFFFFFFFF AND SUB PUSH2 0x1C47 JUMPI PUSH0 PUSH1 0x40 MLOAD PUSH32 0xEC442F0500000000000000000000000000000000000000000000000000000000 DUP2 MSTORE PUSH1 0x4 ADD PUSH2 0x1C3E SWAP2 SWAP1 PUSH2 0x2625 JUMP JUMPDEST PUSH1 0x40 MLOAD DUP1 SWAP2 SUB SWAP1 REVERT JUMPDEST PUSH2 0x1C52 PUSH0 DUP4 DUP4 PUSH2 0x1E8C JUMP JUMPDEST POP POP JUMP JUMPDEST PUSH0 DUP2 DUP4 PUSH2 0x1C63 SWAP2 SWAP1 PUSH2 0x2F70 JUMP JUMPDEST SWAP1 POP SWAP3 SWAP2 POP POP JUMP JUMPDEST PUSH0 DUP1 DUP4 DUP4 PUSH2 0x1C79 SWAP2 SWAP1 PUSH2 0x2F70 JUMP JUMPDEST SWAP1 POP PUSH0 DUP2 DUP7 PUSH2 0x1C88 SWAP2 SWAP1 PUSH2 0x2E37 JUMP JUMPDEST SWAP1 POP PUSH0 PUSH2 0x1388 DUP3 PUSH2 0x1C99 SWAP2 SWAP1 PUSH2 0x2E37 JUMP JUMPDEST SWAP1 POP DUP1 SWAP4 POP POP POP POP SWAP4 SWAP3 POP POP POP JUMP JUMPDEST PUSH0 DUP2 DUP4 PUSH2 0x1CB5 SWAP2 SWAP1 PUSH2 0x2E37 JUMP JUMPDEST SWAP1 POP SWAP3 SWAP2 POP POP JUMP JUMPDEST PUSH0 PUSH20 0xFFFFFFFFFFFFFFFFFFFFFFFFFFFFFFFFFFFFFFFF AND DUP5 PUSH20 0xFFFFFFFFFFFFFFFFFFFFFFFFFFFFFFFFFFFFFFFF AND SUB PUSH2 0x1D2D JUMPI PUSH0 PUSH1 0x40 MLOAD PUSH32 0xE602DF0500000000000000000000000000000000000000000000000000000000 DUP2 MSTORE PUSH1 0x4 ADD PUSH2 0x1D24 SWAP2 SWAP1 PUSH2 0x2625 JUMP JUMPDEST PUSH1 0x40 MLOAD DUP1 SWAP2 SUB SWAP1 REVERT JUMPDEST PUSH0 PUSH20 0xFFFFFFFFFFFFFFFFFFFFFFFFFFFFFFFFFFFFFFFF AND DUP4 PUSH20 0xFFFFFFFFFFFFFFFFFFFFFFFFFFFFFFFFFFFFFFFF AND SUB PUSH2 0x1D9D JUMPI PUSH0 PUSH1 0x40 MLOAD PUSH32 0x94280D6200000000000000000000000000000000000000000000000000000000 DUP2 MSTORE PUSH1 0x4 ADD PUSH2 0x1D94 SWAP2 SWAP1 PUSH2 0x2625 JUMP JUMPDEST PUSH1 0x40 MLOAD DUP1 SWAP2 SUB SWAP1 REVERT JUMPDEST DUP2 PUSH1 0x1 PUSH0 DUP7 PUSH20 0xFFFFFFFFFFFFFFFFFFFFFFFFFFFFFFFFFFFFFFFF AND PUSH20 0xFFFFFFFFFFFFFFFFFFFFFFFFFFFFFFFFFFFFFFFF AND DUP2 MSTORE PUSH1 0x20 ADD SWAP1 DUP2 MSTORE PUSH1 0x20 ADD PUSH0 KECCAK256 PUSH0 DUP6 PUSH20 0xFFFFFFFFFFFFFFFFFFFFFFFFFFFFFFFFFFFFFFFF AND PUSH20 0xFFFFFFFFFFFFFFFFFFFFFFFFFFFFFFFFFFFFFFFF AND DUP2 MSTORE PUSH1 0x20 ADD SWAP1 DUP2 MSTORE PUSH1 0x20 ADD PUSH0 KECCAK256 DUP2 SWAP1 SSTORE POP DUP1 ISZERO PUSH2 0x1E86 JUMPI DUP3 PUSH20 0xFFFFFFFFFFFFFFFFFFFFFFFFFFFFFFFFFFFFFFFF AND DUP5 PUSH20 0xFFFFFFFFFFFFFFFFFFFFFFFFFFFFFFFFFFFFFFFF AND PUSH32 0x8C5BE1E5EBEC7D5BD14F71427D1E84F3DD0314C0F7B2291E5B200AC8C7C3B925 DUP5 PUSH1 0x40 MLOAD PUSH2 0x1E7D SWAP2 SWAP1 PUSH2 0x2476 JUMP JUMPDEST PUSH1 0x40 MLOAD DUP1 SWAP2 SUB SWAP1 LOG3 JUMPDEST POP POP POP POP JUMP JUMPDEST PUSH0 PUSH20 0xFFFFFFFFFFFFFFFFFFFFFFFFFFFFFFFFFFFFFFFF AND DUP4 PUSH20 0xFFFFFFFFFFFFFFFFFFFFFFFFFFFFFFFFFFFFFFFF AND SUB PUSH2 0x1EDC JUMPI DUP1 PUSH1 0x2 PUSH0 DUP3 DUP3 SLOAD PUSH2 0x1ED0 SWAP2 SWAP1 PUSH2 0x2A11 JUMP JUMPDEST SWAP3 POP POP DUP2 SWAP1 SSTORE POP PUSH2 0x1FAA JUMP JUMPDEST PUSH0 DUP1 PUSH0 DUP6 PUSH20 0xFFFFFFFFFFFFFFFFFFFFFFFFFFFFFFFFFFFFFFFF AND PUSH20 0xFFFFFFFFFFFFFFFFFFFFFFFFFFFFFFFFFFFFFFFF AND DUP2 MSTORE PUSH1 0x20 ADD SWAP1 DUP2 MSTORE PUSH1 0x20 ADD PUSH0 KECCAK256 SLOAD SWAP1 POP DUP2 DUP2 LT ISZERO PUSH2 0x1F65 JUMPI DUP4 DUP2 DUP4 PUSH1 0x40 MLOAD PUSH32 0xE450D38C00000000000000000000000000000000000000000000000000000000 DUP2 MSTORE PUSH1 0x4 ADD PUSH2 0x1F5C SWAP4 SWAP3 SWAP2 SWAP1 PUSH2 0x2E78 JUMP JUMPDEST PUSH1 0x40 MLOAD DUP1 SWAP2 SUB SWAP1 REVERT JUMPDEST DUP2 DUP2 SUB PUSH0 DUP1 DUP7 PUSH20 0xFFFFFFFFFFFFFFFFFFFFFFFFFFFFFFFFFFFFFFFF AND PUSH20 0xFFFFFFFFFFFFFFFFFFFFFFFFFFFFFFFFFFFFFFFF AND DUP2 MSTORE PUSH1 0x20 ADD SWAP1 DUP2 MSTORE PUSH1 0x20 ADD PUSH0 KECCAK256 DUP2 SWAP1 SSTORE POP POP JUMPDEST PUSH0 PUSH20 0xFFFFFFFFFFFFFFFFFFFFFFFFFFFFFFFFFFFFFFFF AND DUP3 PUSH20 0xFFFFFFFFFFFFFFFFFFFFFFFFFFFFFFFFFFFFFFFF AND SUB PUSH2 0x1FF1 JUMPI DUP1 PUSH1 0x2 PUSH0 DUP3 DUP3 SLOAD SUB SWAP3 POP POP DUP2 SWAP1 SSTORE POP PUSH2 0x203B JUMP JUMPDEST DUP1 PUSH0 DUP1 DUP5 PUSH20 0xFFFFFFFFFFFFFFFFFFFFFFFFFFFFFFFFFFFFFFFF AND PUSH20 0xFFFFFFFFFFFFFFFFFFFFFFFFFFFFFFFFFFFFFFFF AND DUP2 MSTORE PUSH1 0x20 ADD SWAP1 DUP2 MSTORE PUSH1 0x20 ADD PUSH0 KECCAK256 PUSH0 DUP3 DUP3 SLOAD ADD SWAP3 POP POP DUP2 SWAP1 SSTORE POP JUMPDEST DUP2 PUSH20 0xFFFFFFFFFFFFFFFFFFFFFFFFFFFFFFFFFFFFFFFF AND DUP4 PUSH20 0xFFFFFFFFFFFFFFFFFFFFFFFFFFFFFFFFFFFFFFFF AND PUSH32 0xDDF252AD1BE2C89B69C2B068FC378DAA952BA7F163C4A11628F55A4DF523B3EF DUP4 PUSH1 0x40 MLOAD PUSH2 0x2098 SWAP2 SWAP1 PUSH2 0x2476 JUMP JUMPDEST PUSH1 0x40 MLOAD DUP1 SWAP2 SUB SWAP1 LOG3 POP POP POP JUMP JUMPDEST PUSH0 DUP2 MLOAD SWAP1 POP SWAP2 SWAP1 POP JUMP JUMPDEST PUSH0 DUP3 DUP3 MSTORE PUSH1 0x20 DUP3 ADD SWAP1 POP SWAP3 SWAP2 POP POP JUMP JUMPDEST PUSH0 JUMPDEST DUP4 DUP2 LT ISZERO PUSH2 0x20DC JUMPI DUP1 DUP3 ADD MLOAD DUP2 DUP5 ADD MSTORE PUSH1 0x20 DUP2 ADD SWAP1 POP PUSH2 0x20C1 JUMP JUMPDEST PUSH0 DUP5 DUP5 ADD MSTORE POP POP POP POP JUMP JUMPDEST PUSH0 PUSH1 0x1F NOT PUSH1 0x1F DUP4 ADD AND SWAP1 POP SWAP2 SWAP1 POP JUMP JUMPDEST PUSH0 PUSH2 0x2101 DUP3 PUSH2 0x20A5 JUMP JUMPDEST PUSH2 0x210B DUP2 DUP6 PUSH2 0x20AF JUMP JUMPDEST SWAP4 POP PUSH2 0x211B DUP2 DUP6 PUSH1 0x20 DUP7 ADD PUSH2 0x20BF JUMP JUMPDEST PUSH2 0x2124 DUP2 PUSH2 0x20E7 JUMP JUMPDEST DUP5 ADD SWAP2 POP POP SWAP3 SWAP2 POP POP JUMP JUMPDEST PUSH0 PUSH1 0x20 DUP3 ADD SWAP1 POP DUP2 DUP2 SUB PUSH0 DUP4 ADD MSTORE PUSH2 0x2147 DUP2 DUP5 PUSH2 0x20F7 JUMP JUMPDEST SWAP1 POP SWAP3 SWAP2 POP POP JUMP JUMPDEST PUSH0 PUSH1 0x40 MLOAD SWAP1 POP SWAP1 JUMP JUMPDEST PUSH0 DUP1 REVERT JUMPDEST PUSH0 DUP1 REVERT JUMPDEST PUSH0 PUSH20 0xFFFFFFFFFFFFFFFFFFFFFFFFFFFFFFFFFFFFFFFF DUP3 AND SWAP1 POP SWAP2 SWAP1 POP JUMP JUMPDEST PUSH0 PUSH2 0x2189 DUP3 PUSH2 0x2160 JUMP JUMPDEST SWAP1 POP SWAP2 SWAP1 POP JUMP JUMPDEST PUSH2 0x2199 DUP2 PUSH2 0x217F JUMP JUMPDEST DUP2 EQ PUSH2 0x21A3 JUMPI PUSH0 DUP1 REVERT JUMPDEST POP JUMP JUMPDEST PUSH0 DUP2 CALLDATALOAD SWAP1 POP PUSH2 0x21B4 DUP2 PUSH2 0x2190 JUMP JUMPDEST SWAP3 SWAP2 POP POP JUMP JUMPDEST PUSH0 DUP2 SWAP1 POP SWAP2 SWAP1 POP JUMP JUMPDEST PUSH2 0x21CC DUP2 PUSH2 0x21BA JUMP JUMPDEST DUP2 EQ PUSH2 0x21D6 JUMPI PUSH0 DUP1 REVERT JUMPDEST POP JUMP JUMPDEST PUSH0 DUP2 CALLDATALOAD SWAP1 POP PUSH2 0x21E7 DUP2 PUSH2 0x21C3 JUMP JUMPDEST SWAP3 SWAP2 POP POP JUMP JUMPDEST PUSH0 DUP1 PUSH1 0x40 DUP4 DUP6 SUB SLT ISZERO PUSH2 0x2203 JUMPI PUSH2 0x2202 PUSH2 0x2158 JUMP JUMPDEST JUMPDEST PUSH0 PUSH2 0x2210 DUP6 DUP3 DUP7 ADD PUSH2 0x21A6 JUMP JUMPDEST SWAP3 POP POP PUSH1 0x20 PUSH2 0x2221 DUP6 DUP3 DUP7 ADD PUSH2 0x21D9 JUMP JUMPDEST SWAP2 POP POP SWAP3 POP SWAP3 SWAP1 POP JUMP JUMPDEST PUSH0 DUP2 ISZERO ISZERO SWAP1 POP SWAP2 SWAP1 POP JUMP JUMPDEST PUSH2 0x223F DUP2 PUSH2 0x222B JUMP JUMPDEST DUP3 MSTORE POP POP JUMP JUMPDEST PUSH0 PUSH1 0x20 DUP3 ADD SWAP1 POP PUSH2 0x2258 PUSH0 DUP4 ADD DUP5 PUSH2 0x2236 JUMP JUMPDEST SWAP3 SWAP2 POP POP JUMP JUMPDEST PUSH0 DUP1 REVERT JUMPDEST PUSH0 DUP1 REVERT JUMPDEST PUSH32 0x4E487B7100000000000000000000000000000000000000000000000000000000 PUSH0 MSTORE PUSH1 0x41 PUSH1 0x4 MSTORE PUSH1 0x24 PUSH0 REVERT JUMPDEST PUSH2 0x229C DUP3 PUSH2 0x20E7 JUMP JUMPDEST DUP2 ADD DUP2 DUP2 LT PUSH8 0xFFFFFFFFFFFFFFFF DUP3 GT OR ISZERO PUSH2 0x22BB JUMPI PUSH2 0x22BA PUSH2 0x2266 JUMP JUMPDEST JUMPDEST DUP1 PUSH1 0x40 MSTORE POP POP POP JUMP JUMPDEST PUSH0 PUSH2 0x22CD PUSH2 0x214F JUMP JUMPDEST SWAP1 POP PUSH2 0x22D9 DUP3 DUP3 PUSH2 0x2293 JUMP JUMPDEST SWAP2 SWAP1 POP JUMP JUMPDEST PUSH0 PUSH8 0xFFFFFFFFFFFFFFFF DUP3 GT ISZERO PUSH2 0x22F8 JUMPI PUSH2 0x22F7 PUSH2 0x2266 JUMP JUMPDEST JUMPDEST PUSH2 0x2301 DUP3 PUSH2 0x20E7 JUMP JUMPDEST SWAP1 POP PUSH1 0x20 DUP2 ADD SWAP1 POP SWAP2 SWAP1 POP JUMP JUMPDEST DUP3 DUP2 DUP4 CALLDATACOPY PUSH0 DUP4 DUP4 ADD MSTORE POP POP POP JUMP JUMPDEST PUSH0 PUSH2 0x232E PUSH2 0x2329 DUP5 PUSH2 0x22DE JUMP JUMPDEST PUSH2 0x22C4 JUMP JUMPDEST SWAP1 POP DUP3 DUP2 MSTORE PUSH1 0x20 DUP2 ADD DUP5 DUP5 DUP5 ADD GT ISZERO PUSH2 0x234A JUMPI PUSH2 0x2349 PUSH2 0x2262 JUMP JUMPDEST JUMPDEST PUSH2 0x2355 DUP5 DUP3 DUP6 PUSH2 0x230E JUMP JUMPDEST POP SWAP4 SWAP3 POP POP POP JUMP JUMPDEST PUSH0 DUP3 PUSH1 0x1F DUP4 ADD SLT PUSH2 0x2371 JUMPI PUSH2 0x2370 PUSH2 0x225E JUMP JUMPDEST JUMPDEST DUP2 CALLDATALOAD PUSH2 0x2381 DUP5 DUP3 PUSH1 0x20 DUP7 ADD PUSH2 0x231C JUMP JUMPDEST SWAP2 POP POP SWAP3 SWAP2 POP POP JUMP JUMPDEST PUSH0 DUP1 PUSH0 DUP1 PUSH0 DUP1 PUSH1 0xC0 DUP8 DUP10 SUB SLT ISZERO PUSH2 0x23A4 JUMPI PUSH2 0x23A3 PUSH2 0x2158 JUMP JUMPDEST JUMPDEST PUSH0 PUSH2 0x23B1 DUP10 DUP3 DUP11 ADD PUSH2 0x21A6 JUMP JUMPDEST SWAP7 POP POP PUSH1 0x20 DUP8 ADD CALLDATALOAD PUSH8 0xFFFFFFFFFFFFFFFF DUP2 GT ISZERO PUSH2 0x23D2 JUMPI PUSH2 0x23D1 PUSH2 0x215C JUMP JUMPDEST JUMPDEST PUSH2 0x23DE DUP10 DUP3 DUP11 ADD PUSH2 0x235D JUMP JUMPDEST SWAP6 POP POP PUSH1 0x40 PUSH2 0x23EF DUP10 DUP3 DUP11 ADD PUSH2 0x21D9 JUMP JUMPDEST SWAP5 POP POP PUSH1 0x60 DUP8 ADD CALLDATALOAD PUSH8 0xFFFFFFFFFFFFFFFF DUP2 GT ISZERO PUSH2 0x2410 JUMPI PUSH2 0x240F PUSH2 0x215C JUMP JUMPDEST JUMPDEST PUSH2 0x241C DUP10 DUP3 DUP11 ADD PUSH2 0x235D JUMP JUMPDEST SWAP4 POP POP PUSH1 0x80 PUSH2 0x242D DUP10 DUP3 DUP11 ADD PUSH2 0x21D9 JUMP JUMPDEST SWAP3 POP POP PUSH1 0xA0 DUP8 ADD CALLDATALOAD PUSH8 0xFFFFFFFFFFFFFFFF DUP2 GT ISZERO PUSH2 0x244E JUMPI PUSH2 0x244D PUSH2 0x215C JUMP JUMPDEST JUMPDEST PUSH2 0x245A DUP10 DUP3 DUP11 ADD PUSH2 0x235D JUMP JUMPDEST SWAP2 POP POP SWAP3 SWAP6 POP SWAP3 SWAP6 POP SWAP3 SWAP6 JUMP JUMPDEST PUSH2 0x2470 DUP2 PUSH2 0x21BA JUMP JUMPDEST DUP3 MSTORE POP POP JUMP JUMPDEST PUSH0 PUSH1 0x20 DUP3 ADD SWAP1 POP PUSH2 0x2489 PUSH0 DUP4 ADD DUP5 PUSH2 0x2467 JUMP JUMPDEST SWAP3 SWAP2 POP POP JUMP JUMPDEST PUSH0 DUP1 PUSH0 PUSH1 0x60 DUP5 DUP7 SUB SLT ISZERO PUSH2 0x24A6 JUMPI PUSH2 0x24A5 PUSH2 0x2158 JUMP JUMPDEST JUMPDEST PUSH0 PUSH2 0x24B3 DUP7 DUP3 DUP8 ADD PUSH2 0x21A6 JUMP JUMPDEST SWAP4 POP POP PUSH1 0x20 PUSH2 0x24C4 DUP7 DUP3 DUP8 ADD PUSH2 0x21A6 JUMP JUMPDEST SWAP3 POP POP PUSH1 0x40 PUSH2 0x24D5 DUP7 DUP3 DUP8 ADD PUSH2 0x21D9 JUMP JUMPDEST SWAP2 POP POP SWAP3 POP SWAP3 POP SWAP3 JUMP JUMPDEST PUSH0 PUSH1 0xFF DUP3 AND SWAP1 POP SWAP2 SWAP1 POP JUMP JUMPDEST PUSH2 0x24F4 DUP2 PUSH2 0x24DF JUMP JUMPDEST DUP3 MSTORE POP POP JUMP JUMPDEST PUSH0 PUSH1 0x20 DUP3 ADD SWAP1 POP PUSH2 0x250D PUSH0 DUP4 ADD DUP5 PUSH2 0x24EB JUMP JUMPDEST SWAP3 SWAP2 POP POP JUMP JUMPDEST PUSH0 DUP1 PUSH0 DUP1 PUSH1 0x80 DUP6 DUP8 SUB SLT ISZERO PUSH2 0x252B JUMPI PUSH2 0x252A PUSH2 0x2158 JUMP JUMPDEST JUMPDEST PUSH0 PUSH2 0x2538 DUP8 DUP3 DUP9 ADD PUSH2 0x21A6 JUMP JUMPDEST SWAP5 POP POP PUSH1 0x20 PUSH2 0x2549 DUP8 DUP3 DUP9 ADD PUSH2 0x21D9 JUMP JUMPDEST SWAP4 POP POP PUSH1 0x40 PUSH2 0x255A DUP8 DUP3 DUP9 ADD PUSH2 0x21D9 JUMP JUMPDEST SWAP3 POP POP PUSH1 0x60 PUSH2 0x256B DUP8 DUP3 DUP9 ADD PUSH2 0x21D9 JUMP JUMPDEST SWAP2 POP POP SWAP3 SWAP6 SWAP2 SWAP5 POP SWAP3 POP JUMP JUMPDEST PUSH0 PUSH1 0x20 DUP3 DUP5 SUB SLT ISZERO PUSH2 0x258C JUMPI PUSH2 0x258B PUSH2 0x2158 JUMP JUMPDEST JUMPDEST PUSH0 PUSH2 0x2599 DUP5 DUP3 DUP6 ADD PUSH2 0x21A6 JUMP JUMPDEST SWAP2 POP POP SWAP3 SWAP2 POP POP JUMP JUMPDEST PUSH0 PUSH1 0xC0 DUP3 ADD SWAP1 POP DUP2 DUP2 SUB PUSH0 DUP4 ADD MSTORE PUSH2 0x25BA DUP2 DUP10 PUSH2 0x20F7 JUMP JUMPDEST SWAP1 POP PUSH2 0x25C9 PUSH1 0x20 DUP4 ADD DUP9 PUSH2 0x2467 JUMP JUMPDEST DUP2 DUP2 SUB PUSH1 0x40 DUP4 ADD MSTORE PUSH2 0x25DB DUP2 DUP8 PUSH2 0x20F7 JUMP JUMPDEST SWAP1 POP PUSH2 0x25EA PUSH1 0x60 DUP4 ADD DUP7 PUSH2 0x2467 JUMP JUMPDEST DUP2 DUP2 SUB PUSH1 0x80 DUP4 ADD MSTORE PUSH2 0x25FC DUP2 DUP6 PUSH2 0x20F7 JUMP JUMPDEST SWAP1 POP PUSH2 0x260B PUSH1 0xA0 DUP4 ADD DUP5 PUSH2 0x2467 JUMP JUMPDEST SWAP8 SWAP7 POP POP POP POP POP POP POP JUMP JUMPDEST PUSH2 0x261F DUP2 PUSH2 0x217F JUMP JUMPDEST DUP3 MSTORE POP POP JUMP JUMPDEST PUSH0 PUSH1 0x20 DUP3 ADD SWAP1 POP PUSH2 0x2638 PUSH0 DUP4 ADD DUP5 PUSH2 0x2616 JUMP JUMPDEST SWAP3 SWAP2 POP POP JUMP JUMPDEST PUSH0 PUSH2 0x2648 DUP3 PUSH2 0x217F JUMP JUMPDEST SWAP1 POP SWAP2 SWAP1 POP JUMP JUMPDEST PUSH2 0x2658 DUP2 PUSH2 0x263E JUMP JUMPDEST DUP2 EQ PUSH2 0x2662 JUMPI PUSH0 DUP1 REVERT JUMPDEST POP JUMP JUMPDEST PUSH0 DUP2 CALLDATALOAD SWAP1 POP PUSH2 0x2673 DUP2 PUSH2 0x264F JUMP JUMPDEST SWAP3 SWAP2 POP POP JUMP JUMPDEST PUSH0 DUP1 PUSH0 DUP1 PUSH1 0x80 DUP6 DUP8 SUB SLT ISZERO PUSH2 0x2691 JUMPI PUSH2 0x2690 PUSH2 0x2158 JUMP JUMPDEST JUMPDEST PUSH0 PUSH2 0x269E DUP8 DUP3 DUP9 ADD PUSH2 0x2665 JUMP JUMPDEST SWAP5 POP POP PUSH1 0x20 PUSH2 0x26AF DUP8 DUP3 DUP9 ADD PUSH2 0x21D9 JUMP JUMPDEST SWAP4 POP POP PUSH1 0x40 PUSH2 0x26C0 DUP8 DUP3 DUP9 ADD PUSH2 0x21D9 JUMP JUMPDEST SWAP3 POP POP PUSH1 0x60 PUSH2 0x26D1 DUP8 DUP3 DUP9 ADD PUSH2 0x21D9 JUMP JUMPDEST SWAP2 POP POP SWAP3 SWAP6 SWAP2 SWAP5 POP SWAP3 POP JUMP JUMPDEST PUSH0 DUP1 PUSH1 0x40 DUP4 DUP6 SUB SLT ISZERO PUSH2 0x26F3 JUMPI PUSH2 0x26F2 PUSH2 0x2158 JUMP JUMPDEST JUMPDEST PUSH0 PUSH2 0x2700 DUP6 DUP3 DUP7 ADD PUSH2 0x21A6 JUMP JUMPDEST SWAP3 POP POP PUSH1 0x20 PUSH2 0x2711 DUP6 DUP3 DUP7 ADD PUSH2 0x21A6 JUMP JUMPDEST SWAP2 POP POP SWAP3 POP SWAP3 SWAP1 POP JUMP JUMPDEST PUSH32 0x4E487B7100000000000000000000000000000000000000000000000000000000 PUSH0 MSTORE PUSH1 0x22 PUSH1 0x4 MSTORE PUSH1 0x24 PUSH0 REVERT JUMPDEST PUSH0 PUSH1 0x2 DUP3 DIV SWAP1 POP PUSH1 0x1 DUP3 AND DUP1 PUSH2 0x275F JUMPI PUSH1 0x7F DUP3 AND SWAP2 POP JUMPDEST PUSH1 0x20 DUP3 LT DUP2 SUB PUSH2 0x2772 JUMPI PUSH2 0x2771 PUSH2 0x271B JUMP JUMPDEST JUMPDEST POP SWAP2 SWAP1 POP JUMP JUMPDEST PUSH0 DUP2 SWAP1 POP DUP2 PUSH0 MSTORE PUSH1 0x20 PUSH0 KECCAK256 SWAP1 POP SWAP2 SWAP1 POP JUMP JUMPDEST PUSH0 PUSH1 0x20 PUSH1 0x1F DUP4 ADD DIV SWAP1 POP SWAP2 SWAP1 POP JUMP JUMPDEST PUSH0 DUP3 DUP3 SHL SWAP1 POP SWAP3 SWAP2 POP POP JUMP JUMPDEST PUSH0 PUSH1 0x8 DUP4 MUL PUSH2 0x27D4 PUSH32 0xFFFFFFFFFFFFFFFFFFFFFFFFFFFFFFFFFFFFFFFFFFFFFFFFFFFFFFFFFFFFFFFF DUP3 PUSH2 0x2799 JUMP JUMPDEST PUSH2 0x27DE DUP7 DUP4 PUSH2 0x2799 JUMP JUMPDEST SWAP6 POP DUP1 NOT DUP5 AND SWAP4 POP DUP1 DUP7 AND DUP5 OR SWAP3 POP POP POP SWAP4 SWAP3 POP POP POP JUMP JUMPDEST PUSH0 DUP2 SWAP1 POP SWAP2 SWAP1 POP JUMP JUMPDEST PUSH0 PUSH2 0x2819 PUSH2 0x2814 PUSH2 0x280F DUP5 PUSH2 0x21BA JUMP JUMPDEST PUSH2 0x27F6 JUMP JUMPDEST PUSH2 0x21BA JUMP JUMPDEST SWAP1 POP SWAP2 SWAP1 POP JUMP JUMPDEST PUSH0 DUP2 SWAP1 POP SWAP2 SWAP1 POP JUMP JUMPDEST PUSH2 0x2832 DUP4 PUSH2 0x27FF JUMP JUMPDEST PUSH2 0x2846 PUSH2 0x283E DUP3 PUSH2 0x2820 JUMP JUMPDEST DUP5 DUP5 SLOAD PUSH2 0x27A5 JUMP JUMPDEST DUP3 SSTORE POP POP POP POP JUMP JUMPDEST PUSH0 SWAP1 JUMP JUMPDEST PUSH2 0x285A PUSH2 0x284E JUMP JUMPDEST PUSH2 0x2865 DUP2 DUP5 DUP5 PUSH2 0x2829 JUMP JUMPDEST POP POP POP JUMP JUMPDEST JUMPDEST DUP2 DUP2 LT ISZERO PUSH2 0x2888 JUMPI PUSH2 0x287D PUSH0 DUP3 PUSH2 0x2852 JUMP JUMPDEST PUSH1 0x1 DUP2 ADD SWAP1 POP PUSH2 0x286B JUMP JUMPDEST POP POP JUMP JUMPDEST PUSH1 0x1F DUP3 GT ISZERO PUSH2 0x28CD JUMPI PUSH2 0x289E DUP2 PUSH2 0x2778 JUMP JUMPDEST PUSH2 0x28A7 DUP5 PUSH2 0x278A JUMP JUMPDEST DUP2 ADD PUSH1 0x20 DUP6 LT ISZERO PUSH2 0x28B6 JUMPI DUP2 SWAP1 POP JUMPDEST PUSH2 0x28CA PUSH2 0x28C2 DUP6 PUSH2 0x278A JUMP JUMPDEST DUP4 ADD DUP3 PUSH2 0x286A JUMP JUMPDEST POP POP JUMPDEST POP POP POP JUMP JUMPDEST PUSH0 DUP3 DUP3 SHR SWAP1 POP SWAP3 SWAP2 POP POP JUMP JUMPDEST PUSH0 PUSH2 0x28ED PUSH0 NOT DUP5 PUSH1 0x8 MUL PUSH2 0x28D2 JUMP JUMPDEST NOT DUP1 DUP4 AND SWAP2 POP POP SWAP3 SWAP2 POP POP JUMP JUMPDEST PUSH0 PUSH2 0x2905 DUP4 DUP4 PUSH2 0x28DE JUMP JUMPDEST SWAP2 POP DUP3 PUSH1 0x2 MUL DUP3 OR SWAP1 POP SWAP3 SWAP2 POP POP JUMP JUMPDEST PUSH2 0x291E DUP3 PUSH2 0x20A5 JUMP JUMPDEST PUSH8 0xFFFFFFFFFFFFFFFF DUP2 GT ISZERO PUSH2 0x2937 JUMPI PUSH2 0x2936 PUSH2 0x2266 JUMP JUMPDEST JUMPDEST PUSH2 0x2941 DUP3 SLOAD PUSH2 0x2748 JUMP JUMPDEST PUSH2 0x294C DUP3 DUP3 DUP6 PUSH2 0x288C JUMP JUMPDEST PUSH0 PUSH1 0x20 SWAP1 POP PUSH1 0x1F DUP4 GT PUSH1 0x1 DUP2 EQ PUSH2 0x297D JUMPI PUSH0 DUP5 ISZERO PUSH2 0x296B JUMPI DUP3 DUP8 ADD MLOAD SWAP1 POP JUMPDEST PUSH2 0x2975 DUP6 DUP3 PUSH2 0x28FA JUMP JUMPDEST DUP7 SSTORE POP PUSH2 0x29DC JUMP JUMPDEST PUSH1 0x1F NOT DUP5 AND PUSH2 0x298B DUP7 PUSH2 0x2778 JUMP JUMPDEST PUSH0 JUMPDEST DUP3 DUP2 LT ISZERO PUSH2 0x29B2 JUMPI DUP5 DUP10 ADD MLOAD DUP3 SSTORE PUSH1 0x1 DUP3 ADD SWAP2 POP PUSH1 0x20 DUP6 ADD SWAP5 POP PUSH1 0x20 DUP2 ADD SWAP1 POP PUSH2 0x298D JUMP JUMPDEST DUP7 DUP4 LT ISZERO PUSH2 0x29CF JUMPI DUP5 DUP10 ADD MLOAD PUSH2 0x29CB PUSH1 0x1F DUP10 AND DUP3 PUSH2 0x28DE JUMP JUMPDEST DUP4 SSTORE POP JUMPDEST PUSH1 0x1 PUSH1 0x2 DUP9 MUL ADD DUP9 SSTORE POP POP POP JUMPDEST POP POP POP POP POP POP JUMP JUMPDEST PUSH32 0x4E487B7100000000000000000000000000000000000000000000000000000000 PUSH0 MSTORE PUSH1 0x11 PUSH1 0x4 MSTORE PUSH1 0x24 PUSH0 REVERT JUMPDEST PUSH0 PUSH2 0x2A1B DUP3 PUSH2 0x21BA JUMP JUMPDEST SWAP2 POP PUSH2 0x2A26 DUP4 PUSH2 0x21BA JUMP JUMPDEST SWAP3 POP DUP3 DUP3 ADD SWAP1 POP DUP1 DUP3 GT ISZERO PUSH2 0x2A3E JUMPI PUSH2 0x2A3D PUSH2 0x29E4 JUMP JUMPDEST JUMPDEST SWAP3 SWAP2 POP POP JUMP JUMPDEST PUSH32 0x496E76616C696420616D6F756E74000000000000000000000000000000000000 PUSH0 DUP3 ADD MSTORE POP JUMP JUMPDEST PUSH0 PUSH2 0x2A78 PUSH1 0xE DUP4 PUSH2 0x20AF JUMP JUMPDEST SWAP2 POP PUSH2 0x2A83 DUP3 PUSH2 0x2A44 JUMP JUMPDEST PUSH1 0x20 DUP3 ADD SWAP1 POP SWAP2 SWAP1 POP JUMP JUMPDEST PUSH0 PUSH1 0x20 DUP3 ADD SWAP1 POP DUP2 DUP2 SUB PUSH0 DUP4 ADD MSTORE PUSH2 0x2AA5 DUP2 PUSH2 0x2A6C JUMP JUMPDEST SWAP1 POP SWAP2 SWAP1 POP JUMP JUMPDEST PUSH0 PUSH1 0x40 DUP3 ADD SWAP1 POP PUSH2 0x2ABF PUSH0 DUP4 ADD DUP6 PUSH2 0x2616 JUMP JUMPDEST PUSH2 0x2ACC PUSH1 0x20 DUP4 ADD DUP5 PUSH2 0x2467 JUMP JUMPDEST SWAP4 SWAP3 POP POP POP JUMP JUMPDEST PUSH2 0x2ADC DUP2 PUSH2 0x222B JUMP JUMPDEST DUP2 EQ PUSH2 0x2AE6 JUMPI PUSH0 DUP1 REVERT JUMPDEST POP JUMP JUMPDEST PUSH0 DUP2 MLOAD SWAP1 POP PUSH2 0x2AF7 DUP2 PUSH2 0x2AD3 JUMP JUMPDEST SWAP3 SWAP2 POP POP JUMP JUMPDEST PUSH0 PUSH1 0x20 DUP3 DUP5 SUB SLT ISZERO PUSH2 0x2B12 JUMPI PUSH2 0x2B11 PUSH2 0x2158 JUMP JUMPDEST JUMPDEST PUSH0 PUSH2 0x2B1F DUP5 DUP3 DUP6 ADD PUSH2 0x2AE9 JUMP JUMPDEST SWAP2 POP POP SWAP3 SWAP2 POP POP JUMP JUMPDEST PUSH32 0x417070726F76616C206661696C65640000000000000000000000000000000000 PUSH0 DUP3 ADD MSTORE POP JUMP JUMPDEST PUSH0 PUSH2 0x2B5C PUSH1 0xF DUP4 PUSH2 0x20AF JUMP JUMPDEST SWAP2 POP PUSH2 0x2B67 DUP3 PUSH2 0x2B28 JUMP JUMPDEST PUSH1 0x20 DUP3 ADD SWAP1 POP SWAP2 SWAP1 POP JUMP JUMPDEST PUSH0 PUSH1 0x20 DUP3 ADD SWAP1 POP DUP2 DUP2 SUB PUSH0 DUP4 ADD MSTORE PUSH2 0x2B89 DUP2 PUSH2 0x2B50 JUMP JUMPDEST SWAP1 POP SWAP2 SWAP1 POP JUMP JUMPDEST PUSH0 PUSH1 0x60 DUP3 ADD SWAP1 POP PUSH2 0x2BA3 PUSH0 DUP4 ADD DUP7 PUSH2 0x2616 JUMP JUMPDEST PUSH2 0x2BB0 PUSH1 0x20 DUP4 ADD DUP6 PUSH2 0x2616 JUMP JUMPDEST PUSH2 0x2BBD PUSH1 0x40 DUP4 ADD DUP5 PUSH2 0x2467 JUMP JUMPDEST SWAP5 SWAP4 POP POP POP POP JUMP JUMPDEST PUSH32 0x546F6B656E207472616E73666572206661696C65640000000000000000000000 PUSH0 DUP3 ADD MSTORE POP JUMP JUMPDEST PUSH0 PUSH2 0x2BF9 PUSH1 0x15 DUP4 PUSH2 0x20AF JUMP JUMPDEST SWAP2 POP PUSH2 0x2C04 DUP3 PUSH2 0x2BC5 JUMP JUMPDEST PUSH1 0x20 DUP3 ADD SWAP1 POP SWAP2 SWAP1 POP JUMP JUMPDEST PUSH0 PUSH1 0x20 DUP3 ADD SWAP1 POP DUP2 DUP2 SUB PUSH0 DUP4 ADD MSTORE PUSH2 0x2C26 DUP2 PUSH2 0x2BED JUMP JUMPDEST SWAP1 POP SWAP2 SWAP1 POP JUMP JUMPDEST PUSH32 0x496E73756666696369656E7420616D6F756E7400000000000000000000000000 PUSH0 DUP3 ADD MSTORE POP JUMP JUMPDEST PUSH0 PUSH2 0x2C61 PUSH1 0x13 DUP4 PUSH2 0x20AF JUMP JUMPDEST SWAP2 POP PUSH2 0x2C6C DUP3 PUSH2 0x2C2D JUMP JUMPDEST PUSH1 0x20 DUP3 ADD SWAP1 POP SWAP2 SWAP1 POP JUMP JUMPDEST PUSH0 PUSH1 0x20 DUP3 ADD SWAP1 POP DUP2 DUP2 SUB PUSH0 DUP4 ADD MSTORE PUSH2 0x2C8E DUP2 PUSH2 0x2C55 JUMP JUMPDEST SWAP1 POP SWAP2 SWAP1 POP JUMP JUMPDEST PUSH0 PUSH1 0x60 DUP3 ADD SWAP1 POP PUSH2 0x2CA8 PUSH0 DUP4 ADD DUP7 PUSH2 0x2467 JUMP JUMPDEST PUSH2 0x2CB5 PUSH1 0x20 DUP4 ADD DUP6 PUSH2 0x2616 JUMP JUMPDEST PUSH2 0x2CC2 PUSH1 0x40 DUP4 ADD DUP5 PUSH2 0x2467 JUMP JUMPDEST SWAP5 SWAP4 POP POP POP POP JUMP JUMPDEST PUSH0 PUSH2 0x2CDC PUSH2 0x2CD7 DUP5 PUSH2 0x22DE JUMP JUMPDEST PUSH2 0x22C4 JUMP JUMPDEST SWAP1 POP DUP3 DUP2 MSTORE PUSH1 0x20 DUP2 ADD DUP5 DUP5 DUP5 ADD GT ISZERO PUSH2 0x2CF8 JUMPI PUSH2 0x2CF7 PUSH2 0x2262 JUMP JUMPDEST JUMPDEST PUSH2 0x2D03 DUP5 DUP3 DUP6 PUSH2 0x20BF JUMP JUMPDEST POP SWAP4 SWAP3 POP POP POP JUMP JUMPDEST PUSH0 DUP3 PUSH1 0x1F DUP4 ADD SLT PUSH2 0x2D1F JUMPI PUSH2 0x2D1E PUSH2 0x225E JUMP JUMPDEST JUMPDEST DUP2 MLOAD PUSH2 0x2D2F DUP5 DUP3 PUSH1 0x20 DUP7 ADD PUSH2 0x2CCA JUMP JUMPDEST SWAP2 POP POP SWAP3 SWAP2 POP POP JUMP JUMPDEST PUSH0 PUSH1 0x20 DUP3 DUP5 SUB SLT ISZERO PUSH2 0x2D4D JUMPI PUSH2 0x2D4C PUSH2 0x2158 JUMP JUMPDEST JUMPDEST PUSH0 DUP3 ADD MLOAD PUSH8 0xFFFFFFFFFFFFFFFF DUP2 GT ISZERO PUSH2 0x2D6A JUMPI PUSH2 0x2D69 PUSH2 0x215C JUMP JUMPDEST JUMPDEST PUSH2 0x2D76 DUP5 DUP3 DUP6 ADD PUSH2 0x2D0B JUMP JUMPDEST SWAP2 POP POP SWAP3 SWAP2 POP POP JUMP JUMPDEST PUSH0 DUP2 SWAP1 POP SWAP3 SWAP2 POP POP JUMP JUMPDEST PUSH0 PUSH2 0x2D93 DUP3 PUSH2 0x20A5 JUMP JUMPDEST PUSH2 0x2D9D DUP2 DUP6 PUSH2 0x2D7F JUMP JUMPDEST SWAP4 POP PUSH2 0x2DAD DUP2 DUP6 PUSH1 0x20 DUP7 ADD PUSH2 0x20BF JUMP JUMPDEST DUP1 DUP5 ADD SWAP2 POP POP SWAP3 SWAP2 POP POP JUMP JUMPDEST PUSH0 PUSH2 0x2DC4 DUP3 DUP5 PUSH2 0x2D89 JUMP JUMPDEST SWAP2 POP DUP2 SWAP1 POP SWAP3 SWAP2 POP POP JUMP JUMPDEST PUSH32 0x4950465320496E436F7272656374000000000000000000000000000000000000 PUSH0 DUP3 ADD MSTORE POP JUMP JUMPDEST PUSH0 PUSH2 0x2E03 PUSH1 0xE DUP4 PUSH2 0x20AF JUMP JUMPDEST SWAP2 POP PUSH2 0x2E0E DUP3 PUSH2 0x2DCF JUMP JUMPDEST PUSH1 0x20 DUP3 ADD SWAP1 POP SWAP2 SWAP1 POP JUMP JUMPDEST PUSH0 PUSH1 0x20 DUP3 ADD SWAP1 POP DUP2 DUP2 SUB PUSH0 DUP4 ADD MSTORE PUSH2 0x2E30 DUP2 PUSH2 0x2DF7 JUMP JUMPDEST SWAP1 POP SWAP2 SWAP1 POP JUMP JUMPDEST PUSH0 PUSH2 0x2E41 DUP3 PUSH2 0x21BA JUMP JUMPDEST SWAP2 POP PUSH2 0x2E4C DUP4 PUSH2 0x21BA JUMP JUMPDEST SWAP3 POP DUP3 DUP3 MUL PUSH2 0x2E5A DUP2 PUSH2 0x21BA JUMP JUMPDEST SWAP2 POP DUP3 DUP3 DIV DUP5 EQ DUP4 ISZERO OR PUSH2 0x2E71 JUMPI PUSH2 0x2E70 PUSH2 0x29E4 JUMP JUMPDEST JUMPDEST POP SWAP3 SWAP2 POP POP JUMP JUMPDEST PUSH0 PUSH1 0x60 DUP3 ADD SWAP1 POP PUSH2 0x2E8B PUSH0 DUP4 ADD DUP7 PUSH2 0x2616 JUMP JUMPDEST PUSH2 0x2E98 PUSH1 0x20 DUP4 ADD DUP6 PUSH2 0x2467 JUMP JUMPDEST PUSH2 0x2EA5 PUSH1 0x40 DUP4 ADD DUP5 PUSH2 0x2467 JUMP JUMPDEST SWAP5 SWAP4 POP POP POP POP JUMP JUMPDEST PUSH32 0x496E73756666696369656E742072657761726473000000000000000000000000 PUSH0 DUP3 ADD MSTORE POP JUMP JUMPDEST PUSH0 PUSH2 0x2EE1 PUSH1 0x14 DUP4 PUSH2 0x20AF JUMP JUMPDEST SWAP2 POP PUSH2 0x2EEC DUP3 PUSH2 0x2EAD JUMP JUMPDEST PUSH1 0x20 DUP3 ADD SWAP1 POP SWAP2 SWAP1 POP JUMP JUMPDEST PUSH0 PUSH1 0x20 DUP3 ADD SWAP1 POP DUP2 DUP2 SUB PUSH0 DUP4 ADD MSTORE PUSH2 0x2F0E DUP2 PUSH2 0x2ED5 JUMP JUMPDEST SWAP1 POP SWAP2 SWAP1 POP JUMP JUMPDEST PUSH0 PUSH1 0x40 DUP3 ADD SWAP1 POP PUSH2 0x2F28 PUSH0 DUP4 ADD DUP6 PUSH2 0x2616 JUMP JUMPDEST DUP2 DUP2 SUB PUSH1 0x20 DUP4 ADD MSTORE PUSH2 0x2F3A DUP2 DUP5 PUSH2 0x20F7 JUMP JUMPDEST SWAP1 POP SWAP4 SWAP3 POP POP POP JUMP JUMPDEST PUSH32 0x4E487B7100000000000000000000000000000000000000000000000000000000 PUSH0 MSTORE PUSH1 0x12 PUSH1 0x4 MSTORE PUSH1 0x24 PUSH0 REVERT JUMPDEST PUSH0 PUSH2 0x2F7A DUP3 PUSH2 0x21BA JUMP JUMPDEST SWAP2 POP PUSH2 0x2F85 DUP4 PUSH2 0x21BA JUMP JUMPDEST SWAP3 POP DUP3 PUSH2 0x2F95 JUMPI PUSH2 0x2F94 PUSH2 0x2F43 JUMP JUMPDEST JUMPDEST DUP3 DUP3 DIV SWAP1 POP SWAP3 SWAP2 POP POP JUMP INVALID LOG2 PUSH5 0x6970667358 0x22 SLT KECCAK256 SSTORE 0xB9 PUSH16 0xFA8322C3A41C432AFA97E3AB19BD8D1F 0xAB CALLDATALOAD ADDRESS 0x25 SWAP12 0xE9 0x22 0xEC MUL 0xAC 0x28 0x4C 0xF6 PUSH5 0x736F6C6343 STOP ADDMOD EQ STOP CALLER "
		},
		"gasEstimates": {
			"creation": {
				"codeDepositCost": "2449200",
				"executionCost": "infinite",
				"totalCost": "infinite"
			},
			"external": {
				"INITIAL_SUPPLY()": "2470",
				"MintingTokens(address,uint256)": "infinite",
				"allowance(address,address)": "infinite",
				"approve(address,uint256)": "infinite",
				"balanceOf(address)": "2852",
				"calculatePompayTokenAmount(address,uint256,uint256,uint256)": "infinite",
				"calculateTokenValueInEther(address,uint256,uint256,uint256)": "infinite",
				"decimals()": "405",
				"decreaseAllowance(address,uint256)": "infinite",
				"getBalanceOfStudent(address)": "infinite",
				"getInfoByWallet(address)": "infinite",
				"getTokenContractOwner()": "2559",
				"increaseAllowance(address,uint256)": "infinite",
				"name()": "infinite",
				"setInfo(address,string,uint256,string,uint256,string)": "infinite",
				"swapAJOUTokens(address,uint256,uint256,uint256)": "infinite",
				"swapTokens(address,uint256,uint256,uint256)": "infinite",
				"symbol()": "infinite",
				"totalSupply()": "2522",
				"transfer(address,uint256)": "infinite",
				"transferFrom(address,address,uint256)": "infinite",
				"uploadStudentInfoToIPFS(address)": "infinite"
			},
			"internal": {
				"calculateReceivedTokenAmount(uint256,uint256,uint256)": "infinite"
			}
		},
		"methodIdentifiers": {
			"INITIAL_SUPPLY()": "2ff2e9dc",
			"MintingTokens(address,uint256)": "298e5d2d",
			"allowance(address,address)": "dd62ed3e",
			"approve(address,uint256)": "095ea7b3",
			"balanceOf(address)": "70a08231",
			"calculatePompayTokenAmount(address,uint256,uint256,uint256)": "8b01dc86",
			"calculateTokenValueInEther(address,uint256,uint256,uint256)": "bd70c103",
			"decimals()": "313ce567",
			"decreaseAllowance(address,uint256)": "a457c2d7",
			"getBalanceOfStudent(address)": "5be99af4",
			"getInfoByWallet(address)": "8b9c657a",
			"getTokenContractOwner()": "a8baf6dd",
			"increaseAllowance(address,uint256)": "39509351",
			"name()": "06fdde03",
			"setInfo(address,string,uint256,string,uint256,string)": "0ebcbdb8",
			"swapAJOUTokens(address,uint256,uint256,uint256)": "a554494d",
			"swapTokens(address,uint256,uint256,uint256)": "3a23565c",
			"symbol()": "95d89b41",
			"totalSupply()": "18160ddd",
			"transfer(address,uint256)": "a9059cbb",
			"transferFrom(address,address,uint256)": "23b872dd",
			"uploadStudentInfoToIPFS(address)": "dab11678"
		}
	},
	"abi": [
		{
			"inputs": [
				{
					"internalType": "address",
					"name": "_tokenAddress",
					"type": "address"
				}
			],
			"stateMutability": "nonpayable",
			"type": "constructor"
		},
		{
			"inputs": [
				{
					"internalType": "address",
					"name": "spender",
					"type": "address"
				},
				{
					"internalType": "uint256",
					"name": "currentAllowance",
					"type": "uint256"
				},
				{
					"internalType": "uint256",
					"name": "requestedDecrease",
					"type": "uint256"
				}
			],
			"name": "ERC20FailedDecreaseAllowance",
			"type": "error"
		},
		{
			"inputs": [
				{
					"internalType": "address",
					"name": "spender",
					"type": "address"
				},
				{
					"internalType": "uint256",
					"name": "allowance",
					"type": "uint256"
				},
				{
					"internalType": "uint256",
					"name": "needed",
					"type": "uint256"
				}
			],
			"name": "ERC20InsufficientAllowance",
			"type": "error"
		},
		{
			"inputs": [
				{
					"internalType": "address",
					"name": "sender",
					"type": "address"
				},
				{
					"internalType": "uint256",
					"name": "balance",
					"type": "uint256"
				},
				{
					"internalType": "uint256",
					"name": "needed",
					"type": "uint256"
				}
			],
			"name": "ERC20InsufficientBalance",
			"type": "error"
		},
		{
			"inputs": [
				{
					"internalType": "address",
					"name": "approver",
					"type": "address"
				}
			],
			"name": "ERC20InvalidApprover",
			"type": "error"
		},
		{
			"inputs": [
				{
					"internalType": "address",
					"name": "receiver",
					"type": "address"
				}
			],
			"name": "ERC20InvalidReceiver",
			"type": "error"
		},
		{
			"inputs": [
				{
					"internalType": "address",
					"name": "sender",
					"type": "address"
				}
			],
			"name": "ERC20InvalidSender",
			"type": "error"
		},
		{
			"inputs": [
				{
					"internalType": "address",
					"name": "spender",
					"type": "address"
				}
			],
			"name": "ERC20InvalidSpender",
			"type": "error"
		},
		{
			"anonymous": false,
			"inputs": [
				{
					"indexed": true,
					"internalType": "address",
					"name": "owner",
					"type": "address"
				},
				{
					"indexed": true,
					"internalType": "address",
					"name": "spender",
					"type": "address"
				},
				{
					"indexed": false,
					"internalType": "uint256",
					"name": "value",
					"type": "uint256"
				}
			],
			"name": "Approval",
			"type": "event"
		},
		{
			"anonymous": false,
			"inputs": [
				{
					"indexed": true,
					"internalType": "address",
					"name": "user",
					"type": "address"
				},
				{
					"indexed": true,
					"internalType": "address",
					"name": "fromToken",
					"type": "address"
				},
				{
					"indexed": false,
					"internalType": "uint256",
					"name": "fromAmount",
					"type": "uint256"
				},
				{
					"indexed": false,
					"internalType": "address",
					"name": "toToken",
					"type": "address"
				},
				{
					"indexed": false,
					"internalType": "uint256",
					"name": "toAmount",
					"type": "uint256"
				}
			],
			"name": "TokensSwapped",
			"type": "event"
		},
		{
			"anonymous": false,
			"inputs": [
				{
					"indexed": true,
					"internalType": "address",
					"name": "from",
					"type": "address"
				},
				{
					"indexed": true,
					"internalType": "address",
					"name": "to",
					"type": "address"
				},
				{
					"indexed": false,
					"internalType": "uint256",
					"name": "value",
					"type": "uint256"
				}
			],
			"name": "Transfer",
			"type": "event"
		},
		{
			"inputs": [],
			"name": "INITIAL_SUPPLY",
			"outputs": [
				{
					"internalType": "uint256",
					"name": "",
					"type": "uint256"
				}
			],
			"stateMutability": "view",
			"type": "function"
		},
		{
			"inputs": [
				{
					"internalType": "address",
					"name": "account",
					"type": "address"
				},
				{
					"internalType": "uint256",
					"name": "amount",
					"type": "uint256"
				}
			],
			"name": "MintingTokens",
			"outputs": [
				{
					"internalType": "bool",
					"name": "",
					"type": "bool"
				}
			],
			"stateMutability": "nonpayable",
			"type": "function"
		},
		{
			"inputs": [
				{
					"internalType": "address",
					"name": "owner",
					"type": "address"
				},
				{
					"internalType": "address",
					"name": "spender",
					"type": "address"
				}
			],
			"name": "allowance",
			"outputs": [
				{
					"internalType": "uint256",
					"name": "",
					"type": "uint256"
				}
			],
			"stateMutability": "view",
			"type": "function"
		},
		{
			"inputs": [
				{
					"internalType": "address",
					"name": "spender",
					"type": "address"
				},
				{
					"internalType": "uint256",
					"name": "value",
					"type": "uint256"
				}
			],
			"name": "approve",
			"outputs": [
				{
					"internalType": "bool",
					"name": "",
					"type": "bool"
				}
			],
			"stateMutability": "nonpayable",
			"type": "function"
		},
		{
			"inputs": [
				{
					"internalType": "address",
					"name": "account",
					"type": "address"
				}
			],
			"name": "balanceOf",
			"outputs": [
				{
					"internalType": "uint256",
					"name": "",
					"type": "uint256"
				}
			],
			"stateMutability": "view",
			"type": "function"
		},
		{
			"inputs": [
				{
					"internalType": "address",
					"name": "_otherTokenAddress",
					"type": "address"
				},
				{
					"internalType": "uint256",
					"name": "_otherTokenAmount",
					"type": "uint256"
				},
				{
					"internalType": "uint256",
					"name": "etherPrice",
					"type": "uint256"
				},
				{
					"internalType": "uint256",
					"name": "tokenPrice",
					"type": "uint256"
				}
			],
			"name": "calculatePompayTokenAmount",
			"outputs": [
				{
					"internalType": "uint256",
					"name": "",
					"type": "uint256"
				}
			],
			"stateMutability": "pure",
			"type": "function"
		},
		{
			"inputs": [
				{
					"internalType": "contract IERC20",
					"name": "",
					"type": "address"
				},
				{
					"internalType": "uint256",
					"name": "tokenAmount",
					"type": "uint256"
				},
				{
					"internalType": "uint256",
					"name": "etherPrice",
					"type": "uint256"
				},
				{
					"internalType": "uint256",
					"name": "tokenPrice",
					"type": "uint256"
				}
			],
			"name": "calculateTokenValueInEther",
			"outputs": [
				{
					"internalType": "uint256",
					"name": "",
					"type": "uint256"
				}
			],
			"stateMutability": "pure",
			"type": "function"
		},
		{
			"inputs": [],
			"name": "decimals",
			"outputs": [
				{
					"internalType": "uint8",
					"name": "",
					"type": "uint8"
				}
			],
			"stateMutability": "view",
			"type": "function"
		},
		{
			"inputs": [
				{
					"internalType": "address",
					"name": "spender",
					"type": "address"
				},
				{
					"internalType": "uint256",
					"name": "requestedDecrease",
					"type": "uint256"
				}
			],
			"name": "decreaseAllowance",
			"outputs": [
				{
					"internalType": "bool",
					"name": "",
					"type": "bool"
				}
			],
			"stateMutability": "nonpayable",
			"type": "function"
		},
		{
			"inputs": [
				{
					"internalType": "address",
					"name": "account",
					"type": "address"
				}
			],
			"name": "getBalanceOfStudent",
			"outputs": [
				{
					"internalType": "uint256",
					"name": "",
					"type": "uint256"
				}
			],
			"stateMutability": "view",
			"type": "function"
		},
		{
			"inputs": [
				{
					"internalType": "address",
					"name": "",
					"type": "address"
				}
			],
			"name": "getInfoByWallet",
			"outputs": [
				{
					"internalType": "string",
					"name": "name",
					"type": "string"
				},
				{
					"internalType": "uint256",
					"name": "studentID",
					"type": "uint256"
				},
				{
					"internalType": "string",
					"name": "major",
					"type": "string"
				},
				{
					"internalType": "uint256",
					"name": "gpa",
					"type": "uint256"
				},
				{
					"internalType": "string",
					"name": "company",
					"type": "string"
				},
				{
					"internalType": "uint256",
					"name": "balance",
					"type": "uint256"
				}
			],
			"stateMutability": "view",
			"type": "function"
		},
		{
			"inputs": [],
			"name": "getTokenContractOwner",
			"outputs": [
				{
					"internalType": "address",
					"name": "",
					"type": "address"
				}
			],
			"stateMutability": "view",
			"type": "function"
		},
		{
			"inputs": [
				{
					"internalType": "address",
					"name": "spender",
					"type": "address"
				},
				{
					"internalType": "uint256",
					"name": "addedValue",
					"type": "uint256"
				}
			],
			"name": "increaseAllowance",
			"outputs": [
				{
					"internalType": "bool",
					"name": "",
					"type": "bool"
				}
			],
			"stateMutability": "nonpayable",
			"type": "function"
		},
		{
			"inputs": [],
			"name": "name",
			"outputs": [
				{
					"internalType": "string",
					"name": "",
					"type": "string"
				}
			],
			"stateMutability": "view",
			"type": "function"
		},
		{
			"inputs": [
				{
					"internalType": "address",
					"name": "account",
					"type": "address"
				},
				{
					"internalType": "string",
					"name": "name",
					"type": "string"
				},
				{
					"internalType": "uint256",
					"name": "studentID",
					"type": "uint256"
				},
				{
					"internalType": "string",
					"name": "major",
					"type": "string"
				},
				{
					"internalType": "uint256",
					"name": "gpa",
					"type": "uint256"
				},
				{
					"internalType": "string",
					"name": "company",
					"type": "string"
				}
			],
			"name": "setInfo",
			"outputs": [],
			"stateMutability": "nonpayable",
			"type": "function"
		},
		{
			"inputs": [
				{
					"internalType": "address",
					"name": "toTokenAddress",
					"type": "address"
				},
				{
					"internalType": "uint256",
					"name": "ajouTokenAmount",
					"type": "uint256"
				},
				{
					"internalType": "uint256",
					"name": "etherPrice",
					"type": "uint256"
				},
				{
					"internalType": "uint256",
					"name": "tokenPrice",
					"type": "uint256"
				}
			],
			"name": "swapAJOUTokens",
			"outputs": [],
			"stateMutability": "nonpayable",
			"type": "function"
		},
		{
			"inputs": [
				{
					"internalType": "address",
					"name": "otherTokenAddress",
					"type": "address"
				},
				{
					"internalType": "uint256",
					"name": "otherTokenAmount",
					"type": "uint256"
				},
				{
					"internalType": "uint256",
					"name": "etherPrice",
					"type": "uint256"
				},
				{
					"internalType": "uint256",
					"name": "tokenPrice",
					"type": "uint256"
				}
			],
			"name": "swapTokens",
			"outputs": [],
			"stateMutability": "nonpayable",
			"type": "function"
		},
		{
			"inputs": [],
			"name": "symbol",
			"outputs": [
				{
					"internalType": "string",
					"name": "",
					"type": "string"
				}
			],
			"stateMutability": "view",
			"type": "function"
		},
		{
			"inputs": [],
			"name": "totalSupply",
			"outputs": [
				{
					"internalType": "uint256",
					"name": "",
					"type": "uint256"
				}
			],
			"stateMutability": "view",
			"type": "function"
		},
		{
			"inputs": [
				{
					"internalType": "address",
					"name": "to",
					"type": "address"
				},
				{
					"internalType": "uint256",
					"name": "amount",
					"type": "uint256"
				}
			],
			"name": "transfer",
			"outputs": [
				{
					"internalType": "bool",
					"name": "",
					"type": "bool"
				}
			],
			"stateMutability": "nonpayable",
			"type": "function"
		},
		{
			"inputs": [
				{
					"internalType": "address",
					"name": "from",
					"type": "address"
				},
				{
					"internalType": "address",
					"name": "to",
					"type": "address"
				},
				{
					"internalType": "uint256",
					"name": "value",
					"type": "uint256"
				}
			],
			"name": "transferFrom",
			"outputs": [
				{
					"internalType": "bool",
					"name": "",
					"type": "bool"
				}
			],
			"stateMutability": "nonpayable",
			"type": "function"
		},
		{
			"inputs": [
				{
					"internalType": "address",
					"name": "account",
					"type": "address"
				}
			],
			"name": "uploadStudentInfoToIPFS",
			"outputs": [],
			"stateMutability": "nonpayable",
			"type": "function"
		}
	]
}