{
	".deps/contracts/EtherSwap.sol": {
		"EthSwap": {
			"abi": [
				{
					"inputs": [
						{
							"internalType": "contract ERC20",
							"name": "_token",
							"type": "address"
						}
					],
					"stateMutability": "nonpayable",
					"type": "constructor"
				},
				{
					"inputs": [],
					"name": "buyToken",
					"outputs": [],
					"stateMutability": "payable",
					"type": "function"
				},
				{
					"inputs": [],
					"name": "getBalanceOfContract",
					"outputs": [
						{
							"internalType": "uint256",
							"name": "",
							"type": "uint256"
						}
					],
					"stateMutability": "view",
					"type": "function"
				},
				{
					"inputs": [],
					"name": "getMsgSender",
					"outputs": [
						{
							"internalType": "address",
							"name": "",
							"type": "address"
						}
					],
					"stateMutability": "view",
					"type": "function"
				},
				{
					"inputs": [],
					"name": "getThis",
					"outputs": [
						{
							"internalType": "address",
							"name": "",
							"type": "address"
						}
					],
					"stateMutability": "view",
					"type": "function"
				},
				{
					"inputs": [],
					"name": "getToken",
					"outputs": [
						{
							"internalType": "address",
							"name": "",
							"type": "address"
						}
					],
					"stateMutability": "view",
					"type": "function"
				},
				{
					"inputs": [],
					"name": "rate",
					"outputs": [
						{
							"internalType": "uint256",
							"name": "",
							"type": "uint256"
						}
					],
					"stateMutability": "view",
					"type": "function"
				},
				{
					"inputs": [
						{
							"internalType": "uint256",
							"name": "_amount",
							"type": "uint256"
						}
					],
					"name": "sellToken",
					"outputs": [],
					"stateMutability": "payable",
					"type": "function"
				},
				{
					"inputs": [],
					"name": "token",
					"outputs": [
						{
							"internalType": "contract ERC20",
							"name": "",
							"type": "address"
						}
					],
					"stateMutability": "view",
					"type": "function"
				}
			],
			"devdoc": {
				"kind": "dev",
				"methods": {},
				"version": 1
			},
			"evm": {
				"assembly": "    /* \".deps/contracts/EtherSwap.sol\":120:2615  contract EthSwap {... */\n  mstore(0x40, 0x80)\n    /* \".deps/contracts/EtherSwap.sol\":305:309  5000 */\n  0x1388\n    /* \".deps/contracts/EtherSwap.sol\":286:309  uint public rate = 5000 */\n  0x01\n  sstore\n    /* \".deps/contracts/EtherSwap.sol\":426:485  constructor(ERC20 _token) {... */\n  callvalue\n  dup1\n  iszero\n  tag_1\n  jumpi\n  0x00\n  dup1\n  revert\ntag_1:\n  pop\n  mload(0x40)\n  sub(codesize, bytecodeSize)\n  dup1\n  bytecodeSize\n  dup4\n  codecopy\n  dup2\n  dup2\n  add\n  0x40\n  mstore\n  dup2\n  add\n  swap1\n  tag_2\n  swap2\n  swap1\n  tag_3\n  jump\t// in\ntag_2:\n    /* \".deps/contracts/EtherSwap.sol\":471:477  _token */\n  dup1\n    /* \".deps/contracts/EtherSwap.sol\":463:468  token */\n  0x00\n  dup1\n    /* \".deps/contracts/EtherSwap.sol\":463:477  token = _token */\n  0x0100\n  exp\n  dup2\n  sload\n  dup2\n  0xffffffffffffffffffffffffffffffffffffffff\n  mul\n  not\n  and\n  swap1\n  dup4\n  0xffffffffffffffffffffffffffffffffffffffff\n  and\n  mul\n  or\n  swap1\n  sstore\n  pop\n    /* \".deps/contracts/EtherSwap.sol\":426:485  constructor(ERC20 _token) {... */\n  pop\n    /* \".deps/contracts/EtherSwap.sol\":120:2615  contract EthSwap {... */\n  jump(tag_6)\n    /* \"#utility.yul\":88:205   */\ntag_8:\n    /* \"#utility.yul\":197:198   */\n  0x00\n    /* \"#utility.yul\":194:195   */\n  dup1\n    /* \"#utility.yul\":187:199   */\n  revert\n    /* \"#utility.yul\":334:460   */\ntag_10:\n    /* \"#utility.yul\":371:378   */\n  0x00\n    /* \"#utility.yul\":411:453   */\n  0xffffffffffffffffffffffffffffffffffffffff\n    /* \"#utility.yul\":404:409   */\n  dup3\n    /* \"#utility.yul\":400:454   */\n  and\n    /* \"#utility.yul\":389:454   */\n  swap1\n  pop\n    /* \"#utility.yul\":334:460   */\n  swap2\n  swap1\n  pop\n  jump\t// out\n    /* \"#utility.yul\":466:562   */\ntag_11:\n    /* \"#utility.yul\":503:510   */\n  0x00\n    /* \"#utility.yul\":532:556   */\n  tag_21\n    /* \"#utility.yul\":550:555   */\n  dup3\n    /* \"#utility.yul\":532:556   */\n  tag_10\n  jump\t// in\ntag_21:\n    /* \"#utility.yul\":521:556   */\n  swap1\n  pop\n    /* \"#utility.yul\":466:562   */\n  swap2\n  swap1\n  pop\n  jump\t// out\n    /* \"#utility.yul\":568:677   */\ntag_12:\n    /* \"#utility.yul\":618:625   */\n  0x00\n    /* \"#utility.yul\":647:671   */\n  tag_23\n    /* \"#utility.yul\":665:670   */\n  dup3\n    /* \"#utility.yul\":647:671   */\n  tag_11\n  jump\t// in\ntag_23:\n    /* \"#utility.yul\":636:671   */\n  swap1\n  pop\n    /* \"#utility.yul\":568:677   */\n  swap2\n  swap1\n  pop\n  jump\t// out\n    /* \"#utility.yul\":683:831   */\ntag_13:\n    /* \"#utility.yul\":769:806   */\n  tag_25\n    /* \"#utility.yul\":800:805   */\n  dup2\n    /* \"#utility.yul\":769:806   */\n  tag_12\n  jump\t// in\ntag_25:\n    /* \"#utility.yul\":762:767   */\n  dup2\n    /* \"#utility.yul\":759:807   */\n  eq\n    /* \"#utility.yul\":749:825   */\n  tag_26\n  jumpi\n    /* \"#utility.yul\":821:822   */\n  0x00\n    /* \"#utility.yul\":818:819   */\n  dup1\n    /* \"#utility.yul\":811:823   */\n  revert\n    /* \"#utility.yul\":749:825   */\ntag_26:\n    /* \"#utility.yul\":683:831   */\n  pop\n  jump\t// out\n    /* \"#utility.yul\":837:1006   */\ntag_14:\n    /* \"#utility.yul\":907:912   */\n  0x00\n    /* \"#utility.yul\":938:944   */\n  dup2\n    /* \"#utility.yul\":932:945   */\n  mload\n    /* \"#utility.yul\":923:945   */\n  swap1\n  pop\n    /* \"#utility.yul\":954:1000   */\n  tag_28\n    /* \"#utility.yul\":994:999   */\n  dup2\n    /* \"#utility.yul\":954:1000   */\n  tag_13\n  jump\t// in\ntag_28:\n    /* \"#utility.yul\":837:1006   */\n  swap3\n  swap2\n  pop\n  pop\n  jump\t// out\n    /* \"#utility.yul\":1012:1389   */\ntag_3:\n    /* \"#utility.yul\":1095:1101   */\n  0x00\n    /* \"#utility.yul\":1144:1146   */\n  0x20\n    /* \"#utility.yul\":1132:1141   */\n  dup3\n    /* \"#utility.yul\":1123:1130   */\n  dup5\n    /* \"#utility.yul\":1119:1142   */\n  sub\n    /* \"#utility.yul\":1115:1147   */\n  slt\n    /* \"#utility.yul\":1112:1231   */\n  iszero\n  tag_30\n  jumpi\n    /* \"#utility.yul\":1150:1229   */\n  tag_31\n  tag_8\n  jump\t// in\ntag_31:\n    /* \"#utility.yul\":1112:1231   */\ntag_30:\n    /* \"#utility.yul\":1270:1271   */\n  0x00\n    /* \"#utility.yul\":1295:1372   */\n  tag_32\n    /* \"#utility.yul\":1364:1371   */\n  dup5\n    /* \"#utility.yul\":1355:1361   */\n  dup3\n    /* \"#utility.yul\":1344:1353   */\n  dup6\n    /* \"#utility.yul\":1340:1362   */\n  add\n    /* \"#utility.yul\":1295:1372   */\n  tag_14\n  jump\t// in\ntag_32:\n    /* \"#utility.yul\":1285:1372   */\n  swap2\n  pop\n    /* \"#utility.yul\":1241:1382   */\n  pop\n    /* \"#utility.yul\":1012:1389   */\n  swap3\n  swap2\n  pop\n  pop\n  jump\t// out\n    /* \".deps/contracts/EtherSwap.sol\":120:2615  contract EthSwap {... */\ntag_6:\n  dataSize(sub_0)\n  dup1\n  dataOffset(sub_0)\n  0x00\n  codecopy\n  0x00\n  return\nstop\n\nsub_0: assembly {\n        /* \".deps/contracts/EtherSwap.sol\":120:2615  contract EthSwap {... */\n      mstore(0x40, 0x80)\n      jumpi(tag_1, lt(calldatasize, 0x04))\n      shr(0xe0, calldataload(0x00))\n      dup1\n      0x7a6ce2e1\n      gt\n      tag_10\n      jumpi\n      dup1\n      0x7a6ce2e1\n      eq\n      tag_6\n      jumpi\n      dup1\n      0xa4821719\n      eq\n      tag_7\n      jumpi\n      dup1\n      0xb8368615\n      eq\n      tag_8\n      jumpi\n      dup1\n      0xfc0c546a\n      eq\n      tag_9\n      jumpi\n      jump(tag_1)\n    tag_10:\n      dup1\n      0x21df0da7\n      eq\n      tag_2\n      jumpi\n      dup1\n      0x22968885\n      eq\n      tag_3\n      jumpi\n      dup1\n      0x2397e4d7\n      eq\n      tag_4\n      jumpi\n      dup1\n      0x2c4e722e\n      eq\n      tag_5\n      jumpi\n    tag_1:\n      0x00\n      dup1\n      revert\n        /* \".deps/contracts/EtherSwap.sol\":493:637  function getToken()public view returns(address) {... */\n    tag_2:\n      callvalue\n      dup1\n      iszero\n      tag_11\n      jumpi\n      0x00\n      dup1\n      revert\n    tag_11:\n      pop\n      tag_12\n      tag_13\n      jump\t// in\n    tag_12:\n      mload(0x40)\n      tag_14\n      swap2\n      swap1\n      tag_15\n      jump\t// in\n    tag_14:\n      mload(0x40)\n      dup1\n      swap2\n      sub\n      swap1\n      return\n        /* \".deps/contracts/EtherSwap.sol\":1006:1189  function getBalanceOfContract() public view returns(uint256) {... */\n    tag_3:\n      callvalue\n      dup1\n      iszero\n      tag_16\n      jumpi\n      0x00\n      dup1\n      revert\n    tag_16:\n      pop\n      tag_17\n      tag_18\n      jump\t// in\n    tag_17:\n      mload(0x40)\n      tag_19\n      swap2\n      swap1\n      tag_20\n      jump\t// in\n    tag_19:\n      mload(0x40)\n      dup1\n      swap2\n      sub\n      swap1\n      return\n        /* \".deps/contracts/EtherSwap.sol\":1654:2612  function sellToken(uint256 _amount) public payable {... */\n    tag_4:\n      tag_21\n      0x04\n      dup1\n      calldatasize\n      sub\n      dup2\n      add\n      swap1\n      tag_22\n      swap2\n      swap1\n      tag_23\n      jump\t// in\n    tag_22:\n      tag_24\n      jump\t// in\n    tag_21:\n      stop\n        /* \".deps/contracts/EtherSwap.sol\":286:309  uint public rate = 5000 */\n    tag_5:\n      callvalue\n      dup1\n      iszero\n      tag_25\n      jumpi\n      0x00\n      dup1\n      revert\n    tag_25:\n      pop\n      tag_26\n      tag_27\n      jump\t// in\n    tag_26:\n      mload(0x40)\n      tag_28\n      swap2\n      swap1\n      tag_20\n      jump\t// in\n    tag_28:\n      mload(0x40)\n      dup1\n      swap2\n      sub\n      swap1\n      return\n        /* \".deps/contracts/EtherSwap.sol\":796:947  function getMsgSender() public view returns(address) {... */\n    tag_6:\n      callvalue\n      dup1\n      iszero\n      tag_29\n      jumpi\n      0x00\n      dup1\n      revert\n    tag_29:\n      pop\n      tag_30\n      tag_31\n      jump\t// in\n    tag_30:\n      mload(0x40)\n      tag_32\n      swap2\n      swap1\n      tag_15\n      jump\t// in\n    tag_32:\n      mload(0x40)\n      dup1\n      swap2\n      sub\n      swap1\n      return\n        /* \".deps/contracts/EtherSwap.sol\":1225:1618  function buyToken() public payable {... */\n    tag_7:\n      tag_33\n      tag_34\n      jump\t// in\n    tag_33:\n      stop\n        /* \".deps/contracts/EtherSwap.sol\":649:788  function getThis() public view returns(address) {... */\n    tag_8:\n      callvalue\n      dup1\n      iszero\n      tag_35\n      jumpi\n      0x00\n      dup1\n      revert\n    tag_35:\n      pop\n      tag_36\n      tag_37\n      jump\t// in\n    tag_36:\n      mload(0x40)\n      tag_38\n      swap2\n      swap1\n      tag_15\n      jump\t// in\n    tag_38:\n      mload(0x40)\n      dup1\n      swap2\n      sub\n      swap1\n      return\n        /* \".deps/contracts/EtherSwap.sol\":144:162  ERC20 public token */\n    tag_9:\n      callvalue\n      dup1\n      iszero\n      tag_39\n      jumpi\n      0x00\n      dup1\n      revert\n    tag_39:\n      pop\n      tag_40\n      tag_41\n      jump\t// in\n    tag_40:\n      mload(0x40)\n      tag_42\n      swap2\n      swap1\n      tag_43\n      jump\t// in\n    tag_42:\n      mload(0x40)\n      dup1\n      swap2\n      sub\n      swap1\n      return\n        /* \".deps/contracts/EtherSwap.sol\":493:637  function getToken()public view returns(address) {... */\n    tag_13:\n        /* \".deps/contracts/EtherSwap.sol\":532:539  address */\n      0x00\n        /* \".deps/contracts/EtherSwap.sol\":567:572  token */\n      dup1\n      0x00\n      swap1\n      sload\n      swap1\n      0x0100\n      exp\n      swap1\n      div\n      0xffffffffffffffffffffffffffffffffffffffff\n      and\n        /* \".deps/contracts/EtherSwap.sol\":552:573  return address(token) */\n      swap1\n      pop\n        /* \".deps/contracts/EtherSwap.sol\":493:637  function getToken()public view returns(address) {... */\n      swap1\n      jump\t// out\n        /* \".deps/contracts/EtherSwap.sol\":1006:1189  function getBalanceOfContract() public view returns(uint256) {... */\n    tag_18:\n        /* \".deps/contracts/EtherSwap.sol\":1058:1065  uint256 */\n      0x00\n        /* \".deps/contracts/EtherSwap.sol\":1085:1090  token */\n      dup1\n      0x00\n      swap1\n      sload\n      swap1\n      0x0100\n      exp\n      swap1\n      div\n      0xffffffffffffffffffffffffffffffffffffffff\n      and\n        /* \".deps/contracts/EtherSwap.sol\":1085:1100  token.balanceOf */\n      0xffffffffffffffffffffffffffffffffffffffff\n      and\n      0x70a08231\n        /* \".deps/contracts/EtherSwap.sol\":1109:1113  this */\n      address\n        /* \".deps/contracts/EtherSwap.sol\":1085:1115  token.balanceOf(address(this)) */\n      mload(0x40)\n      dup3\n      0xffffffff\n      and\n      0xe0\n      shl\n      dup2\n      mstore\n      0x04\n      add\n      tag_46\n      swap2\n      swap1\n      tag_15\n      jump\t// in\n    tag_46:\n      0x20\n      mload(0x40)\n      dup1\n      dup4\n      sub\n      dup2\n      dup7\n      gas\n      staticcall\n      iszero\n      dup1\n      iszero\n      tag_48\n      jumpi\n      returndatasize\n      0x00\n      dup1\n      returndatacopy\n      revert(0x00, returndatasize)\n    tag_48:\n      pop\n      pop\n      pop\n      pop\n      mload(0x40)\n      returndatasize\n      not(0x1f)\n      0x1f\n      dup3\n      add\n      and\n      dup3\n      add\n      dup1\n      0x40\n      mstore\n      pop\n      dup2\n      add\n      swap1\n      tag_49\n      swap2\n      swap1\n      tag_50\n      jump\t// in\n    tag_49:\n        /* \".deps/contracts/EtherSwap.sol\":1078:1115  return token.balanceOf(address(this)) */\n      swap1\n      pop\n        /* \".deps/contracts/EtherSwap.sol\":1006:1189  function getBalanceOfContract() public view returns(uint256) {... */\n      swap1\n      jump\t// out\n        /* \".deps/contracts/EtherSwap.sol\":1654:2612  function sellToken(uint256 _amount) public payable {... */\n    tag_24:\n        /* \".deps/contracts/EtherSwap.sol\":1755:1762  _amount */\n      dup1\n        /* \".deps/contracts/EtherSwap.sol\":1724:1729  token */\n      0x00\n      dup1\n      sload\n      swap1\n      0x0100\n      exp\n      swap1\n      div\n      0xffffffffffffffffffffffffffffffffffffffff\n      and\n        /* \".deps/contracts/EtherSwap.sol\":1724:1739  token.balanceOf */\n      0xffffffffffffffffffffffffffffffffffffffff\n      and\n      0x70a08231\n        /* \".deps/contracts/EtherSwap.sol\":1740:1750  msg.sender */\n      caller\n        /* \".deps/contracts/EtherSwap.sol\":1724:1751  token.balanceOf(msg.sender) */\n      mload(0x40)\n      dup3\n      0xffffffff\n      and\n      0xe0\n      shl\n      dup2\n      mstore\n      0x04\n      add\n      tag_52\n      swap2\n      swap1\n      tag_15\n      jump\t// in\n    tag_52:\n      0x20\n      mload(0x40)\n      dup1\n      dup4\n      sub\n      dup2\n      dup7\n      gas\n      staticcall\n      iszero\n      dup1\n      iszero\n      tag_54\n      jumpi\n      returndatasize\n      0x00\n      dup1\n      returndatacopy\n      revert(0x00, returndatasize)\n    tag_54:\n      pop\n      pop\n      pop\n      pop\n      mload(0x40)\n      returndatasize\n      not(0x1f)\n      0x1f\n      dup3\n      add\n      and\n      dup3\n      add\n      dup1\n      0x40\n      mstore\n      pop\n      dup2\n      add\n      swap1\n      tag_55\n      swap2\n      swap1\n      tag_50\n      jump\t// in\n    tag_55:\n        /* \".deps/contracts/EtherSwap.sol\":1724:1762  token.balanceOf(msg.sender) >= _amount */\n      lt\n      iszero\n        /* \".deps/contracts/EtherSwap.sol\":1716:1763  require(token.balanceOf(msg.sender) >= _amount) */\n      tag_56\n      jumpi\n      0x00\n      dup1\n      revert\n    tag_56:\n        /* \".deps/contracts/EtherSwap.sol\":1874:1893  uint256 etherAmount */\n      0x00\n        /* \".deps/contracts/EtherSwap.sol\":1906:1910  rate */\n      sload(0x01)\n        /* \".deps/contracts/EtherSwap.sol\":1896:1903  _amount */\n      dup3\n        /* \".deps/contracts/EtherSwap.sol\":1896:1910  _amount / rate */\n      tag_57\n      swap2\n      swap1\n      tag_58\n      jump\t// in\n    tag_57:\n        /* \".deps/contracts/EtherSwap.sol\":1874:1910  uint256 etherAmount = _amount / rate */\n      swap1\n      pop\n        /* \".deps/contracts/EtherSwap.sol\":2001:2012  etherAmount */\n      dup1\n        /* \".deps/contracts/EtherSwap.sol\":1976:1997  address(this).balance */\n      selfbalance\n        /* \".deps/contracts/EtherSwap.sol\":1976:2012  address(this).balance >= etherAmount */\n      lt\n      iszero\n        /* \".deps/contracts/EtherSwap.sol\":1968:2013  require(address(this).balance >= etherAmount) */\n      tag_59\n      jumpi\n      0x00\n      dup1\n      revert\n    tag_59:\n        /* \".deps/contracts/EtherSwap.sol\":2196:2201  token */\n      0x00\n      dup1\n      sload\n      swap1\n      0x0100\n      exp\n      swap1\n      div\n      0xffffffffffffffffffffffffffffffffffffffff\n      and\n        /* \".deps/contracts/EtherSwap.sol\":2196:2209  token.approve */\n      0xffffffffffffffffffffffffffffffffffffffff\n      and\n      0x095ea7b3\n        /* \".deps/contracts/EtherSwap.sol\":2218:2222  this */\n      address\n        /* \".deps/contracts/EtherSwap.sol\":2225:2236  etherAmount */\n      dup4\n        /* \".deps/contracts/EtherSwap.sol\":2196:2237  token.approve(address(this), etherAmount) */\n      mload(0x40)\n      dup4\n      0xffffffff\n      and\n      0xe0\n      shl\n      dup2\n      mstore\n      0x04\n      add\n      tag_60\n      swap3\n      swap2\n      swap1\n      tag_61\n      jump\t// in\n    tag_60:\n      0x20\n      mload(0x40)\n      dup1\n      dup4\n      sub\n      dup2\n      0x00\n      dup8\n      gas\n      call\n      iszero\n      dup1\n      iszero\n      tag_63\n      jumpi\n      returndatasize\n      0x00\n      dup1\n      returndatacopy\n      revert(0x00, returndatasize)\n    tag_63:\n      pop\n      pop\n      pop\n      pop\n      mload(0x40)\n      returndatasize\n      not(0x1f)\n      0x1f\n      dup3\n      add\n      and\n      dup3\n      add\n      dup1\n      0x40\n      mstore\n      pop\n      dup2\n      add\n      swap1\n      tag_64\n      swap2\n      swap1\n      tag_65\n      jump\t// in\n    tag_64:\n        /* \".deps/contracts/EtherSwap.sol\":2188:2257  require(token.approve(address(this), etherAmount), \"Approval failed\") */\n      tag_66\n      jumpi\n      mload(0x40)\n      0x08c379a000000000000000000000000000000000000000000000000000000000\n      dup2\n      mstore\n      0x04\n      add\n      tag_67\n      swap1\n      tag_68\n      jump\t// in\n    tag_67:\n      mload(0x40)\n      dup1\n      swap2\n      sub\n      swap1\n      revert\n    tag_66:\n        /* \".deps/contracts/EtherSwap.sol\":2278:2283  token */\n      0x00\n      dup1\n      sload\n      swap1\n      0x0100\n      exp\n      swap1\n      div\n      0xffffffffffffffffffffffffffffffffffffffff\n      and\n        /* \".deps/contracts/EtherSwap.sol\":2278:2296  token.transferFrom */\n      0xffffffffffffffffffffffffffffffffffffffff\n      and\n      0x23b872dd\n        /* \".deps/contracts/EtherSwap.sol\":2297:2307  msg.sender */\n      caller\n        /* \".deps/contracts/EtherSwap.sol\":2317:2321  this */\n      address\n        /* \".deps/contracts/EtherSwap.sol\":2324:2331  _amount */\n      dup6\n        /* \".deps/contracts/EtherSwap.sol\":2278:2332  token.transferFrom(msg.sender, address(this), _amount) */\n      mload(0x40)\n      dup5\n      0xffffffff\n      and\n      0xe0\n      shl\n      dup2\n      mstore\n      0x04\n      add\n      tag_69\n      swap4\n      swap3\n      swap2\n      swap1\n      tag_70\n      jump\t// in\n    tag_69:\n      0x20\n      mload(0x40)\n      dup1\n      dup4\n      sub\n      dup2\n      0x00\n      dup8\n      gas\n      call\n      iszero\n      dup1\n      iszero\n      tag_72\n      jumpi\n      returndatasize\n      0x00\n      dup1\n      returndatacopy\n      revert(0x00, returndatasize)\n    tag_72:\n      pop\n      pop\n      pop\n      pop\n      mload(0x40)\n      returndatasize\n      not(0x1f)\n      0x1f\n      dup3\n      add\n      and\n      dup3\n      add\n      dup1\n      0x40\n      mstore\n      pop\n      dup2\n      add\n      swap1\n      tag_73\n      swap2\n      swap1\n      tag_65\n      jump\t// in\n    tag_73:\n      pop\n        /* \".deps/contracts/EtherSwap.sol\":2458:2468  msg.sender */\n      caller\n        /* \".deps/contracts/EtherSwap.sol\":2450:2478  payable(msg.sender).transfer */\n      0xffffffffffffffffffffffffffffffffffffffff\n      and\n        /* \".deps/contracts/EtherSwap.sol\":2450:2491  payable(msg.sender).transfer(etherAmount) */\n      0x08fc\n        /* \".deps/contracts/EtherSwap.sol\":2479:2490  etherAmount */\n      dup3\n        /* \".deps/contracts/EtherSwap.sol\":2450:2491  payable(msg.sender).transfer(etherAmount) */\n      swap1\n      dup2\n      iszero\n      mul\n      swap1\n      mload(0x40)\n      0x00\n      mload(0x40)\n      dup1\n      dup4\n      sub\n      dup2\n      dup6\n      dup9\n      dup9\n      call\n      swap4\n      pop\n      pop\n      pop\n      pop\n      iszero\n      dup1\n      iszero\n      tag_75\n      jumpi\n      returndatasize\n      0x00\n      dup1\n      returndatacopy\n      revert(0x00, returndatasize)\n    tag_75:\n      pop\n        /* \".deps/contracts/EtherSwap.sol\":1705:2612  {... */\n      pop\n        /* \".deps/contracts/EtherSwap.sol\":1654:2612  function sellToken(uint256 _amount) public payable {... */\n      pop\n      jump\t// out\n        /* \".deps/contracts/EtherSwap.sol\":286:309  uint public rate = 5000 */\n    tag_27:\n      sload(0x01)\n      dup2\n      jump\t// out\n        /* \".deps/contracts/EtherSwap.sol\":796:947  function getMsgSender() public view returns(address) {... */\n    tag_31:\n        /* \".deps/contracts/EtherSwap.sol\":840:847  address */\n      0x00\n        /* \".deps/contracts/EtherSwap.sol\":867:877  msg.sender */\n      caller\n        /* \".deps/contracts/EtherSwap.sol\":860:877  return msg.sender */\n      swap1\n      pop\n        /* \".deps/contracts/EtherSwap.sol\":796:947  function getMsgSender() public view returns(address) {... */\n      swap1\n      jump\t// out\n        /* \".deps/contracts/EtherSwap.sol\":1225:1618  function buyToken() public payable {... */\n    tag_34:\n        /* \".deps/contracts/EtherSwap.sol\":1271:1290  uint256 tokenAmount */\n      0x00\n        /* \".deps/contracts/EtherSwap.sol\":1305:1309  rate */\n      sload(0x01)\n        /* \".deps/contracts/EtherSwap.sol\":1293:1302  msg.value */\n      callvalue\n        /* \".deps/contracts/EtherSwap.sol\":1293:1309  msg.value * rate */\n      tag_78\n      swap2\n      swap1\n      tag_79\n      jump\t// in\n    tag_78:\n        /* \".deps/contracts/EtherSwap.sol\":1271:1309  uint256 tokenAmount = msg.value * rate */\n      swap1\n      pop\n        /* \".deps/contracts/EtherSwap.sol\":1397:1408  tokenAmount */\n      dup1\n        /* \".deps/contracts/EtherSwap.sol\":1363:1368  token */\n      0x00\n      dup1\n      sload\n      swap1\n      0x0100\n      exp\n      swap1\n      div\n      0xffffffffffffffffffffffffffffffffffffffff\n      and\n        /* \".deps/contracts/EtherSwap.sol\":1363:1378  token.balanceOf */\n      0xffffffffffffffffffffffffffffffffffffffff\n      and\n      0x70a08231\n        /* \".deps/contracts/EtherSwap.sol\":1387:1391  this */\n      address\n        /* \".deps/contracts/EtherSwap.sol\":1363:1393  token.balanceOf(address(this)) */\n      mload(0x40)\n      dup3\n      0xffffffff\n      and\n      0xe0\n      shl\n      dup2\n      mstore\n      0x04\n      add\n      tag_80\n      swap2\n      swap1\n      tag_15\n      jump\t// in\n    tag_80:\n      0x20\n      mload(0x40)\n      dup1\n      dup4\n      sub\n      dup2\n      dup7\n      gas\n      staticcall\n      iszero\n      dup1\n      iszero\n      tag_82\n      jumpi\n      returndatasize\n      0x00\n      dup1\n      returndatacopy\n      revert(0x00, returndatasize)\n    tag_82:\n      pop\n      pop\n      pop\n      pop\n      mload(0x40)\n      returndatasize\n      not(0x1f)\n      0x1f\n      dup3\n      add\n      and\n      dup3\n      add\n      dup1\n      0x40\n      mstore\n      pop\n      dup2\n      add\n      swap1\n      tag_83\n      swap2\n      swap1\n      tag_50\n      jump\t// in\n    tag_83:\n        /* \".deps/contracts/EtherSwap.sol\":1363:1408  token.balanceOf(address(this)) >= tokenAmount */\n      lt\n      iszero\n        /* \".deps/contracts/EtherSwap.sol\":1355:1430  require(token.balanceOf(address(this)) >= tokenAmount,\"Not enough Tokens \") */\n      tag_84\n      jumpi\n      mload(0x40)\n      0x08c379a000000000000000000000000000000000000000000000000000000000\n      dup2\n      mstore\n      0x04\n      add\n      tag_85\n      swap1\n      tag_86\n      jump\t// in\n    tag_85:\n      mload(0x40)\n      dup1\n      swap2\n      sub\n      swap1\n      revert\n    tag_84:\n        /* \".deps/contracts/EtherSwap.sol\":1514:1519  token */\n      0x00\n      dup1\n      sload\n      swap1\n      0x0100\n      exp\n      swap1\n      div\n      0xffffffffffffffffffffffffffffffffffffffff\n      and\n        /* \".deps/contracts/EtherSwap.sol\":1514:1528  token.transfer */\n      0xffffffffffffffffffffffffffffffffffffffff\n      and\n      0xa9059cbb\n        /* \".deps/contracts/EtherSwap.sol\":1529:1539  msg.sender */\n      caller\n        /* \".deps/contracts/EtherSwap.sol\":1540:1551  tokenAmount */\n      dup4\n        /* \".deps/contracts/EtherSwap.sol\":1514:1552  token.transfer(msg.sender,tokenAmount) */\n      mload(0x40)\n      dup4\n      0xffffffff\n      and\n      0xe0\n      shl\n      dup2\n      mstore\n      0x04\n      add\n      tag_87\n      swap3\n      swap2\n      swap1\n      tag_61\n      jump\t// in\n    tag_87:\n      0x20\n      mload(0x40)\n      dup1\n      dup4\n      sub\n      dup2\n      0x00\n      dup8\n      gas\n      call\n      iszero\n      dup1\n      iszero\n      tag_89\n      jumpi\n      returndatasize\n      0x00\n      dup1\n      returndatacopy\n      revert(0x00, returndatasize)\n    tag_89:\n      pop\n      pop\n      pop\n      pop\n      mload(0x40)\n      returndatasize\n      not(0x1f)\n      0x1f\n      dup3\n      add\n      and\n      dup3\n      add\n      dup1\n      0x40\n      mstore\n      pop\n      dup2\n      add\n      swap1\n      tag_90\n      swap2\n      swap1\n      tag_65\n      jump\t// in\n    tag_90:\n      pop\n        /* \".deps/contracts/EtherSwap.sol\":1260:1618  {... */\n      pop\n        /* \".deps/contracts/EtherSwap.sol\":1225:1618  function buyToken() public payable {... */\n      jump\t// out\n        /* \".deps/contracts/EtherSwap.sol\":649:788  function getThis() public view returns(address) {... */\n    tag_37:\n        /* \".deps/contracts/EtherSwap.sol\":688:695  address */\n      0x00\n        /* \".deps/contracts/EtherSwap.sol\":723:727  this */\n      address\n        /* \".deps/contracts/EtherSwap.sol\":708:728  return address(this) */\n      swap1\n      pop\n        /* \".deps/contracts/EtherSwap.sol\":649:788  function getThis() public view returns(address) {... */\n      swap1\n      jump\t// out\n        /* \".deps/contracts/EtherSwap.sol\":144:162  ERC20 public token */\n    tag_41:\n      0x00\n      dup1\n      sload\n      swap1\n      0x0100\n      exp\n      swap1\n      div\n      0xffffffffffffffffffffffffffffffffffffffff\n      and\n      dup2\n      jump\t// out\n        /* \"#utility.yul\":7:133   */\n    tag_92:\n        /* \"#utility.yul\":44:51   */\n      0x00\n        /* \"#utility.yul\":84:126   */\n      0xffffffffffffffffffffffffffffffffffffffff\n        /* \"#utility.yul\":77:82   */\n      dup3\n        /* \"#utility.yul\":73:127   */\n      and\n        /* \"#utility.yul\":62:127   */\n      swap1\n      pop\n        /* \"#utility.yul\":7:133   */\n      swap2\n      swap1\n      pop\n      jump\t// out\n        /* \"#utility.yul\":139:235   */\n    tag_93:\n        /* \"#utility.yul\":176:183   */\n      0x00\n        /* \"#utility.yul\":205:229   */\n      tag_121\n        /* \"#utility.yul\":223:228   */\n      dup3\n        /* \"#utility.yul\":205:229   */\n      tag_92\n      jump\t// in\n    tag_121:\n        /* \"#utility.yul\":194:229   */\n      swap1\n      pop\n        /* \"#utility.yul\":139:235   */\n      swap2\n      swap1\n      pop\n      jump\t// out\n        /* \"#utility.yul\":241:359   */\n    tag_94:\n        /* \"#utility.yul\":328:352   */\n      tag_123\n        /* \"#utility.yul\":346:351   */\n      dup2\n        /* \"#utility.yul\":328:352   */\n      tag_93\n      jump\t// in\n    tag_123:\n        /* \"#utility.yul\":323:326   */\n      dup3\n        /* \"#utility.yul\":316:353   */\n      mstore\n        /* \"#utility.yul\":241:359   */\n      pop\n      pop\n      jump\t// out\n        /* \"#utility.yul\":365:587   */\n    tag_15:\n        /* \"#utility.yul\":458:462   */\n      0x00\n        /* \"#utility.yul\":496:498   */\n      0x20\n        /* \"#utility.yul\":485:494   */\n      dup3\n        /* \"#utility.yul\":481:499   */\n      add\n        /* \"#utility.yul\":473:499   */\n      swap1\n      pop\n        /* \"#utility.yul\":509:580   */\n      tag_125\n        /* \"#utility.yul\":577:578   */\n      0x00\n        /* \"#utility.yul\":566:575   */\n      dup4\n        /* \"#utility.yul\":562:579   */\n      add\n        /* \"#utility.yul\":553:559   */\n      dup5\n        /* \"#utility.yul\":509:580   */\n      tag_94\n      jump\t// in\n    tag_125:\n        /* \"#utility.yul\":365:587   */\n      swap3\n      swap2\n      pop\n      pop\n      jump\t// out\n        /* \"#utility.yul\":593:670   */\n    tag_95:\n        /* \"#utility.yul\":630:637   */\n      0x00\n        /* \"#utility.yul\":659:664   */\n      dup2\n        /* \"#utility.yul\":648:664   */\n      swap1\n      pop\n        /* \"#utility.yul\":593:670   */\n      swap2\n      swap1\n      pop\n      jump\t// out\n        /* \"#utility.yul\":676:794   */\n    tag_96:\n        /* \"#utility.yul\":763:787   */\n      tag_128\n        /* \"#utility.yul\":781:786   */\n      dup2\n        /* \"#utility.yul\":763:787   */\n      tag_95\n      jump\t// in\n    tag_128:\n        /* \"#utility.yul\":758:761   */\n      dup3\n        /* \"#utility.yul\":751:788   */\n      mstore\n        /* \"#utility.yul\":676:794   */\n      pop\n      pop\n      jump\t// out\n        /* \"#utility.yul\":800:1022   */\n    tag_20:\n        /* \"#utility.yul\":893:897   */\n      0x00\n        /* \"#utility.yul\":931:933   */\n      0x20\n        /* \"#utility.yul\":920:929   */\n      dup3\n        /* \"#utility.yul\":916:934   */\n      add\n        /* \"#utility.yul\":908:934   */\n      swap1\n      pop\n        /* \"#utility.yul\":944:1015   */\n      tag_130\n        /* \"#utility.yul\":1012:1013   */\n      0x00\n        /* \"#utility.yul\":1001:1010   */\n      dup4\n        /* \"#utility.yul\":997:1014   */\n      add\n        /* \"#utility.yul\":988:994   */\n      dup5\n        /* \"#utility.yul\":944:1015   */\n      tag_96\n      jump\t// in\n    tag_130:\n        /* \"#utility.yul\":800:1022   */\n      swap3\n      swap2\n      pop\n      pop\n      jump\t// out\n        /* \"#utility.yul\":1109:1226   */\n    tag_98:\n        /* \"#utility.yul\":1218:1219   */\n      0x00\n        /* \"#utility.yul\":1215:1216   */\n      dup1\n        /* \"#utility.yul\":1208:1220   */\n      revert\n        /* \"#utility.yul\":1355:1477   */\n    tag_100:\n        /* \"#utility.yul\":1428:1452   */\n      tag_135\n        /* \"#utility.yul\":1446:1451   */\n      dup2\n        /* \"#utility.yul\":1428:1452   */\n      tag_95\n      jump\t// in\n    tag_135:\n        /* \"#utility.yul\":1421:1426   */\n      dup2\n        /* \"#utility.yul\":1418:1453   */\n      eq\n        /* \"#utility.yul\":1408:1471   */\n      tag_136\n      jumpi\n        /* \"#utility.yul\":1467:1468   */\n      0x00\n        /* \"#utility.yul\":1464:1465   */\n      dup1\n        /* \"#utility.yul\":1457:1469   */\n      revert\n        /* \"#utility.yul\":1408:1471   */\n    tag_136:\n        /* \"#utility.yul\":1355:1477   */\n      pop\n      jump\t// out\n        /* \"#utility.yul\":1483:1622   */\n    tag_101:\n        /* \"#utility.yul\":1529:1534   */\n      0x00\n        /* \"#utility.yul\":1567:1573   */\n      dup2\n        /* \"#utility.yul\":1554:1574   */\n      calldataload\n        /* \"#utility.yul\":1545:1574   */\n      swap1\n      pop\n        /* \"#utility.yul\":1583:1616   */\n      tag_138\n        /* \"#utility.yul\":1610:1615   */\n      dup2\n        /* \"#utility.yul\":1583:1616   */\n      tag_100\n      jump\t// in\n    tag_138:\n        /* \"#utility.yul\":1483:1622   */\n      swap3\n      swap2\n      pop\n      pop\n      jump\t// out\n        /* \"#utility.yul\":1628:1957   */\n    tag_23:\n        /* \"#utility.yul\":1687:1693   */\n      0x00\n        /* \"#utility.yul\":1736:1738   */\n      0x20\n        /* \"#utility.yul\":1724:1733   */\n      dup3\n        /* \"#utility.yul\":1715:1722   */\n      dup5\n        /* \"#utility.yul\":1711:1734   */\n      sub\n        /* \"#utility.yul\":1707:1739   */\n      slt\n        /* \"#utility.yul\":1704:1823   */\n      iszero\n      tag_140\n      jumpi\n        /* \"#utility.yul\":1742:1821   */\n      tag_141\n      tag_98\n      jump\t// in\n    tag_141:\n        /* \"#utility.yul\":1704:1823   */\n    tag_140:\n        /* \"#utility.yul\":1862:1863   */\n      0x00\n        /* \"#utility.yul\":1887:1940   */\n      tag_142\n        /* \"#utility.yul\":1932:1939   */\n      dup5\n        /* \"#utility.yul\":1923:1929   */\n      dup3\n        /* \"#utility.yul\":1912:1921   */\n      dup6\n        /* \"#utility.yul\":1908:1930   */\n      add\n        /* \"#utility.yul\":1887:1940   */\n      tag_101\n      jump\t// in\n    tag_142:\n        /* \"#utility.yul\":1877:1940   */\n      swap2\n      pop\n        /* \"#utility.yul\":1833:1950   */\n      pop\n        /* \"#utility.yul\":1628:1957   */\n      swap3\n      swap2\n      pop\n      pop\n      jump\t// out\n        /* \"#utility.yul\":1963:2023   */\n    tag_102:\n        /* \"#utility.yul\":1991:1994   */\n      0x00\n        /* \"#utility.yul\":2012:2017   */\n      dup2\n        /* \"#utility.yul\":2005:2017   */\n      swap1\n      pop\n        /* \"#utility.yul\":1963:2023   */\n      swap2\n      swap1\n      pop\n      jump\t// out\n        /* \"#utility.yul\":2029:2171   */\n    tag_103:\n        /* \"#utility.yul\":2079:2088   */\n      0x00\n        /* \"#utility.yul\":2112:2165   */\n      tag_145\n        /* \"#utility.yul\":2130:2164   */\n      tag_146\n        /* \"#utility.yul\":2139:2163   */\n      tag_147\n        /* \"#utility.yul\":2157:2162   */\n      dup5\n        /* \"#utility.yul\":2139:2163   */\n      tag_92\n      jump\t// in\n    tag_147:\n        /* \"#utility.yul\":2130:2164   */\n      tag_102\n      jump\t// in\n    tag_146:\n        /* \"#utility.yul\":2112:2165   */\n      tag_92\n      jump\t// in\n    tag_145:\n        /* \"#utility.yul\":2099:2165   */\n      swap1\n      pop\n        /* \"#utility.yul\":2029:2171   */\n      swap2\n      swap1\n      pop\n      jump\t// out\n        /* \"#utility.yul\":2177:2303   */\n    tag_104:\n        /* \"#utility.yul\":2227:2236   */\n      0x00\n        /* \"#utility.yul\":2260:2297   */\n      tag_149\n        /* \"#utility.yul\":2291:2296   */\n      dup3\n        /* \"#utility.yul\":2260:2297   */\n      tag_103\n      jump\t// in\n    tag_149:\n        /* \"#utility.yul\":2247:2297   */\n      swap1\n      pop\n        /* \"#utility.yul\":2177:2303   */\n      swap2\n      swap1\n      pop\n      jump\t// out\n        /* \"#utility.yul\":2309:2448   */\n    tag_105:\n        /* \"#utility.yul\":2372:2381   */\n      0x00\n        /* \"#utility.yul\":2405:2442   */\n      tag_151\n        /* \"#utility.yul\":2436:2441   */\n      dup3\n        /* \"#utility.yul\":2405:2442   */\n      tag_104\n      jump\t// in\n    tag_151:\n        /* \"#utility.yul\":2392:2442   */\n      swap1\n      pop\n        /* \"#utility.yul\":2309:2448   */\n      swap2\n      swap1\n      pop\n      jump\t// out\n        /* \"#utility.yul\":2454:2611   */\n    tag_106:\n        /* \"#utility.yul\":2554:2604   */\n      tag_153\n        /* \"#utility.yul\":2598:2603   */\n      dup2\n        /* \"#utility.yul\":2554:2604   */\n      tag_105\n      jump\t// in\n    tag_153:\n        /* \"#utility.yul\":2549:2552   */\n      dup3\n        /* \"#utility.yul\":2542:2605   */\n      mstore\n        /* \"#utility.yul\":2454:2611   */\n      pop\n      pop\n      jump\t// out\n        /* \"#utility.yul\":2617:2865   */\n    tag_43:\n        /* \"#utility.yul\":2723:2727   */\n      0x00\n        /* \"#utility.yul\":2761:2763   */\n      0x20\n        /* \"#utility.yul\":2750:2759   */\n      dup3\n        /* \"#utility.yul\":2746:2764   */\n      add\n        /* \"#utility.yul\":2738:2764   */\n      swap1\n      pop\n        /* \"#utility.yul\":2774:2858   */\n      tag_155\n        /* \"#utility.yul\":2855:2856   */\n      0x00\n        /* \"#utility.yul\":2844:2853   */\n      dup4\n        /* \"#utility.yul\":2840:2857   */\n      add\n        /* \"#utility.yul\":2831:2837   */\n      dup5\n        /* \"#utility.yul\":2774:2858   */\n      tag_106\n      jump\t// in\n    tag_155:\n        /* \"#utility.yul\":2617:2865   */\n      swap3\n      swap2\n      pop\n      pop\n      jump\t// out\n        /* \"#utility.yul\":2871:3014   */\n    tag_107:\n        /* \"#utility.yul\":2928:2933   */\n      0x00\n        /* \"#utility.yul\":2959:2965   */\n      dup2\n        /* \"#utility.yul\":2953:2966   */\n      mload\n        /* \"#utility.yul\":2944:2966   */\n      swap1\n      pop\n        /* \"#utility.yul\":2975:3008   */\n      tag_157\n        /* \"#utility.yul\":3002:3007   */\n      dup2\n        /* \"#utility.yul\":2975:3008   */\n      tag_100\n      jump\t// in\n    tag_157:\n        /* \"#utility.yul\":2871:3014   */\n      swap3\n      swap2\n      pop\n      pop\n      jump\t// out\n        /* \"#utility.yul\":3020:3371   */\n    tag_50:\n        /* \"#utility.yul\":3090:3096   */\n      0x00\n        /* \"#utility.yul\":3139:3141   */\n      0x20\n        /* \"#utility.yul\":3127:3136   */\n      dup3\n        /* \"#utility.yul\":3118:3125   */\n      dup5\n        /* \"#utility.yul\":3114:3137   */\n      sub\n        /* \"#utility.yul\":3110:3142   */\n      slt\n        /* \"#utility.yul\":3107:3226   */\n      iszero\n      tag_159\n      jumpi\n        /* \"#utility.yul\":3145:3224   */\n      tag_160\n      tag_98\n      jump\t// in\n    tag_160:\n        /* \"#utility.yul\":3107:3226   */\n    tag_159:\n        /* \"#utility.yul\":3265:3266   */\n      0x00\n        /* \"#utility.yul\":3290:3354   */\n      tag_161\n        /* \"#utility.yul\":3346:3353   */\n      dup5\n        /* \"#utility.yul\":3337:3343   */\n      dup3\n        /* \"#utility.yul\":3326:3335   */\n      dup6\n        /* \"#utility.yul\":3322:3344   */\n      add\n        /* \"#utility.yul\":3290:3354   */\n      tag_107\n      jump\t// in\n    tag_161:\n        /* \"#utility.yul\":3280:3354   */\n      swap2\n      pop\n        /* \"#utility.yul\":3236:3364   */\n      pop\n        /* \"#utility.yul\":3020:3371   */\n      swap3\n      swap2\n      pop\n      pop\n      jump\t// out\n        /* \"#utility.yul\":3377:3557   */\n    tag_108:\n        /* \"#utility.yul\":3425:3502   */\n      0x4e487b7100000000000000000000000000000000000000000000000000000000\n        /* \"#utility.yul\":3422:3423   */\n      0x00\n        /* \"#utility.yul\":3415:3503   */\n      mstore\n        /* \"#utility.yul\":3522:3526   */\n      0x12\n        /* \"#utility.yul\":3519:3520   */\n      0x04\n        /* \"#utility.yul\":3512:3527   */\n      mstore\n        /* \"#utility.yul\":3546:3550   */\n      0x24\n        /* \"#utility.yul\":3543:3544   */\n      0x00\n        /* \"#utility.yul\":3536:3551   */\n      revert\n        /* \"#utility.yul\":3563:3743   */\n    tag_109:\n        /* \"#utility.yul\":3611:3688   */\n      0x4e487b7100000000000000000000000000000000000000000000000000000000\n        /* \"#utility.yul\":3608:3609   */\n      0x00\n        /* \"#utility.yul\":3601:3689   */\n      mstore\n        /* \"#utility.yul\":3708:3712   */\n      0x11\n        /* \"#utility.yul\":3705:3706   */\n      0x04\n        /* \"#utility.yul\":3698:3713   */\n      mstore\n        /* \"#utility.yul\":3732:3736   */\n      0x24\n        /* \"#utility.yul\":3729:3730   */\n      0x00\n        /* \"#utility.yul\":3722:3737   */\n      revert\n        /* \"#utility.yul\":3749:3934   */\n    tag_58:\n        /* \"#utility.yul\":3789:3790   */\n      0x00\n        /* \"#utility.yul\":3806:3826   */\n      tag_165\n        /* \"#utility.yul\":3824:3825   */\n      dup3\n        /* \"#utility.yul\":3806:3826   */\n      tag_95\n      jump\t// in\n    tag_165:\n        /* \"#utility.yul\":3801:3826   */\n      swap2\n      pop\n        /* \"#utility.yul\":3840:3860   */\n      tag_166\n        /* \"#utility.yul\":3858:3859   */\n      dup4\n        /* \"#utility.yul\":3840:3860   */\n      tag_95\n      jump\t// in\n    tag_166:\n        /* \"#utility.yul\":3835:3860   */\n      swap3\n      pop\n        /* \"#utility.yul\":3879:3880   */\n      dup3\n        /* \"#utility.yul\":3869:3904   */\n      tag_167\n      jumpi\n        /* \"#utility.yul\":3884:3902   */\n      tag_168\n      tag_108\n      jump\t// in\n    tag_168:\n        /* \"#utility.yul\":3869:3904   */\n    tag_167:\n        /* \"#utility.yul\":3926:3927   */\n      dup3\n        /* \"#utility.yul\":3923:3924   */\n      dup3\n        /* \"#utility.yul\":3919:3928   */\n      div\n        /* \"#utility.yul\":3914:3928   */\n      swap1\n      pop\n        /* \"#utility.yul\":3749:3934   */\n      swap3\n      swap2\n      pop\n      pop\n      jump\t// out\n        /* \"#utility.yul\":3940:4272   */\n    tag_61:\n        /* \"#utility.yul\":4061:4065   */\n      0x00\n        /* \"#utility.yul\":4099:4101   */\n      0x40\n        /* \"#utility.yul\":4088:4097   */\n      dup3\n        /* \"#utility.yul\":4084:4102   */\n      add\n        /* \"#utility.yul\":4076:4102   */\n      swap1\n      pop\n        /* \"#utility.yul\":4112:4183   */\n      tag_170\n        /* \"#utility.yul\":4180:4181   */\n      0x00\n        /* \"#utility.yul\":4169:4178   */\n      dup4\n        /* \"#utility.yul\":4165:4182   */\n      add\n        /* \"#utility.yul\":4156:4162   */\n      dup6\n        /* \"#utility.yul\":4112:4183   */\n      tag_94\n      jump\t// in\n    tag_170:\n        /* \"#utility.yul\":4193:4265   */\n      tag_171\n        /* \"#utility.yul\":4261:4263   */\n      0x20\n        /* \"#utility.yul\":4250:4259   */\n      dup4\n        /* \"#utility.yul\":4246:4264   */\n      add\n        /* \"#utility.yul\":4237:4243   */\n      dup5\n        /* \"#utility.yul\":4193:4265   */\n      tag_96\n      jump\t// in\n    tag_171:\n        /* \"#utility.yul\":3940:4272   */\n      swap4\n      swap3\n      pop\n      pop\n      pop\n      jump\t// out\n        /* \"#utility.yul\":4278:4368   */\n    tag_110:\n        /* \"#utility.yul\":4312:4319   */\n      0x00\n        /* \"#utility.yul\":4355:4360   */\n      dup2\n        /* \"#utility.yul\":4348:4361   */\n      iszero\n        /* \"#utility.yul\":4341:4362   */\n      iszero\n        /* \"#utility.yul\":4330:4362   */\n      swap1\n      pop\n        /* \"#utility.yul\":4278:4368   */\n      swap2\n      swap1\n      pop\n      jump\t// out\n        /* \"#utility.yul\":4374:4490   */\n    tag_111:\n        /* \"#utility.yul\":4444:4465   */\n      tag_174\n        /* \"#utility.yul\":4459:4464   */\n      dup2\n        /* \"#utility.yul\":4444:4465   */\n      tag_110\n      jump\t// in\n    tag_174:\n        /* \"#utility.yul\":4437:4442   */\n      dup2\n        /* \"#utility.yul\":4434:4466   */\n      eq\n        /* \"#utility.yul\":4424:4484   */\n      tag_175\n      jumpi\n        /* \"#utility.yul\":4480:4481   */\n      0x00\n        /* \"#utility.yul\":4477:4478   */\n      dup1\n        /* \"#utility.yul\":4470:4482   */\n      revert\n        /* \"#utility.yul\":4424:4484   */\n    tag_175:\n        /* \"#utility.yul\":4374:4490   */\n      pop\n      jump\t// out\n        /* \"#utility.yul\":4496:4633   */\n    tag_112:\n        /* \"#utility.yul\":4550:4555   */\n      0x00\n        /* \"#utility.yul\":4581:4587   */\n      dup2\n        /* \"#utility.yul\":4575:4588   */\n      mload\n        /* \"#utility.yul\":4566:4588   */\n      swap1\n      pop\n        /* \"#utility.yul\":4597:4627   */\n      tag_177\n        /* \"#utility.yul\":4621:4626   */\n      dup2\n        /* \"#utility.yul\":4597:4627   */\n      tag_111\n      jump\t// in\n    tag_177:\n        /* \"#utility.yul\":4496:4633   */\n      swap3\n      swap2\n      pop\n      pop\n      jump\t// out\n        /* \"#utility.yul\":4639:4984   */\n    tag_65:\n        /* \"#utility.yul\":4706:4712   */\n      0x00\n        /* \"#utility.yul\":4755:4757   */\n      0x20\n        /* \"#utility.yul\":4743:4752   */\n      dup3\n        /* \"#utility.yul\":4734:4741   */\n      dup5\n        /* \"#utility.yul\":4730:4753   */\n      sub\n        /* \"#utility.yul\":4726:4758   */\n      slt\n        /* \"#utility.yul\":4723:4842   */\n      iszero\n      tag_179\n      jumpi\n        /* \"#utility.yul\":4761:4840   */\n      tag_180\n      tag_98\n      jump\t// in\n    tag_180:\n        /* \"#utility.yul\":4723:4842   */\n    tag_179:\n        /* \"#utility.yul\":4881:4882   */\n      0x00\n        /* \"#utility.yul\":4906:4967   */\n      tag_181\n        /* \"#utility.yul\":4959:4966   */\n      dup5\n        /* \"#utility.yul\":4950:4956   */\n      dup3\n        /* \"#utility.yul\":4939:4948   */\n      dup6\n        /* \"#utility.yul\":4935:4957   */\n      add\n        /* \"#utility.yul\":4906:4967   */\n      tag_112\n      jump\t// in\n    tag_181:\n        /* \"#utility.yul\":4896:4967   */\n      swap2\n      pop\n        /* \"#utility.yul\":4852:4977   */\n      pop\n        /* \"#utility.yul\":4639:4984   */\n      swap3\n      swap2\n      pop\n      pop\n      jump\t// out\n        /* \"#utility.yul\":4990:5159   */\n    tag_113:\n        /* \"#utility.yul\":5074:5085   */\n      0x00\n        /* \"#utility.yul\":5108:5114   */\n      dup3\n        /* \"#utility.yul\":5103:5106   */\n      dup3\n        /* \"#utility.yul\":5096:5115   */\n      mstore\n        /* \"#utility.yul\":5148:5152   */\n      0x20\n        /* \"#utility.yul\":5143:5146   */\n      dup3\n        /* \"#utility.yul\":5139:5153   */\n      add\n        /* \"#utility.yul\":5124:5153   */\n      swap1\n      pop\n        /* \"#utility.yul\":4990:5159   */\n      swap3\n      swap2\n      pop\n      pop\n      jump\t// out\n        /* \"#utility.yul\":5165:5330   */\n    tag_114:\n        /* \"#utility.yul\":5305:5322   */\n      0x417070726f76616c206661696c65640000000000000000000000000000000000\n        /* \"#utility.yul\":5301:5302   */\n      0x00\n        /* \"#utility.yul\":5293:5299   */\n      dup3\n        /* \"#utility.yul\":5289:5303   */\n      add\n        /* \"#utility.yul\":5282:5323   */\n      mstore\n        /* \"#utility.yul\":5165:5330   */\n      pop\n      jump\t// out\n        /* \"#utility.yul\":5336:5702   */\n    tag_115:\n        /* \"#utility.yul\":5478:5481   */\n      0x00\n        /* \"#utility.yul\":5499:5566   */\n      tag_185\n        /* \"#utility.yul\":5563:5565   */\n      0x0f\n        /* \"#utility.yul\":5558:5561   */\n      dup4\n        /* \"#utility.yul\":5499:5566   */\n      tag_113\n      jump\t// in\n    tag_185:\n        /* \"#utility.yul\":5492:5566   */\n      swap2\n      pop\n        /* \"#utility.yul\":5575:5668   */\n      tag_186\n        /* \"#utility.yul\":5664:5667   */\n      dup3\n        /* \"#utility.yul\":5575:5668   */\n      tag_114\n      jump\t// in\n    tag_186:\n        /* \"#utility.yul\":5693:5695   */\n      0x20\n        /* \"#utility.yul\":5688:5691   */\n      dup3\n        /* \"#utility.yul\":5684:5696   */\n      add\n        /* \"#utility.yul\":5677:5696   */\n      swap1\n      pop\n        /* \"#utility.yul\":5336:5702   */\n      swap2\n      swap1\n      pop\n      jump\t// out\n        /* \"#utility.yul\":5708:6127   */\n    tag_68:\n        /* \"#utility.yul\":5874:5878   */\n      0x00\n        /* \"#utility.yul\":5912:5914   */\n      0x20\n        /* \"#utility.yul\":5901:5910   */\n      dup3\n        /* \"#utility.yul\":5897:5915   */\n      add\n        /* \"#utility.yul\":5889:5915   */\n      swap1\n      pop\n        /* \"#utility.yul\":5961:5970   */\n      dup2\n        /* \"#utility.yul\":5955:5959   */\n      dup2\n        /* \"#utility.yul\":5951:5971   */\n      sub\n        /* \"#utility.yul\":5947:5948   */\n      0x00\n        /* \"#utility.yul\":5936:5945   */\n      dup4\n        /* \"#utility.yul\":5932:5949   */\n      add\n        /* \"#utility.yul\":5925:5972   */\n      mstore\n        /* \"#utility.yul\":5989:6120   */\n      tag_188\n        /* \"#utility.yul\":6115:6119   */\n      dup2\n        /* \"#utility.yul\":5989:6120   */\n      tag_115\n      jump\t// in\n    tag_188:\n        /* \"#utility.yul\":5981:6120   */\n      swap1\n      pop\n        /* \"#utility.yul\":5708:6127   */\n      swap2\n      swap1\n      pop\n      jump\t// out\n        /* \"#utility.yul\":6133:6575   */\n    tag_70:\n        /* \"#utility.yul\":6282:6286   */\n      0x00\n        /* \"#utility.yul\":6320:6322   */\n      0x60\n        /* \"#utility.yul\":6309:6318   */\n      dup3\n        /* \"#utility.yul\":6305:6323   */\n      add\n        /* \"#utility.yul\":6297:6323   */\n      swap1\n      pop\n        /* \"#utility.yul\":6333:6404   */\n      tag_190\n        /* \"#utility.yul\":6401:6402   */\n      0x00\n        /* \"#utility.yul\":6390:6399   */\n      dup4\n        /* \"#utility.yul\":6386:6403   */\n      add\n        /* \"#utility.yul\":6377:6383   */\n      dup7\n        /* \"#utility.yul\":6333:6404   */\n      tag_94\n      jump\t// in\n    tag_190:\n        /* \"#utility.yul\":6414:6486   */\n      tag_191\n        /* \"#utility.yul\":6482:6484   */\n      0x20\n        /* \"#utility.yul\":6471:6480   */\n      dup4\n        /* \"#utility.yul\":6467:6485   */\n      add\n        /* \"#utility.yul\":6458:6464   */\n      dup6\n        /* \"#utility.yul\":6414:6486   */\n      tag_94\n      jump\t// in\n    tag_191:\n        /* \"#utility.yul\":6496:6568   */\n      tag_192\n        /* \"#utility.yul\":6564:6566   */\n      0x40\n        /* \"#utility.yul\":6553:6562   */\n      dup4\n        /* \"#utility.yul\":6549:6567   */\n      add\n        /* \"#utility.yul\":6540:6546   */\n      dup5\n        /* \"#utility.yul\":6496:6568   */\n      tag_96\n      jump\t// in\n    tag_192:\n        /* \"#utility.yul\":6133:6575   */\n      swap5\n      swap4\n      pop\n      pop\n      pop\n      pop\n      jump\t// out\n        /* \"#utility.yul\":6581:6991   */\n    tag_79:\n        /* \"#utility.yul\":6621:6628   */\n      0x00\n        /* \"#utility.yul\":6644:6664   */\n      tag_194\n        /* \"#utility.yul\":6662:6663   */\n      dup3\n        /* \"#utility.yul\":6644:6664   */\n      tag_95\n      jump\t// in\n    tag_194:\n        /* \"#utility.yul\":6639:6664   */\n      swap2\n      pop\n        /* \"#utility.yul\":6678:6698   */\n      tag_195\n        /* \"#utility.yul\":6696:6697   */\n      dup4\n        /* \"#utility.yul\":6678:6698   */\n      tag_95\n      jump\t// in\n    tag_195:\n        /* \"#utility.yul\":6673:6698   */\n      swap3\n      pop\n        /* \"#utility.yul\":6733:6734   */\n      dup3\n        /* \"#utility.yul\":6730:6731   */\n      dup3\n        /* \"#utility.yul\":6726:6735   */\n      mul\n        /* \"#utility.yul\":6755:6785   */\n      tag_196\n        /* \"#utility.yul\":6773:6784   */\n      dup2\n        /* \"#utility.yul\":6755:6785   */\n      tag_95\n      jump\t// in\n    tag_196:\n        /* \"#utility.yul\":6744:6785   */\n      swap2\n      pop\n        /* \"#utility.yul\":6934:6935   */\n      dup3\n        /* \"#utility.yul\":6925:6932   */\n      dup3\n        /* \"#utility.yul\":6921:6936   */\n      div\n        /* \"#utility.yul\":6918:6919   */\n      dup5\n        /* \"#utility.yul\":6915:6937   */\n      eq\n        /* \"#utility.yul\":6895:6896   */\n      dup4\n        /* \"#utility.yul\":6888:6897   */\n      iszero\n        /* \"#utility.yul\":6868:6951   */\n      or\n        /* \"#utility.yul\":6845:6984   */\n      tag_197\n      jumpi\n        /* \"#utility.yul\":6964:6982   */\n      tag_198\n      tag_109\n      jump\t// in\n    tag_198:\n        /* \"#utility.yul\":6845:6984   */\n    tag_197:\n        /* \"#utility.yul\":6629:6991   */\n      pop\n        /* \"#utility.yul\":6581:6991   */\n      swap3\n      swap2\n      pop\n      pop\n      jump\t// out\n        /* \"#utility.yul\":6997:7165   */\n    tag_116:\n        /* \"#utility.yul\":7137:7157   */\n      0x4e6f7420656e6f75676820546f6b656e73200000000000000000000000000000\n        /* \"#utility.yul\":7133:7134   */\n      0x00\n        /* \"#utility.yul\":7125:7131   */\n      dup3\n        /* \"#utility.yul\":7121:7135   */\n      add\n        /* \"#utility.yul\":7114:7158   */\n      mstore\n        /* \"#utility.yul\":6997:7165   */\n      pop\n      jump\t// out\n        /* \"#utility.yul\":7171:7537   */\n    tag_117:\n        /* \"#utility.yul\":7313:7316   */\n      0x00\n        /* \"#utility.yul\":7334:7401   */\n      tag_201\n        /* \"#utility.yul\":7398:7400   */\n      0x12\n        /* \"#utility.yul\":7393:7396   */\n      dup4\n        /* \"#utility.yul\":7334:7401   */\n      tag_113\n      jump\t// in\n    tag_201:\n        /* \"#utility.yul\":7327:7401   */\n      swap2\n      pop\n        /* \"#utility.yul\":7410:7503   */\n      tag_202\n        /* \"#utility.yul\":7499:7502   */\n      dup3\n        /* \"#utility.yul\":7410:7503   */\n      tag_116\n      jump\t// in\n    tag_202:\n        /* \"#utility.yul\":7528:7530   */\n      0x20\n        /* \"#utility.yul\":7523:7526   */\n      dup3\n        /* \"#utility.yul\":7519:7531   */\n      add\n        /* \"#utility.yul\":7512:7531   */\n      swap1\n      pop\n        /* \"#utility.yul\":7171:7537   */\n      swap2\n      swap1\n      pop\n      jump\t// out\n        /* \"#utility.yul\":7543:7962   */\n    tag_86:\n        /* \"#utility.yul\":7709:7713   */\n      0x00\n        /* \"#utility.yul\":7747:7749   */\n      0x20\n        /* \"#utility.yul\":7736:7745   */\n      dup3\n        /* \"#utility.yul\":7732:7750   */\n      add\n        /* \"#utility.yul\":7724:7750   */\n      swap1\n      pop\n        /* \"#utility.yul\":7796:7805   */\n      dup2\n        /* \"#utility.yul\":7790:7794   */\n      dup2\n        /* \"#utility.yul\":7786:7806   */\n      sub\n        /* \"#utility.yul\":7782:7783   */\n      0x00\n        /* \"#utility.yul\":7771:7780   */\n      dup4\n        /* \"#utility.yul\":7767:7784   */\n      add\n        /* \"#utility.yul\":7760:7807   */\n      mstore\n        /* \"#utility.yul\":7824:7955   */\n      tag_204\n        /* \"#utility.yul\":7950:7954   */\n      dup2\n        /* \"#utility.yul\":7824:7955   */\n      tag_117\n      jump\t// in\n    tag_204:\n        /* \"#utility.yul\":7816:7955   */\n      swap1\n      pop\n        /* \"#utility.yul\":7543:7962   */\n      swap2\n      swap1\n      pop\n      jump\t// out\n\n    auxdata: 0xa2646970667358221220ed5230a9e7d19ac4529f1b06706bd1a3ab19a862ac598987bc51c5f405f666c664736f6c63430008140033\n}\n",
				"bytecode": {
					"linkReferences": {},
					"object": "6080604052611388600155348015610015575f80fd5b50604051610bf6380380610bf6833981810160405281019061003791906100eb565b805f806101000a81548173ffffffffffffffffffffffffffffffffffffffff021916908373ffffffffffffffffffffffffffffffffffffffff16021790555050610116565b5f80fd5b5f73ffffffffffffffffffffffffffffffffffffffff82169050919050565b5f6100a982610080565b9050919050565b5f6100ba8261009f565b9050919050565b6100ca816100b0565b81146100d4575f80fd5b50565b5f815190506100e5816100c1565b92915050565b5f60208284031215610100576100ff61007c565b5b5f61010d848285016100d7565b91505092915050565b610ad3806101235f395ff3fe60806040526004361061007a575f3560e01c80637a6ce2e11161004d5780637a6ce2e114610118578063a482171914610142578063b83686151461014c578063fc0c546a146101765761007a565b806321df0da71461007e57806322968885146100a85780632397e4d7146100d25780632c4e722e146100ee575b5f80fd5b348015610089575f80fd5b506100926101a0565b60405161009f91906106e0565b60405180910390f35b3480156100b3575f80fd5b506100bc6101c7565b6040516100c99190610711565b60405180910390f35b6100ec60048036038101906100e79190610758565b610265565b005b3480156100f9575f80fd5b506101026104e2565b60405161010f9190610711565b60405180910390f35b348015610123575f80fd5b5061012c6104e8565b60405161013991906106e0565b60405180910390f35b61014a6104ef565b005b348015610157575f80fd5b50610160610677565b60405161016d91906106e0565b60405180910390f35b348015610181575f80fd5b5061018a61067e565b60405161019791906107de565b60405180910390f35b5f805f9054906101000a900473ffffffffffffffffffffffffffffffffffffffff16905090565b5f805f9054906101000a900473ffffffffffffffffffffffffffffffffffffffff1673ffffffffffffffffffffffffffffffffffffffff166370a08231306040518263ffffffff1660e01b815260040161022191906106e0565b602060405180830381865afa15801561023c573d5f803e3d5ffd5b505050506040513d601f19601f82011682018060405250810190610260919061080b565b905090565b805f8054906101000a900473ffffffffffffffffffffffffffffffffffffffff1673ffffffffffffffffffffffffffffffffffffffff166370a08231336040518263ffffffff1660e01b81526004016102be91906106e0565b602060405180830381865afa1580156102d9573d5f803e3d5ffd5b505050506040513d601f19601f820116820180604052508101906102fd919061080b565b1015610307575f80fd5b5f600154826103169190610890565b905080471015610324575f80fd5b5f8054906101000a900473ffffffffffffffffffffffffffffffffffffffff1673ffffffffffffffffffffffffffffffffffffffff1663095ea7b330836040518363ffffffff1660e01b815260040161037e9291906108c0565b6020604051808303815f875af115801561039a573d5f803e3d5ffd5b505050506040513d601f19601f820116820180604052508101906103be919061091c565b6103fd576040517f08c379a00000000000000000000000000000000000000000000000000000000081526004016103f4906109a1565b60405180910390fd5b5f8054906101000a900473ffffffffffffffffffffffffffffffffffffffff1673ffffffffffffffffffffffffffffffffffffffff166323b872dd3330856040518463ffffffff1660e01b8152600401610459939291906109bf565b6020604051808303815f875af1158015610475573d5f803e3d5ffd5b505050506040513d601f19601f82011682018060405250810190610499919061091c565b503373ffffffffffffffffffffffffffffffffffffffff166108fc8290811502906040515f60405180830381858888f193505050501580156104dd573d5f803e3d5ffd5b505050565b60015481565b5f33905090565b5f600154346104fe91906109f4565b9050805f8054906101000a900473ffffffffffffffffffffffffffffffffffffffff1673ffffffffffffffffffffffffffffffffffffffff166370a08231306040518263ffffffff1660e01b815260040161055991906106e0565b602060405180830381865afa158015610574573d5f803e3d5ffd5b505050506040513d601f19601f82011682018060405250810190610598919061080b565b10156105d9576040517f08c379a00000000000000000000000000000000000000000000000000000000081526004016105d090610a7f565b60405180910390fd5b5f8054906101000a900473ffffffffffffffffffffffffffffffffffffffff1673ffffffffffffffffffffffffffffffffffffffff1663a9059cbb33836040518363ffffffff1660e01b81526004016106339291906108c0565b6020604051808303815f875af115801561064f573d5f803e3d5ffd5b505050506040513d601f19601f82011682018060405250810190610673919061091c565b5050565b5f30905090565b5f8054906101000a900473ffffffffffffffffffffffffffffffffffffffff1681565b5f73ffffffffffffffffffffffffffffffffffffffff82169050919050565b5f6106ca826106a1565b9050919050565b6106da816106c0565b82525050565b5f6020820190506106f35f8301846106d1565b92915050565b5f819050919050565b61070b816106f9565b82525050565b5f6020820190506107245f830184610702565b92915050565b5f80fd5b610737816106f9565b8114610741575f80fd5b50565b5f813590506107528161072e565b92915050565b5f6020828403121561076d5761076c61072a565b5b5f61077a84828501610744565b91505092915050565b5f819050919050565b5f6107a66107a161079c846106a1565b610783565b6106a1565b9050919050565b5f6107b78261078c565b9050919050565b5f6107c8826107ad565b9050919050565b6107d8816107be565b82525050565b5f6020820190506107f15f8301846107cf565b92915050565b5f815190506108058161072e565b92915050565b5f602082840312156108205761081f61072a565b5b5f61082d848285016107f7565b91505092915050565b7f4e487b71000000000000000000000000000000000000000000000000000000005f52601260045260245ffd5b7f4e487b71000000000000000000000000000000000000000000000000000000005f52601160045260245ffd5b5f61089a826106f9565b91506108a5836106f9565b9250826108b5576108b4610836565b5b828204905092915050565b5f6040820190506108d35f8301856106d1565b6108e06020830184610702565b9392505050565b5f8115159050919050565b6108fb816108e7565b8114610905575f80fd5b50565b5f81519050610916816108f2565b92915050565b5f602082840312156109315761093061072a565b5b5f61093e84828501610908565b91505092915050565b5f82825260208201905092915050565b7f417070726f76616c206661696c656400000000000000000000000000000000005f82015250565b5f61098b600f83610947565b915061099682610957565b602082019050919050565b5f6020820190508181035f8301526109b88161097f565b9050919050565b5f6060820190506109d25f8301866106d1565b6109df60208301856106d1565b6109ec6040830184610702565b949350505050565b5f6109fe826106f9565b9150610a09836106f9565b9250828202610a17816106f9565b91508282048414831517610a2e57610a2d610863565b5b5092915050565b7f4e6f7420656e6f75676820546f6b656e732000000000000000000000000000005f82015250565b5f610a69601283610947565b9150610a7482610a35565b602082019050919050565b5f6020820190508181035f830152610a9681610a5d565b905091905056fea2646970667358221220ed5230a9e7d19ac4529f1b06706bd1a3ab19a862ac598987bc51c5f405f666c664736f6c63430008140033",
					"opcodes": "PUSH1 0x80 PUSH1 0x40 MSTORE PUSH2 0x1388 PUSH1 0x1 SSTORE CALLVALUE DUP1 ISZERO PUSH2 0x15 JUMPI PUSH0 DUP1 REVERT JUMPDEST POP PUSH1 0x40 MLOAD PUSH2 0xBF6 CODESIZE SUB DUP1 PUSH2 0xBF6 DUP4 CODECOPY DUP2 DUP2 ADD PUSH1 0x40 MSTORE DUP2 ADD SWAP1 PUSH2 0x37 SWAP2 SWAP1 PUSH2 0xEB JUMP JUMPDEST DUP1 PUSH0 DUP1 PUSH2 0x100 EXP DUP2 SLOAD DUP2 PUSH20 0xFFFFFFFFFFFFFFFFFFFFFFFFFFFFFFFFFFFFFFFF MUL NOT AND SWAP1 DUP4 PUSH20 0xFFFFFFFFFFFFFFFFFFFFFFFFFFFFFFFFFFFFFFFF AND MUL OR SWAP1 SSTORE POP POP PUSH2 0x116 JUMP JUMPDEST PUSH0 DUP1 REVERT JUMPDEST PUSH0 PUSH20 0xFFFFFFFFFFFFFFFFFFFFFFFFFFFFFFFFFFFFFFFF DUP3 AND SWAP1 POP SWAP2 SWAP1 POP JUMP JUMPDEST PUSH0 PUSH2 0xA9 DUP3 PUSH2 0x80 JUMP JUMPDEST SWAP1 POP SWAP2 SWAP1 POP JUMP JUMPDEST PUSH0 PUSH2 0xBA DUP3 PUSH2 0x9F JUMP JUMPDEST SWAP1 POP SWAP2 SWAP1 POP JUMP JUMPDEST PUSH2 0xCA DUP2 PUSH2 0xB0 JUMP JUMPDEST DUP2 EQ PUSH2 0xD4 JUMPI PUSH0 DUP1 REVERT JUMPDEST POP JUMP JUMPDEST PUSH0 DUP2 MLOAD SWAP1 POP PUSH2 0xE5 DUP2 PUSH2 0xC1 JUMP JUMPDEST SWAP3 SWAP2 POP POP JUMP JUMPDEST PUSH0 PUSH1 0x20 DUP3 DUP5 SUB SLT ISZERO PUSH2 0x100 JUMPI PUSH2 0xFF PUSH2 0x7C JUMP JUMPDEST JUMPDEST PUSH0 PUSH2 0x10D DUP5 DUP3 DUP6 ADD PUSH2 0xD7 JUMP JUMPDEST SWAP2 POP POP SWAP3 SWAP2 POP POP JUMP JUMPDEST PUSH2 0xAD3 DUP1 PUSH2 0x123 PUSH0 CODECOPY PUSH0 RETURN INVALID PUSH1 0x80 PUSH1 0x40 MSTORE PUSH1 0x4 CALLDATASIZE LT PUSH2 0x7A JUMPI PUSH0 CALLDATALOAD PUSH1 0xE0 SHR DUP1 PUSH4 0x7A6CE2E1 GT PUSH2 0x4D JUMPI DUP1 PUSH4 0x7A6CE2E1 EQ PUSH2 0x118 JUMPI DUP1 PUSH4 0xA4821719 EQ PUSH2 0x142 JUMPI DUP1 PUSH4 0xB8368615 EQ PUSH2 0x14C JUMPI DUP1 PUSH4 0xFC0C546A EQ PUSH2 0x176 JUMPI PUSH2 0x7A JUMP JUMPDEST DUP1 PUSH4 0x21DF0DA7 EQ PUSH2 0x7E JUMPI DUP1 PUSH4 0x22968885 EQ PUSH2 0xA8 JUMPI DUP1 PUSH4 0x2397E4D7 EQ PUSH2 0xD2 JUMPI DUP1 PUSH4 0x2C4E722E EQ PUSH2 0xEE JUMPI JUMPDEST PUSH0 DUP1 REVERT JUMPDEST CALLVALUE DUP1 ISZERO PUSH2 0x89 JUMPI PUSH0 DUP1 REVERT JUMPDEST POP PUSH2 0x92 PUSH2 0x1A0 JUMP JUMPDEST PUSH1 0x40 MLOAD PUSH2 0x9F SWAP2 SWAP1 PUSH2 0x6E0 JUMP JUMPDEST PUSH1 0x40 MLOAD DUP1 SWAP2 SUB SWAP1 RETURN JUMPDEST CALLVALUE DUP1 ISZERO PUSH2 0xB3 JUMPI PUSH0 DUP1 REVERT JUMPDEST POP PUSH2 0xBC PUSH2 0x1C7 JUMP JUMPDEST PUSH1 0x40 MLOAD PUSH2 0xC9 SWAP2 SWAP1 PUSH2 0x711 JUMP JUMPDEST PUSH1 0x40 MLOAD DUP1 SWAP2 SUB SWAP1 RETURN JUMPDEST PUSH2 0xEC PUSH1 0x4 DUP1 CALLDATASIZE SUB DUP2 ADD SWAP1 PUSH2 0xE7 SWAP2 SWAP1 PUSH2 0x758 JUMP JUMPDEST PUSH2 0x265 JUMP JUMPDEST STOP JUMPDEST CALLVALUE DUP1 ISZERO PUSH2 0xF9 JUMPI PUSH0 DUP1 REVERT JUMPDEST POP PUSH2 0x102 PUSH2 0x4E2 JUMP JUMPDEST PUSH1 0x40 MLOAD PUSH2 0x10F SWAP2 SWAP1 PUSH2 0x711 JUMP JUMPDEST PUSH1 0x40 MLOAD DUP1 SWAP2 SUB SWAP1 RETURN JUMPDEST CALLVALUE DUP1 ISZERO PUSH2 0x123 JUMPI PUSH0 DUP1 REVERT JUMPDEST POP PUSH2 0x12C PUSH2 0x4E8 JUMP JUMPDEST PUSH1 0x40 MLOAD PUSH2 0x139 SWAP2 SWAP1 PUSH2 0x6E0 JUMP JUMPDEST PUSH1 0x40 MLOAD DUP1 SWAP2 SUB SWAP1 RETURN JUMPDEST PUSH2 0x14A PUSH2 0x4EF JUMP JUMPDEST STOP JUMPDEST CALLVALUE DUP1 ISZERO PUSH2 0x157 JUMPI PUSH0 DUP1 REVERT JUMPDEST POP PUSH2 0x160 PUSH2 0x677 JUMP JUMPDEST PUSH1 0x40 MLOAD PUSH2 0x16D SWAP2 SWAP1 PUSH2 0x6E0 JUMP JUMPDEST PUSH1 0x40 MLOAD DUP1 SWAP2 SUB SWAP1 RETURN JUMPDEST CALLVALUE DUP1 ISZERO PUSH2 0x181 JUMPI PUSH0 DUP1 REVERT JUMPDEST POP PUSH2 0x18A PUSH2 0x67E JUMP JUMPDEST PUSH1 0x40 MLOAD PUSH2 0x197 SWAP2 SWAP1 PUSH2 0x7DE JUMP JUMPDEST PUSH1 0x40 MLOAD DUP1 SWAP2 SUB SWAP1 RETURN JUMPDEST PUSH0 DUP1 PUSH0 SWAP1 SLOAD SWAP1 PUSH2 0x100 EXP SWAP1 DIV PUSH20 0xFFFFFFFFFFFFFFFFFFFFFFFFFFFFFFFFFFFFFFFF AND SWAP1 POP SWAP1 JUMP JUMPDEST PUSH0 DUP1 PUSH0 SWAP1 SLOAD SWAP1 PUSH2 0x100 EXP SWAP1 DIV PUSH20 0xFFFFFFFFFFFFFFFFFFFFFFFFFFFFFFFFFFFFFFFF AND PUSH20 0xFFFFFFFFFFFFFFFFFFFFFFFFFFFFFFFFFFFFFFFF AND PUSH4 0x70A08231 ADDRESS PUSH1 0x40 MLOAD DUP3 PUSH4 0xFFFFFFFF AND PUSH1 0xE0 SHL DUP2 MSTORE PUSH1 0x4 ADD PUSH2 0x221 SWAP2 SWAP1 PUSH2 0x6E0 JUMP JUMPDEST PUSH1 0x20 PUSH1 0x40 MLOAD DUP1 DUP4 SUB DUP2 DUP7 GAS STATICCALL ISZERO DUP1 ISZERO PUSH2 0x23C JUMPI RETURNDATASIZE PUSH0 DUP1 RETURNDATACOPY RETURNDATASIZE PUSH0 REVERT JUMPDEST POP POP POP POP PUSH1 0x40 MLOAD RETURNDATASIZE PUSH1 0x1F NOT PUSH1 0x1F DUP3 ADD AND DUP3 ADD DUP1 PUSH1 0x40 MSTORE POP DUP2 ADD SWAP1 PUSH2 0x260 SWAP2 SWAP1 PUSH2 0x80B JUMP JUMPDEST SWAP1 POP SWAP1 JUMP JUMPDEST DUP1 PUSH0 DUP1 SLOAD SWAP1 PUSH2 0x100 EXP SWAP1 DIV PUSH20 0xFFFFFFFFFFFFFFFFFFFFFFFFFFFFFFFFFFFFFFFF AND PUSH20 0xFFFFFFFFFFFFFFFFFFFFFFFFFFFFFFFFFFFFFFFF AND PUSH4 0x70A08231 CALLER PUSH1 0x40 MLOAD DUP3 PUSH4 0xFFFFFFFF AND PUSH1 0xE0 SHL DUP2 MSTORE PUSH1 0x4 ADD PUSH2 0x2BE SWAP2 SWAP1 PUSH2 0x6E0 JUMP JUMPDEST PUSH1 0x20 PUSH1 0x40 MLOAD DUP1 DUP4 SUB DUP2 DUP7 GAS STATICCALL ISZERO DUP1 ISZERO PUSH2 0x2D9 JUMPI RETURNDATASIZE PUSH0 DUP1 RETURNDATACOPY RETURNDATASIZE PUSH0 REVERT JUMPDEST POP POP POP POP PUSH1 0x40 MLOAD RETURNDATASIZE PUSH1 0x1F NOT PUSH1 0x1F DUP3 ADD AND DUP3 ADD DUP1 PUSH1 0x40 MSTORE POP DUP2 ADD SWAP1 PUSH2 0x2FD SWAP2 SWAP1 PUSH2 0x80B JUMP JUMPDEST LT ISZERO PUSH2 0x307 JUMPI PUSH0 DUP1 REVERT JUMPDEST PUSH0 PUSH1 0x1 SLOAD DUP3 PUSH2 0x316 SWAP2 SWAP1 PUSH2 0x890 JUMP JUMPDEST SWAP1 POP DUP1 SELFBALANCE LT ISZERO PUSH2 0x324 JUMPI PUSH0 DUP1 REVERT JUMPDEST PUSH0 DUP1 SLOAD SWAP1 PUSH2 0x100 EXP SWAP1 DIV PUSH20 0xFFFFFFFFFFFFFFFFFFFFFFFFFFFFFFFFFFFFFFFF AND PUSH20 0xFFFFFFFFFFFFFFFFFFFFFFFFFFFFFFFFFFFFFFFF AND PUSH4 0x95EA7B3 ADDRESS DUP4 PUSH1 0x40 MLOAD DUP4 PUSH4 0xFFFFFFFF AND PUSH1 0xE0 SHL DUP2 MSTORE PUSH1 0x4 ADD PUSH2 0x37E SWAP3 SWAP2 SWAP1 PUSH2 0x8C0 JUMP JUMPDEST PUSH1 0x20 PUSH1 0x40 MLOAD DUP1 DUP4 SUB DUP2 PUSH0 DUP8 GAS CALL ISZERO DUP1 ISZERO PUSH2 0x39A JUMPI RETURNDATASIZE PUSH0 DUP1 RETURNDATACOPY RETURNDATASIZE PUSH0 REVERT JUMPDEST POP POP POP POP PUSH1 0x40 MLOAD RETURNDATASIZE PUSH1 0x1F NOT PUSH1 0x1F DUP3 ADD AND DUP3 ADD DUP1 PUSH1 0x40 MSTORE POP DUP2 ADD SWAP1 PUSH2 0x3BE SWAP2 SWAP1 PUSH2 0x91C JUMP JUMPDEST PUSH2 0x3FD JUMPI PUSH1 0x40 MLOAD PUSH32 0x8C379A000000000000000000000000000000000000000000000000000000000 DUP2 MSTORE PUSH1 0x4 ADD PUSH2 0x3F4 SWAP1 PUSH2 0x9A1 JUMP JUMPDEST PUSH1 0x40 MLOAD DUP1 SWAP2 SUB SWAP1 REVERT JUMPDEST PUSH0 DUP1 SLOAD SWAP1 PUSH2 0x100 EXP SWAP1 DIV PUSH20 0xFFFFFFFFFFFFFFFFFFFFFFFFFFFFFFFFFFFFFFFF AND PUSH20 0xFFFFFFFFFFFFFFFFFFFFFFFFFFFFFFFFFFFFFFFF AND PUSH4 0x23B872DD CALLER ADDRESS DUP6 PUSH1 0x40 MLOAD DUP5 PUSH4 0xFFFFFFFF AND PUSH1 0xE0 SHL DUP2 MSTORE PUSH1 0x4 ADD PUSH2 0x459 SWAP4 SWAP3 SWAP2 SWAP1 PUSH2 0x9BF JUMP JUMPDEST PUSH1 0x20 PUSH1 0x40 MLOAD DUP1 DUP4 SUB DUP2 PUSH0 DUP8 GAS CALL ISZERO DUP1 ISZERO PUSH2 0x475 JUMPI RETURNDATASIZE PUSH0 DUP1 RETURNDATACOPY RETURNDATASIZE PUSH0 REVERT JUMPDEST POP POP POP POP PUSH1 0x40 MLOAD RETURNDATASIZE PUSH1 0x1F NOT PUSH1 0x1F DUP3 ADD AND DUP3 ADD DUP1 PUSH1 0x40 MSTORE POP DUP2 ADD SWAP1 PUSH2 0x499 SWAP2 SWAP1 PUSH2 0x91C JUMP JUMPDEST POP CALLER PUSH20 0xFFFFFFFFFFFFFFFFFFFFFFFFFFFFFFFFFFFFFFFF AND PUSH2 0x8FC DUP3 SWAP1 DUP2 ISZERO MUL SWAP1 PUSH1 0x40 MLOAD PUSH0 PUSH1 0x40 MLOAD DUP1 DUP4 SUB DUP2 DUP6 DUP9 DUP9 CALL SWAP4 POP POP POP POP ISZERO DUP1 ISZERO PUSH2 0x4DD JUMPI RETURNDATASIZE PUSH0 DUP1 RETURNDATACOPY RETURNDATASIZE PUSH0 REVERT JUMPDEST POP POP POP JUMP JUMPDEST PUSH1 0x1 SLOAD DUP2 JUMP JUMPDEST PUSH0 CALLER SWAP1 POP SWAP1 JUMP JUMPDEST PUSH0 PUSH1 0x1 SLOAD CALLVALUE PUSH2 0x4FE SWAP2 SWAP1 PUSH2 0x9F4 JUMP JUMPDEST SWAP1 POP DUP1 PUSH0 DUP1 SLOAD SWAP1 PUSH2 0x100 EXP SWAP1 DIV PUSH20 0xFFFFFFFFFFFFFFFFFFFFFFFFFFFFFFFFFFFFFFFF AND PUSH20 0xFFFFFFFFFFFFFFFFFFFFFFFFFFFFFFFFFFFFFFFF AND PUSH4 0x70A08231 ADDRESS PUSH1 0x40 MLOAD DUP3 PUSH4 0xFFFFFFFF AND PUSH1 0xE0 SHL DUP2 MSTORE PUSH1 0x4 ADD PUSH2 0x559 SWAP2 SWAP1 PUSH2 0x6E0 JUMP JUMPDEST PUSH1 0x20 PUSH1 0x40 MLOAD DUP1 DUP4 SUB DUP2 DUP7 GAS STATICCALL ISZERO DUP1 ISZERO PUSH2 0x574 JUMPI RETURNDATASIZE PUSH0 DUP1 RETURNDATACOPY RETURNDATASIZE PUSH0 REVERT JUMPDEST POP POP POP POP PUSH1 0x40 MLOAD RETURNDATASIZE PUSH1 0x1F NOT PUSH1 0x1F DUP3 ADD AND DUP3 ADD DUP1 PUSH1 0x40 MSTORE POP DUP2 ADD SWAP1 PUSH2 0x598 SWAP2 SWAP1 PUSH2 0x80B JUMP JUMPDEST LT ISZERO PUSH2 0x5D9 JUMPI PUSH1 0x40 MLOAD PUSH32 0x8C379A000000000000000000000000000000000000000000000000000000000 DUP2 MSTORE PUSH1 0x4 ADD PUSH2 0x5D0 SWAP1 PUSH2 0xA7F JUMP JUMPDEST PUSH1 0x40 MLOAD DUP1 SWAP2 SUB SWAP1 REVERT JUMPDEST PUSH0 DUP1 SLOAD SWAP1 PUSH2 0x100 EXP SWAP1 DIV PUSH20 0xFFFFFFFFFFFFFFFFFFFFFFFFFFFFFFFFFFFFFFFF AND PUSH20 0xFFFFFFFFFFFFFFFFFFFFFFFFFFFFFFFFFFFFFFFF AND PUSH4 0xA9059CBB CALLER DUP4 PUSH1 0x40 MLOAD DUP4 PUSH4 0xFFFFFFFF AND PUSH1 0xE0 SHL DUP2 MSTORE PUSH1 0x4 ADD PUSH2 0x633 SWAP3 SWAP2 SWAP1 PUSH2 0x8C0 JUMP JUMPDEST PUSH1 0x20 PUSH1 0x40 MLOAD DUP1 DUP4 SUB DUP2 PUSH0 DUP8 GAS CALL ISZERO DUP1 ISZERO PUSH2 0x64F JUMPI RETURNDATASIZE PUSH0 DUP1 RETURNDATACOPY RETURNDATASIZE PUSH0 REVERT JUMPDEST POP POP POP POP PUSH1 0x40 MLOAD RETURNDATASIZE PUSH1 0x1F NOT PUSH1 0x1F DUP3 ADD AND DUP3 ADD DUP1 PUSH1 0x40 MSTORE POP DUP2 ADD SWAP1 PUSH2 0x673 SWAP2 SWAP1 PUSH2 0x91C JUMP JUMPDEST POP POP JUMP JUMPDEST PUSH0 ADDRESS SWAP1 POP SWAP1 JUMP JUMPDEST PUSH0 DUP1 SLOAD SWAP1 PUSH2 0x100 EXP SWAP1 DIV PUSH20 0xFFFFFFFFFFFFFFFFFFFFFFFFFFFFFFFFFFFFFFFF AND DUP2 JUMP JUMPDEST PUSH0 PUSH20 0xFFFFFFFFFFFFFFFFFFFFFFFFFFFFFFFFFFFFFFFF DUP3 AND SWAP1 POP SWAP2 SWAP1 POP JUMP JUMPDEST PUSH0 PUSH2 0x6CA DUP3 PUSH2 0x6A1 JUMP JUMPDEST SWAP1 POP SWAP2 SWAP1 POP JUMP JUMPDEST PUSH2 0x6DA DUP2 PUSH2 0x6C0 JUMP JUMPDEST DUP3 MSTORE POP POP JUMP JUMPDEST PUSH0 PUSH1 0x20 DUP3 ADD SWAP1 POP PUSH2 0x6F3 PUSH0 DUP4 ADD DUP5 PUSH2 0x6D1 JUMP JUMPDEST SWAP3 SWAP2 POP POP JUMP JUMPDEST PUSH0 DUP2 SWAP1 POP SWAP2 SWAP1 POP JUMP JUMPDEST PUSH2 0x70B DUP2 PUSH2 0x6F9 JUMP JUMPDEST DUP3 MSTORE POP POP JUMP JUMPDEST PUSH0 PUSH1 0x20 DUP3 ADD SWAP1 POP PUSH2 0x724 PUSH0 DUP4 ADD DUP5 PUSH2 0x702 JUMP JUMPDEST SWAP3 SWAP2 POP POP JUMP JUMPDEST PUSH0 DUP1 REVERT JUMPDEST PUSH2 0x737 DUP2 PUSH2 0x6F9 JUMP JUMPDEST DUP2 EQ PUSH2 0x741 JUMPI PUSH0 DUP1 REVERT JUMPDEST POP JUMP JUMPDEST PUSH0 DUP2 CALLDATALOAD SWAP1 POP PUSH2 0x752 DUP2 PUSH2 0x72E JUMP JUMPDEST SWAP3 SWAP2 POP POP JUMP JUMPDEST PUSH0 PUSH1 0x20 DUP3 DUP5 SUB SLT ISZERO PUSH2 0x76D JUMPI PUSH2 0x76C PUSH2 0x72A JUMP JUMPDEST JUMPDEST PUSH0 PUSH2 0x77A DUP5 DUP3 DUP6 ADD PUSH2 0x744 JUMP JUMPDEST SWAP2 POP POP SWAP3 SWAP2 POP POP JUMP JUMPDEST PUSH0 DUP2 SWAP1 POP SWAP2 SWAP1 POP JUMP JUMPDEST PUSH0 PUSH2 0x7A6 PUSH2 0x7A1 PUSH2 0x79C DUP5 PUSH2 0x6A1 JUMP JUMPDEST PUSH2 0x783 JUMP JUMPDEST PUSH2 0x6A1 JUMP JUMPDEST SWAP1 POP SWAP2 SWAP1 POP JUMP JUMPDEST PUSH0 PUSH2 0x7B7 DUP3 PUSH2 0x78C JUMP JUMPDEST SWAP1 POP SWAP2 SWAP1 POP JUMP JUMPDEST PUSH0 PUSH2 0x7C8 DUP3 PUSH2 0x7AD JUMP JUMPDEST SWAP1 POP SWAP2 SWAP1 POP JUMP JUMPDEST PUSH2 0x7D8 DUP2 PUSH2 0x7BE JUMP JUMPDEST DUP3 MSTORE POP POP JUMP JUMPDEST PUSH0 PUSH1 0x20 DUP3 ADD SWAP1 POP PUSH2 0x7F1 PUSH0 DUP4 ADD DUP5 PUSH2 0x7CF JUMP JUMPDEST SWAP3 SWAP2 POP POP JUMP JUMPDEST PUSH0 DUP2 MLOAD SWAP1 POP PUSH2 0x805 DUP2 PUSH2 0x72E JUMP JUMPDEST SWAP3 SWAP2 POP POP JUMP JUMPDEST PUSH0 PUSH1 0x20 DUP3 DUP5 SUB SLT ISZERO PUSH2 0x820 JUMPI PUSH2 0x81F PUSH2 0x72A JUMP JUMPDEST JUMPDEST PUSH0 PUSH2 0x82D DUP5 DUP3 DUP6 ADD PUSH2 0x7F7 JUMP JUMPDEST SWAP2 POP POP SWAP3 SWAP2 POP POP JUMP JUMPDEST PUSH32 0x4E487B7100000000000000000000000000000000000000000000000000000000 PUSH0 MSTORE PUSH1 0x12 PUSH1 0x4 MSTORE PUSH1 0x24 PUSH0 REVERT JUMPDEST PUSH32 0x4E487B7100000000000000000000000000000000000000000000000000000000 PUSH0 MSTORE PUSH1 0x11 PUSH1 0x4 MSTORE PUSH1 0x24 PUSH0 REVERT JUMPDEST PUSH0 PUSH2 0x89A DUP3 PUSH2 0x6F9 JUMP JUMPDEST SWAP2 POP PUSH2 0x8A5 DUP4 PUSH2 0x6F9 JUMP JUMPDEST SWAP3 POP DUP3 PUSH2 0x8B5 JUMPI PUSH2 0x8B4 PUSH2 0x836 JUMP JUMPDEST JUMPDEST DUP3 DUP3 DIV SWAP1 POP SWAP3 SWAP2 POP POP JUMP JUMPDEST PUSH0 PUSH1 0x40 DUP3 ADD SWAP1 POP PUSH2 0x8D3 PUSH0 DUP4 ADD DUP6 PUSH2 0x6D1 JUMP JUMPDEST PUSH2 0x8E0 PUSH1 0x20 DUP4 ADD DUP5 PUSH2 0x702 JUMP JUMPDEST SWAP4 SWAP3 POP POP POP JUMP JUMPDEST PUSH0 DUP2 ISZERO ISZERO SWAP1 POP SWAP2 SWAP1 POP JUMP JUMPDEST PUSH2 0x8FB DUP2 PUSH2 0x8E7 JUMP JUMPDEST DUP2 EQ PUSH2 0x905 JUMPI PUSH0 DUP1 REVERT JUMPDEST POP JUMP JUMPDEST PUSH0 DUP2 MLOAD SWAP1 POP PUSH2 0x916 DUP2 PUSH2 0x8F2 JUMP JUMPDEST SWAP3 SWAP2 POP POP JUMP JUMPDEST PUSH0 PUSH1 0x20 DUP3 DUP5 SUB SLT ISZERO PUSH2 0x931 JUMPI PUSH2 0x930 PUSH2 0x72A JUMP JUMPDEST JUMPDEST PUSH0 PUSH2 0x93E DUP5 DUP3 DUP6 ADD PUSH2 0x908 JUMP JUMPDEST SWAP2 POP POP SWAP3 SWAP2 POP POP JUMP JUMPDEST PUSH0 DUP3 DUP3 MSTORE PUSH1 0x20 DUP3 ADD SWAP1 POP SWAP3 SWAP2 POP POP JUMP JUMPDEST PUSH32 0x417070726F76616C206661696C65640000000000000000000000000000000000 PUSH0 DUP3 ADD MSTORE POP JUMP JUMPDEST PUSH0 PUSH2 0x98B PUSH1 0xF DUP4 PUSH2 0x947 JUMP JUMPDEST SWAP2 POP PUSH2 0x996 DUP3 PUSH2 0x957 JUMP JUMPDEST PUSH1 0x20 DUP3 ADD SWAP1 POP SWAP2 SWAP1 POP JUMP JUMPDEST PUSH0 PUSH1 0x20 DUP3 ADD SWAP1 POP DUP2 DUP2 SUB PUSH0 DUP4 ADD MSTORE PUSH2 0x9B8 DUP2 PUSH2 0x97F JUMP JUMPDEST SWAP1 POP SWAP2 SWAP1 POP JUMP JUMPDEST PUSH0 PUSH1 0x60 DUP3 ADD SWAP1 POP PUSH2 0x9D2 PUSH0 DUP4 ADD DUP7 PUSH2 0x6D1 JUMP JUMPDEST PUSH2 0x9DF PUSH1 0x20 DUP4 ADD DUP6 PUSH2 0x6D1 JUMP JUMPDEST PUSH2 0x9EC PUSH1 0x40 DUP4 ADD DUP5 PUSH2 0x702 JUMP JUMPDEST SWAP5 SWAP4 POP POP POP POP JUMP JUMPDEST PUSH0 PUSH2 0x9FE DUP3 PUSH2 0x6F9 JUMP JUMPDEST SWAP2 POP PUSH2 0xA09 DUP4 PUSH2 0x6F9 JUMP JUMPDEST SWAP3 POP DUP3 DUP3 MUL PUSH2 0xA17 DUP2 PUSH2 0x6F9 JUMP JUMPDEST SWAP2 POP DUP3 DUP3 DIV DUP5 EQ DUP4 ISZERO OR PUSH2 0xA2E JUMPI PUSH2 0xA2D PUSH2 0x863 JUMP JUMPDEST JUMPDEST POP SWAP3 SWAP2 POP POP JUMP JUMPDEST PUSH32 0x4E6F7420656E6F75676820546F6B656E73200000000000000000000000000000 PUSH0 DUP3 ADD MSTORE POP JUMP JUMPDEST PUSH0 PUSH2 0xA69 PUSH1 0x12 DUP4 PUSH2 0x947 JUMP JUMPDEST SWAP2 POP PUSH2 0xA74 DUP3 PUSH2 0xA35 JUMP JUMPDEST PUSH1 0x20 DUP3 ADD SWAP1 POP SWAP2 SWAP1 POP JUMP JUMPDEST PUSH0 PUSH1 0x20 DUP3 ADD SWAP1 POP DUP2 DUP2 SUB PUSH0 DUP4 ADD MSTORE PUSH2 0xA96 DUP2 PUSH2 0xA5D JUMP JUMPDEST SWAP1 POP SWAP2 SWAP1 POP JUMP INVALID LOG2 PUSH5 0x6970667358 0x22 SLT KECCAK256 0xED MSTORE ADDRESS 0xA9 0xE7 0xD1 SWAP11 0xC4 MSTORE SWAP16 SHL MOD PUSH17 0x6BD1A3AB19A862AC598987BC51C5F405F6 PUSH7 0xC664736F6C6343 STOP ADDMOD EQ STOP CALLER "
				},
				"gasEstimates": {
					"creation": {
						"codeDepositCost": "554200",
						"executionCost": "infinite",
						"totalCost": "infinite"
					},
					"external": {
						"buyToken()": "infinite",
						"getBalanceOfContract()": "infinite",
						"getMsgSender()": "379",
						"getThis()": "423",
						"getToken()": "2516",
						"rate()": "2492",
						"sellToken(uint256)": "infinite",
						"token()": "infinite"
					}
				},
				"methodIdentifiers": {
					"buyToken()": "a4821719",
					"getBalanceOfContract()": "22968885",
					"getMsgSender()": "7a6ce2e1",
					"getThis()": "b8368615",
					"getToken()": "21df0da7",
					"rate()": "2c4e722e",
					"sellToken(uint256)": "2397e4d7",
					"token()": "fc0c546a"
				}
			},
			"storageLayout": {
				"storage": [
					{
						"astId": 5,
						"contract": ".deps/contracts/EtherSwap.sol:EthSwap",
						"label": "token",
						"offset": 0,
						"slot": "0",
						"type": "t_contract(ERC20)749"
					},
					{
						"astId": 8,
						"contract": ".deps/contracts/EtherSwap.sol:EthSwap",
						"label": "rate",
						"offset": 0,
						"slot": "1",
						"type": "t_uint256"
					}
				],
				"types": {
					"t_contract(ERC20)749": {
						"encoding": "inplace",
						"label": "contract ERC20",
						"numberOfBytes": "20"
					},
					"t_uint256": {
						"encoding": "inplace",
						"label": "uint256",
						"numberOfBytes": "32"
					}
				}
			},
			"userdoc": {
				"kind": "user",
				"methods": {},
				"version": 1
			}
		}
	}
}