{
	".deps/contracts/IPFSStorage.sol": {
		"IPFSStorage": {
			"abi": [
				{
					"inputs": [
						{
							"components": [
								{
									"internalType": "string",
									"name": "name",
									"type": "string"
								},
								{
									"internalType": "uint256",
									"name": "studentID",
									"type": "uint256"
								},
								{
									"internalType": "string",
									"name": "major",
									"type": "string"
								},
								{
									"internalType": "uint256",
									"name": "gpa",
									"type": "uint256"
								},
								{
									"internalType": "string",
									"name": "company",
									"type": "string"
								},
								{
									"internalType": "uint256",
									"name": "balance",
									"type": "uint256"
								}
							],
							"internalType": "struct IPFSStorage.Student",
							"name": "student",
							"type": "tuple"
						}
					],
					"name": "generateIPFSHash",
					"outputs": [
						{
							"internalType": "string",
							"name": "",
							"type": "string"
						}
					],
					"stateMutability": "pure",
					"type": "function"
				},
				{
					"inputs": [
						{
							"internalType": "address",
							"name": "account",
							"type": "address"
						}
					],
					"name": "getIPFSHash",
					"outputs": [
						{
							"internalType": "string",
							"name": "",
							"type": "string"
						}
					],
					"stateMutability": "view",
					"type": "function"
				},
				{
					"inputs": [
						{
							"internalType": "address",
							"name": "",
							"type": "address"
						}
					],
					"name": "ipfsHashes",
					"outputs": [
						{
							"internalType": "string",
							"name": "",
							"type": "string"
						}
					],
					"stateMutability": "view",
					"type": "function"
				},
				{
					"inputs": [
						{
							"internalType": "string",
							"name": "ipfsHash",
							"type": "string"
						}
					],
					"name": "saveIPFSHash",
					"outputs": [
						{
							"internalType": "bool",
							"name": "",
							"type": "bool"
						}
					],
					"stateMutability": "nonpayable",
					"type": "function"
				},
				{
					"inputs": [
						{
							"internalType": "uint256",
							"name": "value",
							"type": "uint256"
						}
					],
					"name": "toString",
					"outputs": [
						{
							"internalType": "string",
							"name": "",
							"type": "string"
						}
					],
					"stateMutability": "pure",
					"type": "function"
				}
			],
			"devdoc": {
				"custom:dev-run-script": ".deps/contracts/IPFSStorage.sol",
				"details": "IPFSHash Saving",
				"kind": "dev",
				"methods": {},
				"title": "IPFSStorage",
				"version": 1
			},
			"evm": {
				"assembly": "    /* \".deps/contracts/IPFSStorage.sol\":420:2394  contract IPFSStorage {... */\n  mstore(0x40, 0x80)\n  callvalue\n  dup1\n  iszero\n  tag_1\n  jumpi\n  0x00\n  dup1\n  revert\ntag_1:\n  pop\n  dataSize(sub_0)\n  dup1\n  dataOffset(sub_0)\n  0x00\n  codecopy\n  0x00\n  return\nstop\n\nsub_0: assembly {\n        /* \".deps/contracts/IPFSStorage.sol\":420:2394  contract IPFSStorage {... */\n      mstore(0x40, 0x80)\n      callvalue\n      dup1\n      iszero\n      tag_1\n      jumpi\n      0x00\n      dup1\n      revert\n    tag_1:\n      pop\n      jumpi(tag_2, lt(calldatasize, 0x04))\n      shr(0xe0, calldataload(0x00))\n      dup1\n      0x6900a3ae\n      eq\n      tag_3\n      jumpi\n      dup1\n      0x8f767c6f\n      eq\n      tag_4\n      jumpi\n      dup1\n      0xb075e746\n      eq\n      tag_5\n      jumpi\n      dup1\n      0xcb0ab425\n      eq\n      tag_6\n      jumpi\n      dup1\n      0xe1e322ed\n      eq\n      tag_7\n      jumpi\n    tag_2:\n      0x00\n      dup1\n      revert\n        /* \".deps/contracts/IPFSStorage.sol\":806:1336  function toString(uint256 value) public pure returns (string memory) {... */\n    tag_3:\n      tag_8\n      0x04\n      dup1\n      calldatasize\n      sub\n      dup2\n      add\n      swap1\n      tag_9\n      swap2\n      swap1\n      tag_10\n      jump\t// in\n    tag_9:\n      tag_11\n      jump\t// in\n    tag_8:\n      mload(0x40)\n      tag_12\n      swap2\n      swap1\n      tag_13\n      jump\t// in\n    tag_12:\n      mload(0x40)\n      dup1\n      swap2\n      sub\n      swap1\n      return\n        /* \".deps/contracts/IPFSStorage.sol\":1392:1742  function generateIPFSHash(Student memory student) public pure returns (string memory) {... */\n    tag_4:\n      tag_14\n      0x04\n      dup1\n      calldatasize\n      sub\n      dup2\n      add\n      swap1\n      tag_15\n      swap2\n      swap1\n      tag_16\n      jump\t// in\n    tag_15:\n      tag_17\n      jump\t// in\n    tag_14:\n      mload(0x40)\n      tag_18\n      swap2\n      swap1\n      tag_13\n      jump\t// in\n    tag_18:\n      mload(0x40)\n      dup1\n      swap2\n      sub\n      swap1\n      return\n        /* \".deps/contracts/IPFSStorage.sol\":1793:2083  function saveIPFSHash(/*address account*/ string memory ipfsHash) public returns (bool) {... */\n    tag_5:\n      tag_19\n      0x04\n      dup1\n      calldatasize\n      sub\n      dup2\n      add\n      swap1\n      tag_20\n      swap2\n      swap1\n      tag_21\n      jump\t// in\n    tag_20:\n      tag_22\n      jump\t// in\n    tag_19:\n      mload(0x40)\n      tag_23\n      swap2\n      swap1\n      tag_24\n      jump\t// in\n    tag_23:\n      mload(0x40)\n      dup1\n      swap2\n      sub\n      swap1\n      return\n        /* \".deps/contracts/IPFSStorage.sol\":2134:2391  function getIPFSHash(address account) public view returns (string memory) {... */\n    tag_6:\n      tag_25\n      0x04\n      dup1\n      calldatasize\n      sub\n      dup2\n      add\n      swap1\n      tag_26\n      swap2\n      swap1\n      tag_27\n      jump\t// in\n    tag_26:\n      tag_28\n      jump\t// in\n    tag_25:\n      mload(0x40)\n      tag_29\n      swap2\n      swap1\n      tag_13\n      jump\t// in\n    tag_29:\n      mload(0x40)\n      dup1\n      swap2\n      sub\n      swap1\n      return\n        /* \".deps/contracts/IPFSStorage.sol\":625:669  mapping(address => string) public ipfsHashes */\n    tag_7:\n      tag_30\n      0x04\n      dup1\n      calldatasize\n      sub\n      dup2\n      add\n      swap1\n      tag_31\n      swap2\n      swap1\n      tag_27\n      jump\t// in\n    tag_31:\n      tag_32\n      jump\t// in\n    tag_30:\n      mload(0x40)\n      tag_33\n      swap2\n      swap1\n      tag_13\n      jump\t// in\n    tag_33:\n      mload(0x40)\n      dup1\n      swap2\n      sub\n      swap1\n      return\n        /* \".deps/contracts/IPFSStorage.sol\":806:1336  function toString(uint256 value) public pure returns (string memory) {... */\n    tag_11:\n        /* \".deps/contracts/IPFSStorage.sol\":860:873  string memory */\n      0x60\n        /* \".deps/contracts/IPFSStorage.sol\":899:900  0 */\n      0x00\n        /* \".deps/contracts/IPFSStorage.sol\":890:895  value */\n      dup3\n        /* \".deps/contracts/IPFSStorage.sol\":890:900  value == 0 */\n      sub\n        /* \".deps/contracts/IPFSStorage.sol\":886:939  if (value == 0) {... */\n      tag_35\n      jumpi\n        /* \".deps/contracts/IPFSStorage.sol\":917:927  return \"0\" */\n      mload(0x40)\n      dup1\n      0x40\n      add\n      0x40\n      mstore\n      dup1\n      0x01\n      dup2\n      mstore\n      0x20\n      add\n      0x3000000000000000000000000000000000000000000000000000000000000000\n      dup2\n      mstore\n      pop\n      swap1\n      pop\n      jump(tag_34)\n        /* \".deps/contracts/IPFSStorage.sol\":886:939  if (value == 0) {... */\n    tag_35:\n        /* \".deps/contracts/IPFSStorage.sol\":949:961  uint256 temp */\n      0x00\n        /* \".deps/contracts/IPFSStorage.sol\":964:969  value */\n      dup3\n        /* \".deps/contracts/IPFSStorage.sol\":949:969  uint256 temp = value */\n      swap1\n      pop\n        /* \".deps/contracts/IPFSStorage.sol\":980:994  uint256 digits */\n      0x00\n        /* \".deps/contracts/IPFSStorage.sol\":1005:1083  while (temp != 0) {... */\n    tag_36:\n        /* \".deps/contracts/IPFSStorage.sol\":1020:1021  0 */\n      0x00\n        /* \".deps/contracts/IPFSStorage.sol\":1012:1016  temp */\n      dup3\n        /* \".deps/contracts/IPFSStorage.sol\":1012:1021  temp != 0 */\n      eq\n        /* \".deps/contracts/IPFSStorage.sol\":1005:1083  while (temp != 0) {... */\n      tag_37\n      jumpi\n        /* \".deps/contracts/IPFSStorage.sol\":1038:1046  digits++ */\n      dup1\n      dup1\n      tag_38\n      swap1\n      tag_39\n      jump\t// in\n    tag_38:\n      swap2\n      pop\n      pop\n        /* \".deps/contracts/IPFSStorage.sol\":1069:1071  10 */\n      0x0a\n        /* \".deps/contracts/IPFSStorage.sol\":1061:1071  temp /= 10 */\n      dup3\n      tag_40\n      swap2\n      swap1\n      tag_41\n      jump\t// in\n    tag_40:\n      swap2\n      pop\n        /* \".deps/contracts/IPFSStorage.sol\":1005:1083  while (temp != 0) {... */\n      jump(tag_36)\n    tag_37:\n        /* \".deps/contracts/IPFSStorage.sol\":1093:1112  bytes memory buffer */\n      0x00\n        /* \".deps/contracts/IPFSStorage.sol\":1125:1131  digits */\n      dup2\n        /* \".deps/contracts/IPFSStorage.sol\":1115:1132  new bytes(digits) */\n      0xffffffffffffffff\n      dup2\n      gt\n      iszero\n      tag_42\n      jumpi\n      tag_43\n      tag_44\n      jump\t// in\n    tag_43:\n    tag_42:\n      mload(0x40)\n      swap1\n      dup1\n      dup3\n      mstore\n      dup1\n      0x1f\n      add\n      not(0x1f)\n      and\n      0x20\n      add\n      dup3\n      add\n      0x40\n      mstore\n      dup1\n      iszero\n      tag_45\n      jumpi\n      dup2\n      0x20\n      add\n      0x01\n      dup3\n      mul\n      dup1\n      calldatasize\n      dup4\n      calldatacopy\n      dup1\n      dup3\n      add\n      swap2\n      pop\n      pop\n      swap1\n      pop\n    tag_45:\n      pop\n        /* \".deps/contracts/IPFSStorage.sol\":1093:1132  bytes memory buffer = new bytes(digits) */\n      swap1\n      pop\n        /* \".deps/contracts/IPFSStorage.sol\":1143:1297  while (value != 0) {... */\n    tag_46:\n        /* \".deps/contracts/IPFSStorage.sol\":1159:1160  0 */\n      0x00\n        /* \".deps/contracts/IPFSStorage.sol\":1150:1155  value */\n      dup6\n        /* \".deps/contracts/IPFSStorage.sol\":1150:1160  value != 0 */\n      eq\n        /* \".deps/contracts/IPFSStorage.sol\":1143:1297  while (value != 0) {... */\n      tag_47\n      jumpi\n        /* \".deps/contracts/IPFSStorage.sol\":1187:1188  1 */\n      0x01\n        /* \".deps/contracts/IPFSStorage.sol\":1177:1188  digits -= 1 */\n      dup3\n      tag_48\n      swap2\n      swap1\n      tag_49\n      jump\t// in\n    tag_48:\n      swap2\n      pop\n        /* \".deps/contracts/IPFSStorage.sol\":1254:1256  10 */\n      0x0a\n        /* \".deps/contracts/IPFSStorage.sol\":1246:1251  value */\n      dup6\n        /* \".deps/contracts/IPFSStorage.sol\":1246:1256  value % 10 */\n      tag_50\n      swap2\n      swap1\n      tag_51\n      jump\t// in\n    tag_50:\n        /* \".deps/contracts/IPFSStorage.sol\":1233:1235  48 */\n      0x30\n        /* \".deps/contracts/IPFSStorage.sol\":1233:1257  48 + uint256(value % 10) */\n      tag_52\n      swap2\n      swap1\n      tag_53\n      jump\t// in\n    tag_52:\n        /* \".deps/contracts/IPFSStorage.sol\":1220:1259  bytes1(uint8(48 + uint256(value % 10))) */\n      0xf8\n      shl\n        /* \".deps/contracts/IPFSStorage.sol\":1203:1209  buffer */\n      dup2\n        /* \".deps/contracts/IPFSStorage.sol\":1210:1216  digits */\n      dup4\n        /* \".deps/contracts/IPFSStorage.sol\":1203:1217  buffer[digits] */\n      dup2\n      mload\n      dup2\n      lt\n      tag_54\n      jumpi\n      tag_55\n      tag_56\n      jump\t// in\n    tag_55:\n    tag_54:\n      0x20\n      add\n      add\n        /* \".deps/contracts/IPFSStorage.sol\":1203:1259  buffer[digits] = bytes1(uint8(48 + uint256(value % 10))) */\n      swap1\n      not(0xffffffffffffffffffffffffffffffffffffffffffffffffffffffffffffff)\n      and\n      swap1\n      dup2\n      0x00\n      byte\n      swap1\n      mstore8\n      pop\n        /* \".deps/contracts/IPFSStorage.sol\":1283:1285  10 */\n      0x0a\n        /* \".deps/contracts/IPFSStorage.sol\":1274:1285  value /= 10 */\n      dup6\n      tag_57\n      swap2\n      swap1\n      tag_41\n      jump\t// in\n    tag_57:\n      swap5\n      pop\n        /* \".deps/contracts/IPFSStorage.sol\":1143:1297  while (value != 0) {... */\n      jump(tag_46)\n    tag_47:\n        /* \".deps/contracts/IPFSStorage.sol\":1321:1327  buffer */\n      dup1\n        /* \".deps/contracts/IPFSStorage.sol\":1307:1328  return string(buffer) */\n      swap4\n      pop\n      pop\n      pop\n      pop\n        /* \".deps/contracts/IPFSStorage.sol\":806:1336  function toString(uint256 value) public pure returns (string memory) {... */\n    tag_34:\n      swap2\n      swap1\n      pop\n      jump\t// out\n        /* \".deps/contracts/IPFSStorage.sol\":1392:1742  function generateIPFSHash(Student memory student) public pure returns (string memory) {... */\n    tag_17:\n        /* \".deps/contracts/IPFSStorage.sol\":1463:1476  string memory */\n      0x60\n        /* \".deps/contracts/IPFSStorage.sol\":1534:1541  student */\n      dup2\n        /* \".deps/contracts/IPFSStorage.sol\":1534:1546  student.name */\n      0x00\n      add\n      mload\n        /* \".deps/contracts/IPFSStorage.sol\":1561:1588  toString(student.studentID) */\n      tag_59\n        /* \".deps/contracts/IPFSStorage.sol\":1570:1577  student */\n      dup4\n        /* \".deps/contracts/IPFSStorage.sol\":1570:1587  student.studentID */\n      0x20\n      add\n      mload\n        /* \".deps/contracts/IPFSStorage.sol\":1561:1569  toString */\n      tag_11\n        /* \".deps/contracts/IPFSStorage.sol\":1561:1588  toString(student.studentID) */\n      jump\t// in\n    tag_59:\n        /* \".deps/contracts/IPFSStorage.sol\":1603:1610  student */\n      dup4\n        /* \".deps/contracts/IPFSStorage.sol\":1603:1616  student.major */\n      0x40\n      add\n      mload\n        /* \".deps/contracts/IPFSStorage.sol\":1631:1652  toString(student.gpa) */\n      tag_60\n        /* \".deps/contracts/IPFSStorage.sol\":1640:1647  student */\n      dup6\n        /* \".deps/contracts/IPFSStorage.sol\":1640:1651  student.gpa */\n      0x60\n      add\n      mload\n        /* \".deps/contracts/IPFSStorage.sol\":1631:1639  toString */\n      tag_11\n        /* \".deps/contracts/IPFSStorage.sol\":1631:1652  toString(student.gpa) */\n      jump\t// in\n    tag_60:\n        /* \".deps/contracts/IPFSStorage.sol\":1667:1674  student */\n      dup6\n        /* \".deps/contracts/IPFSStorage.sol\":1667:1682  student.company */\n      0x80\n      add\n      mload\n        /* \".deps/contracts/IPFSStorage.sol\":1697:1722  toString(student.balance) */\n      tag_61\n        /* \".deps/contracts/IPFSStorage.sol\":1706:1713  student */\n      dup8\n        /* \".deps/contracts/IPFSStorage.sol\":1706:1721  student.balance */\n      0xa0\n      add\n      mload\n        /* \".deps/contracts/IPFSStorage.sol\":1697:1705  toString */\n      tag_11\n        /* \".deps/contracts/IPFSStorage.sol\":1697:1722  toString(student.balance) */\n      jump\t// in\n    tag_61:\n        /* \".deps/contracts/IPFSStorage.sol\":1503:1733  abi.encodePacked(... */\n      add(0x20, mload(0x40))\n      tag_62\n      swap7\n      swap6\n      swap5\n      swap4\n      swap3\n      swap2\n      swap1\n      tag_63\n      jump\t// in\n    tag_62:\n      mload(0x40)\n      0x20\n      dup2\n      dup4\n      sub\n      sub\n      dup2\n      mstore\n      swap1\n      0x40\n      mstore\n        /* \".deps/contracts/IPFSStorage.sol\":1489:1734  return string(abi.encodePacked(... */\n      swap1\n      pop\n        /* \".deps/contracts/IPFSStorage.sol\":1392:1742  function generateIPFSHash(Student memory student) public pure returns (string memory) {... */\n      swap2\n      swap1\n      pop\n      jump\t// out\n        /* \".deps/contracts/IPFSStorage.sol\":1793:2083  function saveIPFSHash(/*address account*/ string memory ipfsHash) public returns (bool) {... */\n    tag_22:\n        /* \".deps/contracts/IPFSStorage.sol\":1875:1879  bool */\n      0x00\n        /* \".deps/contracts/IPFSStorage.sol\":2002:2010  ipfsHash */\n      dup2\n        /* \".deps/contracts/IPFSStorage.sol\":1977:1987  ipfsHashes */\n      0x00\n        /* \".deps/contracts/IPFSStorage.sol\":1977:1999  ipfsHashes[msg.sender] */\n      dup1\n        /* \".deps/contracts/IPFSStorage.sol\":1988:1998  msg.sender */\n      caller\n        /* \".deps/contracts/IPFSStorage.sol\":1977:1999  ipfsHashes[msg.sender] */\n      0xffffffffffffffffffffffffffffffffffffffff\n      and\n      0xffffffffffffffffffffffffffffffffffffffff\n      and\n      dup2\n      mstore\n      0x20\n      add\n      swap1\n      dup2\n      mstore\n      0x20\n      add\n      0x00\n      keccak256\n        /* \".deps/contracts/IPFSStorage.sol\":1977:2010  ipfsHashes[msg.sender] = ipfsHash */\n      swap1\n      dup2\n      tag_65\n      swap2\n      swap1\n      tag_66\n      jump\t// in\n    tag_65:\n      pop\n        /* \".deps/contracts/IPFSStorage.sol\":2071:2075  true */\n      0x01\n        /* \".deps/contracts/IPFSStorage.sol\":2064:2075  return true */\n      swap1\n      pop\n        /* \".deps/contracts/IPFSStorage.sol\":1793:2083  function saveIPFSHash(/*address account*/ string memory ipfsHash) public returns (bool) {... */\n      swap2\n      swap1\n      pop\n      jump\t// out\n        /* \".deps/contracts/IPFSStorage.sol\":2134:2391  function getIPFSHash(address account) public view returns (string memory) {... */\n    tag_28:\n        /* \".deps/contracts/IPFSStorage.sol\":2193:2206  string memory */\n      0x60\n        /* \".deps/contracts/IPFSStorage.sol\":2263:2264  0 */\n      0x00\n        /* \".deps/contracts/IPFSStorage.sol\":2233:2243  ipfsHashes */\n      dup1\n        /* \".deps/contracts/IPFSStorage.sol\":2233:2252  ipfsHashes[account] */\n      0x00\n        /* \".deps/contracts/IPFSStorage.sol\":2244:2251  account */\n      dup5\n        /* \".deps/contracts/IPFSStorage.sol\":2233:2252  ipfsHashes[account] */\n      0xffffffffffffffffffffffffffffffffffffffff\n      and\n      0xffffffffffffffffffffffffffffffffffffffff\n      and\n      dup2\n      mstore\n      0x20\n      add\n      swap1\n      dup2\n      mstore\n      0x20\n      add\n      0x00\n      keccak256\n        /* \".deps/contracts/IPFSStorage.sol\":2227:2260  bytes(ipfsHashes[account]).length */\n      dup1\n      sload\n      tag_68\n      swap1\n      tag_69\n      jump\t// in\n    tag_68:\n      swap1\n      pop\n        /* \".deps/contracts/IPFSStorage.sol\":2227:2264  bytes(ipfsHashes[account]).length > 0 */\n      gt\n        /* \".deps/contracts/IPFSStorage.sol\":2219:2346  require(bytes(ipfsHashes[account]).length > 0, \"IPFS hash not found for the account. Please save IPFSHash about this account.\") */\n      tag_70\n      jumpi\n      mload(0x40)\n      0x08c379a000000000000000000000000000000000000000000000000000000000\n      dup2\n      mstore\n      0x04\n      add\n      tag_71\n      swap1\n      tag_72\n      jump\t// in\n    tag_71:\n      mload(0x40)\n      dup1\n      swap2\n      sub\n      swap1\n      revert\n    tag_70:\n        /* \".deps/contracts/IPFSStorage.sol\":2364:2374  ipfsHashes */\n      0x00\n        /* \".deps/contracts/IPFSStorage.sol\":2364:2383  ipfsHashes[account] */\n      dup1\n        /* \".deps/contracts/IPFSStorage.sol\":2375:2382  account */\n      dup4\n        /* \".deps/contracts/IPFSStorage.sol\":2364:2383  ipfsHashes[account] */\n      0xffffffffffffffffffffffffffffffffffffffff\n      and\n      0xffffffffffffffffffffffffffffffffffffffff\n      and\n      dup2\n      mstore\n      0x20\n      add\n      swap1\n      dup2\n      mstore\n      0x20\n      add\n      0x00\n      keccak256\n        /* \".deps/contracts/IPFSStorage.sol\":2357:2383  return ipfsHashes[account] */\n      dup1\n      sload\n      tag_73\n      swap1\n      tag_69\n      jump\t// in\n    tag_73:\n      dup1\n      0x1f\n      add\n      0x20\n      dup1\n      swap2\n      div\n      mul\n      0x20\n      add\n      mload(0x40)\n      swap1\n      dup2\n      add\n      0x40\n      mstore\n      dup1\n      swap3\n      swap2\n      swap1\n      dup2\n      dup2\n      mstore\n      0x20\n      add\n      dup3\n      dup1\n      sload\n      tag_74\n      swap1\n      tag_69\n      jump\t// in\n    tag_74:\n      dup1\n      iszero\n      tag_75\n      jumpi\n      dup1\n      0x1f\n      lt\n      tag_76\n      jumpi\n      0x0100\n      dup1\n      dup4\n      sload\n      div\n      mul\n      dup4\n      mstore\n      swap2\n      0x20\n      add\n      swap2\n      jump(tag_75)\n    tag_76:\n      dup3\n      add\n      swap2\n      swap1\n      0x00\n      mstore\n      keccak256(0x00, 0x20)\n      swap1\n    tag_77:\n      dup2\n      sload\n      dup2\n      mstore\n      swap1\n      0x01\n      add\n      swap1\n      0x20\n      add\n      dup1\n      dup4\n      gt\n      tag_77\n      jumpi\n      dup3\n      swap1\n      sub\n      0x1f\n      and\n      dup3\n      add\n      swap2\n    tag_75:\n      pop\n      pop\n      pop\n      pop\n      pop\n      swap1\n      pop\n        /* \".deps/contracts/IPFSStorage.sol\":2134:2391  function getIPFSHash(address account) public view returns (string memory) {... */\n      swap2\n      swap1\n      pop\n      jump\t// out\n        /* \".deps/contracts/IPFSStorage.sol\":625:669  mapping(address => string) public ipfsHashes */\n    tag_32:\n      mstore(0x20, 0x00)\n      dup1\n      0x00\n      mstore\n      keccak256(0x00, 0x40)\n      0x00\n      swap2\n      pop\n      swap1\n      pop\n      dup1\n      sload\n      tag_78\n      swap1\n      tag_69\n      jump\t// in\n    tag_78:\n      dup1\n      0x1f\n      add\n      0x20\n      dup1\n      swap2\n      div\n      mul\n      0x20\n      add\n      mload(0x40)\n      swap1\n      dup2\n      add\n      0x40\n      mstore\n      dup1\n      swap3\n      swap2\n      swap1\n      dup2\n      dup2\n      mstore\n      0x20\n      add\n      dup3\n      dup1\n      sload\n      tag_79\n      swap1\n      tag_69\n      jump\t// in\n    tag_79:\n      dup1\n      iszero\n      tag_80\n      jumpi\n      dup1\n      0x1f\n      lt\n      tag_81\n      jumpi\n      0x0100\n      dup1\n      dup4\n      sload\n      div\n      mul\n      dup4\n      mstore\n      swap2\n      0x20\n      add\n      swap2\n      jump(tag_80)\n    tag_81:\n      dup3\n      add\n      swap2\n      swap1\n      0x00\n      mstore\n      keccak256(0x00, 0x20)\n      swap1\n    tag_82:\n      dup2\n      sload\n      dup2\n      mstore\n      swap1\n      0x01\n      add\n      swap1\n      0x20\n      add\n      dup1\n      dup4\n      gt\n      tag_82\n      jumpi\n      dup3\n      swap1\n      sub\n      0x1f\n      and\n      dup3\n      add\n      swap2\n    tag_80:\n      pop\n      pop\n      pop\n      pop\n      pop\n      dup2\n      jump\t// out\n        /* \"#utility.yul\":7:82   */\n    tag_83:\n        /* \"#utility.yul\":40:46   */\n      0x00\n        /* \"#utility.yul\":73:75   */\n      0x40\n        /* \"#utility.yul\":67:76   */\n      mload\n        /* \"#utility.yul\":57:76   */\n      swap1\n      pop\n        /* \"#utility.yul\":7:82   */\n      swap1\n      jump\t// out\n        /* \"#utility.yul\":88:205   */\n    tag_84:\n        /* \"#utility.yul\":197:198   */\n      0x00\n        /* \"#utility.yul\":194:195   */\n      dup1\n        /* \"#utility.yul\":187:199   */\n      revert\n        /* \"#utility.yul\":211:328   */\n    tag_85:\n        /* \"#utility.yul\":320:321   */\n      0x00\n        /* \"#utility.yul\":317:318   */\n      dup1\n        /* \"#utility.yul\":310:322   */\n      revert\n        /* \"#utility.yul\":334:411   */\n    tag_86:\n        /* \"#utility.yul\":371:378   */\n      0x00\n        /* \"#utility.yul\":400:405   */\n      dup2\n        /* \"#utility.yul\":389:405   */\n      swap1\n      pop\n        /* \"#utility.yul\":334:411   */\n      swap2\n      swap1\n      pop\n      jump\t// out\n        /* \"#utility.yul\":417:539   */\n    tag_87:\n        /* \"#utility.yul\":490:514   */\n      tag_139\n        /* \"#utility.yul\":508:513   */\n      dup2\n        /* \"#utility.yul\":490:514   */\n      tag_86\n      jump\t// in\n    tag_139:\n        /* \"#utility.yul\":483:488   */\n      dup2\n        /* \"#utility.yul\":480:515   */\n      eq\n        /* \"#utility.yul\":470:533   */\n      tag_140\n      jumpi\n        /* \"#utility.yul\":529:530   */\n      0x00\n        /* \"#utility.yul\":526:527   */\n      dup1\n        /* \"#utility.yul\":519:531   */\n      revert\n        /* \"#utility.yul\":470:533   */\n    tag_140:\n        /* \"#utility.yul\":417:539   */\n      pop\n      jump\t// out\n        /* \"#utility.yul\":545:684   */\n    tag_88:\n        /* \"#utility.yul\":591:596   */\n      0x00\n        /* \"#utility.yul\":629:635   */\n      dup2\n        /* \"#utility.yul\":616:636   */\n      calldataload\n        /* \"#utility.yul\":607:636   */\n      swap1\n      pop\n        /* \"#utility.yul\":645:678   */\n      tag_142\n        /* \"#utility.yul\":672:677   */\n      dup2\n        /* \"#utility.yul\":645:678   */\n      tag_87\n      jump\t// in\n    tag_142:\n        /* \"#utility.yul\":545:684   */\n      swap3\n      swap2\n      pop\n      pop\n      jump\t// out\n        /* \"#utility.yul\":690:1019   */\n    tag_10:\n        /* \"#utility.yul\":749:755   */\n      0x00\n        /* \"#utility.yul\":798:800   */\n      0x20\n        /* \"#utility.yul\":786:795   */\n      dup3\n        /* \"#utility.yul\":777:784   */\n      dup5\n        /* \"#utility.yul\":773:796   */\n      sub\n        /* \"#utility.yul\":769:801   */\n      slt\n        /* \"#utility.yul\":766:885   */\n      iszero\n      tag_144\n      jumpi\n        /* \"#utility.yul\":804:883   */\n      tag_145\n      tag_84\n      jump\t// in\n    tag_145:\n        /* \"#utility.yul\":766:885   */\n    tag_144:\n        /* \"#utility.yul\":924:925   */\n      0x00\n        /* \"#utility.yul\":949:1002   */\n      tag_146\n        /* \"#utility.yul\":994:1001   */\n      dup5\n        /* \"#utility.yul\":985:991   */\n      dup3\n        /* \"#utility.yul\":974:983   */\n      dup6\n        /* \"#utility.yul\":970:992   */\n      add\n        /* \"#utility.yul\":949:1002   */\n      tag_88\n      jump\t// in\n    tag_146:\n        /* \"#utility.yul\":939:1002   */\n      swap2\n      pop\n        /* \"#utility.yul\":895:1012   */\n      pop\n        /* \"#utility.yul\":690:1019   */\n      swap3\n      swap2\n      pop\n      pop\n      jump\t// out\n        /* \"#utility.yul\":1025:1124   */\n    tag_89:\n        /* \"#utility.yul\":1077:1083   */\n      0x00\n        /* \"#utility.yul\":1111:1116   */\n      dup2\n        /* \"#utility.yul\":1105:1117   */\n      mload\n        /* \"#utility.yul\":1095:1117   */\n      swap1\n      pop\n        /* \"#utility.yul\":1025:1124   */\n      swap2\n      swap1\n      pop\n      jump\t// out\n        /* \"#utility.yul\":1130:1299   */\n    tag_90:\n        /* \"#utility.yul\":1214:1225   */\n      0x00\n        /* \"#utility.yul\":1248:1254   */\n      dup3\n        /* \"#utility.yul\":1243:1246   */\n      dup3\n        /* \"#utility.yul\":1236:1255   */\n      mstore\n        /* \"#utility.yul\":1288:1292   */\n      0x20\n        /* \"#utility.yul\":1283:1286   */\n      dup3\n        /* \"#utility.yul\":1279:1293   */\n      add\n        /* \"#utility.yul\":1264:1293   */\n      swap1\n      pop\n        /* \"#utility.yul\":1130:1299   */\n      swap3\n      swap2\n      pop\n      pop\n      jump\t// out\n        /* \"#utility.yul\":1305:1551   */\n    tag_91:\n        /* \"#utility.yul\":1386:1387   */\n      0x00\n        /* \"#utility.yul\":1396:1509   */\n    tag_150:\n        /* \"#utility.yul\":1410:1416   */\n      dup4\n        /* \"#utility.yul\":1407:1408   */\n      dup2\n        /* \"#utility.yul\":1404:1417   */\n      lt\n        /* \"#utility.yul\":1396:1509   */\n      iszero\n      tag_152\n      jumpi\n        /* \"#utility.yul\":1495:1496   */\n      dup1\n        /* \"#utility.yul\":1490:1493   */\n      dup3\n        /* \"#utility.yul\":1486:1497   */\n      add\n        /* \"#utility.yul\":1480:1498   */\n      mload\n        /* \"#utility.yul\":1476:1477   */\n      dup2\n        /* \"#utility.yul\":1471:1474   */\n      dup5\n        /* \"#utility.yul\":1467:1478   */\n      add\n        /* \"#utility.yul\":1460:1499   */\n      mstore\n        /* \"#utility.yul\":1432:1434   */\n      0x20\n        /* \"#utility.yul\":1429:1430   */\n      dup2\n        /* \"#utility.yul\":1425:1435   */\n      add\n        /* \"#utility.yul\":1420:1435   */\n      swap1\n      pop\n        /* \"#utility.yul\":1396:1509   */\n      jump(tag_150)\n    tag_152:\n        /* \"#utility.yul\":1543:1544   */\n      0x00\n        /* \"#utility.yul\":1534:1540   */\n      dup5\n        /* \"#utility.yul\":1529:1532   */\n      dup5\n        /* \"#utility.yul\":1525:1541   */\n      add\n        /* \"#utility.yul\":1518:1545   */\n      mstore\n        /* \"#utility.yul\":1367:1551   */\n      pop\n        /* \"#utility.yul\":1305:1551   */\n      pop\n      pop\n      pop\n      jump\t// out\n        /* \"#utility.yul\":1557:1659   */\n    tag_92:\n        /* \"#utility.yul\":1598:1604   */\n      0x00\n        /* \"#utility.yul\":1649:1651   */\n      0x1f\n        /* \"#utility.yul\":1645:1652   */\n      not\n        /* \"#utility.yul\":1640:1642   */\n      0x1f\n        /* \"#utility.yul\":1633:1638   */\n      dup4\n        /* \"#utility.yul\":1629:1643   */\n      add\n        /* \"#utility.yul\":1625:1653   */\n      and\n        /* \"#utility.yul\":1615:1653   */\n      swap1\n      pop\n        /* \"#utility.yul\":1557:1659   */\n      swap2\n      swap1\n      pop\n      jump\t// out\n        /* \"#utility.yul\":1665:2042   */\n    tag_93:\n        /* \"#utility.yul\":1753:1756   */\n      0x00\n        /* \"#utility.yul\":1781:1820   */\n      tag_155\n        /* \"#utility.yul\":1814:1819   */\n      dup3\n        /* \"#utility.yul\":1781:1820   */\n      tag_89\n      jump\t// in\n    tag_155:\n        /* \"#utility.yul\":1836:1907   */\n      tag_156\n        /* \"#utility.yul\":1900:1906   */\n      dup2\n        /* \"#utility.yul\":1895:1898   */\n      dup6\n        /* \"#utility.yul\":1836:1907   */\n      tag_90\n      jump\t// in\n    tag_156:\n        /* \"#utility.yul\":1829:1907   */\n      swap4\n      pop\n        /* \"#utility.yul\":1916:1981   */\n      tag_157\n        /* \"#utility.yul\":1974:1980   */\n      dup2\n        /* \"#utility.yul\":1969:1972   */\n      dup6\n        /* \"#utility.yul\":1962:1966   */\n      0x20\n        /* \"#utility.yul\":1955:1960   */\n      dup7\n        /* \"#utility.yul\":1951:1967   */\n      add\n        /* \"#utility.yul\":1916:1981   */\n      tag_91\n      jump\t// in\n    tag_157:\n        /* \"#utility.yul\":2006:2035   */\n      tag_158\n        /* \"#utility.yul\":2028:2034   */\n      dup2\n        /* \"#utility.yul\":2006:2035   */\n      tag_92\n      jump\t// in\n    tag_158:\n        /* \"#utility.yul\":2001:2004   */\n      dup5\n        /* \"#utility.yul\":1997:2036   */\n      add\n        /* \"#utility.yul\":1990:2036   */\n      swap2\n      pop\n        /* \"#utility.yul\":1757:2042   */\n      pop\n        /* \"#utility.yul\":1665:2042   */\n      swap3\n      swap2\n      pop\n      pop\n      jump\t// out\n        /* \"#utility.yul\":2048:2361   */\n    tag_13:\n        /* \"#utility.yul\":2161:2165   */\n      0x00\n        /* \"#utility.yul\":2199:2201   */\n      0x20\n        /* \"#utility.yul\":2188:2197   */\n      dup3\n        /* \"#utility.yul\":2184:2202   */\n      add\n        /* \"#utility.yul\":2176:2202   */\n      swap1\n      pop\n        /* \"#utility.yul\":2248:2257   */\n      dup2\n        /* \"#utility.yul\":2242:2246   */\n      dup2\n        /* \"#utility.yul\":2238:2258   */\n      sub\n        /* \"#utility.yul\":2234:2235   */\n      0x00\n        /* \"#utility.yul\":2223:2232   */\n      dup4\n        /* \"#utility.yul\":2219:2236   */\n      add\n        /* \"#utility.yul\":2212:2259   */\n      mstore\n        /* \"#utility.yul\":2276:2354   */\n      tag_160\n        /* \"#utility.yul\":2349:2353   */\n      dup2\n        /* \"#utility.yul\":2340:2346   */\n      dup5\n        /* \"#utility.yul\":2276:2354   */\n      tag_93\n      jump\t// in\n    tag_160:\n        /* \"#utility.yul\":2268:2354   */\n      swap1\n      pop\n        /* \"#utility.yul\":2048:2361   */\n      swap3\n      swap2\n      pop\n      pop\n      jump\t// out\n        /* \"#utility.yul\":2367:2484   */\n    tag_94:\n        /* \"#utility.yul\":2476:2477   */\n      0x00\n        /* \"#utility.yul\":2473:2474   */\n      dup1\n        /* \"#utility.yul\":2466:2478   */\n      revert\n        /* \"#utility.yul\":2490:2670   */\n    tag_44:\n        /* \"#utility.yul\":2538:2615   */\n      0x4e487b7100000000000000000000000000000000000000000000000000000000\n        /* \"#utility.yul\":2535:2536   */\n      0x00\n        /* \"#utility.yul\":2528:2616   */\n      mstore\n        /* \"#utility.yul\":2635:2639   */\n      0x41\n        /* \"#utility.yul\":2632:2633   */\n      0x04\n        /* \"#utility.yul\":2625:2640   */\n      mstore\n        /* \"#utility.yul\":2659:2663   */\n      0x24\n        /* \"#utility.yul\":2656:2657   */\n      0x00\n        /* \"#utility.yul\":2649:2664   */\n      revert\n        /* \"#utility.yul\":2676:2957   */\n    tag_95:\n        /* \"#utility.yul\":2759:2786   */\n      tag_164\n        /* \"#utility.yul\":2781:2785   */\n      dup3\n        /* \"#utility.yul\":2759:2786   */\n      tag_92\n      jump\t// in\n    tag_164:\n        /* \"#utility.yul\":2751:2757   */\n      dup2\n        /* \"#utility.yul\":2747:2787   */\n      add\n        /* \"#utility.yul\":2889:2895   */\n      dup2\n        /* \"#utility.yul\":2877:2887   */\n      dup2\n        /* \"#utility.yul\":2874:2896   */\n      lt\n        /* \"#utility.yul\":2853:2871   */\n      0xffffffffffffffff\n        /* \"#utility.yul\":2841:2851   */\n      dup3\n        /* \"#utility.yul\":2838:2872   */\n      gt\n        /* \"#utility.yul\":2835:2897   */\n      or\n        /* \"#utility.yul\":2832:2920   */\n      iszero\n      tag_165\n      jumpi\n        /* \"#utility.yul\":2900:2918   */\n      tag_166\n      tag_44\n      jump\t// in\n    tag_166:\n        /* \"#utility.yul\":2832:2920   */\n    tag_165:\n        /* \"#utility.yul\":2940:2950   */\n      dup1\n        /* \"#utility.yul\":2936:2938   */\n      0x40\n        /* \"#utility.yul\":2929:2951   */\n      mstore\n        /* \"#utility.yul\":2719:2957   */\n      pop\n        /* \"#utility.yul\":2676:2957   */\n      pop\n      pop\n      jump\t// out\n        /* \"#utility.yul\":2963:3092   */\n    tag_96:\n        /* \"#utility.yul\":2997:3003   */\n      0x00\n        /* \"#utility.yul\":3024:3044   */\n      tag_168\n      tag_83\n      jump\t// in\n    tag_168:\n        /* \"#utility.yul\":3014:3044   */\n      swap1\n      pop\n        /* \"#utility.yul\":3053:3086   */\n      tag_169\n        /* \"#utility.yul\":3081:3085   */\n      dup3\n        /* \"#utility.yul\":3073:3079   */\n      dup3\n        /* \"#utility.yul\":3053:3086   */\n      tag_95\n      jump\t// in\n    tag_169:\n        /* \"#utility.yul\":2963:3092   */\n      swap2\n      swap1\n      pop\n      jump\t// out\n        /* \"#utility.yul\":3098:3215   */\n    tag_97:\n        /* \"#utility.yul\":3207:3208   */\n      0x00\n        /* \"#utility.yul\":3204:3205   */\n      dup1\n        /* \"#utility.yul\":3197:3209   */\n      revert\n        /* \"#utility.yul\":3221:3338   */\n    tag_98:\n        /* \"#utility.yul\":3330:3331   */\n      0x00\n        /* \"#utility.yul\":3327:3328   */\n      dup1\n        /* \"#utility.yul\":3320:3332   */\n      revert\n        /* \"#utility.yul\":3344:3461   */\n    tag_99:\n        /* \"#utility.yul\":3453:3454   */\n      0x00\n        /* \"#utility.yul\":3450:3451   */\n      dup1\n        /* \"#utility.yul\":3443:3455   */\n      revert\n        /* \"#utility.yul\":3467:3775   */\n    tag_100:\n        /* \"#utility.yul\":3529:3533   */\n      0x00\n        /* \"#utility.yul\":3619:3637   */\n      0xffffffffffffffff\n        /* \"#utility.yul\":3611:3617   */\n      dup3\n        /* \"#utility.yul\":3608:3638   */\n      gt\n        /* \"#utility.yul\":3605:3661   */\n      iszero\n      tag_174\n      jumpi\n        /* \"#utility.yul\":3641:3659   */\n      tag_175\n      tag_44\n      jump\t// in\n    tag_175:\n        /* \"#utility.yul\":3605:3661   */\n    tag_174:\n        /* \"#utility.yul\":3679:3708   */\n      tag_176\n        /* \"#utility.yul\":3701:3707   */\n      dup3\n        /* \"#utility.yul\":3679:3708   */\n      tag_92\n      jump\t// in\n    tag_176:\n        /* \"#utility.yul\":3671:3708   */\n      swap1\n      pop\n        /* \"#utility.yul\":3763:3767   */\n      0x20\n        /* \"#utility.yul\":3757:3761   */\n      dup2\n        /* \"#utility.yul\":3753:3768   */\n      add\n        /* \"#utility.yul\":3745:3768   */\n      swap1\n      pop\n        /* \"#utility.yul\":3467:3775   */\n      swap2\n      swap1\n      pop\n      jump\t// out\n        /* \"#utility.yul\":3781:3927   */\n    tag_101:\n        /* \"#utility.yul\":3878:3884   */\n      dup3\n        /* \"#utility.yul\":3873:3876   */\n      dup2\n        /* \"#utility.yul\":3868:3871   */\n      dup4\n        /* \"#utility.yul\":3855:3885   */\n      calldatacopy\n        /* \"#utility.yul\":3919:3920   */\n      0x00\n        /* \"#utility.yul\":3910:3916   */\n      dup4\n        /* \"#utility.yul\":3905:3908   */\n      dup4\n        /* \"#utility.yul\":3901:3917   */\n      add\n        /* \"#utility.yul\":3894:3921   */\n      mstore\n        /* \"#utility.yul\":3781:3927   */\n      pop\n      pop\n      pop\n      jump\t// out\n        /* \"#utility.yul\":3933:4358   */\n    tag_102:\n        /* \"#utility.yul\":4011:4016   */\n      0x00\n        /* \"#utility.yul\":4036:4102   */\n      tag_179\n        /* \"#utility.yul\":4052:4101   */\n      tag_180\n        /* \"#utility.yul\":4094:4100   */\n      dup5\n        /* \"#utility.yul\":4052:4101   */\n      tag_100\n      jump\t// in\n    tag_180:\n        /* \"#utility.yul\":4036:4102   */\n      tag_96\n      jump\t// in\n    tag_179:\n        /* \"#utility.yul\":4027:4102   */\n      swap1\n      pop\n        /* \"#utility.yul\":4125:4131   */\n      dup3\n        /* \"#utility.yul\":4118:4123   */\n      dup2\n        /* \"#utility.yul\":4111:4132   */\n      mstore\n        /* \"#utility.yul\":4163:4167   */\n      0x20\n        /* \"#utility.yul\":4156:4161   */\n      dup2\n        /* \"#utility.yul\":4152:4168   */\n      add\n        /* \"#utility.yul\":4201:4204   */\n      dup5\n        /* \"#utility.yul\":4192:4198   */\n      dup5\n        /* \"#utility.yul\":4187:4190   */\n      dup5\n        /* \"#utility.yul\":4183:4199   */\n      add\n        /* \"#utility.yul\":4180:4205   */\n      gt\n        /* \"#utility.yul\":4177:4289   */\n      iszero\n      tag_181\n      jumpi\n        /* \"#utility.yul\":4208:4287   */\n      tag_182\n      tag_99\n      jump\t// in\n    tag_182:\n        /* \"#utility.yul\":4177:4289   */\n    tag_181:\n        /* \"#utility.yul\":4298:4352   */\n      tag_183\n        /* \"#utility.yul\":4345:4351   */\n      dup5\n        /* \"#utility.yul\":4340:4343   */\n      dup3\n        /* \"#utility.yul\":4335:4338   */\n      dup6\n        /* \"#utility.yul\":4298:4352   */\n      tag_101\n      jump\t// in\n    tag_183:\n        /* \"#utility.yul\":4017:4358   */\n      pop\n        /* \"#utility.yul\":3933:4358   */\n      swap4\n      swap3\n      pop\n      pop\n      pop\n      jump\t// out\n        /* \"#utility.yul\":4378:4718   */\n    tag_103:\n        /* \"#utility.yul\":4434:4439   */\n      0x00\n        /* \"#utility.yul\":4483:4486   */\n      dup3\n        /* \"#utility.yul\":4476:4480   */\n      0x1f\n        /* \"#utility.yul\":4468:4474   */\n      dup4\n        /* \"#utility.yul\":4464:4481   */\n      add\n        /* \"#utility.yul\":4460:4487   */\n      slt\n        /* \"#utility.yul\":4450:4572   */\n      tag_185\n      jumpi\n        /* \"#utility.yul\":4491:4570   */\n      tag_186\n      tag_98\n      jump\t// in\n    tag_186:\n        /* \"#utility.yul\":4450:4572   */\n    tag_185:\n        /* \"#utility.yul\":4608:4614   */\n      dup2\n        /* \"#utility.yul\":4595:4615   */\n      calldataload\n        /* \"#utility.yul\":4633:4712   */\n      tag_187\n        /* \"#utility.yul\":4708:4711   */\n      dup5\n        /* \"#utility.yul\":4700:4706   */\n      dup3\n        /* \"#utility.yul\":4693:4697   */\n      0x20\n        /* \"#utility.yul\":4685:4691   */\n      dup7\n        /* \"#utility.yul\":4681:4698   */\n      add\n        /* \"#utility.yul\":4633:4712   */\n      tag_102\n      jump\t// in\n    tag_187:\n        /* \"#utility.yul\":4624:4712   */\n      swap2\n      pop\n        /* \"#utility.yul\":4440:4718   */\n      pop\n        /* \"#utility.yul\":4378:4718   */\n      swap3\n      swap2\n      pop\n      pop\n      jump\t// out\n        /* \"#utility.yul\":4758:6497   */\n    tag_104:\n        /* \"#utility.yul\":4830:4835   */\n      0x00\n        /* \"#utility.yul\":4874:4878   */\n      0xc0\n        /* \"#utility.yul\":4862:4871   */\n      dup3\n        /* \"#utility.yul\":4857:4860   */\n      dup5\n        /* \"#utility.yul\":4853:4872   */\n      sub\n        /* \"#utility.yul\":4849:4879   */\n      slt\n        /* \"#utility.yul\":4846:4963   */\n      iszero\n      tag_189\n      jumpi\n        /* \"#utility.yul\":4882:4961   */\n      tag_190\n      tag_94\n      jump\t// in\n    tag_190:\n        /* \"#utility.yul\":4846:4963   */\n    tag_189:\n        /* \"#utility.yul\":4981:5002   */\n      tag_191\n        /* \"#utility.yul\":4997:5001   */\n      0xc0\n        /* \"#utility.yul\":4981:5002   */\n      tag_96\n      jump\t// in\n    tag_191:\n        /* \"#utility.yul\":4972:5002   */\n      swap1\n      pop\n        /* \"#utility.yul\":5089:5090   */\n      0x00\n        /* \"#utility.yul\":5078:5087   */\n      dup3\n        /* \"#utility.yul\":5074:5091   */\n      add\n        /* \"#utility.yul\":5061:5092   */\n      calldataload\n        /* \"#utility.yul\":5119:5137   */\n      0xffffffffffffffff\n        /* \"#utility.yul\":5111:5117   */\n      dup2\n        /* \"#utility.yul\":5108:5138   */\n      gt\n        /* \"#utility.yul\":5105:5222   */\n      iszero\n      tag_192\n      jumpi\n        /* \"#utility.yul\":5141:5220   */\n      tag_193\n      tag_97\n      jump\t// in\n    tag_193:\n        /* \"#utility.yul\":5105:5222   */\n    tag_192:\n        /* \"#utility.yul\":5261:5320   */\n      tag_194\n        /* \"#utility.yul\":5316:5319   */\n      dup5\n        /* \"#utility.yul\":5307:5313   */\n      dup3\n        /* \"#utility.yul\":5296:5305   */\n      dup6\n        /* \"#utility.yul\":5292:5314   */\n      add\n        /* \"#utility.yul\":5261:5320   */\n      tag_103\n      jump\t// in\n    tag_194:\n        /* \"#utility.yul\":5254:5258   */\n      0x00\n        /* \"#utility.yul\":5247:5252   */\n      dup4\n        /* \"#utility.yul\":5243:5259   */\n      add\n        /* \"#utility.yul\":5236:5321   */\n      mstore\n        /* \"#utility.yul\":5012:5332   */\n      pop\n        /* \"#utility.yul\":5396:5398   */\n      0x20\n        /* \"#utility.yul\":5437:5486   */\n      tag_195\n        /* \"#utility.yul\":5482:5485   */\n      dup5\n        /* \"#utility.yul\":5473:5479   */\n      dup3\n        /* \"#utility.yul\":5462:5471   */\n      dup6\n        /* \"#utility.yul\":5458:5480   */\n      add\n        /* \"#utility.yul\":5437:5486   */\n      tag_88\n      jump\t// in\n    tag_195:\n        /* \"#utility.yul\":5430:5434   */\n      0x20\n        /* \"#utility.yul\":5423:5428   */\n      dup4\n        /* \"#utility.yul\":5419:5435   */\n      add\n        /* \"#utility.yul\":5412:5487   */\n      mstore\n        /* \"#utility.yul\":5342:5498   */\n      pop\n        /* \"#utility.yul\":5586:5588   */\n      0x40\n        /* \"#utility.yul\":5575:5584   */\n      dup3\n        /* \"#utility.yul\":5571:5589   */\n      add\n        /* \"#utility.yul\":5558:5590   */\n      calldataload\n        /* \"#utility.yul\":5617:5635   */\n      0xffffffffffffffff\n        /* \"#utility.yul\":5609:5615   */\n      dup2\n        /* \"#utility.yul\":5606:5636   */\n      gt\n        /* \"#utility.yul\":5603:5720   */\n      iszero\n      tag_196\n      jumpi\n        /* \"#utility.yul\":5639:5718   */\n      tag_197\n      tag_97\n      jump\t// in\n    tag_197:\n        /* \"#utility.yul\":5603:5720   */\n    tag_196:\n        /* \"#utility.yul\":5759:5818   */\n      tag_198\n        /* \"#utility.yul\":5814:5817   */\n      dup5\n        /* \"#utility.yul\":5805:5811   */\n      dup3\n        /* \"#utility.yul\":5794:5803   */\n      dup6\n        /* \"#utility.yul\":5790:5812   */\n      add\n        /* \"#utility.yul\":5759:5818   */\n      tag_103\n      jump\t// in\n    tag_198:\n        /* \"#utility.yul\":5752:5756   */\n      0x40\n        /* \"#utility.yul\":5745:5750   */\n      dup4\n        /* \"#utility.yul\":5741:5757   */\n      add\n        /* \"#utility.yul\":5734:5819   */\n      mstore\n        /* \"#utility.yul\":5508:5830   */\n      pop\n        /* \"#utility.yul\":5888:5890   */\n      0x60\n        /* \"#utility.yul\":5929:5978   */\n      tag_199\n        /* \"#utility.yul\":5974:5977   */\n      dup5\n        /* \"#utility.yul\":5965:5971   */\n      dup3\n        /* \"#utility.yul\":5954:5963   */\n      dup6\n        /* \"#utility.yul\":5950:5972   */\n      add\n        /* \"#utility.yul\":5929:5978   */\n      tag_88\n      jump\t// in\n    tag_199:\n        /* \"#utility.yul\":5922:5926   */\n      0x60\n        /* \"#utility.yul\":5915:5920   */\n      dup4\n        /* \"#utility.yul\":5911:5927   */\n      add\n        /* \"#utility.yul\":5904:5979   */\n      mstore\n        /* \"#utility.yul\":5840:5990   */\n      pop\n        /* \"#utility.yul\":6080:6083   */\n      0x80\n        /* \"#utility.yul\":6069:6078   */\n      dup3\n        /* \"#utility.yul\":6065:6084   */\n      add\n        /* \"#utility.yul\":6052:6085   */\n      calldataload\n        /* \"#utility.yul\":6112:6130   */\n      0xffffffffffffffff\n        /* \"#utility.yul\":6104:6110   */\n      dup2\n        /* \"#utility.yul\":6101:6131   */\n      gt\n        /* \"#utility.yul\":6098:6215   */\n      iszero\n      tag_200\n      jumpi\n        /* \"#utility.yul\":6134:6213   */\n      tag_201\n      tag_97\n      jump\t// in\n    tag_201:\n        /* \"#utility.yul\":6098:6215   */\n    tag_200:\n        /* \"#utility.yul\":6254:6313   */\n      tag_202\n        /* \"#utility.yul\":6309:6312   */\n      dup5\n        /* \"#utility.yul\":6300:6306   */\n      dup3\n        /* \"#utility.yul\":6289:6298   */\n      dup6\n        /* \"#utility.yul\":6285:6307   */\n      add\n        /* \"#utility.yul\":6254:6313   */\n      tag_103\n      jump\t// in\n    tag_202:\n        /* \"#utility.yul\":6247:6251   */\n      0x80\n        /* \"#utility.yul\":6240:6245   */\n      dup4\n        /* \"#utility.yul\":6236:6252   */\n      add\n        /* \"#utility.yul\":6229:6314   */\n      mstore\n        /* \"#utility.yul\":6000:6325   */\n      pop\n        /* \"#utility.yul\":6387:6390   */\n      0xa0\n        /* \"#utility.yul\":6429:6478   */\n      tag_203\n        /* \"#utility.yul\":6474:6477   */\n      dup5\n        /* \"#utility.yul\":6465:6471   */\n      dup3\n        /* \"#utility.yul\":6454:6463   */\n      dup6\n        /* \"#utility.yul\":6450:6472   */\n      add\n        /* \"#utility.yul\":6429:6478   */\n      tag_88\n      jump\t// in\n    tag_203:\n        /* \"#utility.yul\":6422:6426   */\n      0xa0\n        /* \"#utility.yul\":6415:6420   */\n      dup4\n        /* \"#utility.yul\":6411:6427   */\n      add\n        /* \"#utility.yul\":6404:6479   */\n      mstore\n        /* \"#utility.yul\":6335:6490   */\n      pop\n        /* \"#utility.yul\":4758:6497   */\n      swap3\n      swap2\n      pop\n      pop\n      jump\t// out\n        /* \"#utility.yul\":6503:7038   */\n    tag_16:\n        /* \"#utility.yul\":6585:6591   */\n      0x00\n        /* \"#utility.yul\":6634:6636   */\n      0x20\n        /* \"#utility.yul\":6622:6631   */\n      dup3\n        /* \"#utility.yul\":6613:6620   */\n      dup5\n        /* \"#utility.yul\":6609:6632   */\n      sub\n        /* \"#utility.yul\":6605:6637   */\n      slt\n        /* \"#utility.yul\":6602:6721   */\n      iszero\n      tag_205\n      jumpi\n        /* \"#utility.yul\":6640:6719   */\n      tag_206\n      tag_84\n      jump\t// in\n    tag_206:\n        /* \"#utility.yul\":6602:6721   */\n    tag_205:\n        /* \"#utility.yul\":6788:6789   */\n      0x00\n        /* \"#utility.yul\":6777:6786   */\n      dup3\n        /* \"#utility.yul\":6773:6790   */\n      add\n        /* \"#utility.yul\":6760:6791   */\n      calldataload\n        /* \"#utility.yul\":6818:6836   */\n      0xffffffffffffffff\n        /* \"#utility.yul\":6810:6816   */\n      dup2\n        /* \"#utility.yul\":6807:6837   */\n      gt\n        /* \"#utility.yul\":6804:6921   */\n      iszero\n      tag_207\n      jumpi\n        /* \"#utility.yul\":6840:6919   */\n      tag_208\n      tag_85\n      jump\t// in\n    tag_208:\n        /* \"#utility.yul\":6804:6921   */\n    tag_207:\n        /* \"#utility.yul\":6945:7021   */\n      tag_209\n        /* \"#utility.yul\":7013:7020   */\n      dup5\n        /* \"#utility.yul\":7004:7010   */\n      dup3\n        /* \"#utility.yul\":6993:7002   */\n      dup6\n        /* \"#utility.yul\":6989:7011   */\n      add\n        /* \"#utility.yul\":6945:7021   */\n      tag_104\n      jump\t// in\n    tag_209:\n        /* \"#utility.yul\":6935:7021   */\n      swap2\n      pop\n        /* \"#utility.yul\":6731:7031   */\n      pop\n        /* \"#utility.yul\":6503:7038   */\n      swap3\n      swap2\n      pop\n      pop\n      jump\t// out\n        /* \"#utility.yul\":7044:7553   */\n    tag_21:\n        /* \"#utility.yul\":7113:7119   */\n      0x00\n        /* \"#utility.yul\":7162:7164   */\n      0x20\n        /* \"#utility.yul\":7150:7159   */\n      dup3\n        /* \"#utility.yul\":7141:7148   */\n      dup5\n        /* \"#utility.yul\":7137:7160   */\n      sub\n        /* \"#utility.yul\":7133:7165   */\n      slt\n        /* \"#utility.yul\":7130:7249   */\n      iszero\n      tag_211\n      jumpi\n        /* \"#utility.yul\":7168:7247   */\n      tag_212\n      tag_84\n      jump\t// in\n    tag_212:\n        /* \"#utility.yul\":7130:7249   */\n    tag_211:\n        /* \"#utility.yul\":7316:7317   */\n      0x00\n        /* \"#utility.yul\":7305:7314   */\n      dup3\n        /* \"#utility.yul\":7301:7318   */\n      add\n        /* \"#utility.yul\":7288:7319   */\n      calldataload\n        /* \"#utility.yul\":7346:7364   */\n      0xffffffffffffffff\n        /* \"#utility.yul\":7338:7344   */\n      dup2\n        /* \"#utility.yul\":7335:7365   */\n      gt\n        /* \"#utility.yul\":7332:7449   */\n      iszero\n      tag_213\n      jumpi\n        /* \"#utility.yul\":7368:7447   */\n      tag_214\n      tag_85\n      jump\t// in\n    tag_214:\n        /* \"#utility.yul\":7332:7449   */\n    tag_213:\n        /* \"#utility.yul\":7473:7536   */\n      tag_215\n        /* \"#utility.yul\":7528:7535   */\n      dup5\n        /* \"#utility.yul\":7519:7525   */\n      dup3\n        /* \"#utility.yul\":7508:7517   */\n      dup6\n        /* \"#utility.yul\":7504:7526   */\n      add\n        /* \"#utility.yul\":7473:7536   */\n      tag_103\n      jump\t// in\n    tag_215:\n        /* \"#utility.yul\":7463:7536   */\n      swap2\n      pop\n        /* \"#utility.yul\":7259:7546   */\n      pop\n        /* \"#utility.yul\":7044:7553   */\n      swap3\n      swap2\n      pop\n      pop\n      jump\t// out\n        /* \"#utility.yul\":7559:7649   */\n    tag_105:\n        /* \"#utility.yul\":7593:7600   */\n      0x00\n        /* \"#utility.yul\":7636:7641   */\n      dup2\n        /* \"#utility.yul\":7629:7642   */\n      iszero\n        /* \"#utility.yul\":7622:7643   */\n      iszero\n        /* \"#utility.yul\":7611:7643   */\n      swap1\n      pop\n        /* \"#utility.yul\":7559:7649   */\n      swap2\n      swap1\n      pop\n      jump\t// out\n        /* \"#utility.yul\":7655:7764   */\n    tag_106:\n        /* \"#utility.yul\":7736:7757   */\n      tag_218\n        /* \"#utility.yul\":7751:7756   */\n      dup2\n        /* \"#utility.yul\":7736:7757   */\n      tag_105\n      jump\t// in\n    tag_218:\n        /* \"#utility.yul\":7731:7734   */\n      dup3\n        /* \"#utility.yul\":7724:7758   */\n      mstore\n        /* \"#utility.yul\":7655:7764   */\n      pop\n      pop\n      jump\t// out\n        /* \"#utility.yul\":7770:7980   */\n    tag_24:\n        /* \"#utility.yul\":7857:7861   */\n      0x00\n        /* \"#utility.yul\":7895:7897   */\n      0x20\n        /* \"#utility.yul\":7884:7893   */\n      dup3\n        /* \"#utility.yul\":7880:7898   */\n      add\n        /* \"#utility.yul\":7872:7898   */\n      swap1\n      pop\n        /* \"#utility.yul\":7908:7973   */\n      tag_220\n        /* \"#utility.yul\":7970:7971   */\n      0x00\n        /* \"#utility.yul\":7959:7968   */\n      dup4\n        /* \"#utility.yul\":7955:7972   */\n      add\n        /* \"#utility.yul\":7946:7952   */\n      dup5\n        /* \"#utility.yul\":7908:7973   */\n      tag_106\n      jump\t// in\n    tag_220:\n        /* \"#utility.yul\":7770:7980   */\n      swap3\n      swap2\n      pop\n      pop\n      jump\t// out\n        /* \"#utility.yul\":7986:8112   */\n    tag_107:\n        /* \"#utility.yul\":8023:8030   */\n      0x00\n        /* \"#utility.yul\":8063:8105   */\n      0xffffffffffffffffffffffffffffffffffffffff\n        /* \"#utility.yul\":8056:8061   */\n      dup3\n        /* \"#utility.yul\":8052:8106   */\n      and\n        /* \"#utility.yul\":8041:8106   */\n      swap1\n      pop\n        /* \"#utility.yul\":7986:8112   */\n      swap2\n      swap1\n      pop\n      jump\t// out\n        /* \"#utility.yul\":8118:8214   */\n    tag_108:\n        /* \"#utility.yul\":8155:8162   */\n      0x00\n        /* \"#utility.yul\":8184:8208   */\n      tag_223\n        /* \"#utility.yul\":8202:8207   */\n      dup3\n        /* \"#utility.yul\":8184:8208   */\n      tag_107\n      jump\t// in\n    tag_223:\n        /* \"#utility.yul\":8173:8208   */\n      swap1\n      pop\n        /* \"#utility.yul\":8118:8214   */\n      swap2\n      swap1\n      pop\n      jump\t// out\n        /* \"#utility.yul\":8220:8342   */\n    tag_109:\n        /* \"#utility.yul\":8293:8317   */\n      tag_225\n        /* \"#utility.yul\":8311:8316   */\n      dup2\n        /* \"#utility.yul\":8293:8317   */\n      tag_108\n      jump\t// in\n    tag_225:\n        /* \"#utility.yul\":8286:8291   */\n      dup2\n        /* \"#utility.yul\":8283:8318   */\n      eq\n        /* \"#utility.yul\":8273:8336   */\n      tag_226\n      jumpi\n        /* \"#utility.yul\":8332:8333   */\n      0x00\n        /* \"#utility.yul\":8329:8330   */\n      dup1\n        /* \"#utility.yul\":8322:8334   */\n      revert\n        /* \"#utility.yul\":8273:8336   */\n    tag_226:\n        /* \"#utility.yul\":8220:8342   */\n      pop\n      jump\t// out\n        /* \"#utility.yul\":8348:8487   */\n    tag_110:\n        /* \"#utility.yul\":8394:8399   */\n      0x00\n        /* \"#utility.yul\":8432:8438   */\n      dup2\n        /* \"#utility.yul\":8419:8439   */\n      calldataload\n        /* \"#utility.yul\":8410:8439   */\n      swap1\n      pop\n        /* \"#utility.yul\":8448:8481   */\n      tag_228\n        /* \"#utility.yul\":8475:8480   */\n      dup2\n        /* \"#utility.yul\":8448:8481   */\n      tag_109\n      jump\t// in\n    tag_228:\n        /* \"#utility.yul\":8348:8487   */\n      swap3\n      swap2\n      pop\n      pop\n      jump\t// out\n        /* \"#utility.yul\":8493:8822   */\n    tag_27:\n        /* \"#utility.yul\":8552:8558   */\n      0x00\n        /* \"#utility.yul\":8601:8603   */\n      0x20\n        /* \"#utility.yul\":8589:8598   */\n      dup3\n        /* \"#utility.yul\":8580:8587   */\n      dup5\n        /* \"#utility.yul\":8576:8599   */\n      sub\n        /* \"#utility.yul\":8572:8604   */\n      slt\n        /* \"#utility.yul\":8569:8688   */\n      iszero\n      tag_230\n      jumpi\n        /* \"#utility.yul\":8607:8686   */\n      tag_231\n      tag_84\n      jump\t// in\n    tag_231:\n        /* \"#utility.yul\":8569:8688   */\n    tag_230:\n        /* \"#utility.yul\":8727:8728   */\n      0x00\n        /* \"#utility.yul\":8752:8805   */\n      tag_232\n        /* \"#utility.yul\":8797:8804   */\n      dup5\n        /* \"#utility.yul\":8788:8794   */\n      dup3\n        /* \"#utility.yul\":8777:8786   */\n      dup6\n        /* \"#utility.yul\":8773:8795   */\n      add\n        /* \"#utility.yul\":8752:8805   */\n      tag_110\n      jump\t// in\n    tag_232:\n        /* \"#utility.yul\":8742:8805   */\n      swap2\n      pop\n        /* \"#utility.yul\":8698:8815   */\n      pop\n        /* \"#utility.yul\":8493:8822   */\n      swap3\n      swap2\n      pop\n      pop\n      jump\t// out\n        /* \"#utility.yul\":8828:9008   */\n    tag_111:\n        /* \"#utility.yul\":8876:8953   */\n      0x4e487b7100000000000000000000000000000000000000000000000000000000\n        /* \"#utility.yul\":8873:8874   */\n      0x00\n        /* \"#utility.yul\":8866:8954   */\n      mstore\n        /* \"#utility.yul\":8973:8977   */\n      0x11\n        /* \"#utility.yul\":8970:8971   */\n      0x04\n        /* \"#utility.yul\":8963:8978   */\n      mstore\n        /* \"#utility.yul\":8997:9001   */\n      0x24\n        /* \"#utility.yul\":8994:8995   */\n      0x00\n        /* \"#utility.yul\":8987:9002   */\n      revert\n        /* \"#utility.yul\":9014:9247   */\n    tag_39:\n        /* \"#utility.yul\":9053:9056   */\n      0x00\n        /* \"#utility.yul\":9076:9100   */\n      tag_235\n        /* \"#utility.yul\":9094:9099   */\n      dup3\n        /* \"#utility.yul\":9076:9100   */\n      tag_86\n      jump\t// in\n    tag_235:\n        /* \"#utility.yul\":9067:9100   */\n      swap2\n      pop\n        /* \"#utility.yul\":9122:9188   */\n      0xffffffffffffffffffffffffffffffffffffffffffffffffffffffffffffffff\n        /* \"#utility.yul\":9115:9120   */\n      dup3\n        /* \"#utility.yul\":9112:9189   */\n      sub\n        /* \"#utility.yul\":9109:9212   */\n      tag_236\n      jumpi\n        /* \"#utility.yul\":9192:9210   */\n      tag_237\n      tag_111\n      jump\t// in\n    tag_237:\n        /* \"#utility.yul\":9109:9212   */\n    tag_236:\n        /* \"#utility.yul\":9239:9240   */\n      0x01\n        /* \"#utility.yul\":9232:9237   */\n      dup3\n        /* \"#utility.yul\":9228:9241   */\n      add\n        /* \"#utility.yul\":9221:9241   */\n      swap1\n      pop\n        /* \"#utility.yul\":9014:9247   */\n      swap2\n      swap1\n      pop\n      jump\t// out\n        /* \"#utility.yul\":9253:9433   */\n    tag_112:\n        /* \"#utility.yul\":9301:9378   */\n      0x4e487b7100000000000000000000000000000000000000000000000000000000\n        /* \"#utility.yul\":9298:9299   */\n      0x00\n        /* \"#utility.yul\":9291:9379   */\n      mstore\n        /* \"#utility.yul\":9398:9402   */\n      0x12\n        /* \"#utility.yul\":9395:9396   */\n      0x04\n        /* \"#utility.yul\":9388:9403   */\n      mstore\n        /* \"#utility.yul\":9422:9426   */\n      0x24\n        /* \"#utility.yul\":9419:9420   */\n      0x00\n        /* \"#utility.yul\":9412:9427   */\n      revert\n        /* \"#utility.yul\":9439:9624   */\n    tag_41:\n        /* \"#utility.yul\":9479:9480   */\n      0x00\n        /* \"#utility.yul\":9496:9516   */\n      tag_240\n        /* \"#utility.yul\":9514:9515   */\n      dup3\n        /* \"#utility.yul\":9496:9516   */\n      tag_86\n      jump\t// in\n    tag_240:\n        /* \"#utility.yul\":9491:9516   */\n      swap2\n      pop\n        /* \"#utility.yul\":9530:9550   */\n      tag_241\n        /* \"#utility.yul\":9548:9549   */\n      dup4\n        /* \"#utility.yul\":9530:9550   */\n      tag_86\n      jump\t// in\n    tag_241:\n        /* \"#utility.yul\":9525:9550   */\n      swap3\n      pop\n        /* \"#utility.yul\":9569:9570   */\n      dup3\n        /* \"#utility.yul\":9559:9594   */\n      tag_242\n      jumpi\n        /* \"#utility.yul\":9574:9592   */\n      tag_243\n      tag_112\n      jump\t// in\n    tag_243:\n        /* \"#utility.yul\":9559:9594   */\n    tag_242:\n        /* \"#utility.yul\":9616:9617   */\n      dup3\n        /* \"#utility.yul\":9613:9614   */\n      dup3\n        /* \"#utility.yul\":9609:9618   */\n      div\n        /* \"#utility.yul\":9604:9618   */\n      swap1\n      pop\n        /* \"#utility.yul\":9439:9624   */\n      swap3\n      swap2\n      pop\n      pop\n      jump\t// out\n        /* \"#utility.yul\":9630:9824   */\n    tag_49:\n        /* \"#utility.yul\":9670:9674   */\n      0x00\n        /* \"#utility.yul\":9690:9710   */\n      tag_245\n        /* \"#utility.yul\":9708:9709   */\n      dup3\n        /* \"#utility.yul\":9690:9710   */\n      tag_86\n      jump\t// in\n    tag_245:\n        /* \"#utility.yul\":9685:9710   */\n      swap2\n      pop\n        /* \"#utility.yul\":9724:9744   */\n      tag_246\n        /* \"#utility.yul\":9742:9743   */\n      dup4\n        /* \"#utility.yul\":9724:9744   */\n      tag_86\n      jump\t// in\n    tag_246:\n        /* \"#utility.yul\":9719:9744   */\n      swap3\n      pop\n        /* \"#utility.yul\":9768:9769   */\n      dup3\n        /* \"#utility.yul\":9765:9766   */\n      dup3\n        /* \"#utility.yul\":9761:9770   */\n      sub\n        /* \"#utility.yul\":9753:9770   */\n      swap1\n      pop\n        /* \"#utility.yul\":9792:9793   */\n      dup2\n        /* \"#utility.yul\":9786:9790   */\n      dup2\n        /* \"#utility.yul\":9783:9794   */\n      gt\n        /* \"#utility.yul\":9780:9817   */\n      iszero\n      tag_247\n      jumpi\n        /* \"#utility.yul\":9797:9815   */\n      tag_248\n      tag_111\n      jump\t// in\n    tag_248:\n        /* \"#utility.yul\":9780:9817   */\n    tag_247:\n        /* \"#utility.yul\":9630:9824   */\n      swap3\n      swap2\n      pop\n      pop\n      jump\t// out\n        /* \"#utility.yul\":9830:10006   */\n    tag_51:\n        /* \"#utility.yul\":9862:9863   */\n      0x00\n        /* \"#utility.yul\":9879:9899   */\n      tag_250\n        /* \"#utility.yul\":9897:9898   */\n      dup3\n        /* \"#utility.yul\":9879:9899   */\n      tag_86\n      jump\t// in\n    tag_250:\n        /* \"#utility.yul\":9874:9899   */\n      swap2\n      pop\n        /* \"#utility.yul\":9913:9933   */\n      tag_251\n        /* \"#utility.yul\":9931:9932   */\n      dup4\n        /* \"#utility.yul\":9913:9933   */\n      tag_86\n      jump\t// in\n    tag_251:\n        /* \"#utility.yul\":9908:9933   */\n      swap3\n      pop\n        /* \"#utility.yul\":9952:9953   */\n      dup3\n        /* \"#utility.yul\":9942:9977   */\n      tag_252\n      jumpi\n        /* \"#utility.yul\":9957:9975   */\n      tag_253\n      tag_112\n      jump\t// in\n    tag_253:\n        /* \"#utility.yul\":9942:9977   */\n    tag_252:\n        /* \"#utility.yul\":9998:9999   */\n      dup3\n        /* \"#utility.yul\":9995:9996   */\n      dup3\n        /* \"#utility.yul\":9991:10000   */\n      mod\n        /* \"#utility.yul\":9986:10000   */\n      swap1\n      pop\n        /* \"#utility.yul\":9830:10006   */\n      swap3\n      swap2\n      pop\n      pop\n      jump\t// out\n        /* \"#utility.yul\":10012:10203   */\n    tag_53:\n        /* \"#utility.yul\":10052:10055   */\n      0x00\n        /* \"#utility.yul\":10071:10091   */\n      tag_255\n        /* \"#utility.yul\":10089:10090   */\n      dup3\n        /* \"#utility.yul\":10071:10091   */\n      tag_86\n      jump\t// in\n    tag_255:\n        /* \"#utility.yul\":10066:10091   */\n      swap2\n      pop\n        /* \"#utility.yul\":10105:10125   */\n      tag_256\n        /* \"#utility.yul\":10123:10124   */\n      dup4\n        /* \"#utility.yul\":10105:10125   */\n      tag_86\n      jump\t// in\n    tag_256:\n        /* \"#utility.yul\":10100:10125   */\n      swap3\n      pop\n        /* \"#utility.yul\":10148:10149   */\n      dup3\n        /* \"#utility.yul\":10145:10146   */\n      dup3\n        /* \"#utility.yul\":10141:10150   */\n      add\n        /* \"#utility.yul\":10134:10150   */\n      swap1\n      pop\n        /* \"#utility.yul\":10169:10172   */\n      dup1\n        /* \"#utility.yul\":10166:10167   */\n      dup3\n        /* \"#utility.yul\":10163:10173   */\n      gt\n        /* \"#utility.yul\":10160:10196   */\n      iszero\n      tag_257\n      jumpi\n        /* \"#utility.yul\":10176:10194   */\n      tag_258\n      tag_111\n      jump\t// in\n    tag_258:\n        /* \"#utility.yul\":10160:10196   */\n    tag_257:\n        /* \"#utility.yul\":10012:10203   */\n      swap3\n      swap2\n      pop\n      pop\n      jump\t// out\n        /* \"#utility.yul\":10209:10389   */\n    tag_56:\n        /* \"#utility.yul\":10257:10334   */\n      0x4e487b7100000000000000000000000000000000000000000000000000000000\n        /* \"#utility.yul\":10254:10255   */\n      0x00\n        /* \"#utility.yul\":10247:10335   */\n      mstore\n        /* \"#utility.yul\":10354:10358   */\n      0x32\n        /* \"#utility.yul\":10351:10352   */\n      0x04\n        /* \"#utility.yul\":10344:10359   */\n      mstore\n        /* \"#utility.yul\":10378:10382   */\n      0x24\n        /* \"#utility.yul\":10375:10376   */\n      0x00\n        /* \"#utility.yul\":10368:10383   */\n      revert\n        /* \"#utility.yul\":10395:10543   */\n    tag_113:\n        /* \"#utility.yul\":10497:10508   */\n      0x00\n        /* \"#utility.yul\":10534:10537   */\n      dup2\n        /* \"#utility.yul\":10519:10537   */\n      swap1\n      pop\n        /* \"#utility.yul\":10395:10543   */\n      swap3\n      swap2\n      pop\n      pop\n      jump\t// out\n        /* \"#utility.yul\":10549:10939   */\n    tag_114:\n        /* \"#utility.yul\":10655:10658   */\n      0x00\n        /* \"#utility.yul\":10683:10722   */\n      tag_262\n        /* \"#utility.yul\":10716:10721   */\n      dup3\n        /* \"#utility.yul\":10683:10722   */\n      tag_89\n      jump\t// in\n    tag_262:\n        /* \"#utility.yul\":10738:10827   */\n      tag_263\n        /* \"#utility.yul\":10820:10826   */\n      dup2\n        /* \"#utility.yul\":10815:10818   */\n      dup6\n        /* \"#utility.yul\":10738:10827   */\n      tag_113\n      jump\t// in\n    tag_263:\n        /* \"#utility.yul\":10731:10827   */\n      swap4\n      pop\n        /* \"#utility.yul\":10836:10901   */\n      tag_264\n        /* \"#utility.yul\":10894:10900   */\n      dup2\n        /* \"#utility.yul\":10889:10892   */\n      dup6\n        /* \"#utility.yul\":10882:10886   */\n      0x20\n        /* \"#utility.yul\":10875:10880   */\n      dup7\n        /* \"#utility.yul\":10871:10887   */\n      add\n        /* \"#utility.yul\":10836:10901   */\n      tag_91\n      jump\t// in\n    tag_264:\n        /* \"#utility.yul\":10926:10932   */\n      dup1\n        /* \"#utility.yul\":10921:10924   */\n      dup5\n        /* \"#utility.yul\":10917:10933   */\n      add\n        /* \"#utility.yul\":10910:10933   */\n      swap2\n      pop\n        /* \"#utility.yul\":10659:10939   */\n      pop\n        /* \"#utility.yul\":10549:10939   */\n      swap3\n      swap2\n      pop\n      pop\n      jump\t// out\n        /* \"#utility.yul\":10945:12020   */\n    tag_63:\n        /* \"#utility.yul\":11317:11320   */\n      0x00\n        /* \"#utility.yul\":11339:11434   */\n      tag_266\n        /* \"#utility.yul\":11430:11433   */\n      dup3\n        /* \"#utility.yul\":11421:11427   */\n      dup10\n        /* \"#utility.yul\":11339:11434   */\n      tag_114\n      jump\t// in\n    tag_266:\n        /* \"#utility.yul\":11332:11434   */\n      swap2\n      pop\n        /* \"#utility.yul\":11451:11546   */\n      tag_267\n        /* \"#utility.yul\":11542:11545   */\n      dup3\n        /* \"#utility.yul\":11533:11539   */\n      dup9\n        /* \"#utility.yul\":11451:11546   */\n      tag_114\n      jump\t// in\n    tag_267:\n        /* \"#utility.yul\":11444:11546   */\n      swap2\n      pop\n        /* \"#utility.yul\":11563:11658   */\n      tag_268\n        /* \"#utility.yul\":11654:11657   */\n      dup3\n        /* \"#utility.yul\":11645:11651   */\n      dup8\n        /* \"#utility.yul\":11563:11658   */\n      tag_114\n      jump\t// in\n    tag_268:\n        /* \"#utility.yul\":11556:11658   */\n      swap2\n      pop\n        /* \"#utility.yul\":11675:11770   */\n      tag_269\n        /* \"#utility.yul\":11766:11769   */\n      dup3\n        /* \"#utility.yul\":11757:11763   */\n      dup7\n        /* \"#utility.yul\":11675:11770   */\n      tag_114\n      jump\t// in\n    tag_269:\n        /* \"#utility.yul\":11668:11770   */\n      swap2\n      pop\n        /* \"#utility.yul\":11787:11882   */\n      tag_270\n        /* \"#utility.yul\":11878:11881   */\n      dup3\n        /* \"#utility.yul\":11869:11875   */\n      dup6\n        /* \"#utility.yul\":11787:11882   */\n      tag_114\n      jump\t// in\n    tag_270:\n        /* \"#utility.yul\":11780:11882   */\n      swap2\n      pop\n        /* \"#utility.yul\":11899:11994   */\n      tag_271\n        /* \"#utility.yul\":11990:11993   */\n      dup3\n        /* \"#utility.yul\":11981:11987   */\n      dup5\n        /* \"#utility.yul\":11899:11994   */\n      tag_114\n      jump\t// in\n    tag_271:\n        /* \"#utility.yul\":11892:11994   */\n      swap2\n      pop\n        /* \"#utility.yul\":12011:12014   */\n      dup2\n        /* \"#utility.yul\":12004:12014   */\n      swap1\n      pop\n        /* \"#utility.yul\":10945:12020   */\n      swap8\n      swap7\n      pop\n      pop\n      pop\n      pop\n      pop\n      pop\n      pop\n      jump\t// out\n        /* \"#utility.yul\":12026:12206   */\n    tag_115:\n        /* \"#utility.yul\":12074:12151   */\n      0x4e487b7100000000000000000000000000000000000000000000000000000000\n        /* \"#utility.yul\":12071:12072   */\n      0x00\n        /* \"#utility.yul\":12064:12152   */\n      mstore\n        /* \"#utility.yul\":12171:12175   */\n      0x22\n        /* \"#utility.yul\":12168:12169   */\n      0x04\n        /* \"#utility.yul\":12161:12176   */\n      mstore\n        /* \"#utility.yul\":12195:12199   */\n      0x24\n        /* \"#utility.yul\":12192:12193   */\n      0x00\n        /* \"#utility.yul\":12185:12200   */\n      revert\n        /* \"#utility.yul\":12212:12532   */\n    tag_69:\n        /* \"#utility.yul\":12256:12262   */\n      0x00\n        /* \"#utility.yul\":12293:12294   */\n      0x02\n        /* \"#utility.yul\":12287:12291   */\n      dup3\n        /* \"#utility.yul\":12283:12295   */\n      div\n        /* \"#utility.yul\":12273:12295   */\n      swap1\n      pop\n        /* \"#utility.yul\":12340:12341   */\n      0x01\n        /* \"#utility.yul\":12334:12338   */\n      dup3\n        /* \"#utility.yul\":12330:12342   */\n      and\n        /* \"#utility.yul\":12361:12379   */\n      dup1\n        /* \"#utility.yul\":12351:12432   */\n      tag_274\n      jumpi\n        /* \"#utility.yul\":12417:12421   */\n      0x7f\n        /* \"#utility.yul\":12409:12415   */\n      dup3\n        /* \"#utility.yul\":12405:12422   */\n      and\n        /* \"#utility.yul\":12395:12422   */\n      swap2\n      pop\n        /* \"#utility.yul\":12351:12432   */\n    tag_274:\n        /* \"#utility.yul\":12479:12481   */\n      0x20\n        /* \"#utility.yul\":12471:12477   */\n      dup3\n        /* \"#utility.yul\":12468:12482   */\n      lt\n        /* \"#utility.yul\":12448:12466   */\n      dup2\n        /* \"#utility.yul\":12445:12483   */\n      sub\n        /* \"#utility.yul\":12442:12526   */\n      tag_275\n      jumpi\n        /* \"#utility.yul\":12498:12516   */\n      tag_276\n      tag_115\n      jump\t// in\n    tag_276:\n        /* \"#utility.yul\":12442:12526   */\n    tag_275:\n        /* \"#utility.yul\":12263:12532   */\n      pop\n        /* \"#utility.yul\":12212:12532   */\n      swap2\n      swap1\n      pop\n      jump\t// out\n        /* \"#utility.yul\":12538:12679   */\n    tag_116:\n        /* \"#utility.yul\":12587:12591   */\n      0x00\n        /* \"#utility.yul\":12610:12613   */\n      dup2\n        /* \"#utility.yul\":12602:12613   */\n      swap1\n      pop\n        /* \"#utility.yul\":12633:12636   */\n      dup2\n        /* \"#utility.yul\":12630:12631   */\n      0x00\n        /* \"#utility.yul\":12623:12637   */\n      mstore\n        /* \"#utility.yul\":12667:12671   */\n      0x20\n        /* \"#utility.yul\":12664:12665   */\n      0x00\n        /* \"#utility.yul\":12654:12672   */\n      keccak256\n        /* \"#utility.yul\":12646:12672   */\n      swap1\n      pop\n        /* \"#utility.yul\":12538:12679   */\n      swap2\n      swap1\n      pop\n      jump\t// out\n        /* \"#utility.yul\":12685:12778   */\n    tag_117:\n        /* \"#utility.yul\":12722:12728   */\n      0x00\n        /* \"#utility.yul\":12769:12771   */\n      0x20\n        /* \"#utility.yul\":12764:12766   */\n      0x1f\n        /* \"#utility.yul\":12757:12762   */\n      dup4\n        /* \"#utility.yul\":12753:12767   */\n      add\n        /* \"#utility.yul\":12749:12772   */\n      div\n        /* \"#utility.yul\":12739:12772   */\n      swap1\n      pop\n        /* \"#utility.yul\":12685:12778   */\n      swap2\n      swap1\n      pop\n      jump\t// out\n        /* \"#utility.yul\":12784:12891   */\n    tag_118:\n        /* \"#utility.yul\":12828:12836   */\n      0x00\n        /* \"#utility.yul\":12878:12883   */\n      dup3\n        /* \"#utility.yul\":12872:12876   */\n      dup3\n        /* \"#utility.yul\":12868:12884   */\n      shl\n        /* \"#utility.yul\":12847:12884   */\n      swap1\n      pop\n        /* \"#utility.yul\":12784:12891   */\n      swap3\n      swap2\n      pop\n      pop\n      jump\t// out\n        /* \"#utility.yul\":12897:13290   */\n    tag_119:\n        /* \"#utility.yul\":12966:12972   */\n      0x00\n        /* \"#utility.yul\":13016:13017   */\n      0x08\n        /* \"#utility.yul\":13004:13014   */\n      dup4\n        /* \"#utility.yul\":13000:13018   */\n      mul\n        /* \"#utility.yul\":13039:13136   */\n      tag_281\n        /* \"#utility.yul\":13069:13135   */\n      0xffffffffffffffffffffffffffffffffffffffffffffffffffffffffffffffff\n        /* \"#utility.yul\":13058:13067   */\n      dup3\n        /* \"#utility.yul\":13039:13136   */\n      tag_118\n      jump\t// in\n    tag_281:\n        /* \"#utility.yul\":13157:13196   */\n      tag_282\n        /* \"#utility.yul\":13187:13195   */\n      dup7\n        /* \"#utility.yul\":13176:13185   */\n      dup4\n        /* \"#utility.yul\":13157:13196   */\n      tag_118\n      jump\t// in\n    tag_282:\n        /* \"#utility.yul\":13145:13196   */\n      swap6\n      pop\n        /* \"#utility.yul\":13229:13233   */\n      dup1\n        /* \"#utility.yul\":13225:13234   */\n      not\n        /* \"#utility.yul\":13218:13223   */\n      dup5\n        /* \"#utility.yul\":13214:13235   */\n      and\n        /* \"#utility.yul\":13205:13235   */\n      swap4\n      pop\n        /* \"#utility.yul\":13278:13282   */\n      dup1\n        /* \"#utility.yul\":13268:13276   */\n      dup7\n        /* \"#utility.yul\":13264:13283   */\n      and\n        /* \"#utility.yul\":13257:13262   */\n      dup5\n        /* \"#utility.yul\":13254:13284   */\n      or\n        /* \"#utility.yul\":13244:13284   */\n      swap3\n      pop\n        /* \"#utility.yul\":12973:13290   */\n      pop\n      pop\n        /* \"#utility.yul\":12897:13290   */\n      swap4\n      swap3\n      pop\n      pop\n      pop\n      jump\t// out\n        /* \"#utility.yul\":13296:13356   */\n    tag_120:\n        /* \"#utility.yul\":13324:13327   */\n      0x00\n        /* \"#utility.yul\":13345:13350   */\n      dup2\n        /* \"#utility.yul\":13338:13350   */\n      swap1\n      pop\n        /* \"#utility.yul\":13296:13356   */\n      swap2\n      swap1\n      pop\n      jump\t// out\n        /* \"#utility.yul\":13362:13504   */\n    tag_121:\n        /* \"#utility.yul\":13412:13421   */\n      0x00\n        /* \"#utility.yul\":13445:13498   */\n      tag_285\n        /* \"#utility.yul\":13463:13497   */\n      tag_286\n        /* \"#utility.yul\":13472:13496   */\n      tag_287\n        /* \"#utility.yul\":13490:13495   */\n      dup5\n        /* \"#utility.yul\":13472:13496   */\n      tag_86\n      jump\t// in\n    tag_287:\n        /* \"#utility.yul\":13463:13497   */\n      tag_120\n      jump\t// in\n    tag_286:\n        /* \"#utility.yul\":13445:13498   */\n      tag_86\n      jump\t// in\n    tag_285:\n        /* \"#utility.yul\":13432:13498   */\n      swap1\n      pop\n        /* \"#utility.yul\":13362:13504   */\n      swap2\n      swap1\n      pop\n      jump\t// out\n        /* \"#utility.yul\":13510:13585   */\n    tag_122:\n        /* \"#utility.yul\":13553:13556   */\n      0x00\n        /* \"#utility.yul\":13574:13579   */\n      dup2\n        /* \"#utility.yul\":13567:13579   */\n      swap1\n      pop\n        /* \"#utility.yul\":13510:13585   */\n      swap2\n      swap1\n      pop\n      jump\t// out\n        /* \"#utility.yul\":13591:13860   */\n    tag_123:\n        /* \"#utility.yul\":13701:13740   */\n      tag_290\n        /* \"#utility.yul\":13732:13739   */\n      dup4\n        /* \"#utility.yul\":13701:13740   */\n      tag_121\n      jump\t// in\n    tag_290:\n        /* \"#utility.yul\":13762:13853   */\n      tag_291\n        /* \"#utility.yul\":13811:13852   */\n      tag_292\n        /* \"#utility.yul\":13835:13851   */\n      dup3\n        /* \"#utility.yul\":13811:13852   */\n      tag_122\n      jump\t// in\n    tag_292:\n        /* \"#utility.yul\":13803:13809   */\n      dup5\n        /* \"#utility.yul\":13796:13800   */\n      dup5\n        /* \"#utility.yul\":13790:13801   */\n      sload\n        /* \"#utility.yul\":13762:13853   */\n      tag_119\n      jump\t// in\n    tag_291:\n        /* \"#utility.yul\":13756:13760   */\n      dup3\n        /* \"#utility.yul\":13749:13854   */\n      sstore\n        /* \"#utility.yul\":13667:13860   */\n      pop\n        /* \"#utility.yul\":13591:13860   */\n      pop\n      pop\n      pop\n      jump\t// out\n        /* \"#utility.yul\":13866:13939   */\n    tag_124:\n        /* \"#utility.yul\":13911:13914   */\n      0x00\n        /* \"#utility.yul\":13866:13939   */\n      swap1\n      jump\t// out\n        /* \"#utility.yul\":13945:14134   */\n    tag_125:\n        /* \"#utility.yul\":14022:14054   */\n      tag_295\n      tag_124\n      jump\t// in\n    tag_295:\n        /* \"#utility.yul\":14063:14128   */\n      tag_296\n        /* \"#utility.yul\":14121:14127   */\n      dup2\n        /* \"#utility.yul\":14113:14119   */\n      dup5\n        /* \"#utility.yul\":14107:14111   */\n      dup5\n        /* \"#utility.yul\":14063:14128   */\n      tag_123\n      jump\t// in\n    tag_296:\n        /* \"#utility.yul\":13998:14134   */\n      pop\n        /* \"#utility.yul\":13945:14134   */\n      pop\n      pop\n      jump\t// out\n        /* \"#utility.yul\":14140:14326   */\n    tag_126:\n        /* \"#utility.yul\":14200:14320   */\n    tag_298:\n        /* \"#utility.yul\":14217:14220   */\n      dup2\n        /* \"#utility.yul\":14210:14215   */\n      dup2\n        /* \"#utility.yul\":14207:14221   */\n      lt\n        /* \"#utility.yul\":14200:14320   */\n      iszero\n      tag_300\n      jumpi\n        /* \"#utility.yul\":14271:14310   */\n      tag_301\n        /* \"#utility.yul\":14308:14309   */\n      0x00\n        /* \"#utility.yul\":14301:14306   */\n      dup3\n        /* \"#utility.yul\":14271:14310   */\n      tag_125\n      jump\t// in\n    tag_301:\n        /* \"#utility.yul\":14244:14245   */\n      0x01\n        /* \"#utility.yul\":14237:14242   */\n      dup2\n        /* \"#utility.yul\":14233:14246   */\n      add\n        /* \"#utility.yul\":14224:14246   */\n      swap1\n      pop\n        /* \"#utility.yul\":14200:14320   */\n      jump(tag_298)\n    tag_300:\n        /* \"#utility.yul\":14140:14326   */\n      pop\n      pop\n      jump\t// out\n        /* \"#utility.yul\":14332:14875   */\n    tag_127:\n        /* \"#utility.yul\":14433:14435   */\n      0x1f\n        /* \"#utility.yul\":14428:14431   */\n      dup3\n        /* \"#utility.yul\":14425:14436   */\n      gt\n        /* \"#utility.yul\":14422:14868   */\n      iszero\n      tag_303\n      jumpi\n        /* \"#utility.yul\":14467:14505   */\n      tag_304\n        /* \"#utility.yul\":14499:14504   */\n      dup2\n        /* \"#utility.yul\":14467:14505   */\n      tag_116\n      jump\t// in\n    tag_304:\n        /* \"#utility.yul\":14551:14580   */\n      tag_305\n        /* \"#utility.yul\":14569:14579   */\n      dup5\n        /* \"#utility.yul\":14551:14580   */\n      tag_117\n      jump\t// in\n    tag_305:\n        /* \"#utility.yul\":14541:14549   */\n      dup2\n        /* \"#utility.yul\":14537:14581   */\n      add\n        /* \"#utility.yul\":14734:14736   */\n      0x20\n        /* \"#utility.yul\":14722:14732   */\n      dup6\n        /* \"#utility.yul\":14719:14737   */\n      lt\n        /* \"#utility.yul\":14716:14765   */\n      iszero\n      tag_306\n      jumpi\n        /* \"#utility.yul\":14755:14763   */\n      dup2\n        /* \"#utility.yul\":14740:14763   */\n      swap1\n      pop\n        /* \"#utility.yul\":14716:14765   */\n    tag_306:\n        /* \"#utility.yul\":14778:14858   */\n      tag_307\n        /* \"#utility.yul\":14834:14856   */\n      tag_308\n        /* \"#utility.yul\":14852:14855   */\n      dup6\n        /* \"#utility.yul\":14834:14856   */\n      tag_117\n      jump\t// in\n    tag_308:\n        /* \"#utility.yul\":14824:14832   */\n      dup4\n        /* \"#utility.yul\":14820:14857   */\n      add\n        /* \"#utility.yul\":14807:14818   */\n      dup3\n        /* \"#utility.yul\":14778:14858   */\n      tag_126\n      jump\t// in\n    tag_307:\n        /* \"#utility.yul\":14437:14868   */\n      pop\n      pop\n        /* \"#utility.yul\":14422:14868   */\n    tag_303:\n        /* \"#utility.yul\":14332:14875   */\n      pop\n      pop\n      pop\n      jump\t// out\n        /* \"#utility.yul\":14881:14998   */\n    tag_128:\n        /* \"#utility.yul\":14935:14943   */\n      0x00\n        /* \"#utility.yul\":14985:14990   */\n      dup3\n        /* \"#utility.yul\":14979:14983   */\n      dup3\n        /* \"#utility.yul\":14975:14991   */\n      shr\n        /* \"#utility.yul\":14954:14991   */\n      swap1\n      pop\n        /* \"#utility.yul\":14881:14998   */\n      swap3\n      swap2\n      pop\n      pop\n      jump\t// out\n        /* \"#utility.yul\":15004:15173   */\n    tag_129:\n        /* \"#utility.yul\":15048:15054   */\n      0x00\n        /* \"#utility.yul\":15081:15132   */\n      tag_311\n        /* \"#utility.yul\":15129:15130   */\n      0x00\n        /* \"#utility.yul\":15125:15131   */\n      not\n        /* \"#utility.yul\":15117:15122   */\n      dup5\n        /* \"#utility.yul\":15114:15115   */\n      0x08\n        /* \"#utility.yul\":15110:15123   */\n      mul\n        /* \"#utility.yul\":15081:15132   */\n      tag_128\n      jump\t// in\n    tag_311:\n        /* \"#utility.yul\":15077:15133   */\n      not\n        /* \"#utility.yul\":15162:15166   */\n      dup1\n        /* \"#utility.yul\":15156:15160   */\n      dup4\n        /* \"#utility.yul\":15152:15167   */\n      and\n        /* \"#utility.yul\":15142:15167   */\n      swap2\n      pop\n        /* \"#utility.yul\":15055:15173   */\n      pop\n        /* \"#utility.yul\":15004:15173   */\n      swap3\n      swap2\n      pop\n      pop\n      jump\t// out\n        /* \"#utility.yul\":15178:15473   */\n    tag_130:\n        /* \"#utility.yul\":15254:15258   */\n      0x00\n        /* \"#utility.yul\":15400:15429   */\n      tag_313\n        /* \"#utility.yul\":15425:15428   */\n      dup4\n        /* \"#utility.yul\":15419:15423   */\n      dup4\n        /* \"#utility.yul\":15400:15429   */\n      tag_129\n      jump\t// in\n    tag_313:\n        /* \"#utility.yul\":15392:15429   */\n      swap2\n      pop\n        /* \"#utility.yul\":15462:15465   */\n      dup3\n        /* \"#utility.yul\":15459:15460   */\n      0x02\n        /* \"#utility.yul\":15455:15466   */\n      mul\n        /* \"#utility.yul\":15449:15453   */\n      dup3\n        /* \"#utility.yul\":15446:15467   */\n      or\n        /* \"#utility.yul\":15438:15467   */\n      swap1\n      pop\n        /* \"#utility.yul\":15178:15473   */\n      swap3\n      swap2\n      pop\n      pop\n      jump\t// out\n        /* \"#utility.yul\":15478:16873   */\n    tag_66:\n        /* \"#utility.yul\":15595:15632   */\n      tag_315\n        /* \"#utility.yul\":15628:15631   */\n      dup3\n        /* \"#utility.yul\":15595:15632   */\n      tag_89\n      jump\t// in\n    tag_315:\n        /* \"#utility.yul\":15697:15715   */\n      0xffffffffffffffff\n        /* \"#utility.yul\":15689:15695   */\n      dup2\n        /* \"#utility.yul\":15686:15716   */\n      gt\n        /* \"#utility.yul\":15683:15739   */\n      iszero\n      tag_316\n      jumpi\n        /* \"#utility.yul\":15719:15737   */\n      tag_317\n      tag_44\n      jump\t// in\n    tag_317:\n        /* \"#utility.yul\":15683:15739   */\n    tag_316:\n        /* \"#utility.yul\":15763:15801   */\n      tag_318\n        /* \"#utility.yul\":15795:15799   */\n      dup3\n        /* \"#utility.yul\":15789:15800   */\n      sload\n        /* \"#utility.yul\":15763:15801   */\n      tag_69\n      jump\t// in\n    tag_318:\n        /* \"#utility.yul\":15848:15915   */\n      tag_319\n        /* \"#utility.yul\":15908:15914   */\n      dup3\n        /* \"#utility.yul\":15900:15906   */\n      dup3\n        /* \"#utility.yul\":15894:15898   */\n      dup6\n        /* \"#utility.yul\":15848:15915   */\n      tag_127\n      jump\t// in\n    tag_319:\n        /* \"#utility.yul\":15942:15943   */\n      0x00\n        /* \"#utility.yul\":15966:15970   */\n      0x20\n        /* \"#utility.yul\":15953:15970   */\n      swap1\n      pop\n        /* \"#utility.yul\":15998:16000   */\n      0x1f\n        /* \"#utility.yul\":15990:15996   */\n      dup4\n        /* \"#utility.yul\":15987:16001   */\n      gt\n        /* \"#utility.yul\":16015:16016   */\n      0x01\n        /* \"#utility.yul\":16010:16628   */\n      dup2\n      eq\n      tag_321\n      jumpi\n        /* \"#utility.yul\":16672:16673   */\n      0x00\n        /* \"#utility.yul\":16689:16695   */\n      dup5\n        /* \"#utility.yul\":16686:16763   */\n      iszero\n      tag_322\n      jumpi\n        /* \"#utility.yul\":16738:16747   */\n      dup3\n        /* \"#utility.yul\":16733:16736   */\n      dup8\n        /* \"#utility.yul\":16729:16748   */\n      add\n        /* \"#utility.yul\":16723:16749   */\n      mload\n        /* \"#utility.yul\":16714:16749   */\n      swap1\n      pop\n        /* \"#utility.yul\":16686:16763   */\n    tag_322:\n        /* \"#utility.yul\":16789:16856   */\n      tag_323\n        /* \"#utility.yul\":16849:16855   */\n      dup6\n        /* \"#utility.yul\":16842:16847   */\n      dup3\n        /* \"#utility.yul\":16789:16856   */\n      tag_130\n      jump\t// in\n    tag_323:\n        /* \"#utility.yul\":16783:16787   */\n      dup7\n        /* \"#utility.yul\":16776:16857   */\n      sstore\n        /* \"#utility.yul\":16645:16867   */\n      pop\n        /* \"#utility.yul\":15980:16867   */\n      jump(tag_320)\n        /* \"#utility.yul\":16010:16628   */\n    tag_321:\n        /* \"#utility.yul\":16062:16066   */\n      0x1f\n        /* \"#utility.yul\":16058:16067   */\n      not\n        /* \"#utility.yul\":16050:16056   */\n      dup5\n        /* \"#utility.yul\":16046:16068   */\n      and\n        /* \"#utility.yul\":16096:16133   */\n      tag_324\n        /* \"#utility.yul\":16128:16132   */\n      dup7\n        /* \"#utility.yul\":16096:16133   */\n      tag_116\n      jump\t// in\n    tag_324:\n        /* \"#utility.yul\":16155:16156   */\n      0x00\n        /* \"#utility.yul\":16169:16377   */\n    tag_325:\n        /* \"#utility.yul\":16183:16190   */\n      dup3\n        /* \"#utility.yul\":16180:16181   */\n      dup2\n        /* \"#utility.yul\":16177:16191   */\n      lt\n        /* \"#utility.yul\":16169:16377   */\n      iszero\n      tag_327\n      jumpi\n        /* \"#utility.yul\":16262:16271   */\n      dup5\n        /* \"#utility.yul\":16257:16260   */\n      dup10\n        /* \"#utility.yul\":16253:16272   */\n      add\n        /* \"#utility.yul\":16247:16273   */\n      mload\n        /* \"#utility.yul\":16239:16245   */\n      dup3\n        /* \"#utility.yul\":16232:16274   */\n      sstore\n        /* \"#utility.yul\":16313:16314   */\n      0x01\n        /* \"#utility.yul\":16305:16311   */\n      dup3\n        /* \"#utility.yul\":16301:16315   */\n      add\n        /* \"#utility.yul\":16291:16315   */\n      swap2\n      pop\n        /* \"#utility.yul\":16360:16362   */\n      0x20\n        /* \"#utility.yul\":16349:16358   */\n      dup6\n        /* \"#utility.yul\":16345:16363   */\n      add\n        /* \"#utility.yul\":16332:16363   */\n      swap5\n      pop\n        /* \"#utility.yul\":16206:16210   */\n      0x20\n        /* \"#utility.yul\":16203:16204   */\n      dup2\n        /* \"#utility.yul\":16199:16211   */\n      add\n        /* \"#utility.yul\":16194:16211   */\n      swap1\n      pop\n        /* \"#utility.yul\":16169:16377   */\n      jump(tag_325)\n    tag_327:\n        /* \"#utility.yul\":16405:16411   */\n      dup7\n        /* \"#utility.yul\":16396:16403   */\n      dup4\n        /* \"#utility.yul\":16393:16412   */\n      lt\n        /* \"#utility.yul\":16390:16569   */\n      iszero\n      tag_328\n      jumpi\n        /* \"#utility.yul\":16463:16472   */\n      dup5\n        /* \"#utility.yul\":16458:16461   */\n      dup10\n        /* \"#utility.yul\":16454:16473   */\n      add\n        /* \"#utility.yul\":16448:16474   */\n      mload\n        /* \"#utility.yul\":16506:16554   */\n      tag_329\n        /* \"#utility.yul\":16548:16552   */\n      0x1f\n        /* \"#utility.yul\":16540:16546   */\n      dup10\n        /* \"#utility.yul\":16536:16553   */\n      and\n        /* \"#utility.yul\":16525:16534   */\n      dup3\n        /* \"#utility.yul\":16506:16554   */\n      tag_129\n      jump\t// in\n    tag_329:\n        /* \"#utility.yul\":16498:16504   */\n      dup4\n        /* \"#utility.yul\":16491:16555   */\n      sstore\n        /* \"#utility.yul\":16413:16569   */\n      pop\n        /* \"#utility.yul\":16390:16569   */\n    tag_328:\n        /* \"#utility.yul\":16615:16616   */\n      0x01\n        /* \"#utility.yul\":16611:16612   */\n      0x02\n        /* \"#utility.yul\":16603:16609   */\n      dup9\n        /* \"#utility.yul\":16599:16613   */\n      mul\n        /* \"#utility.yul\":16595:16617   */\n      add\n        /* \"#utility.yul\":16589:16593   */\n      dup9\n        /* \"#utility.yul\":16582:16618   */\n      sstore\n        /* \"#utility.yul\":16017:16628   */\n      pop\n      pop\n      pop\n        /* \"#utility.yul\":15980:16867   */\n    tag_320:\n      pop\n        /* \"#utility.yul\":15570:16873   */\n      pop\n      pop\n      pop\n        /* \"#utility.yul\":15478:16873   */\n      pop\n      pop\n      jump\t// out\n        /* \"#utility.yul\":16879:17180   */\n    tag_131:\n        /* \"#utility.yul\":17019:17053   */\n      0x495046532068617368206e6f7420666f756e6420666f7220746865206163636f\n        /* \"#utility.yul\":17015:17016   */\n      0x00\n        /* \"#utility.yul\":17007:17013   */\n      dup3\n        /* \"#utility.yul\":17003:17017   */\n      add\n        /* \"#utility.yul\":16996:17054   */\n      mstore\n        /* \"#utility.yul\":17088:17122   */\n      0x756e742e20506c6561736520736176652049504653486173682061626f757420\n        /* \"#utility.yul\":17083:17085   */\n      0x20\n        /* \"#utility.yul\":17075:17081   */\n      dup3\n        /* \"#utility.yul\":17071:17086   */\n      add\n        /* \"#utility.yul\":17064:17123   */\n      mstore\n        /* \"#utility.yul\":17157:17172   */\n      0x74686973206163636f756e742e00000000000000000000000000000000000000\n        /* \"#utility.yul\":17152:17154   */\n      0x40\n        /* \"#utility.yul\":17144:17150   */\n      dup3\n        /* \"#utility.yul\":17140:17155   */\n      add\n        /* \"#utility.yul\":17133:17173   */\n      mstore\n        /* \"#utility.yul\":16879:17180   */\n      pop\n      jump\t// out\n        /* \"#utility.yul\":17186:17552   */\n    tag_132:\n        /* \"#utility.yul\":17328:17331   */\n      0x00\n        /* \"#utility.yul\":17349:17416   */\n      tag_332\n        /* \"#utility.yul\":17413:17415   */\n      0x4d\n        /* \"#utility.yul\":17408:17411   */\n      dup4\n        /* \"#utility.yul\":17349:17416   */\n      tag_90\n      jump\t// in\n    tag_332:\n        /* \"#utility.yul\":17342:17416   */\n      swap2\n      pop\n        /* \"#utility.yul\":17425:17518   */\n      tag_333\n        /* \"#utility.yul\":17514:17517   */\n      dup3\n        /* \"#utility.yul\":17425:17518   */\n      tag_131\n      jump\t// in\n    tag_333:\n        /* \"#utility.yul\":17543:17545   */\n      0x60\n        /* \"#utility.yul\":17538:17541   */\n      dup3\n        /* \"#utility.yul\":17534:17546   */\n      add\n        /* \"#utility.yul\":17527:17546   */\n      swap1\n      pop\n        /* \"#utility.yul\":17186:17552   */\n      swap2\n      swap1\n      pop\n      jump\t// out\n        /* \"#utility.yul\":17558:17977   */\n    tag_72:\n        /* \"#utility.yul\":17724:17728   */\n      0x00\n        /* \"#utility.yul\":17762:17764   */\n      0x20\n        /* \"#utility.yul\":17751:17760   */\n      dup3\n        /* \"#utility.yul\":17747:17765   */\n      add\n        /* \"#utility.yul\":17739:17765   */\n      swap1\n      pop\n        /* \"#utility.yul\":17811:17820   */\n      dup2\n        /* \"#utility.yul\":17805:17809   */\n      dup2\n        /* \"#utility.yul\":17801:17821   */\n      sub\n        /* \"#utility.yul\":17797:17798   */\n      0x00\n        /* \"#utility.yul\":17786:17795   */\n      dup4\n        /* \"#utility.yul\":17782:17799   */\n      add\n        /* \"#utility.yul\":17775:17822   */\n      mstore\n        /* \"#utility.yul\":17839:17970   */\n      tag_335\n        /* \"#utility.yul\":17965:17969   */\n      dup2\n        /* \"#utility.yul\":17839:17970   */\n      tag_132\n      jump\t// in\n    tag_335:\n        /* \"#utility.yul\":17831:17970   */\n      swap1\n      pop\n        /* \"#utility.yul\":17558:17977   */\n      swap2\n      swap1\n      pop\n      jump\t// out\n\n    auxdata: 0xa26469706673582212201c29426cf6810ca5465d4f347290d6784ced39f447b22c2746a1f880aedec68f64736f6c63430008150033\n}\n",
				"bytecode": {
					"linkReferences": {},
					"object": "608060405234801561000f575f80fd5b50610fa48061001d5f395ff3fe608060405234801561000f575f80fd5b5060043610610055575f3560e01c80636900a3ae146100595780638f767c6f14610089578063b075e746146100b9578063cb0ab425146100e9578063e1e322ed14610119575b5f80fd5b610073600480360381019061006e919061058c565b610149565b6040516100809190610641565b60405180910390f35b6100a3600480360381019061009e9190610886565b6102a2565b6040516100b09190610641565b60405180910390f35b6100d360048036038101906100ce91906108cd565b610304565b6040516100e0919061092e565b60405180910390f35b61010360048036038101906100fe91906109a1565b610358565b6040516101109190610641565b60405180910390f35b610133600480360381019061012e91906109a1565b6104ae565b6040516101409190610641565b60405180910390f35b60605f820361018f576040518060400160405280600181526020017f3000000000000000000000000000000000000000000000000000000000000000815250905061029d565b5f8290505f5b5f82146101be5780806101a7906109f9565b915050600a826101b79190610a6d565b9150610195565b5f8167ffffffffffffffff8111156101d9576101d8610665565b5b6040519080825280601f01601f19166020018201604052801561020b5781602001600182028036833780820191505090505b5090505b5f8514610296576001826102239190610a9d565b9150600a856102329190610ad0565b603061023e9190610b00565b60f81b81838151811061025457610253610b33565b5b60200101907effffffffffffffffffffffffffffffffffffffffffffffffffffffffffffff191690815f1a905350600a8561028f9190610a6d565b945061020f565b8093505050505b919050565b6060815f01516102b58360200151610149565b83604001516102c78560600151610149565b85608001516102d98760a00151610149565b6040516020016102ee96959493929190610b9a565b6040516020818303038152906040529050919050565b5f815f803373ffffffffffffffffffffffffffffffffffffffff1673ffffffffffffffffffffffffffffffffffffffff1681526020019081526020015f20908161034e9190610deb565b5060019050919050565b60605f805f8473ffffffffffffffffffffffffffffffffffffffff1673ffffffffffffffffffffffffffffffffffffffff1681526020019081526020015f2080546103a290610c1e565b9050116103e4576040517f08c379a00000000000000000000000000000000000000000000000000000000081526004016103db90610f50565b60405180910390fd5b5f808373ffffffffffffffffffffffffffffffffffffffff1673ffffffffffffffffffffffffffffffffffffffff1681526020019081526020015f20805461042b90610c1e565b80601f016020809104026020016040519081016040528092919081815260200182805461045790610c1e565b80156104a25780601f10610479576101008083540402835291602001916104a2565b820191905f5260205f20905b81548152906001019060200180831161048557829003601f168201915b50505050509050919050565b5f602052805f5260405f205f9150905080546104c990610c1e565b80601f01602080910402602001604051908101604052809291908181526020018280546104f590610c1e565b80156105405780601f1061051757610100808354040283529160200191610540565b820191905f5260205f20905b81548152906001019060200180831161052357829003601f168201915b505050505081565b5f604051905090565b5f80fd5b5f80fd5b5f819050919050565b61056b81610559565b8114610575575f80fd5b50565b5f8135905061058681610562565b92915050565b5f602082840312156105a1576105a0610551565b5b5f6105ae84828501610578565b91505092915050565b5f81519050919050565b5f82825260208201905092915050565b5f5b838110156105ee5780820151818401526020810190506105d3565b5f8484015250505050565b5f601f19601f8301169050919050565b5f610613826105b7565b61061d81856105c1565b935061062d8185602086016105d1565b610636816105f9565b840191505092915050565b5f6020820190508181035f8301526106598184610609565b905092915050565b5f80fd5b7f4e487b71000000000000000000000000000000000000000000000000000000005f52604160045260245ffd5b61069b826105f9565b810181811067ffffffffffffffff821117156106ba576106b9610665565b5b80604052505050565b5f6106cc610548565b90506106d88282610692565b919050565b5f80fd5b5f80fd5b5f80fd5b5f67ffffffffffffffff82111561070357610702610665565b5b61070c826105f9565b9050602081019050919050565b828183375f83830152505050565b5f610739610734846106e9565b6106c3565b905082815260208101848484011115610755576107546106e5565b5b610760848285610719565b509392505050565b5f82601f83011261077c5761077b6106e1565b5b813561078c848260208601610727565b91505092915050565b5f60c082840312156107aa576107a9610661565b5b6107b460c06106c3565b90505f82013567ffffffffffffffff8111156107d3576107d26106dd565b5b6107df84828501610768565b5f8301525060206107f284828501610578565b602083015250604082013567ffffffffffffffff811115610816576108156106dd565b5b61082284828501610768565b604083015250606061083684828501610578565b606083015250608082013567ffffffffffffffff81111561085a576108596106dd565b5b61086684828501610768565b60808301525060a061087a84828501610578565b60a08301525092915050565b5f6020828403121561089b5761089a610551565b5b5f82013567ffffffffffffffff8111156108b8576108b7610555565b5b6108c484828501610795565b91505092915050565b5f602082840312156108e2576108e1610551565b5b5f82013567ffffffffffffffff8111156108ff576108fe610555565b5b61090b84828501610768565b91505092915050565b5f8115159050919050565b61092881610914565b82525050565b5f6020820190506109415f83018461091f565b92915050565b5f73ffffffffffffffffffffffffffffffffffffffff82169050919050565b5f61097082610947565b9050919050565b61098081610966565b811461098a575f80fd5b50565b5f8135905061099b81610977565b92915050565b5f602082840312156109b6576109b5610551565b5b5f6109c38482850161098d565b91505092915050565b7f4e487b71000000000000000000000000000000000000000000000000000000005f52601160045260245ffd5b5f610a0382610559565b91507fffffffffffffffffffffffffffffffffffffffffffffffffffffffffffffffff8203610a3557610a346109cc565b5b600182019050919050565b7f4e487b71000000000000000000000000000000000000000000000000000000005f52601260045260245ffd5b5f610a7782610559565b9150610a8283610559565b925082610a9257610a91610a40565b5b828204905092915050565b5f610aa782610559565b9150610ab283610559565b9250828203905081811115610aca57610ac96109cc565b5b92915050565b5f610ada82610559565b9150610ae583610559565b925082610af557610af4610a40565b5b828206905092915050565b5f610b0a82610559565b9150610b1583610559565b9250828201905080821115610b2d57610b2c6109cc565b5b92915050565b7f4e487b71000000000000000000000000000000000000000000000000000000005f52603260045260245ffd5b5f81905092915050565b5f610b74826105b7565b610b7e8185610b60565b9350610b8e8185602086016105d1565b80840191505092915050565b5f610ba58289610b6a565b9150610bb18288610b6a565b9150610bbd8287610b6a565b9150610bc98286610b6a565b9150610bd58285610b6a565b9150610be18284610b6a565b9150819050979650505050505050565b7f4e487b71000000000000000000000000000000000000000000000000000000005f52602260045260245ffd5b5f6002820490506001821680610c3557607f821691505b602082108103610c4857610c47610bf1565b5b50919050565b5f819050815f5260205f209050919050565b5f6020601f8301049050919050565b5f82821b905092915050565b5f60088302610caa7fffffffffffffffffffffffffffffffffffffffffffffffffffffffffffffffff82610c6f565b610cb48683610c6f565b95508019841693508086168417925050509392505050565b5f819050919050565b5f610cef610cea610ce584610559565b610ccc565b610559565b9050919050565b5f819050919050565b610d0883610cd5565b610d1c610d1482610cf6565b848454610c7b565b825550505050565b5f90565b610d30610d24565b610d3b818484610cff565b505050565b5b81811015610d5e57610d535f82610d28565b600181019050610d41565b5050565b601f821115610da357610d7481610c4e565b610d7d84610c60565b81016020851015610d8c578190505b610da0610d9885610c60565b830182610d40565b50505b505050565b5f82821c905092915050565b5f610dc35f1984600802610da8565b1980831691505092915050565b5f610ddb8383610db4565b9150826002028217905092915050565b610df4826105b7565b67ffffffffffffffff811115610e0d57610e0c610665565b5b610e178254610c1e565b610e22828285610d62565b5f60209050601f831160018114610e53575f8415610e41578287015190505b610e4b8582610dd0565b865550610eb2565b601f198416610e6186610c4e565b5f5b82811015610e8857848901518255600182019150602085019450602081019050610e63565b86831015610ea55784890151610ea1601f891682610db4565b8355505b6001600288020188555050505b505050505050565b7f495046532068617368206e6f7420666f756e6420666f7220746865206163636f5f8201527f756e742e20506c6561736520736176652049504653486173682061626f75742060208201527f74686973206163636f756e742e00000000000000000000000000000000000000604082015250565b5f610f3a604d836105c1565b9150610f4582610eba565b606082019050919050565b5f6020820190508181035f830152610f6781610f2e565b905091905056fea26469706673582212201c29426cf6810ca5465d4f347290d6784ced39f447b22c2746a1f880aedec68f64736f6c63430008150033",
					"opcodes": "PUSH1 0x80 PUSH1 0x40 MSTORE CALLVALUE DUP1 ISZERO PUSH2 0xF JUMPI PUSH0 DUP1 REVERT JUMPDEST POP PUSH2 0xFA4 DUP1 PUSH2 0x1D PUSH0 CODECOPY PUSH0 RETURN INVALID PUSH1 0x80 PUSH1 0x40 MSTORE CALLVALUE DUP1 ISZERO PUSH2 0xF JUMPI PUSH0 DUP1 REVERT JUMPDEST POP PUSH1 0x4 CALLDATASIZE LT PUSH2 0x55 JUMPI PUSH0 CALLDATALOAD PUSH1 0xE0 SHR DUP1 PUSH4 0x6900A3AE EQ PUSH2 0x59 JUMPI DUP1 PUSH4 0x8F767C6F EQ PUSH2 0x89 JUMPI DUP1 PUSH4 0xB075E746 EQ PUSH2 0xB9 JUMPI DUP1 PUSH4 0xCB0AB425 EQ PUSH2 0xE9 JUMPI DUP1 PUSH4 0xE1E322ED EQ PUSH2 0x119 JUMPI JUMPDEST PUSH0 DUP1 REVERT JUMPDEST PUSH2 0x73 PUSH1 0x4 DUP1 CALLDATASIZE SUB DUP2 ADD SWAP1 PUSH2 0x6E SWAP2 SWAP1 PUSH2 0x58C JUMP JUMPDEST PUSH2 0x149 JUMP JUMPDEST PUSH1 0x40 MLOAD PUSH2 0x80 SWAP2 SWAP1 PUSH2 0x641 JUMP JUMPDEST PUSH1 0x40 MLOAD DUP1 SWAP2 SUB SWAP1 RETURN JUMPDEST PUSH2 0xA3 PUSH1 0x4 DUP1 CALLDATASIZE SUB DUP2 ADD SWAP1 PUSH2 0x9E SWAP2 SWAP1 PUSH2 0x886 JUMP JUMPDEST PUSH2 0x2A2 JUMP JUMPDEST PUSH1 0x40 MLOAD PUSH2 0xB0 SWAP2 SWAP1 PUSH2 0x641 JUMP JUMPDEST PUSH1 0x40 MLOAD DUP1 SWAP2 SUB SWAP1 RETURN JUMPDEST PUSH2 0xD3 PUSH1 0x4 DUP1 CALLDATASIZE SUB DUP2 ADD SWAP1 PUSH2 0xCE SWAP2 SWAP1 PUSH2 0x8CD JUMP JUMPDEST PUSH2 0x304 JUMP JUMPDEST PUSH1 0x40 MLOAD PUSH2 0xE0 SWAP2 SWAP1 PUSH2 0x92E JUMP JUMPDEST PUSH1 0x40 MLOAD DUP1 SWAP2 SUB SWAP1 RETURN JUMPDEST PUSH2 0x103 PUSH1 0x4 DUP1 CALLDATASIZE SUB DUP2 ADD SWAP1 PUSH2 0xFE SWAP2 SWAP1 PUSH2 0x9A1 JUMP JUMPDEST PUSH2 0x358 JUMP JUMPDEST PUSH1 0x40 MLOAD PUSH2 0x110 SWAP2 SWAP1 PUSH2 0x641 JUMP JUMPDEST PUSH1 0x40 MLOAD DUP1 SWAP2 SUB SWAP1 RETURN JUMPDEST PUSH2 0x133 PUSH1 0x4 DUP1 CALLDATASIZE SUB DUP2 ADD SWAP1 PUSH2 0x12E SWAP2 SWAP1 PUSH2 0x9A1 JUMP JUMPDEST PUSH2 0x4AE JUMP JUMPDEST PUSH1 0x40 MLOAD PUSH2 0x140 SWAP2 SWAP1 PUSH2 0x641 JUMP JUMPDEST PUSH1 0x40 MLOAD DUP1 SWAP2 SUB SWAP1 RETURN JUMPDEST PUSH1 0x60 PUSH0 DUP3 SUB PUSH2 0x18F JUMPI PUSH1 0x40 MLOAD DUP1 PUSH1 0x40 ADD PUSH1 0x40 MSTORE DUP1 PUSH1 0x1 DUP2 MSTORE PUSH1 0x20 ADD PUSH32 0x3000000000000000000000000000000000000000000000000000000000000000 DUP2 MSTORE POP SWAP1 POP PUSH2 0x29D JUMP JUMPDEST PUSH0 DUP3 SWAP1 POP PUSH0 JUMPDEST PUSH0 DUP3 EQ PUSH2 0x1BE JUMPI DUP1 DUP1 PUSH2 0x1A7 SWAP1 PUSH2 0x9F9 JUMP JUMPDEST SWAP2 POP POP PUSH1 0xA DUP3 PUSH2 0x1B7 SWAP2 SWAP1 PUSH2 0xA6D JUMP JUMPDEST SWAP2 POP PUSH2 0x195 JUMP JUMPDEST PUSH0 DUP2 PUSH8 0xFFFFFFFFFFFFFFFF DUP2 GT ISZERO PUSH2 0x1D9 JUMPI PUSH2 0x1D8 PUSH2 0x665 JUMP JUMPDEST JUMPDEST PUSH1 0x40 MLOAD SWAP1 DUP1 DUP3 MSTORE DUP1 PUSH1 0x1F ADD PUSH1 0x1F NOT AND PUSH1 0x20 ADD DUP3 ADD PUSH1 0x40 MSTORE DUP1 ISZERO PUSH2 0x20B JUMPI DUP2 PUSH1 0x20 ADD PUSH1 0x1 DUP3 MUL DUP1 CALLDATASIZE DUP4 CALLDATACOPY DUP1 DUP3 ADD SWAP2 POP POP SWAP1 POP JUMPDEST POP SWAP1 POP JUMPDEST PUSH0 DUP6 EQ PUSH2 0x296 JUMPI PUSH1 0x1 DUP3 PUSH2 0x223 SWAP2 SWAP1 PUSH2 0xA9D JUMP JUMPDEST SWAP2 POP PUSH1 0xA DUP6 PUSH2 0x232 SWAP2 SWAP1 PUSH2 0xAD0 JUMP JUMPDEST PUSH1 0x30 PUSH2 0x23E SWAP2 SWAP1 PUSH2 0xB00 JUMP JUMPDEST PUSH1 0xF8 SHL DUP2 DUP4 DUP2 MLOAD DUP2 LT PUSH2 0x254 JUMPI PUSH2 0x253 PUSH2 0xB33 JUMP JUMPDEST JUMPDEST PUSH1 0x20 ADD ADD SWAP1 PUSH31 0xFFFFFFFFFFFFFFFFFFFFFFFFFFFFFFFFFFFFFFFFFFFFFFFFFFFFFFFFFFFFFF NOT AND SWAP1 DUP2 PUSH0 BYTE SWAP1 MSTORE8 POP PUSH1 0xA DUP6 PUSH2 0x28F SWAP2 SWAP1 PUSH2 0xA6D JUMP JUMPDEST SWAP5 POP PUSH2 0x20F JUMP JUMPDEST DUP1 SWAP4 POP POP POP POP JUMPDEST SWAP2 SWAP1 POP JUMP JUMPDEST PUSH1 0x60 DUP2 PUSH0 ADD MLOAD PUSH2 0x2B5 DUP4 PUSH1 0x20 ADD MLOAD PUSH2 0x149 JUMP JUMPDEST DUP4 PUSH1 0x40 ADD MLOAD PUSH2 0x2C7 DUP6 PUSH1 0x60 ADD MLOAD PUSH2 0x149 JUMP JUMPDEST DUP6 PUSH1 0x80 ADD MLOAD PUSH2 0x2D9 DUP8 PUSH1 0xA0 ADD MLOAD PUSH2 0x149 JUMP JUMPDEST PUSH1 0x40 MLOAD PUSH1 0x20 ADD PUSH2 0x2EE SWAP7 SWAP6 SWAP5 SWAP4 SWAP3 SWAP2 SWAP1 PUSH2 0xB9A JUMP JUMPDEST PUSH1 0x40 MLOAD PUSH1 0x20 DUP2 DUP4 SUB SUB DUP2 MSTORE SWAP1 PUSH1 0x40 MSTORE SWAP1 POP SWAP2 SWAP1 POP JUMP JUMPDEST PUSH0 DUP2 PUSH0 DUP1 CALLER PUSH20 0xFFFFFFFFFFFFFFFFFFFFFFFFFFFFFFFFFFFFFFFF AND PUSH20 0xFFFFFFFFFFFFFFFFFFFFFFFFFFFFFFFFFFFFFFFF AND DUP2 MSTORE PUSH1 0x20 ADD SWAP1 DUP2 MSTORE PUSH1 0x20 ADD PUSH0 KECCAK256 SWAP1 DUP2 PUSH2 0x34E SWAP2 SWAP1 PUSH2 0xDEB JUMP JUMPDEST POP PUSH1 0x1 SWAP1 POP SWAP2 SWAP1 POP JUMP JUMPDEST PUSH1 0x60 PUSH0 DUP1 PUSH0 DUP5 PUSH20 0xFFFFFFFFFFFFFFFFFFFFFFFFFFFFFFFFFFFFFFFF AND PUSH20 0xFFFFFFFFFFFFFFFFFFFFFFFFFFFFFFFFFFFFFFFF AND DUP2 MSTORE PUSH1 0x20 ADD SWAP1 DUP2 MSTORE PUSH1 0x20 ADD PUSH0 KECCAK256 DUP1 SLOAD PUSH2 0x3A2 SWAP1 PUSH2 0xC1E JUMP JUMPDEST SWAP1 POP GT PUSH2 0x3E4 JUMPI PUSH1 0x40 MLOAD PUSH32 0x8C379A000000000000000000000000000000000000000000000000000000000 DUP2 MSTORE PUSH1 0x4 ADD PUSH2 0x3DB SWAP1 PUSH2 0xF50 JUMP JUMPDEST PUSH1 0x40 MLOAD DUP1 SWAP2 SUB SWAP1 REVERT JUMPDEST PUSH0 DUP1 DUP4 PUSH20 0xFFFFFFFFFFFFFFFFFFFFFFFFFFFFFFFFFFFFFFFF AND PUSH20 0xFFFFFFFFFFFFFFFFFFFFFFFFFFFFFFFFFFFFFFFF AND DUP2 MSTORE PUSH1 0x20 ADD SWAP1 DUP2 MSTORE PUSH1 0x20 ADD PUSH0 KECCAK256 DUP1 SLOAD PUSH2 0x42B SWAP1 PUSH2 0xC1E JUMP JUMPDEST DUP1 PUSH1 0x1F ADD PUSH1 0x20 DUP1 SWAP2 DIV MUL PUSH1 0x20 ADD PUSH1 0x40 MLOAD SWAP1 DUP2 ADD PUSH1 0x40 MSTORE DUP1 SWAP3 SWAP2 SWAP1 DUP2 DUP2 MSTORE PUSH1 0x20 ADD DUP3 DUP1 SLOAD PUSH2 0x457 SWAP1 PUSH2 0xC1E JUMP JUMPDEST DUP1 ISZERO PUSH2 0x4A2 JUMPI DUP1 PUSH1 0x1F LT PUSH2 0x479 JUMPI PUSH2 0x100 DUP1 DUP4 SLOAD DIV MUL DUP4 MSTORE SWAP2 PUSH1 0x20 ADD SWAP2 PUSH2 0x4A2 JUMP JUMPDEST DUP3 ADD SWAP2 SWAP1 PUSH0 MSTORE PUSH1 0x20 PUSH0 KECCAK256 SWAP1 JUMPDEST DUP2 SLOAD DUP2 MSTORE SWAP1 PUSH1 0x1 ADD SWAP1 PUSH1 0x20 ADD DUP1 DUP4 GT PUSH2 0x485 JUMPI DUP3 SWAP1 SUB PUSH1 0x1F AND DUP3 ADD SWAP2 JUMPDEST POP POP POP POP POP SWAP1 POP SWAP2 SWAP1 POP JUMP JUMPDEST PUSH0 PUSH1 0x20 MSTORE DUP1 PUSH0 MSTORE PUSH1 0x40 PUSH0 KECCAK256 PUSH0 SWAP2 POP SWAP1 POP DUP1 SLOAD PUSH2 0x4C9 SWAP1 PUSH2 0xC1E JUMP JUMPDEST DUP1 PUSH1 0x1F ADD PUSH1 0x20 DUP1 SWAP2 DIV MUL PUSH1 0x20 ADD PUSH1 0x40 MLOAD SWAP1 DUP2 ADD PUSH1 0x40 MSTORE DUP1 SWAP3 SWAP2 SWAP1 DUP2 DUP2 MSTORE PUSH1 0x20 ADD DUP3 DUP1 SLOAD PUSH2 0x4F5 SWAP1 PUSH2 0xC1E JUMP JUMPDEST DUP1 ISZERO PUSH2 0x540 JUMPI DUP1 PUSH1 0x1F LT PUSH2 0x517 JUMPI PUSH2 0x100 DUP1 DUP4 SLOAD DIV MUL DUP4 MSTORE SWAP2 PUSH1 0x20 ADD SWAP2 PUSH2 0x540 JUMP JUMPDEST DUP3 ADD SWAP2 SWAP1 PUSH0 MSTORE PUSH1 0x20 PUSH0 KECCAK256 SWAP1 JUMPDEST DUP2 SLOAD DUP2 MSTORE SWAP1 PUSH1 0x1 ADD SWAP1 PUSH1 0x20 ADD DUP1 DUP4 GT PUSH2 0x523 JUMPI DUP3 SWAP1 SUB PUSH1 0x1F AND DUP3 ADD SWAP2 JUMPDEST POP POP POP POP POP DUP2 JUMP JUMPDEST PUSH0 PUSH1 0x40 MLOAD SWAP1 POP SWAP1 JUMP JUMPDEST PUSH0 DUP1 REVERT JUMPDEST PUSH0 DUP1 REVERT JUMPDEST PUSH0 DUP2 SWAP1 POP SWAP2 SWAP1 POP JUMP JUMPDEST PUSH2 0x56B DUP2 PUSH2 0x559 JUMP JUMPDEST DUP2 EQ PUSH2 0x575 JUMPI PUSH0 DUP1 REVERT JUMPDEST POP JUMP JUMPDEST PUSH0 DUP2 CALLDATALOAD SWAP1 POP PUSH2 0x586 DUP2 PUSH2 0x562 JUMP JUMPDEST SWAP3 SWAP2 POP POP JUMP JUMPDEST PUSH0 PUSH1 0x20 DUP3 DUP5 SUB SLT ISZERO PUSH2 0x5A1 JUMPI PUSH2 0x5A0 PUSH2 0x551 JUMP JUMPDEST JUMPDEST PUSH0 PUSH2 0x5AE DUP5 DUP3 DUP6 ADD PUSH2 0x578 JUMP JUMPDEST SWAP2 POP POP SWAP3 SWAP2 POP POP JUMP JUMPDEST PUSH0 DUP2 MLOAD SWAP1 POP SWAP2 SWAP1 POP JUMP JUMPDEST PUSH0 DUP3 DUP3 MSTORE PUSH1 0x20 DUP3 ADD SWAP1 POP SWAP3 SWAP2 POP POP JUMP JUMPDEST PUSH0 JUMPDEST DUP4 DUP2 LT ISZERO PUSH2 0x5EE JUMPI DUP1 DUP3 ADD MLOAD DUP2 DUP5 ADD MSTORE PUSH1 0x20 DUP2 ADD SWAP1 POP PUSH2 0x5D3 JUMP JUMPDEST PUSH0 DUP5 DUP5 ADD MSTORE POP POP POP POP JUMP JUMPDEST PUSH0 PUSH1 0x1F NOT PUSH1 0x1F DUP4 ADD AND SWAP1 POP SWAP2 SWAP1 POP JUMP JUMPDEST PUSH0 PUSH2 0x613 DUP3 PUSH2 0x5B7 JUMP JUMPDEST PUSH2 0x61D DUP2 DUP6 PUSH2 0x5C1 JUMP JUMPDEST SWAP4 POP PUSH2 0x62D DUP2 DUP6 PUSH1 0x20 DUP7 ADD PUSH2 0x5D1 JUMP JUMPDEST PUSH2 0x636 DUP2 PUSH2 0x5F9 JUMP JUMPDEST DUP5 ADD SWAP2 POP POP SWAP3 SWAP2 POP POP JUMP JUMPDEST PUSH0 PUSH1 0x20 DUP3 ADD SWAP1 POP DUP2 DUP2 SUB PUSH0 DUP4 ADD MSTORE PUSH2 0x659 DUP2 DUP5 PUSH2 0x609 JUMP JUMPDEST SWAP1 POP SWAP3 SWAP2 POP POP JUMP JUMPDEST PUSH0 DUP1 REVERT JUMPDEST PUSH32 0x4E487B7100000000000000000000000000000000000000000000000000000000 PUSH0 MSTORE PUSH1 0x41 PUSH1 0x4 MSTORE PUSH1 0x24 PUSH0 REVERT JUMPDEST PUSH2 0x69B DUP3 PUSH2 0x5F9 JUMP JUMPDEST DUP2 ADD DUP2 DUP2 LT PUSH8 0xFFFFFFFFFFFFFFFF DUP3 GT OR ISZERO PUSH2 0x6BA JUMPI PUSH2 0x6B9 PUSH2 0x665 JUMP JUMPDEST JUMPDEST DUP1 PUSH1 0x40 MSTORE POP POP POP JUMP JUMPDEST PUSH0 PUSH2 0x6CC PUSH2 0x548 JUMP JUMPDEST SWAP1 POP PUSH2 0x6D8 DUP3 DUP3 PUSH2 0x692 JUMP JUMPDEST SWAP2 SWAP1 POP JUMP JUMPDEST PUSH0 DUP1 REVERT JUMPDEST PUSH0 DUP1 REVERT JUMPDEST PUSH0 DUP1 REVERT JUMPDEST PUSH0 PUSH8 0xFFFFFFFFFFFFFFFF DUP3 GT ISZERO PUSH2 0x703 JUMPI PUSH2 0x702 PUSH2 0x665 JUMP JUMPDEST JUMPDEST PUSH2 0x70C DUP3 PUSH2 0x5F9 JUMP JUMPDEST SWAP1 POP PUSH1 0x20 DUP2 ADD SWAP1 POP SWAP2 SWAP1 POP JUMP JUMPDEST DUP3 DUP2 DUP4 CALLDATACOPY PUSH0 DUP4 DUP4 ADD MSTORE POP POP POP JUMP JUMPDEST PUSH0 PUSH2 0x739 PUSH2 0x734 DUP5 PUSH2 0x6E9 JUMP JUMPDEST PUSH2 0x6C3 JUMP JUMPDEST SWAP1 POP DUP3 DUP2 MSTORE PUSH1 0x20 DUP2 ADD DUP5 DUP5 DUP5 ADD GT ISZERO PUSH2 0x755 JUMPI PUSH2 0x754 PUSH2 0x6E5 JUMP JUMPDEST JUMPDEST PUSH2 0x760 DUP5 DUP3 DUP6 PUSH2 0x719 JUMP JUMPDEST POP SWAP4 SWAP3 POP POP POP JUMP JUMPDEST PUSH0 DUP3 PUSH1 0x1F DUP4 ADD SLT PUSH2 0x77C JUMPI PUSH2 0x77B PUSH2 0x6E1 JUMP JUMPDEST JUMPDEST DUP2 CALLDATALOAD PUSH2 0x78C DUP5 DUP3 PUSH1 0x20 DUP7 ADD PUSH2 0x727 JUMP JUMPDEST SWAP2 POP POP SWAP3 SWAP2 POP POP JUMP JUMPDEST PUSH0 PUSH1 0xC0 DUP3 DUP5 SUB SLT ISZERO PUSH2 0x7AA JUMPI PUSH2 0x7A9 PUSH2 0x661 JUMP JUMPDEST JUMPDEST PUSH2 0x7B4 PUSH1 0xC0 PUSH2 0x6C3 JUMP JUMPDEST SWAP1 POP PUSH0 DUP3 ADD CALLDATALOAD PUSH8 0xFFFFFFFFFFFFFFFF DUP2 GT ISZERO PUSH2 0x7D3 JUMPI PUSH2 0x7D2 PUSH2 0x6DD JUMP JUMPDEST JUMPDEST PUSH2 0x7DF DUP5 DUP3 DUP6 ADD PUSH2 0x768 JUMP JUMPDEST PUSH0 DUP4 ADD MSTORE POP PUSH1 0x20 PUSH2 0x7F2 DUP5 DUP3 DUP6 ADD PUSH2 0x578 JUMP JUMPDEST PUSH1 0x20 DUP4 ADD MSTORE POP PUSH1 0x40 DUP3 ADD CALLDATALOAD PUSH8 0xFFFFFFFFFFFFFFFF DUP2 GT ISZERO PUSH2 0x816 JUMPI PUSH2 0x815 PUSH2 0x6DD JUMP JUMPDEST JUMPDEST PUSH2 0x822 DUP5 DUP3 DUP6 ADD PUSH2 0x768 JUMP JUMPDEST PUSH1 0x40 DUP4 ADD MSTORE POP PUSH1 0x60 PUSH2 0x836 DUP5 DUP3 DUP6 ADD PUSH2 0x578 JUMP JUMPDEST PUSH1 0x60 DUP4 ADD MSTORE POP PUSH1 0x80 DUP3 ADD CALLDATALOAD PUSH8 0xFFFFFFFFFFFFFFFF DUP2 GT ISZERO PUSH2 0x85A JUMPI PUSH2 0x859 PUSH2 0x6DD JUMP JUMPDEST JUMPDEST PUSH2 0x866 DUP5 DUP3 DUP6 ADD PUSH2 0x768 JUMP JUMPDEST PUSH1 0x80 DUP4 ADD MSTORE POP PUSH1 0xA0 PUSH2 0x87A DUP5 DUP3 DUP6 ADD PUSH2 0x578 JUMP JUMPDEST PUSH1 0xA0 DUP4 ADD MSTORE POP SWAP3 SWAP2 POP POP JUMP JUMPDEST PUSH0 PUSH1 0x20 DUP3 DUP5 SUB SLT ISZERO PUSH2 0x89B JUMPI PUSH2 0x89A PUSH2 0x551 JUMP JUMPDEST JUMPDEST PUSH0 DUP3 ADD CALLDATALOAD PUSH8 0xFFFFFFFFFFFFFFFF DUP2 GT ISZERO PUSH2 0x8B8 JUMPI PUSH2 0x8B7 PUSH2 0x555 JUMP JUMPDEST JUMPDEST PUSH2 0x8C4 DUP5 DUP3 DUP6 ADD PUSH2 0x795 JUMP JUMPDEST SWAP2 POP POP SWAP3 SWAP2 POP POP JUMP JUMPDEST PUSH0 PUSH1 0x20 DUP3 DUP5 SUB SLT ISZERO PUSH2 0x8E2 JUMPI PUSH2 0x8E1 PUSH2 0x551 JUMP JUMPDEST JUMPDEST PUSH0 DUP3 ADD CALLDATALOAD PUSH8 0xFFFFFFFFFFFFFFFF DUP2 GT ISZERO PUSH2 0x8FF JUMPI PUSH2 0x8FE PUSH2 0x555 JUMP JUMPDEST JUMPDEST PUSH2 0x90B DUP5 DUP3 DUP6 ADD PUSH2 0x768 JUMP JUMPDEST SWAP2 POP POP SWAP3 SWAP2 POP POP JUMP JUMPDEST PUSH0 DUP2 ISZERO ISZERO SWAP1 POP SWAP2 SWAP1 POP JUMP JUMPDEST PUSH2 0x928 DUP2 PUSH2 0x914 JUMP JUMPDEST DUP3 MSTORE POP POP JUMP JUMPDEST PUSH0 PUSH1 0x20 DUP3 ADD SWAP1 POP PUSH2 0x941 PUSH0 DUP4 ADD DUP5 PUSH2 0x91F JUMP JUMPDEST SWAP3 SWAP2 POP POP JUMP JUMPDEST PUSH0 PUSH20 0xFFFFFFFFFFFFFFFFFFFFFFFFFFFFFFFFFFFFFFFF DUP3 AND SWAP1 POP SWAP2 SWAP1 POP JUMP JUMPDEST PUSH0 PUSH2 0x970 DUP3 PUSH2 0x947 JUMP JUMPDEST SWAP1 POP SWAP2 SWAP1 POP JUMP JUMPDEST PUSH2 0x980 DUP2 PUSH2 0x966 JUMP JUMPDEST DUP2 EQ PUSH2 0x98A JUMPI PUSH0 DUP1 REVERT JUMPDEST POP JUMP JUMPDEST PUSH0 DUP2 CALLDATALOAD SWAP1 POP PUSH2 0x99B DUP2 PUSH2 0x977 JUMP JUMPDEST SWAP3 SWAP2 POP POP JUMP JUMPDEST PUSH0 PUSH1 0x20 DUP3 DUP5 SUB SLT ISZERO PUSH2 0x9B6 JUMPI PUSH2 0x9B5 PUSH2 0x551 JUMP JUMPDEST JUMPDEST PUSH0 PUSH2 0x9C3 DUP5 DUP3 DUP6 ADD PUSH2 0x98D JUMP JUMPDEST SWAP2 POP POP SWAP3 SWAP2 POP POP JUMP JUMPDEST PUSH32 0x4E487B7100000000000000000000000000000000000000000000000000000000 PUSH0 MSTORE PUSH1 0x11 PUSH1 0x4 MSTORE PUSH1 0x24 PUSH0 REVERT JUMPDEST PUSH0 PUSH2 0xA03 DUP3 PUSH2 0x559 JUMP JUMPDEST SWAP2 POP PUSH32 0xFFFFFFFFFFFFFFFFFFFFFFFFFFFFFFFFFFFFFFFFFFFFFFFFFFFFFFFFFFFFFFFF DUP3 SUB PUSH2 0xA35 JUMPI PUSH2 0xA34 PUSH2 0x9CC JUMP JUMPDEST JUMPDEST PUSH1 0x1 DUP3 ADD SWAP1 POP SWAP2 SWAP1 POP JUMP JUMPDEST PUSH32 0x4E487B7100000000000000000000000000000000000000000000000000000000 PUSH0 MSTORE PUSH1 0x12 PUSH1 0x4 MSTORE PUSH1 0x24 PUSH0 REVERT JUMPDEST PUSH0 PUSH2 0xA77 DUP3 PUSH2 0x559 JUMP JUMPDEST SWAP2 POP PUSH2 0xA82 DUP4 PUSH2 0x559 JUMP JUMPDEST SWAP3 POP DUP3 PUSH2 0xA92 JUMPI PUSH2 0xA91 PUSH2 0xA40 JUMP JUMPDEST JUMPDEST DUP3 DUP3 DIV SWAP1 POP SWAP3 SWAP2 POP POP JUMP JUMPDEST PUSH0 PUSH2 0xAA7 DUP3 PUSH2 0x559 JUMP JUMPDEST SWAP2 POP PUSH2 0xAB2 DUP4 PUSH2 0x559 JUMP JUMPDEST SWAP3 POP DUP3 DUP3 SUB SWAP1 POP DUP2 DUP2 GT ISZERO PUSH2 0xACA JUMPI PUSH2 0xAC9 PUSH2 0x9CC JUMP JUMPDEST JUMPDEST SWAP3 SWAP2 POP POP JUMP JUMPDEST PUSH0 PUSH2 0xADA DUP3 PUSH2 0x559 JUMP JUMPDEST SWAP2 POP PUSH2 0xAE5 DUP4 PUSH2 0x559 JUMP JUMPDEST SWAP3 POP DUP3 PUSH2 0xAF5 JUMPI PUSH2 0xAF4 PUSH2 0xA40 JUMP JUMPDEST JUMPDEST DUP3 DUP3 MOD SWAP1 POP SWAP3 SWAP2 POP POP JUMP JUMPDEST PUSH0 PUSH2 0xB0A DUP3 PUSH2 0x559 JUMP JUMPDEST SWAP2 POP PUSH2 0xB15 DUP4 PUSH2 0x559 JUMP JUMPDEST SWAP3 POP DUP3 DUP3 ADD SWAP1 POP DUP1 DUP3 GT ISZERO PUSH2 0xB2D JUMPI PUSH2 0xB2C PUSH2 0x9CC JUMP JUMPDEST JUMPDEST SWAP3 SWAP2 POP POP JUMP JUMPDEST PUSH32 0x4E487B7100000000000000000000000000000000000000000000000000000000 PUSH0 MSTORE PUSH1 0x32 PUSH1 0x4 MSTORE PUSH1 0x24 PUSH0 REVERT JUMPDEST PUSH0 DUP2 SWAP1 POP SWAP3 SWAP2 POP POP JUMP JUMPDEST PUSH0 PUSH2 0xB74 DUP3 PUSH2 0x5B7 JUMP JUMPDEST PUSH2 0xB7E DUP2 DUP6 PUSH2 0xB60 JUMP JUMPDEST SWAP4 POP PUSH2 0xB8E DUP2 DUP6 PUSH1 0x20 DUP7 ADD PUSH2 0x5D1 JUMP JUMPDEST DUP1 DUP5 ADD SWAP2 POP POP SWAP3 SWAP2 POP POP JUMP JUMPDEST PUSH0 PUSH2 0xBA5 DUP3 DUP10 PUSH2 0xB6A JUMP JUMPDEST SWAP2 POP PUSH2 0xBB1 DUP3 DUP9 PUSH2 0xB6A JUMP JUMPDEST SWAP2 POP PUSH2 0xBBD DUP3 DUP8 PUSH2 0xB6A JUMP JUMPDEST SWAP2 POP PUSH2 0xBC9 DUP3 DUP7 PUSH2 0xB6A JUMP JUMPDEST SWAP2 POP PUSH2 0xBD5 DUP3 DUP6 PUSH2 0xB6A JUMP JUMPDEST SWAP2 POP PUSH2 0xBE1 DUP3 DUP5 PUSH2 0xB6A JUMP JUMPDEST SWAP2 POP DUP2 SWAP1 POP SWAP8 SWAP7 POP POP POP POP POP POP POP JUMP JUMPDEST PUSH32 0x4E487B7100000000000000000000000000000000000000000000000000000000 PUSH0 MSTORE PUSH1 0x22 PUSH1 0x4 MSTORE PUSH1 0x24 PUSH0 REVERT JUMPDEST PUSH0 PUSH1 0x2 DUP3 DIV SWAP1 POP PUSH1 0x1 DUP3 AND DUP1 PUSH2 0xC35 JUMPI PUSH1 0x7F DUP3 AND SWAP2 POP JUMPDEST PUSH1 0x20 DUP3 LT DUP2 SUB PUSH2 0xC48 JUMPI PUSH2 0xC47 PUSH2 0xBF1 JUMP JUMPDEST JUMPDEST POP SWAP2 SWAP1 POP JUMP JUMPDEST PUSH0 DUP2 SWAP1 POP DUP2 PUSH0 MSTORE PUSH1 0x20 PUSH0 KECCAK256 SWAP1 POP SWAP2 SWAP1 POP JUMP JUMPDEST PUSH0 PUSH1 0x20 PUSH1 0x1F DUP4 ADD DIV SWAP1 POP SWAP2 SWAP1 POP JUMP JUMPDEST PUSH0 DUP3 DUP3 SHL SWAP1 POP SWAP3 SWAP2 POP POP JUMP JUMPDEST PUSH0 PUSH1 0x8 DUP4 MUL PUSH2 0xCAA PUSH32 0xFFFFFFFFFFFFFFFFFFFFFFFFFFFFFFFFFFFFFFFFFFFFFFFFFFFFFFFFFFFFFFFF DUP3 PUSH2 0xC6F JUMP JUMPDEST PUSH2 0xCB4 DUP7 DUP4 PUSH2 0xC6F JUMP JUMPDEST SWAP6 POP DUP1 NOT DUP5 AND SWAP4 POP DUP1 DUP7 AND DUP5 OR SWAP3 POP POP POP SWAP4 SWAP3 POP POP POP JUMP JUMPDEST PUSH0 DUP2 SWAP1 POP SWAP2 SWAP1 POP JUMP JUMPDEST PUSH0 PUSH2 0xCEF PUSH2 0xCEA PUSH2 0xCE5 DUP5 PUSH2 0x559 JUMP JUMPDEST PUSH2 0xCCC JUMP JUMPDEST PUSH2 0x559 JUMP JUMPDEST SWAP1 POP SWAP2 SWAP1 POP JUMP JUMPDEST PUSH0 DUP2 SWAP1 POP SWAP2 SWAP1 POP JUMP JUMPDEST PUSH2 0xD08 DUP4 PUSH2 0xCD5 JUMP JUMPDEST PUSH2 0xD1C PUSH2 0xD14 DUP3 PUSH2 0xCF6 JUMP JUMPDEST DUP5 DUP5 SLOAD PUSH2 0xC7B JUMP JUMPDEST DUP3 SSTORE POP POP POP POP JUMP JUMPDEST PUSH0 SWAP1 JUMP JUMPDEST PUSH2 0xD30 PUSH2 0xD24 JUMP JUMPDEST PUSH2 0xD3B DUP2 DUP5 DUP5 PUSH2 0xCFF JUMP JUMPDEST POP POP POP JUMP JUMPDEST JUMPDEST DUP2 DUP2 LT ISZERO PUSH2 0xD5E JUMPI PUSH2 0xD53 PUSH0 DUP3 PUSH2 0xD28 JUMP JUMPDEST PUSH1 0x1 DUP2 ADD SWAP1 POP PUSH2 0xD41 JUMP JUMPDEST POP POP JUMP JUMPDEST PUSH1 0x1F DUP3 GT ISZERO PUSH2 0xDA3 JUMPI PUSH2 0xD74 DUP2 PUSH2 0xC4E JUMP JUMPDEST PUSH2 0xD7D DUP5 PUSH2 0xC60 JUMP JUMPDEST DUP2 ADD PUSH1 0x20 DUP6 LT ISZERO PUSH2 0xD8C JUMPI DUP2 SWAP1 POP JUMPDEST PUSH2 0xDA0 PUSH2 0xD98 DUP6 PUSH2 0xC60 JUMP JUMPDEST DUP4 ADD DUP3 PUSH2 0xD40 JUMP JUMPDEST POP POP JUMPDEST POP POP POP JUMP JUMPDEST PUSH0 DUP3 DUP3 SHR SWAP1 POP SWAP3 SWAP2 POP POP JUMP JUMPDEST PUSH0 PUSH2 0xDC3 PUSH0 NOT DUP5 PUSH1 0x8 MUL PUSH2 0xDA8 JUMP JUMPDEST NOT DUP1 DUP4 AND SWAP2 POP POP SWAP3 SWAP2 POP POP JUMP JUMPDEST PUSH0 PUSH2 0xDDB DUP4 DUP4 PUSH2 0xDB4 JUMP JUMPDEST SWAP2 POP DUP3 PUSH1 0x2 MUL DUP3 OR SWAP1 POP SWAP3 SWAP2 POP POP JUMP JUMPDEST PUSH2 0xDF4 DUP3 PUSH2 0x5B7 JUMP JUMPDEST PUSH8 0xFFFFFFFFFFFFFFFF DUP2 GT ISZERO PUSH2 0xE0D JUMPI PUSH2 0xE0C PUSH2 0x665 JUMP JUMPDEST JUMPDEST PUSH2 0xE17 DUP3 SLOAD PUSH2 0xC1E JUMP JUMPDEST PUSH2 0xE22 DUP3 DUP3 DUP6 PUSH2 0xD62 JUMP JUMPDEST PUSH0 PUSH1 0x20 SWAP1 POP PUSH1 0x1F DUP4 GT PUSH1 0x1 DUP2 EQ PUSH2 0xE53 JUMPI PUSH0 DUP5 ISZERO PUSH2 0xE41 JUMPI DUP3 DUP8 ADD MLOAD SWAP1 POP JUMPDEST PUSH2 0xE4B DUP6 DUP3 PUSH2 0xDD0 JUMP JUMPDEST DUP7 SSTORE POP PUSH2 0xEB2 JUMP JUMPDEST PUSH1 0x1F NOT DUP5 AND PUSH2 0xE61 DUP7 PUSH2 0xC4E JUMP JUMPDEST PUSH0 JUMPDEST DUP3 DUP2 LT ISZERO PUSH2 0xE88 JUMPI DUP5 DUP10 ADD MLOAD DUP3 SSTORE PUSH1 0x1 DUP3 ADD SWAP2 POP PUSH1 0x20 DUP6 ADD SWAP5 POP PUSH1 0x20 DUP2 ADD SWAP1 POP PUSH2 0xE63 JUMP JUMPDEST DUP7 DUP4 LT ISZERO PUSH2 0xEA5 JUMPI DUP5 DUP10 ADD MLOAD PUSH2 0xEA1 PUSH1 0x1F DUP10 AND DUP3 PUSH2 0xDB4 JUMP JUMPDEST DUP4 SSTORE POP JUMPDEST PUSH1 0x1 PUSH1 0x2 DUP9 MUL ADD DUP9 SSTORE POP POP POP JUMPDEST POP POP POP POP POP POP JUMP JUMPDEST PUSH32 0x495046532068617368206E6F7420666F756E6420666F7220746865206163636F PUSH0 DUP3 ADD MSTORE PUSH32 0x756E742E20506C6561736520736176652049504653486173682061626F757420 PUSH1 0x20 DUP3 ADD MSTORE PUSH32 0x74686973206163636F756E742E00000000000000000000000000000000000000 PUSH1 0x40 DUP3 ADD MSTORE POP JUMP JUMPDEST PUSH0 PUSH2 0xF3A PUSH1 0x4D DUP4 PUSH2 0x5C1 JUMP JUMPDEST SWAP2 POP PUSH2 0xF45 DUP3 PUSH2 0xEBA JUMP JUMPDEST PUSH1 0x60 DUP3 ADD SWAP1 POP SWAP2 SWAP1 POP JUMP JUMPDEST PUSH0 PUSH1 0x20 DUP3 ADD SWAP1 POP DUP2 DUP2 SUB PUSH0 DUP4 ADD MSTORE PUSH2 0xF67 DUP2 PUSH2 0xF2E JUMP JUMPDEST SWAP1 POP SWAP2 SWAP1 POP JUMP INVALID LOG2 PUSH5 0x6970667358 0x22 SLT KECCAK256 SHR 0x29 TIMESTAMP PUSH13 0xF6810CA5465D4F347290D6784C 0xED CODECOPY DELEGATECALL SELFBALANCE 0xB2 0x2C 0x27 CHAINID LOG1 0xF8 DUP1 0xAE 0xDE 0xC6 DUP16 PUSH5 0x736F6C6343 STOP ADDMOD ISZERO STOP CALLER "
				},
				"gasEstimates": {
					"creation": {
						"codeDepositCost": "800800",
						"executionCost": "836",
						"totalCost": "801636"
					},
					"external": {
						"generateIPFSHash((string,uint256,string,uint256,string,uint256))": "infinite",
						"getIPFSHash(address)": "infinite",
						"ipfsHashes(address)": "infinite",
						"saveIPFSHash(string)": "infinite",
						"toString(uint256)": "infinite"
					}
				},
				"methodIdentifiers": {
					"generateIPFSHash((string,uint256,string,uint256,string,uint256))": "8f767c6f",
					"getIPFSHash(address)": "cb0ab425",
					"ipfsHashes(address)": "e1e322ed",
					"saveIPFSHash(string)": "b075e746",
					"toString(uint256)": "6900a3ae"
				}
			},
			"storageLayout": {
				"storage": [
					{
						"astId": 19,
						"contract": ".deps/contracts/IPFSStorage.sol:IPFSStorage",
						"label": "ipfsHashes",
						"offset": 0,
						"slot": "0",
						"type": "t_mapping(t_address,t_string_storage)"
					}
				],
				"types": {
					"t_address": {
						"encoding": "inplace",
						"label": "address",
						"numberOfBytes": "20"
					},
					"t_mapping(t_address,t_string_storage)": {
						"encoding": "mapping",
						"key": "t_address",
						"label": "mapping(address => string)",
						"numberOfBytes": "32",
						"value": "t_string_storage"
					},
					"t_string_storage": {
						"encoding": "bytes",
						"label": "string",
						"numberOfBytes": "32"
					}
				}
			},
			"userdoc": {
				"kind": "user",
				"methods": {},
				"version": 1
			}
		}
	}
}